{"contracts/TokenFactory.sol":{"TokenFactory":{"abi":[{"inputs":[],"name":"AllocSum","type":"error"},{"inputs":[],"name":"AlreadyGraduated","type":"error"},{"inputs":[],"name":"AmountZero","type":"error"},{"inputs":[],"name":"AntiBotCfg","type":"error"},{"inputs":[],"name":"ApproveFail","type":"error"},{"inputs":[],"name":"BurnAgentNotSet","type":"error"},{"inputs":[],"name":"CreationFeeFail","type":"error"},{"inputs":[],"name":"CreatorFeeFail","type":"error"},{"inputs":[],"name":"CreatorTokensBurned_","type":"error"},{"inputs":[],"name":"CtoMaxBuy","type":"error"},{"inputs":[],"name":"CtoMaxWallet","type":"error"},{"inputs":[],"name":"DexFeeCap","type":"error"},{"inputs":[],"name":"EcoFeeFail","type":"error"},{"inputs":[],"name":"FirstBuyLocked","type":"error"},{"inputs":[],"name":"FirstBuyTooSmall","type":"error"},{"inputs":[],"name":"InsufficientEthFactory","type":"error"},{"inputs":[],"name":"InsufficientValue","type":"error"},{"inputs":[],"name":"InvalidBurnAgent","type":"error"},{"inputs":[],"name":"InvalidInitialization","type":"error"},{"inputs":[],"name":"InvalidLockTier","type":"error"},{"inputs":[],"name":"InvalidSalt","type":"error"},{"inputs":[],"name":"InvalidTreasury","type":"error"},{"inputs":[],"name":"MustSendEth","type":"error"},{"inputs":[],"name":"NetEthZero","type":"error"},{"inputs":[],"name":"NoBalance","type":"error"},{"inputs":[],"name":"NoLiquidity","type":"error"},{"inputs":[],"name":"NoLockedFirstBuy","type":"error"},{"inputs":[],"name":"NotInitialized","type":"error"},{"inputs":[],"name":"NotInitializing","type":"error"},{"inputs":[],"name":"NothingToAddLP","type":"error"},{"inputs":[],"name":"NothingToClaim","type":"error"},{"inputs":[],"name":"OnlyCreator","type":"error"},{"inputs":[],"name":"OnlyOwner","type":"error"},{"inputs":[{"internalType":"address","name":"owner","type":"address"}],"name":"OwnableInvalidOwner","type":"error"},{"inputs":[{"internalType":"address","name":"account","type":"address"}],"name":"OwnableUnauthorizedAccount","type":"error"},{"inputs":[],"name":"PairNotCreated","type":"error"},{"inputs":[],"name":"Reentrancy","type":"error"},{"inputs":[],"name":"RewardKindInvalid","type":"error"},{"inputs":[],"name":"SellerPayFail","type":"error"},{"inputs":[],"name":"TokenAlreadyGraduated","type":"error"},{"inputs":[],"name":"TokenBanned_","type":"error"},{"inputs":[],"name":"TokenMissing","type":"error"},{"inputs":[],"name":"TokensLocked","type":"error"},{"inputs":[],"name":"WithdrawFail","type":"error"},{"anonymous":false,"inputs":[{"indexed":true,"internalType":"address","name":"agent","type":"address"}],"name":"BurnAgentUpdated","type":"event"},{"anonymous":false,"inputs":[{"indexed":true,"internalType":"address","name":"to","type":"address"},{"indexed":false,"internalType":"uint256","name":"amount","type":"uint256"}],"name":"CreationFeesWithdrawn","type":"event"},{"anonymous":false,"inputs":[{"indexed":true,"internalType":"address","name":"tokenAddress","type":"address"},{"indexed":true,"internalType":"address","name":"creator","type":"address"},{"indexed":false,"internalType":"uint256","name":"amount","type":"uint256"}],"name":"CreatorFirstBuyClaimed","type":"event"},{"anonymous":false,"inputs":[{"indexed":true,"internalType":"address","name":"tokenAddress","type":"address"},{"indexed":false,"internalType":"uint256","name":"amount","type":"uint256"}],"name":"CreatorTokensBurned","type":"event"},{"anonymous":false,"inputs":[{"indexed":true,"internalType":"address","name":"tokenAddress","type":"address"},{"indexed":true,"internalType":"address","name":"creator","type":"address"},{"indexed":false,"internalType":"uint256","name":"amount","type":"uint256"}],"name":"CreatorTokensClaimed","type":"event"},{"anonymous":false,"inputs":[{"indexed":true,"internalType":"address","name":"treasury","type":"address"}],"name":"EcosystemTreasuryUpdated","type":"event"},{"anonymous":false,"inputs":[{"indexed":true,"internalType":"address","name":"to","type":"address"},{"indexed":false,"internalType":"uint256","name":"amount","type":"uint256"}],"name":"FeesWithdrawn","type":"event"},{"anonymous":false,"inputs":[{"indexed":false,"internalType":"uint64","name":"version","type":"uint64"}],"name":"Initialized","type":"event"},{"anonymous":false,"inputs":[{"indexed":true,"internalType":"address","name":"tokenAddress","type":"address"},{"indexed":true,"internalType":"address","name":"pair","type":"address"},{"indexed":false,"internalType":"uint256","name":"ethAmount","type":"uint256"},{"indexed":false,"internalType":"uint256","name":"tokenAmount","type":"uint256"}],"name":"LiquidityAdded","type":"event"},{"anonymous":false,"inputs":[{"indexed":false,"internalType":"uint256","name":"amountWei","type":"uint256"}],"name":"MinCtoFirstBuyUpdated","type":"event"},{"anonymous":false,"inputs":[{"indexed":true,"internalType":"address","name":"previousOwner","type":"address"},{"indexed":true,"internalType":"address","name":"newOwner","type":"address"}],"name":"OwnershipTransferred","type":"event"},{"anonymous":false,"inputs":[{"indexed":true,"internalType":"address","name":"tokenAddress","type":"address"},{"indexed":false,"internalType":"string","name":"reason","type":"string"}],"name":"TokenBanned","type":"event"},{"anonymous":false,"inputs":[{"indexed":true,"internalType":"address","name":"tokenAddress","type":"address"},{"indexed":true,"internalType":"address","name":"creator","type":"address"},{"indexed":false,"internalType":"uint256","name":"timestamp","type":"uint256"},{"indexed":false,"internalType":"bool","name":"creatorTokensBurned","type":"bool"}],"name":"TokenCreated","type":"event"},{"anonymous":false,"inputs":[{"indexed":true,"internalType":"address","name":"tokenAddress","type":"address"},{"indexed":false,"internalType":"uint256","name":"finalMarketCap","type":"uint256"},{"indexed":true,"internalType":"address","name":"dexPair","type":"address"}],"name":"TokenGraduated","type":"event"},{"anonymous":false,"inputs":[{"indexed":true,"internalType":"address","name":"tokenAddress","type":"address"},{"indexed":true,"internalType":"address","name":"buyer","type":"address"},{"indexed":false,"internalType":"uint256","name":"ethIn","type":"uint256"},{"indexed":false,"internalType":"uint256","name":"tokenOut","type":"uint256"},{"indexed":false,"internalType":"uint256","name":"newPrice","type":"uint256"}],"name":"TokenPurchased","type":"event"},{"anonymous":false,"inputs":[{"indexed":true,"internalType":"address","name":"tokenAddress","type":"address"},{"indexed":true,"internalType":"address","name":"seller","type":"address"},{"indexed":false,"internalType":"uint256","name":"tokenIn","type":"uint256"},{"indexed":false,"internalType":"uint256","name":"ethOut","type":"uint256"},{"indexed":false,"internalType":"uint256","name":"newPrice","type":"uint256"}],"name":"TokenSold","type":"event"},{"anonymous":false,"inputs":[{"indexed":true,"internalType":"address","name":"tokenAddress","type":"address"}],"name":"TokenUnbanned","type":"event"},{"inputs":[],"name":"ANTIBOT_MAX_DURATION_SEC","outputs":[{"internalType":"uint32","name":"","type":"uint32"}],"stateMutability":"view","type":"function"},{"inputs":[],"name":"BURNAGENT_FEE","outputs":[{"internalType":"uint256","name":"","type":"uint256"}],"stateMutability":"view","type":"function"},{"inputs":[],"name":"CREATION_MIN_FEE","outputs":[{"internalType":"uint256","name":"","type":"uint256"}],"stateMutability":"view","type":"function"},{"inputs":[],"name":"CREATOR_ALLOCATION","outputs":[{"internalType":"uint256","name":"","type":"uint256"}],"stateMutability":"view","type":"function"},{"inputs":[],"name":"CREATOR_FEE","outputs":[{"internalType":"uint256","name":"","type":"uint256"}],"stateMutability":"view","type":"function"},{"inputs":[],"name":"CTO_MAX_BPS","outputs":[{"internalType":"uint16","name":"","type":"uint16"}],"stateMutability":"view","type":"function"},{"inputs":[],"name":"ECOSYSTEM_FEE","outputs":[{"internalType":"uint256","name":"","type":"uint256"}],"stateMutability":"view","type":"function"},{"inputs":[],"name":"FIRST_BUY_LOCK_12M","outputs":[{"internalType":"uint8","name":"","type":"uint8"}],"stateMutability":"view","type":"function"},{"inputs":[],"name":"FIRST_BUY_LOCK_3M","outputs":[{"internalType":"uint8","name":"","type":"uint8"}],"stateMutability":"view","type":"function"},{"inputs":[],"name":"FIRST_BUY_LOCK_6M","outputs":[{"internalType":"uint8","name":"","type":"uint8"}],"stateMutability":"view","type":"function"},{"inputs":[],"name":"FIRST_BUY_LOCK_NONE","outputs":[{"internalType":"uint8","name":"","type":"uint8"}],"stateMutability":"view","type":"function"},{"inputs":[],"name":"GRADUATION_TARGET","outputs":[{"internalType":"uint256","name":"","type":"uint256"}],"stateMutability":"view","type":"function"},{"inputs":[],"name":"MAX_TOTAL_TAX_BPS","outputs":[{"internalType":"uint16","name":"","type":"uint16"}],"stateMutability":"view","type":"function"},{"inputs":[],"name":"MIN_CREATOR_FIRST_BUY","outputs":[{"internalType":"uint256","name":"","type":"uint256"}],"stateMutability":"view","type":"function"},{"inputs":[],"name":"TRADING_SUPPLY","outputs":[{"internalType":"uint256","name":"","type":"uint256"}],"stateMutability":"view","type":"function"},{"inputs":[],"name":"VAULT_TOKEN_ADDRESS_SUFFIX","outputs":[{"internalType":"uint256","name":"","type":"uint256"}],"stateMutability":"view","type":"function"},{"inputs":[],"name":"VESTING_PERIOD","outputs":[{"internalType":"uint256","name":"","type":"uint256"}],"stateMutability":"view","type":"function"},{"inputs":[],"name":"WETH","outputs":[{"internalType":"address","name":"","type":"address"}],"stateMutability":"view","type":"function"},{"inputs":[{"internalType":"uint256","name":"","type":"uint256"}],"name":"allTokens","outputs":[{"internalType":"address","name":"","type":"address"}],"stateMutability":"view","type":"function"},{"inputs":[{"internalType":"address","name":"tokenAddress","type":"address"},{"internalType":"string","name":"reason","type":"string"}],"name":"banToken","outputs":[],"stateMutability":"nonpayable","type":"function"},{"inputs":[{"internalType":"address","name":"","type":"address"}],"name":"bannedTokens","outputs":[{"internalType":"bool","name":"","type":"bool"}],"stateMutability":"view","type":"function"},{"inputs":[{"internalType":"address","name":"","type":"address"}],"name":"bondingCurves","outputs":[{"internalType":"uint256","name":"virtualETH","type":"uint256"},{"internalType":"uint256","name":"virtualToken","type":"uint256"},{"internalType":"uint256","name":"realETH","type":"uint256"},{"internalType":"uint256","name":"realToken","type":"uint256"},{"internalType":"uint256","name":"targetETH","type":"uint256"}],"stateMutability":"view","type":"function"},{"inputs":[],"name":"burnAgent","outputs":[{"internalType":"address","name":"","type":"address"}],"stateMutability":"view","type":"function"},{"inputs":[{"internalType":"address","name":"tokenAddress","type":"address"}],"name":"buyToken","outputs":[],"stateMutability":"payable","type":"function"},{"inputs":[{"internalType":"address","name":"tokenAddress","type":"address"}],"name":"claimCreatorTokens","outputs":[],"stateMutability":"nonpayable","type":"function"},{"inputs":[{"internalType":"address","name":"tokenAddress","type":"address"}],"name":"claimFirstBuyTokens","outputs":[],"stateMutability":"nonpayable","type":"function"},{"inputs":[{"internalType":"string","name":"name_","type":"string"},{"internalType":"string","name":"symbol_","type":"string"},{"internalType":"string","name":"description_","type":"string"},{"internalType":"string","name":"imageUrl_","type":"string"},{"internalType":"string","name":"website_","type":"string"},{"internalType":"string","name":"telegram_","type":"string"},{"internalType":"string","name":"twitter_","type":"string"},{"internalType":"string","name":"discord_","type":"string"},{"internalType":"bool","name":"burnCreatorTokens","type":"bool"},{"internalType":"uint8","name":"firstBuyLockTier","type":"uint8"},{"internalType":"bool","name":"paysDividends_","type":"bool"},{"components":[{"internalType":"uint8","name":"rewardKind","type":"uint8"},{"internalType":"uint16","name":"totalTaxBps","type":"uint16"},{"internalType":"uint16","name":"allocFundsBps","type":"uint16"},{"internalType":"uint16","name":"allocBurnBps","type":"uint16"},{"internalType":"uint16","name":"allocDividendBps","type":"uint16"},{"internalType":"uint16","name":"allocLpBps","type":"uint16"},{"internalType":"address","name":"fundsWallet","type":"address"},{"internalType":"uint32","name":"antiBotDurationSec","type":"uint32"},{"internalType":"uint16","name":"antiBotMaxTxBps","type":"uint16"},{"internalType":"uint16","name":"antiBotMaxWalletBps","type":"uint16"},{"internalType":"address","name":"dividendExempt","type":"address"}],"internalType":"struct TokenFactory.LaunchConfig","name":"lc","type":"tuple"},{"internalType":"bytes32","name":"salt","type":"bytes32"}],"name":"createToken","outputs":[{"internalType":"address","name":"","type":"address"}],"stateMutability":"payable","type":"function"},{"inputs":[],"name":"creationFeesCollected","outputs":[{"internalType":"uint256","name":"","type":"uint256"}],"stateMutability":"view","type":"function"},{"inputs":[{"internalType":"address","name":"","type":"address"}],"name":"creatorFirstBuyLocked","outputs":[{"internalType":"uint256","name":"","type":"uint256"}],"stateMutability":"view","type":"function"},{"inputs":[{"internalType":"address","name":"","type":"address"}],"name":"creatorTokensLocked","outputs":[{"internalType":"uint256","name":"","type":"uint256"}],"stateMutability":"view","type":"function"},{"inputs":[],"name":"dexFactory","outputs":[{"internalType":"contract IUniswapV2Factory","name":"","type":"address"}],"stateMutability":"view","type":"function"},{"inputs":[],"name":"ecosystemTreasury","outputs":[{"internalType":"address","name":"","type":"address"}],"stateMutability":"view","type":"function"},{"inputs":[{"internalType":"address","name":"tokenDeployer_","type":"address"}],"name":"initialize","outputs":[],"stateMutability":"nonpayable","type":"function"},{"inputs":[],"name":"minCtoFirstBuyWei","outputs":[{"internalType":"uint256","name":"","type":"uint256"}],"stateMutability":"view","type":"function"},{"inputs":[],"name":"owner","outputs":[{"internalType":"address","name":"","type":"address"}],"stateMutability":"view","type":"function"},{"inputs":[],"name":"renounceOwnership","outputs":[],"stateMutability":"nonpayable","type":"function"},{"inputs":[],"name":"router","outputs":[{"internalType":"contract IUniswapV2Router02","name":"","type":"address"}],"stateMutability":"view","type":"function"},{"inputs":[{"internalType":"address","name":"tokenAddress","type":"address"},{"internalType":"uint256","name":"tokenAmount","type":"uint256"}],"name":"sellToken","outputs":[],"stateMutability":"nonpayable","type":"function"},{"inputs":[{"internalType":"address","name":"_agent","type":"address"}],"name":"setBurnAgent","outputs":[],"stateMutability":"nonpayable","type":"function"},{"inputs":[{"internalType":"address","name":"_treasury","type":"address"}],"name":"setEcosystemTreasury","outputs":[],"stateMutability":"nonpayable","type":"function"},{"inputs":[{"internalType":"uint256","name":"amountWei","type":"uint256"}],"name":"setMinCtoFirstBuyWei","outputs":[],"stateMutability":"nonpayable","type":"function"},{"inputs":[],"name":"tokenDeployer","outputs":[{"internalType":"contract ITokenDeployer","name":"","type":"address"}],"stateMutability":"view","type":"function"},{"inputs":[{"internalType":"address","name":"","type":"address"}],"name":"tokenInfo","outputs":[{"internalType":"address","name":"tokenAddress","type":"address"},{"internalType":"string","name":"name","type":"string"},{"internalType":"string","name":"symbol","type":"string"},{"internalType":"string","name":"description","type":"string"},{"internalType":"string","name":"imageUrl","type":"string"},{"internalType":"string","name":"website","type":"string"},{"internalType":"string","name":"telegram","type":"string"},{"internalType":"string","name":"twitter","type":"string"},{"internalType":"string","name":"discord","type":"string"},{"internalType":"address","name":"creator","type":"address"},{"internalType":"uint256","name":"totalSupply","type":"uint256"},{"internalType":"uint256","name":"currentPrice","type":"uint256"},{"internalType":"uint256","name":"marketCap","type":"uint256"},{"internalType":"uint256","name":"createdAt","type":"uint256"},{"internalType":"bool","name":"graduated","type":"bool"},{"internalType":"bool","name":"creatorTokensBurned","type":"bool"},{"internalType":"uint256","name":"vestingEndTime","type":"uint256"},{"internalType":"address","name":"dexPair","type":"address"},{"internalType":"uint8","name":"firstBuyLockTier","type":"uint8"},{"internalType":"uint256","name":"firstBuyUnlockTime","type":"uint256"},{"internalType":"bool","name":"paysDividends","type":"bool"},{"internalType":"uint8","name":"rewardKind","type":"uint8"},{"internalType":"uint16","name":"totalTaxBps","type":"uint16"},{"internalType":"uint16","name":"allocFundsBps","type":"uint16"},{"internalType":"uint16","name":"allocBurnBps","type":"uint16"},{"internalType":"uint16","name":"allocDividendBps","type":"uint16"},{"internalType":"uint16","name":"allocLpBps","type":"uint16"},{"internalType":"address","name":"fundsWallet","type":"address"},{"internalType":"uint32","name":"antiBotDurationSec","type":"uint32"},{"internalType":"uint16","name":"antiBotMaxTxBps","type":"uint16"},{"internalType":"uint16","name":"antiBotMaxWalletBps","type":"uint16"},{"internalType":"address","name":"dividendExempt","type":"address"}],"stateMutability":"view","type":"function"},{"inputs":[],"name":"totalFeesCollected","outputs":[{"internalType":"uint256","name":"","type":"uint256"}],"stateMutability":"view","type":"function"},{"inputs":[{"internalType":"address","name":"newOwner","type":"address"}],"name":"transferOwnership","outputs":[],"stateMutability":"nonpayable","type":"function"},{"inputs":[{"internalType":"address","name":"tokenAddress","type":"address"}],"name":"unbanToken","outputs":[],"stateMutability":"nonpayable","type":"function"},{"inputs":[],"name":"withdrawCreationFees","outputs":[],"stateMutability":"nonpayable","type":"function"},{"inputs":[],"name":"withdrawFees","outputs":[],"stateMutability":"nonpayable","type":"function"},{"stateMutability":"payable","type":"receive"}],"evm":{"bytecode":{"linkReferences":{},"object":"608080604052346080576001600055600280546001600160a01b03199081167310ed43c718714eb63d5aa57b78b54704e256024e1790915560038054821673ca143ce32fe78f1f7019d7d551a6402fc5350c731790556004805490911673bb4cdb9cbd36b01bd1cbaebf2de08d9173bc095c17905561434690816100868239f35b600080fdfe61036080604052600436101561001e575b50361561001c57600080fd5b005b600061024052610240513560e01c908162c7fa85146133df575080630197d97214612f1c578063109e06e1146133b45780631110b8ac146132405780631a08a9c8146132215780631a7dfa9f1461301c5780632a2dae0a146131f65780632bc7306314612f1c578063307770611461313857806330a9c1b7146131195780633922215214613021578063406b283a1461301c578063476343ee14612f4a5780634c0abcdb14612f2157806355371a6114612f1c57806360c6d8ae14612efc578063622d778414612ede578063634282af14612e9c57806366bb288014612e7c5780636f5885d014612ddf578063715018a614612d7e5780637bc4f88814612d5f5780637e72fb5214612ac75780638021a1e21461294357806384666352146129235780638da5cb5b146128eb57806392c93e8714610d3a57806395bd877814610eb45780639b16279314610e405780639b243f3714610e02578063a38d2da114610de4578063ad5c464814610db9578063b04b99d414610d3f578063b35ebd2e14610d3a578063b8d8fbb414610d0f578063b9a059f714610ca5578063c1a844f014610c81578063c365f4af14610c56578063c4d66de814610a8e578063d346554614610a6e578063e16e7d4414610a50578063e91b3cb614610a0d578063f2fde38b146109dd578063f332a2451461093e578063f464e7db146105f4578063f5dab71114610294578063f887ea40146102695763fadd5431146102425738610010565b346102625761024051366003190112610262576020604051620151808152f35b6102405180fd5b346102625761024051366003190112610262576002546040516001600160a01b039091168152602090f35b34610262576020366003190112610262576001600160a01b036102b5613419565b6102408051919092169052600a602052516040902080546001600160a01b0316906102e26001820161358e565b610320526102f26002820161358e565b610340526103026003820161358e565b9161030f6004830161358e565b9261031c6005840161358e565b936103296006850161358e565b946103366007860161358e565b956103436008870161358e565b600160a01b6001900360098801541661030052600a87015497600b88015492600c89015494600d8a015496600e8b015498600f8c01549a60108d01549c60118101546102805260128101546102a052601301546102e0526040516102c0526102c051526102c05160200161040090526102c0516104000161032051906103c891613632565b6102c05181036102c0516040015261034051906103e491613632565b6102c05181036102c051606001526103fb91613632565b6102c05181036102c0516080015261041291613632565b6102c05181036102c05160a0015261042991613632565b6102c05181036102c05160c0015261044091613632565b6102c05181036102c05160e0015261045791613632565b6102c05181036102c051610100015261046f91613632565b96610300516102c05161012001526102c05161014001526102c05161016001526102c05161018001526102c0516101a0015260ff811615156102c0516101c0015260081c60ff1615156102c0516101e001526102c0516102000152600160a01b6001900381166102c051610220015260a01c60ff166102c0516102400152610280516102c05161026001526102a05160ff1615156102c05161028001526102a05160081c60ff166102c0516102a001526102a05160101c61ffff166102c0516102c001526102a05160201c61ffff166102c0516102e001526102a05160301c61ffff166102c05161030001526102a05160401c61ffff166102c05161032001526102a05160501c61ffff166102c05161034001526102a05160601c6102c05161036001526102e05163ffffffff166102c05161038001526102e05160201c61ffff166102c0516103a001526102e05160301c61ffff166102c0516103c00152600160a01b600190036102e05160401c166102c0516103e001526102c05190036102c051f35b346102625760403660031901126102625761060d613419565b602435906001610240515403610929576002610240515581156109145760018060a01b03811690816102405152600a60205260ff600e604061024051200154166108ff57816102405152600e60205260ff6040610240512054166108ea576040516370a0823160e01b8152336004820152602081602481865afa801561085e57849161024051916108b0575b501061089b57816102405152600b6020526040610240512060018101908154906106c3868361372c565b6106e16106db8354926106d686856136d6565b6136ff565b8261371f565b938415938580046001148517156108815761271086049460011715610881576107138561070e818961371f565b61371f565b9247841161086c576107319161072a888c9361371f565b865561372c565b90556002820161074282825461371f565b90556003820161075388825461372c565b90556040516323b872dd60e01b8152336004820152306024820152876044820152602081606481610240518b5af1801561085e57610831575b506102405190819081908190335af16107a36136a6565b501561081c57836107e1836107dc6107e6957f9387a595ac4be9038bbb9751abad8baa3dcf219dd9e19abb81552bd521fe354698613924565b613978565b6139d2565b826102405152600a602052600b6040610240512001549061080e604051928392339784613739565b0390a3610240516001815580f35b6304c9786d60e11b6102405152600461024051fd5b6108529060203d602011610857575b61084a8183613467565b810190613673565b61078c565b503d610840565b6040513d61024051823e3d90fd5b63ab0c048b60e01b6102405152600461024051fd5b634e487b7160e01b61024051526011600452602461024051fd5b636165515360e11b6102405152600461024051fd5b9150506020813d6020116108e2575b816108cc60209383613467565b810103126108dd5783905185610699565b600080fd5b3d91506108bf565b63e794c64760e01b6102405152600461024051fd5b63e2b861a160e01b6102405152600461024051fd5b6365e52d5160e11b6102405152600461024051fd5b63558a1e0360e11b6102405152600461024051fd5b3461026257602036600319011261026257610957613419565b60008051602061429a833981519152546001600160a01b031633036109c85761024080516001600160a01b039290921691829052600e6020525160408120805460ff191690557fe9c9a473410d8fd0bb91117f70a4b750bce859ab398b18cc49160f5ff41d66e49080a26102405180f35b635fc483c560e01b6102405152600461024051fd5b3461026257602036600319011261026257610a066109f9613419565b610a0161388c565b613828565b6102405180f35b34610262576020366003190112610262576001600160a01b03610a2e613419565b166102405152600e602052602060ff6040610240512054166040519015158152f35b34610262576102405136600319011261026257602060405160038152f35b346102625761024051366003190112610262576020604051610240518152f35b3461026257602036600319011261026257610aa7613419565b60008051602061431a83398151915254604081901c60ff161591906001600160401b03811680159081610c4e575b6001149081610c44575b159081610c3b575b50610c26576001600160401b0319811660011760008051602061431a8339815191525582610bfd575b50610b1961424b565b610b2161424b565b610b2a33613828565b610240516001808255600580546001600160a01b03199081169091558154166001600160a01b03939093169290921790915566038d7ea4c680006009556040516000805160206142da83398151915291602091906000805160206142ba8339815191528180a266038d7ea4c680008152a1610ba6576102405180f35b60ff60401b1960008051602061431a833981519152541660008051602061431a833981519152557fc7f505b2f371ae2175ee4913f4499e1f2633a7b5936321eed1cdaeb6115181d2602060405160018152a1610a06565b6001600160481b0319166001600160401b011760008051602061431a8339815191525582610b10565b63f92ee8a960e01b6102405152600461024051fd5b90501584610ae7565b303b159150610adf565b849150610ad5565b346102625761024051366003190112610262576006546040516001600160a01b039091168152602090f35b3461026257610240513660031901126102625760206040516601c6bf526340008152f35b34610262576020366003190112610262576001600160a01b03610cc6613419565b166102405152600b60205260a060406102405120805490600181015490600281015460046003830154920154926040519485526020850152604084015260608301526080820152f35b346102625761024051366003190112610262576003546040516001600160a01b039091168152602090f35b613533565b346102625760203660031901126102625760008051602061429a83398151915254600435906001600160a01b031633036109c857655af3107a40008110610da4576020816000805160206142da83398151915292600955604051908152a16102405180f35b63ae0f650560e01b6102405152600461024051fd5b346102625761024051366003190112610262576004546040516001600160a01b039091168152602090f35b34610262576102405136600319011261026257602060405160018152f35b34610262576020366003190112610262576001600160a01b03610e23613419565b166102405152600c60205260206040610240512054604051908152f35b3461026257602036600319011261026257610e59613419565b60008051602061429a833981519152546001600160a01b031633036109c857600580546001600160a01b0319166001600160a01b03929092169182179055610240516000805160206142ba8339815191529080a26102405180f35b6102e0366003190112610262576004356001600160401b03811161026257610ee09036906004016134bb565b6101e0526024356001600160401b03811161026257610f039036906004016134bb565b610260526044356001600160401b03811161026257610f269036906004016134bb565b6064356001600160401b03811161026257610f459036906004016134bb565b906084356001600160401b03811161026257610f659036906004016134bb565b9060a4356001600160401b03811161026257610f859036906004016134bb565b9060c4356001600160401b03811161026257610fa59036906004016134bb565b60805260e4356001600160401b03811161026257610fc79036906004016134bb565b6101043561014081905290929080151590036102625760ff610124351661012435036102625761014435801593908415810361026257610160366101631901126102625760016102405154036109295761024051600290556001546001600160a01b0316156128d65765b5e620f4800034106128c15734655af3107a3fff1981011161088157655af3107a400034655af3107a3fff190110610da45760ff610124351661287e575b600360ff610124351611612869576103e861ffff61108b61374f565b16116128545761ffff61109c61374f565b16612780575b8061276c575b612744578380612759575b6127445763ffffffff6110c46137f5565b1615158061272a575b6127015761ffff6110dc6137a9565b1615801590612716575b612701576005546001600160a01b0316156126e65761024051600554819081908190655af3107a4000906001600160a01b03165af16111236136a6565b50156126d1575b60018060a01b036001541660206040518092635a59b30960e01b825260a06004830152818061117761116260a483016101e051613632565b82810360031901602484015261026051613632565b3060448301526102c43560648301526122226084830152039161024051905af1801561085e57610240516101605261269f575b506040516001600160401b0360a0820190811190821117611f5c5760a081016040526801a055690d9db8000081526004602082016b037790968dc8efffd10000008152604083016102405181526060840190676765c793fa10079d601b1b825260808501926601c6bf52634000845260018060a01b0361016051166102405152600b60205260406102405120955186555160018601555160028501555160038401555191015560018060a01b0361016051163b15610262576040516340c10f1960e01b8152306004820152676765c793fa10079d601b1b602482015261024051610160518290604490829084906001600160a01b03165af1801561085e57612684575b5061014051612642575b60018060a01b0361016051166102405152600b6020526112dc60406102405120614202565b918215676765c793fa10079d601b1b808502859004141715610881576113006137e4565b9561130961374f565b60a052611314613761565b60c05261131f613773565b60e05261132a613785565b61010052611336613797565b610120526113426137cd565b6101805261134e6137f5565b6102005261135a6137a9565b610220526113666137bb565b6101c0526102a4356001600160a01b0381169003610262576040516101a08190526001600160401b036104008201908111911117611f5c5760ff97670de0b6b3a7640000956104006101a0510160405260018060a01b0361016051166101a051526101e05160206101a05101526102605160406101a051015260606101a051015260806101a051015260a06101a051015260c06101a051015260805160e06101a05101526101006101a0510152336101206101a0510152676765c793fa10079d601b1b6101406101a0510152806101606101a0510152676765c793fa10079d601b1b02046101806101a0510152426101a080510152610240516101c06101a051015260016101e06101a0510152610240516102006101a0510152610240516102206101a0510152610240516102406101a0510152610240516102606101a0510152156102806101a0510152166102a06101a051015261ffff60a051166102c06101a051015261ffff60c051166102e06101a051015261ffff60e051166103006101a051015261ffff61010051166103206101a051015261ffff61012051166103406101a051015260018060a01b0361018051166103606101a051015263ffffffff61020051166103806101a051015261ffff61022051166103a06101a051015261ffff6101c051166103c06101a051015260018060a01b036102a435166103e06101a051015260018060a01b0361016051166102405152600a6020526040610240512060018060a01b0360018060a01b036101a05151161660018060a01b031982541617815560206101a051015180519060018060401b038211611f5c5781906115d36001850154613554565b601f81116125e9575b506020906001601f841114612572576102405192612567575b50508160011b916000199060031b1c19161760018201555b6101a051604001518051906001600160401b038211611f5c5781906116356002850154613554565b601f811161250e575b506020906001601f84111461249757610240519261248c575b50508160011b916000199060031b1c19161760028201555b6101a051606001518051906001600160401b038211611f5c5781906116976003850154613554565b601f8111612433575b506020906001601f8411146123bc5761024051926123b1575b50508160011b916000199060031b1c19161760038201555b6101a051608001518051906001600160401b038211611f5c5781906116f96004850154613554565b601f8111612358575b506020906001601f8411146122e15761024051926122d6575b50508160011b916000199060031b1c19161760048201555b6101a05160a001518051906001600160401b038211611f5c57819061175b6005850154613554565b601f811161227d575b506020906001601f8411146122065761024051926121fb575b50508160011b916000199060031b1c19161760058201555b6101a05160c001518051906001600160401b038211611f5c5781906117bd6006850154613554565b601f81116121a2575b506020906001601f84111461212b576102405192612120575b50508160011b916000199060031b1c19161760068201555b6101a05160e001518051906001600160401b038211611f5c57819061181f6007850154613554565b601f81116120c7575b506020906001601f841114612050576102405192612045575b50508160011b916000199060031b1c19161760078201555b6101a0516101000151805191906001600160401b038311611f5c576118816008830154613554565b601f8111611ff8575b506020906001601f851114611f81579280916013946102405192611f76575b50508160011b916000199060031b1c19161760088201555b6101a080516101208101516009840180546001600160a01b03199081166001600160a01b0393841617909155610140830151600a860155610160830151600b860155610180830151600c86015592820151600d8501556101c0820151600e850180546101e085015161ff0090151560081b1661ffff1990911660ff931515841617179055610200830151600f8601556102208301516010860180549190931694169390931781556102409091015161197a9216906141a7565b6102606101a05101516011820155601281016119ac6102806101a05101511515829060ff801983541691151516179055565b6102a06101a0510151815461ff0063ffff00006102c06101a051015160101b169260081b169063ffffff001916171781556119f361ffff6102e06101a051015116826141c4565b611a0961ffff6103006101a051015116826141e3565b6103206101a0510151815461ffff60501b6103406101a051015160501b169060018060601b03196103606101a051015160601b169261ffff60401b9060401b169060018060401b031617171790550163ffffffff6103806101a05101511663ffffffff19825416178155611a8961ffff6103a06101a051015116826141c4565b611a9f61ffff6103c06101a051015116826141e3565b6101a0516103e001518154600160401b600160e01b03191660409190911b600160401b600160e01b0316179055600f54600160401b811015611f5c57806001611aeb9201600f55613502565b8154610160516001600160a01b0390811660039390931b83811b91901b1990911617909155610240805191909152600a6020525160409020600e015460ff16611f475760018060a01b0361016051166102405152600e60205260ff6040610240512054166108ea576101605161024080516001600160a01b0392909216909152600b602052516040902034655af3107a3fff19018015919080046001148217156108815761271034655af3107a3fff190104916001171561088157611bbd8261070e8134655af3107a3fff190161371f565b908115611f3257611bce82826138c2565b92611bdb610160516138ee565b91828511611f1d57611c37611c4092611bf586845461372c565b8355611c066002840196875461372c565b865560018301611c1788825461371f565b905560038301611c2888825461371f565b90556107dc8161016051613924565b610160516139d2565b60018060a01b0361016051166102405152600a602052600b6040610240512001546040519060008051602061427a833981519152339280611c9860018060a01b0361016051169489655af3107a3fff19340184613739565b0390a3610240516101243560ff16600103611ec357506276a7004201804211610881575b60018060a01b0361016051166102405152600a602052611ce861012435601060406102405120016141a7565b60018060a01b0361016051166102405152600a602052601160406102405120015560ff610124351615600014611e96576040516370a0823160e01b815233600482015261016051602090829060249082906001600160a01b03165afa801561085e57610240518591611e60575b611d5f925061372c565b11611e4b576020611d85926040518094819263a9059cbb60e01b8352336004840161368b565b03816102405160018060a01b0361016051165af191821561085e576601c6bf5263400092611e2c575b505b541015611e1b575b604051428152610140511515602082015233907f08438a250f24de47ea660398d999b122abddfd10d0a6702afc0bb5f33b5dbedf604060018060a01b03610160511692a36102405160019055604051610160516001600160a01b03168152602090f35b611e2761016051613a2c565b611db8565b611e449060203d6020116108575761084a8183613467565b5082611dae565b633c190ccd60e01b6102405152600461024051fd5b50506020813d602011611e8e575b81611e7b60209383613467565b810103126108dd5783611d5f9151611d55565b3d9150611e6e565b506601c6bf526340009160018060a01b0361016051166102405152600d6020526040610240512055611db0565b6101243560ff16600203611ee5575062ed4e004201804211610881575b611cbc565b600360ff610124351603611cbc57506301e13380420180421115611ee057634e487b7160e01b61024051526011600452602461024051fd5b631c7eb2d760e31b6102405152600461024051fd5b63bbf1e3c160e01b6102405152600461024051fd5b63e6a0d45f60e01b6102405152600461024051fd5b634e487b7160e01b61024051526041600452602461024051fd5b0151905084806118a9565b9060088301610240515280610240512091610240515b601f1986168110611fe05750918491600193601396601f19811610611fc7575b505050811b0160088201556118c1565b015160001960f88460031b161c19169055848080611fb7565b91926020600181928685015181550194019201611f97565b60088301610240515260206102405120601f850160051c81016020861061203e575b601f830160051c8201811061203057505061188a565b61024051815560010161201a565b508061201a565b015190508380611841565b92506007840161024051528061024051209061024051935b601f19841685106120ac576001945083601f19811610612093575b505050811b016007820155611859565b015160001960f88460031b161c19169055838080612083565b81810151835560209485019460019093019290910190612068565b90915060078401610240515260206102405120601f840160051c810160208510612119575b90849392915b601f830160051c82018110612108575050611828565b6102405181558594506001016120f2565b50806120ec565b0151905083806117df565b92506006840161024051528061024051209061024051935b601f1984168510612187576001945083601f1981161061216e575b505050811b0160068201556117f7565b015160001960f88460031b161c1916905583808061215e565b81810151835560209485019460019093019290910190612143565b90915060068401610240515260206102405120601f840160051c8101602085106121f4575b90849392915b601f830160051c820181106121e35750506117c6565b6102405181558594506001016121cd565b50806121c7565b01519050838061177d565b92506005840161024051528061024051209061024051935b601f1984168510612262576001945083601f19811610612249575b505050811b016005820155611795565b015160001960f88460031b161c19169055838080612239565b8181015183556020948501946001909301929091019061221e565b90915060058401610240515260206102405120601f840160051c8101602085106122cf575b90849392915b601f830160051c820181106122be575050611764565b6102405181558594506001016122a8565b50806122a2565b01519050838061171b565b92506004840161024051528061024051209061024051935b601f198416851061233d576001945083601f19811610612324575b505050811b016004820155611733565b015160001960f88460031b161c19169055838080612314565b818101518355602094850194600190930192909101906122f9565b90915060048401610240515260206102405120601f840160051c8101602085106123aa575b90849392915b601f830160051c82018110612399575050611702565b610240518155859450600101612383565b508061237d565b0151905083806116b9565b92506003840161024051528061024051209061024051935b601f1984168510612418576001945083601f198116106123ff575b505050811b0160038201556116d1565b015160001960f88460031b161c191690558380806123ef565b818101518355602094850194600190930192909101906123d4565b90915060038401610240515260206102405120601f840160051c810160208510612485575b90849392915b601f830160051c820181106124745750506116a0565b61024051815585945060010161245e565b5080612458565b015190508380611657565b92506002840161024051528061024051209061024051935b601f19841685106124f3576001945083601f198116106124da575b505050811b01600282015561166f565b015160001960f88460031b161c191690558380806124ca565b818101518355602094850194600190930192909101906124af565b90915060028401610240515260206102405120601f840160051c810160208510612560575b90849392915b601f830160051c8201811061254f57505061163e565b610240518155859450600101612539565b5080612533565b0151905083806115f5565b92506001840161024051528061024051209061024051935b601f19841685106125ce576001945083601f198116106125b5575b505050811b01600182015561160d565b015160001960f88460031b161c191690558380806125a5565b8181015183556020948501946001909301929091019061258a565b90915060018401610240515260206102405120601f840160051c81016020851061263b575b90849392915b601f830160051c8201811061262a5750506115dc565b610240518155859450600101612614565b508061260e565b604051610240518152610160516001600160a01b0316907f1122e9ce6e7ffe6f9dbf5d2d4abbd3be5d5b072c65d3ca89b176bff6ffd25df690602090a26112b7565b6102405161269191613467565b6102405161026257866112ad565b6126c09060203d6020116126ca575b6126b88183613467565b810190613809565b61016052866111aa565b503d6126ae565b63750f259d60e01b6102405152600461024051fd5b600854655af3107a400081019081106108815760085561112a565b638d86e80f60e01b6102405152600461024051fd5b5061ffff6127226137bb565b1615156110e6565b506201518063ffffffff61273c6137f5565b1614156110cd565b630c56466760e31b6102405152600461024051fd5b5060ff6127646137e4565b1615156110b3565b50600160ff6127796137e4565b16116110a8565b6127106127c06127b56127aa61ffff612797613761565b1661ffff6127a3613773565b169061372c565b61ffff6127a3613785565b61ffff6127a3613797565b0361283f5761ffff6127d0613761565b16151580612827575b6128125761ffff6127e8613785565b1615158061280b575b156110a257630c56466760e31b6102405152600461024051fd5b50846127f1565b6302979eb960e31b6102405152600461024051fd5b506001600160a01b036128386137cd565b16156127d9565b63aff1d87b60e01b6102405152600461024051fd5b637c39a24d60e01b6102405152600461024051fd5b6352edd3bf60e01b6102405152600461024051fd5b600954655af3107a400081106128b4575b34655af3107a3fff1901101561106f5763ae0f650560e01b6102405152600461024051fd5b50655af3107a400061288f565b63044044a560e21b6102405152600461024051fd5b6321c4e35760e21b6102405152600461024051fd5b3461026257610240513660031901126102625760008051602061429a833981519152546040516001600160a01b039091168152602090f35b346102625761024051366003190112610262576020600854604051908152f35b346102625760203660031901126102625761295c613419565b6001610240515403610929576102408051600281556001600160a01b0392831690819052600a602052905160409020600901549091163303612ab257806102405152600a60205260116040610240512001548015612a9d574210612a8857806102405152600d6020526040610240512054908115612a7357806102405152600d60205261024051604061024051205560405163a9059cbb60e01b815260208180612a0a86336004840161368b565b038161024051865af1801561085e57612a56575b506040519182527fdd1e41f1d539479bcbc5a15aae13c42eac0c98319dc0bdaea67720b8f0eb4b5660203393a3610240516001815580f35b612a6e9060203d6020116108575761084a8183613467565b612a1e565b6312d37ee560e31b6102405152600461024051fd5b636b22ab8b60e01b6102405152600461024051fd5b6312e72c3f60e11b6102405152600461024051fd5b6308f78f9960e31b6102405152600461024051fd5b602036600319011261026257612adb613419565b600161024051540361092957600261024051553415612d4a5760018060a01b03811690816102405152600a60205260ff600e604061024051200154166108ff57816102405152600e60205260ff6040610240512054166108ea57816102405152600b6020526040610240512034340460010361088157612710349081049190612b6b90839061070e90829061371f565b906000948215612d3b57612b7f83836138c2565b91612b89866138ee565b808411612d2c576040516370a0823160e01b8152336004820152602081602481875afa8015612d215785908a90612ce7575b612bc5925061372c565b11612cd857612bd584825461372c565b8155612be66002820194855461372c565b845560018101612bf784825461371f565b905560038101612c0884825461371f565b905560405163a9059cbb60e01b81529060208280612c2a87336004840161368b565b03818b875af18015612ccd576601c6bf5263400096612c5d93612c5792612cb0575b506107dc818a613924565b866139d2565b808652600a60205260008051602061427a833981519152612c8e600b60408920015460405191829133963484613739565b0390a3541015612ca1575b506001815580f35b612caa90613a2c565b81612c99565b612cc89060203d6020116108575761084a8183613467565b612c4c565b6040513d8a823e3d90fd5b633c190ccd60e01b8752600487fd5b50506020813d602011612d19575b81612d0260209383613467565b81010312612d155784612bc59151612bbb565b8880fd5b3d9150612cf5565b6040513d8b823e3d90fd5b631c7eb2d760e31b8852600488fd5b63bbf1e3c160e01b8652600486fd5b63310818ed60e01b6102405152600461024051fd5b3461026257610240513660031901126102625760206040516127108152f35b34610262576102405136600319011261026257612d9961388c565b60008051602061429a83398151915280546001600160a01b0319811690915561024051906001600160a01b03166000805160206142fa8339815191528280a36102405180f35b3461026257602036600319011261026257612df8613419565b60008051602061429a833981519152546001600160a01b031633036109c8576001600160a01b03168015612e6757600680546001600160a01b03191682179055610240517f31cb9536ecf1852d39189c13961e6cd4b8740e22d548d3a4395a3d42092a6dda9080a26102405180f35b6304a820c160e31b6102405152600461024051fd5b346102625761024051366003190112610262576020600954604051908152f35b3461026257602036600319011261026257600435600f5481101561026257612ec5602091613502565b905460405160039290921b1c6001600160a01b03168152f35b34610262576102405136600319011261026257602060405160028152f35b346102625761024051366003190112610262576020600754604051908152f35b61342f565b34610262576102405136600319011261026257604051676765c793fa10079d601b1b8152602090f35b34610262576102405136600319011261026257600161024051540361092957610240516002905560008051602061429a833981519152546001600160a01b0316338190036109c8576007805461024051918290559181908190819085905af1612fb16136a6565b50156130085760008051602061429a833981519152546040519182526001600160a01b0316907fc0819c13be868895eb93e40eaceb96de976442fa1d404e5c55f14bb65a8c489a90602090a2610240516001815580f35b62c0f29960e01b6102405152600461024051fd5b61344b565b346102625760403660031901126102625761303a613419565b6024356001600160401b038111610262576130599036906004016134bb565b60008051602061429a833981519152549091906001600160a01b031633036109c85761024080516001600160a01b0392831690819052600a602052905160409020549092911615613104576130fa7fca28a28d7a69a99b318b23b561c6913d9433f143b9aeb678e6e9ca1ded96735491836102405152600e60205260406102405120600160ff19825416179055604051918291602083526020830190613632565b0390a26102405180f35b63e0e5a1af60e01b6102405152600461024051fd5b3461026257610240513660031901126102625760206040516122228152f35b34610262576102405136600319011261026257600161024051540361092957610240516002905560008051602061429a833981519152546001600160a01b0316338190036109c8576008805461024051918290559181908190819085905af161319f6136a6565b50156130085760008051602061429a833981519152546040519182526001600160a01b0316907ff5c7b4e68618595a30e0a0ccfaa8b7aeb24d620e803d8b104c5d5f3f1a181a3590602090a2610240516001815580f35b346102625761024051366003190112610262576001546040516001600160a01b039091168152602090f35b3461026257610240513660031901126102625760206040516103e88152f35b3461026257602036600319011261026257613259613419565b6001610240515403610929576102408051600281556001600160a01b0392831690819052600a602052905160409020600901549091163303612ab257806102405152600a60205260ff600e60406102405120015460081c1661339f57806102405152600a602052600f604061024051200154421061338a57806102405152600c6020526040610240512054908115612a7357806102405152600c60205261024051604061024051205560405163a9059cbb60e01b81526020818061332186336004840161368b565b038161024051865af1801561085e5761336d575b506040519182527f3f8ae94fce684fbee6f33c863e53f89d15755c89d22d2036cf84e6e5695bade260203393a3610240516001815580f35b6133859060203d6020116108575761084a8183613467565b613335565b63de1af48d60e01b6102405152600461024051fd5b6305ab0def60e21b6102405152600461024051fd5b346102625761024051366003190112610262576005546040516001600160a01b039091168152602090f35b34610262576020366003190112610262576020906001600160a01b03613403613419565b166102405152600d825260406102405120548152f35b600435906001600160a01b03821682036108dd57565b346108dd5760003660031901126108dd57602060405160008152f35b346108dd5760003660031901126108dd57602060405160018152f35b601f909101601f19168101906001600160401b0382119082101761348a57604052565b634e487b7160e01b600052604160045260246000fd5b6001600160401b03811161348a57601f01601f191660200190565b81601f820112156108dd578035906134d2826134a0565b926134e06040519485613467565b828452602083830101116108dd57816000926020809301838601378301015290565b600f5481101561351d57600f60005260206000200190600090565b634e487b7160e01b600052603260045260246000fd5b346108dd5760003660031901126108dd576020604051655af3107a40008152f35b90600182811c92168015613584575b602083101461356e57565b634e487b7160e01b600052602260045260246000fd5b91607f1691613563565b90604051918260008254926135a284613554565b808452936001811690811561361057506001146135c9575b506135c792500383613467565b565b90506000929192526020600020906000915b8183106135f45750509060206135c792820101386135ba565b60209193508060019154838589010152019101909184926135db565b9050602092506135c794915060ff191682840152151560051b820101386135ba565b919082519283825260005b84811061365e575050826000602080949584010152601f8019910116010190565b8060208092840101518282860101520161363d565b908160209103126108dd575180151581036108dd5790565b6001600160a01b039091168152602081019190915260400190565b3d156136d1573d906136b7826134a0565b916136c56040519384613467565b82523d6000602084013e565b606090565b818102929181159184041417156136e957565b634e487b7160e01b600052601160045260246000fd5b8115613709570490565b634e487b7160e01b600052601260045260246000fd5b919082039182116136e957565b919082018092116136e957565b6040919493926060820195825260208201520152565b6101843561ffff811681036108dd5790565b6101a43561ffff811681036108dd5790565b6101c43561ffff811681036108dd5790565b6101e43561ffff811681036108dd5790565b6102043561ffff811681036108dd5790565b6102643561ffff811681036108dd5790565b6102843561ffff811681036108dd5790565b610224356001600160a01b03811681036108dd5790565b6101643560ff811681036108dd5790565b6102443563ffffffff811681036108dd5790565b908160209103126108dd57516001600160a01b03811681036108dd5790565b6001600160a01b031680156138765760008051602061429a83398151915280546001600160a01b0319811683179091556001600160a01b03166000805160206142fa833981519152600080a3565b631e4fbdf760e01b600052600060045260246000fd5b60008051602061429a833981519152546001600160a01b031633036138ad57565b63118cdaa760e01b6000523360045260246000fd5b906138e56138eb926106d660016138db8354958661372c565b92015480946136d6565b9061371f565b90565b60018060a01b0316600052600a602052600a6040600020015461271081029080820461271014901517156136e957612710900490565b8115613974576001600160a01b039081166000908152600a6020526040812060090154909283928392839291165af161395b6136a6565b501561396357565b63036db06960e61b60005260046000fd5b5050565b6005546001600160a01b0316156139c1576005546000918291829182916001600160a01b03165af16139a86136a6565b50156139b057565b633a0ab71160e21b60005260046000fd5b6139cd9060075461372c565b600755565b90613a176139e8670de0b6b3a764000092614202565b6001600160a01b039093166000818152600a6020819052604090912090810154600b90910185905590936136d6565b0490600052600a602052600c60406000200155565b6001600160a01b0381166000908152600b60205260408120600754600854919291613a569161372c565b479081811161419e57613a689161371f565b915b6003810180549380158015614196575b6141875760025460405163095ea7b360e01b81529060209082908190613aae908a906001600160a01b03166004840161368b565b0381886001600160a01b038c165af190811561417c57859161415d575b501561414e576002546001600160a01b0316944261025881019290831061413a576060929160c491604051988994859363f305d71960e01b855260018060a01b038d166004860152602485015289604485015289606485015230608485015260a48401525af1938415613f775783849185966140f8575b506003546004805460405163e6a4390560e01b81526001600160a01b038b8116938201939093529082166024820152979160209189916044918391165afa9687156140bd5786976140d7575b506001600160a01b038716156140c85760405163a9059cbb60e01b815261dead60048201526024810191909152602081604481896001600160a01b038c165af180156140bd576140a0575b506040805192835260208301919091526001600160a01b0386811692908816917f36f3b2e1a21c19137dd82ec243b0708a1d26b3d1fa1dc49c44c4c366a587813891a36040516370a0823160e01b81523060048201526020816024816001600160a01b038a165afa90811561405a57908492918391614065575b5080613ff9575b506001600160a01b03868116808452600a60208181526040808720600e01805460ff1916600117905583875282825280872060100180546001600160a01b031916958b169590951790945560028701869055949093558552915282206012810154908360ff83168080613fe9575b613fa9575b6040519361022085016001600160401b03811186821017613f955760409081526101a086018890526101c086018890526101e08601889052610200860188905260098501546001600160a01b039081168752898116602080890191909152606084811c8985015261ffff601086901c8116918a018290529185901c821660808a0152603085901c821660a08a01529284901c811660c089015260509390931c90921660e0870152151561010086015290151561012085015260025481166101408501526004548116610160850152166101808301526013015463ffffffff811680613f865750835b6101a0830152602081901c61ffff9081166101c0840152603082901c166101e083015260401c6001600160a01b0390811661020083015285163b15613f82576040805163c9af097d60e01b815282516001600160a01b0390811660048301526020840151811660248301529183015182166044820152606083015161ffff908116606483015260808401518116608483015260a0840151811660a483015260c0840151811660c483015260e0840151811660e4830152610100840151151561010483015261012084015115156101248301526101408401518316610144830152610160840151831661016483015261018084015183166101848301526101a08401516101a48301526101c084015181166101c48301526101e0840151166101e48201526102009092015181166102048301528390829061022490829084908a165af18015613f77577fd746a893de4e12067ef4a3b08937ae3e7bd69f3872a69af45cb1ef5493d9aa5293602093600c93604093613f61575b50613f3890886139d2565b6001600160a01b03968716808252600a85529190209190910154604051908152939094169392a3565b91613f7081613f389394613467565b9190613f2d565b6040513d85823e3d90fd5b8280fd5b613f90904261372c565b613db5565b634e487b7160e01b88526041600452602488fd5b9050600160ff8460081c1614600014613fd8577355d398326f99059ff775485246999027b31979555b90613ccd565b6004546001600160a01b0316613fd2565b5061ffff8460401c161515613cc8565b60405163a9059cbb60e01b815261dead60048201526024810191909152909150602081604481876001600160a01b038b165af1801561405a579084929115613c5a576140539060203d6020116108575761084a8183613467565b5038613c5a565b6040513d86823e3d90fd5b919250506020813d602011614098575b8161408260209383613467565b81010312614094579083915138613c53565b8380fd5b3d9150614075565b6140b89060203d6020116108575761084a8183613467565b613bd9565b6040513d88823e3d90fd5b63c6bcf59960e01b8652600486fd5b6140f191975060203d6020116126ca576126b88183613467565b9538613b8e565b955050506060843d606011614132575b8161411560609383613467565b81010312613f825783516020850151604090950151949038613b42565b3d9150614108565b634e487b7160e01b86526011600452602486fd5b63648ad91560e11b8452600484fd5b614176915060203d6020116108575761084a8183613467565b38613acb565b6040513d87823e3d90fd5b637dc2809560e11b8452600484fd5b508415613a7a565b50508091613a6a565b805460ff60a01b191660a09290921b60ff60a01b16919091179055565b805461ffff60201b191660209290921b61ffff60201b16919091179055565b805461ffff60301b191660309290921b61ffff60301b16919091179055565b600181015490811561423a575490670de0b6b3a7640000820291808304670de0b6b3a764000014901517156136e9576138eb916136ff565b636180f03f60e11b60005260046000fd5b60ff60008051602061431a8339815191525460401c161561426857565b631afcd79f60e31b60005260046000fdfe0a9521815fb3c5bc7dd6f4c9f89dc270322e46b945b104c18981f81c3f2cd1aa9016d09d72d40fdae2fd8ceac6b6234c7706214fd39c1cd1e609a0528c199300853833958ec0246ecc6d63fa180a590c32dad8165c77b8f979c6b226201089f8bfa865124fb32dffa1f70892c3d0b5fa714ae7bc660a089a2bd81851354244898be0079c531659141344cd1fd0a4f28419497f9722a3daafe3b4186f6b6457e0f0c57e16840df040f15088dc2f81fe391c3923bec73e23a9662efc9c229c6a00a164736f6c634300081a000a","opcodes":"PUSH1 0x80 DUP1 PUSH1 0x40 MSTORE CALLVALUE PUSH1 0x80 JUMPI PUSH1 0x1 PUSH1 0x0 SSTORE PUSH1 0x2 DUP1 SLOAD PUSH1 0x1 PUSH1 0x1 PUSH1 0xA0 SHL SUB NOT SWAP1 DUP2 AND PUSH20 0x10ED43C718714EB63D5AA57B78B54704E256024E OR SWAP1 SWAP2 SSTORE PUSH1 0x3 DUP1 SLOAD DUP3 AND PUSH20 0xCA143CE32FE78F1F7019D7D551A6402FC5350C73 OR SWAP1 SSTORE PUSH1 0x4 DUP1 SLOAD SWAP1 SWAP2 AND PUSH20 0xBB4CDB9CBD36B01BD1CBAEBF2DE08D9173BC095C OR SWAP1 SSTORE PUSH2 0x4346 SWAP1 DUP2 PUSH2 0x86 DUP3 CODECOPY RETURN JUMPDEST PUSH1 0x0 DUP1 REVERT INVALID PUSH2 0x360 DUP1 PUSH1 0x40 MSTORE PUSH1 0x4 CALLDATASIZE LT ISZERO PUSH2 0x1E JUMPI JUMPDEST POP CALLDATASIZE ISZERO PUSH2 0x1C JUMPI PUSH1 0x0 DUP1 REVERT JUMPDEST STOP JUMPDEST PUSH1 0x0 PUSH2 0x240 MSTORE PUSH2 0x240 MLOAD CALLDATALOAD PUSH1 0xE0 SHR SWAP1 DUP2 PUSH3 0xC7FA85 EQ PUSH2 0x33DF JUMPI POP DUP1 PUSH4 0x197D972 EQ PUSH2 0x2F1C JUMPI DUP1 PUSH4 0x109E06E1 EQ PUSH2 0x33B4 JUMPI DUP1 PUSH4 0x1110B8AC EQ PUSH2 0x3240 JUMPI DUP1 PUSH4 0x1A08A9C8 EQ PUSH2 0x3221 JUMPI DUP1 PUSH4 0x1A7DFA9F EQ PUSH2 0x301C JUMPI DUP1 PUSH4 0x2A2DAE0A EQ PUSH2 0x31F6 JUMPI DUP1 PUSH4 0x2BC73063 EQ PUSH2 0x2F1C JUMPI DUP1 PUSH4 0x30777061 EQ PUSH2 0x3138 JUMPI DUP1 PUSH4 0x30A9C1B7 EQ PUSH2 0x3119 JUMPI DUP1 PUSH4 0x39222152 EQ PUSH2 0x3021 JUMPI DUP1 PUSH4 0x406B283A EQ PUSH2 0x301C JUMPI DUP1 PUSH4 0x476343EE EQ PUSH2 0x2F4A JUMPI DUP1 PUSH4 0x4C0ABCDB EQ PUSH2 0x2F21 JUMPI DUP1 PUSH4 0x55371A61 EQ PUSH2 0x2F1C JUMPI DUP1 PUSH4 0x60C6D8AE EQ PUSH2 0x2EFC JUMPI DUP1 PUSH4 0x622D7784 EQ PUSH2 0x2EDE JUMPI DUP1 PUSH4 0x634282AF EQ PUSH2 0x2E9C JUMPI DUP1 PUSH4 0x66BB2880 EQ PUSH2 0x2E7C JUMPI DUP1 PUSH4 0x6F5885D0 EQ PUSH2 0x2DDF JUMPI DUP1 PUSH4 0x715018A6 EQ PUSH2 0x2D7E JUMPI DUP1 PUSH4 0x7BC4F888 EQ PUSH2 0x2D5F JUMPI DUP1 PUSH4 0x7E72FB52 EQ PUSH2 0x2AC7 JUMPI DUP1 PUSH4 0x8021A1E2 EQ PUSH2 0x2943 JUMPI DUP1 PUSH4 0x84666352 EQ PUSH2 0x2923 JUMPI DUP1 PUSH4 0x8DA5CB5B EQ PUSH2 0x28EB JUMPI DUP1 PUSH4 0x92C93E87 EQ PUSH2 0xD3A JUMPI DUP1 PUSH4 0x95BD8778 EQ PUSH2 0xEB4 JUMPI DUP1 PUSH4 0x9B162793 EQ PUSH2 0xE40 JUMPI DUP1 PUSH4 0x9B243F37 EQ PUSH2 0xE02 JUMPI DUP1 PUSH4 0xA38D2DA1 EQ PUSH2 0xDE4 JUMPI DUP1 PUSH4 0xAD5C4648 EQ PUSH2 0xDB9 JUMPI DUP1 PUSH4 0xB04B99D4 EQ PUSH2 0xD3F JUMPI DUP1 PUSH4 0xB35EBD2E EQ PUSH2 0xD3A JUMPI DUP1 PUSH4 0xB8D8FBB4 EQ PUSH2 0xD0F JUMPI DUP1 PUSH4 0xB9A059F7 EQ PUSH2 0xCA5 JUMPI DUP1 PUSH4 0xC1A844F0 EQ PUSH2 0xC81 JUMPI DUP1 PUSH4 0xC365F4AF EQ PUSH2 0xC56 JUMPI DUP1 PUSH4 0xC4D66DE8 EQ PUSH2 0xA8E JUMPI DUP1 PUSH4 0xD3465546 EQ PUSH2 0xA6E JUMPI DUP1 PUSH4 0xE16E7D44 EQ PUSH2 0xA50 JUMPI DUP1 PUSH4 0xE91B3CB6 EQ PUSH2 0xA0D JUMPI DUP1 PUSH4 0xF2FDE38B EQ PUSH2 0x9DD JUMPI DUP1 PUSH4 0xF332A245 EQ PUSH2 0x93E JUMPI DUP1 PUSH4 0xF464E7DB EQ PUSH2 0x5F4 JUMPI DUP1 PUSH4 0xF5DAB711 EQ PUSH2 0x294 JUMPI DUP1 PUSH4 0xF887EA40 EQ PUSH2 0x269 JUMPI PUSH4 0xFADD5431 EQ PUSH2 0x242 JUMPI CODESIZE PUSH2 0x10 JUMP JUMPDEST CALLVALUE PUSH2 0x262 JUMPI PUSH2 0x240 MLOAD CALLDATASIZE PUSH1 0x3 NOT ADD SLT PUSH2 0x262 JUMPI PUSH1 0x20 PUSH1 0x40 MLOAD PUSH3 0x15180 DUP2 MSTORE RETURN JUMPDEST PUSH2 0x240 MLOAD DUP1 REVERT JUMPDEST CALLVALUE PUSH2 0x262 JUMPI PUSH2 0x240 MLOAD CALLDATASIZE PUSH1 0x3 NOT ADD SLT PUSH2 0x262 JUMPI PUSH1 0x2 SLOAD PUSH1 0x40 MLOAD PUSH1 0x1 PUSH1 0x1 PUSH1 0xA0 SHL SUB SWAP1 SWAP2 AND DUP2 MSTORE PUSH1 0x20 SWAP1 RETURN JUMPDEST CALLVALUE PUSH2 0x262 JUMPI PUSH1 0x20 CALLDATASIZE PUSH1 0x3 NOT ADD SLT PUSH2 0x262 JUMPI PUSH1 0x1 PUSH1 0x1 PUSH1 0xA0 SHL SUB PUSH2 0x2B5 PUSH2 0x3419 JUMP JUMPDEST PUSH2 0x240 DUP1 MLOAD SWAP2 SWAP1 SWAP3 AND SWAP1 MSTORE PUSH1 0xA PUSH1 0x20 MSTORE MLOAD PUSH1 0x40 SWAP1 KECCAK256 DUP1 SLOAD PUSH1 0x1 PUSH1 0x1 PUSH1 0xA0 SHL SUB AND SWAP1 PUSH2 0x2E2 PUSH1 0x1 DUP3 ADD PUSH2 0x358E JUMP JUMPDEST PUSH2 0x320 MSTORE PUSH2 0x2F2 PUSH1 0x2 DUP3 ADD PUSH2 0x358E JUMP JUMPDEST PUSH2 0x340 MSTORE PUSH2 0x302 PUSH1 0x3 DUP3 ADD PUSH2 0x358E JUMP JUMPDEST SWAP2 PUSH2 0x30F PUSH1 0x4 DUP4 ADD PUSH2 0x358E JUMP JUMPDEST SWAP3 PUSH2 0x31C PUSH1 0x5 DUP5 ADD PUSH2 0x358E JUMP JUMPDEST SWAP4 PUSH2 0x329 PUSH1 0x6 DUP6 ADD PUSH2 0x358E JUMP JUMPDEST SWAP5 PUSH2 0x336 PUSH1 0x7 DUP7 ADD PUSH2 0x358E JUMP JUMPDEST SWAP6 PUSH2 0x343 PUSH1 0x8 DUP8 ADD PUSH2 0x358E JUMP JUMPDEST PUSH1 0x1 PUSH1 0xA0 SHL PUSH1 0x1 SWAP1 SUB PUSH1 0x9 DUP9 ADD SLOAD AND PUSH2 0x300 MSTORE PUSH1 0xA DUP8 ADD SLOAD SWAP8 PUSH1 0xB DUP9 ADD SLOAD SWAP3 PUSH1 0xC DUP10 ADD SLOAD SWAP5 PUSH1 0xD DUP11 ADD SLOAD SWAP7 PUSH1 0xE DUP12 ADD SLOAD SWAP9 PUSH1 0xF DUP13 ADD SLOAD SWAP11 PUSH1 0x10 DUP14 ADD SLOAD SWAP13 PUSH1 0x11 DUP2 ADD SLOAD PUSH2 0x280 MSTORE PUSH1 0x12 DUP2 ADD SLOAD PUSH2 0x2A0 MSTORE PUSH1 0x13 ADD SLOAD PUSH2 0x2E0 MSTORE PUSH1 0x40 MLOAD PUSH2 0x2C0 MSTORE PUSH2 0x2C0 MLOAD MSTORE PUSH2 0x2C0 MLOAD PUSH1 0x20 ADD PUSH2 0x400 SWAP1 MSTORE PUSH2 0x2C0 MLOAD PUSH2 0x400 ADD PUSH2 0x320 MLOAD SWAP1 PUSH2 0x3C8 SWAP2 PUSH2 0x3632 JUMP JUMPDEST PUSH2 0x2C0 MLOAD DUP2 SUB PUSH2 0x2C0 MLOAD PUSH1 0x40 ADD MSTORE PUSH2 0x340 MLOAD SWAP1 PUSH2 0x3E4 SWAP2 PUSH2 0x3632 JUMP JUMPDEST PUSH2 0x2C0 MLOAD DUP2 SUB PUSH2 0x2C0 MLOAD PUSH1 0x60 ADD MSTORE PUSH2 0x3FB SWAP2 PUSH2 0x3632 JUMP JUMPDEST PUSH2 0x2C0 MLOAD DUP2 SUB PUSH2 0x2C0 MLOAD PUSH1 0x80 ADD MSTORE PUSH2 0x412 SWAP2 PUSH2 0x3632 JUMP JUMPDEST PUSH2 0x2C0 MLOAD DUP2 SUB PUSH2 0x2C0 MLOAD PUSH1 0xA0 ADD MSTORE PUSH2 0x429 SWAP2 PUSH2 0x3632 JUMP JUMPDEST PUSH2 0x2C0 MLOAD DUP2 SUB PUSH2 0x2C0 MLOAD PUSH1 0xC0 ADD MSTORE PUSH2 0x440 SWAP2 PUSH2 0x3632 JUMP JUMPDEST PUSH2 0x2C0 MLOAD DUP2 SUB PUSH2 0x2C0 MLOAD PUSH1 0xE0 ADD MSTORE PUSH2 0x457 SWAP2 PUSH2 0x3632 JUMP JUMPDEST PUSH2 0x2C0 MLOAD DUP2 SUB PUSH2 0x2C0 MLOAD PUSH2 0x100 ADD MSTORE PUSH2 0x46F SWAP2 PUSH2 0x3632 JUMP JUMPDEST SWAP7 PUSH2 0x300 MLOAD PUSH2 0x2C0 MLOAD PUSH2 0x120 ADD MSTORE PUSH2 0x2C0 MLOAD PUSH2 0x140 ADD MSTORE PUSH2 0x2C0 MLOAD PUSH2 0x160 ADD MSTORE PUSH2 0x2C0 MLOAD PUSH2 0x180 ADD MSTORE PUSH2 0x2C0 MLOAD PUSH2 0x1A0 ADD MSTORE PUSH1 0xFF DUP2 AND ISZERO ISZERO PUSH2 0x2C0 MLOAD PUSH2 0x1C0 ADD MSTORE PUSH1 0x8 SHR PUSH1 0xFF AND ISZERO ISZERO PUSH2 0x2C0 MLOAD PUSH2 0x1E0 ADD MSTORE PUSH2 0x2C0 MLOAD PUSH2 0x200 ADD MSTORE PUSH1 0x1 PUSH1 0xA0 SHL PUSH1 0x1 SWAP1 SUB DUP2 AND PUSH2 0x2C0 MLOAD PUSH2 0x220 ADD MSTORE PUSH1 0xA0 SHR PUSH1 0xFF AND PUSH2 0x2C0 MLOAD PUSH2 0x240 ADD MSTORE PUSH2 0x280 MLOAD PUSH2 0x2C0 MLOAD PUSH2 0x260 ADD MSTORE PUSH2 0x2A0 MLOAD PUSH1 0xFF AND ISZERO ISZERO PUSH2 0x2C0 MLOAD PUSH2 0x280 ADD MSTORE PUSH2 0x2A0 MLOAD PUSH1 0x8 SHR PUSH1 0xFF AND PUSH2 0x2C0 MLOAD PUSH2 0x2A0 ADD MSTORE PUSH2 0x2A0 MLOAD PUSH1 0x10 SHR PUSH2 0xFFFF AND PUSH2 0x2C0 MLOAD PUSH2 0x2C0 ADD MSTORE PUSH2 0x2A0 MLOAD PUSH1 0x20 SHR PUSH2 0xFFFF AND PUSH2 0x2C0 MLOAD PUSH2 0x2E0 ADD MSTORE PUSH2 0x2A0 MLOAD PUSH1 0x30 SHR PUSH2 0xFFFF AND PUSH2 0x2C0 MLOAD PUSH2 0x300 ADD MSTORE PUSH2 0x2A0 MLOAD PUSH1 0x40 SHR PUSH2 0xFFFF AND PUSH2 0x2C0 MLOAD PUSH2 0x320 ADD MSTORE PUSH2 0x2A0 MLOAD PUSH1 0x50 SHR PUSH2 0xFFFF AND PUSH2 0x2C0 MLOAD PUSH2 0x340 ADD MSTORE PUSH2 0x2A0 MLOAD PUSH1 0x60 SHR PUSH2 0x2C0 MLOAD PUSH2 0x360 ADD MSTORE PUSH2 0x2E0 MLOAD PUSH4 0xFFFFFFFF AND PUSH2 0x2C0 MLOAD PUSH2 0x380 ADD MSTORE PUSH2 0x2E0 MLOAD PUSH1 0x20 SHR PUSH2 0xFFFF AND PUSH2 0x2C0 MLOAD PUSH2 0x3A0 ADD MSTORE PUSH2 0x2E0 MLOAD PUSH1 0x30 SHR PUSH2 0xFFFF AND PUSH2 0x2C0 MLOAD PUSH2 0x3C0 ADD MSTORE PUSH1 0x1 PUSH1 0xA0 SHL PUSH1 0x1 SWAP1 SUB PUSH2 0x2E0 MLOAD PUSH1 0x40 SHR AND PUSH2 0x2C0 MLOAD PUSH2 0x3E0 ADD MSTORE PUSH2 0x2C0 MLOAD SWAP1 SUB PUSH2 0x2C0 MLOAD RETURN JUMPDEST CALLVALUE PUSH2 0x262 JUMPI PUSH1 0x40 CALLDATASIZE PUSH1 0x3 NOT ADD SLT PUSH2 0x262 JUMPI PUSH2 0x60D PUSH2 0x3419 JUMP JUMPDEST PUSH1 0x24 CALLDATALOAD SWAP1 PUSH1 0x1 PUSH2 0x240 MLOAD SLOAD SUB PUSH2 0x929 JUMPI PUSH1 0x2 PUSH2 0x240 MLOAD SSTORE DUP2 ISZERO PUSH2 0x914 JUMPI PUSH1 0x1 DUP1 PUSH1 0xA0 SHL SUB DUP2 AND SWAP1 DUP2 PUSH2 0x240 MLOAD MSTORE PUSH1 0xA PUSH1 0x20 MSTORE PUSH1 0xFF PUSH1 0xE PUSH1 0x40 PUSH2 0x240 MLOAD KECCAK256 ADD SLOAD AND PUSH2 0x8FF JUMPI DUP2 PUSH2 0x240 MLOAD MSTORE PUSH1 0xE PUSH1 0x20 MSTORE PUSH1 0xFF PUSH1 0x40 PUSH2 0x240 MLOAD KECCAK256 SLOAD AND PUSH2 0x8EA JUMPI PUSH1 0x40 MLOAD PUSH4 0x70A08231 PUSH1 0xE0 SHL DUP2 MSTORE CALLER PUSH1 0x4 DUP3 ADD MSTORE PUSH1 0x20 DUP2 PUSH1 0x24 DUP2 DUP7 GAS STATICCALL DUP1 ISZERO PUSH2 0x85E JUMPI DUP5 SWAP2 PUSH2 0x240 MLOAD SWAP2 PUSH2 0x8B0 JUMPI JUMPDEST POP LT PUSH2 0x89B JUMPI DUP2 PUSH2 0x240 MLOAD MSTORE PUSH1 0xB PUSH1 0x20 MSTORE PUSH1 0x40 PUSH2 0x240 MLOAD KECCAK256 PUSH1 0x1 DUP2 ADD SWAP1 DUP2 SLOAD SWAP1 PUSH2 0x6C3 DUP7 DUP4 PUSH2 0x372C JUMP JUMPDEST PUSH2 0x6E1 PUSH2 0x6DB DUP4 SLOAD SWAP3 PUSH2 0x6D6 DUP7 DUP6 PUSH2 0x36D6 JUMP JUMPDEST PUSH2 0x36FF JUMP JUMPDEST DUP3 PUSH2 0x371F JUMP JUMPDEST SWAP4 DUP5 ISZERO SWAP4 DUP6 DUP1 DIV PUSH1 0x1 EQ DUP6 OR ISZERO PUSH2 0x881 JUMPI PUSH2 0x2710 DUP7 DIV SWAP5 PUSH1 0x1 OR ISZERO PUSH2 0x881 JUMPI PUSH2 0x713 DUP6 PUSH2 0x70E DUP2 DUP10 PUSH2 0x371F JUMP JUMPDEST PUSH2 0x371F JUMP JUMPDEST SWAP3 SELFBALANCE DUP5 GT PUSH2 0x86C JUMPI PUSH2 0x731 SWAP2 PUSH2 0x72A DUP9 DUP13 SWAP4 PUSH2 0x371F JUMP JUMPDEST DUP7 SSTORE PUSH2 0x372C JUMP JUMPDEST SWAP1 SSTORE PUSH1 0x2 DUP3 ADD PUSH2 0x742 DUP3 DUP3 SLOAD PUSH2 0x371F JUMP JUMPDEST SWAP1 SSTORE PUSH1 0x3 DUP3 ADD PUSH2 0x753 DUP9 DUP3 SLOAD PUSH2 0x372C JUMP JUMPDEST SWAP1 SSTORE PUSH1 0x40 MLOAD PUSH4 0x23B872DD PUSH1 0xE0 SHL DUP2 MSTORE CALLER PUSH1 0x4 DUP3 ADD MSTORE ADDRESS PUSH1 0x24 DUP3 ADD MSTORE DUP8 PUSH1 0x44 DUP3 ADD MSTORE PUSH1 0x20 DUP2 PUSH1 0x64 DUP2 PUSH2 0x240 MLOAD DUP12 GAS CALL DUP1 ISZERO PUSH2 0x85E JUMPI PUSH2 0x831 JUMPI JUMPDEST POP PUSH2 0x240 MLOAD SWAP1 DUP2 SWAP1 DUP2 SWAP1 DUP2 SWAP1 CALLER GAS CALL PUSH2 0x7A3 PUSH2 0x36A6 JUMP JUMPDEST POP ISZERO PUSH2 0x81C JUMPI DUP4 PUSH2 0x7E1 DUP4 PUSH2 0x7DC PUSH2 0x7E6 SWAP6 PUSH32 0x9387A595AC4BE9038BBB9751ABAD8BAA3DCF219DD9E19ABB81552BD521FE3546 SWAP9 PUSH2 0x3924 JUMP JUMPDEST PUSH2 0x3978 JUMP JUMPDEST PUSH2 0x39D2 JUMP JUMPDEST DUP3 PUSH2 0x240 MLOAD MSTORE PUSH1 0xA PUSH1 0x20 MSTORE PUSH1 0xB PUSH1 0x40 PUSH2 0x240 MLOAD KECCAK256 ADD SLOAD SWAP1 PUSH2 0x80E PUSH1 0x40 MLOAD SWAP3 DUP4 SWAP3 CALLER SWAP8 DUP5 PUSH2 0x3739 JUMP JUMPDEST SUB SWAP1 LOG3 PUSH2 0x240 MLOAD PUSH1 0x1 DUP2 SSTORE DUP1 RETURN JUMPDEST PUSH4 0x4C9786D PUSH1 0xE1 SHL PUSH2 0x240 MLOAD MSTORE PUSH1 0x4 PUSH2 0x240 MLOAD REVERT JUMPDEST PUSH2 0x852 SWAP1 PUSH1 0x20 RETURNDATASIZE PUSH1 0x20 GT PUSH2 0x857 JUMPI JUMPDEST PUSH2 0x84A DUP2 DUP4 PUSH2 0x3467 JUMP JUMPDEST DUP2 ADD SWAP1 PUSH2 0x3673 JUMP JUMPDEST PUSH2 0x78C JUMP JUMPDEST POP RETURNDATASIZE PUSH2 0x840 JUMP JUMPDEST PUSH1 0x40 MLOAD RETURNDATASIZE PUSH2 0x240 MLOAD DUP3 RETURNDATACOPY RETURNDATASIZE SWAP1 REVERT JUMPDEST PUSH4 0xAB0C048B PUSH1 0xE0 SHL PUSH2 0x240 MLOAD MSTORE PUSH1 0x4 PUSH2 0x240 MLOAD REVERT JUMPDEST PUSH4 0x4E487B71 PUSH1 0xE0 SHL PUSH2 0x240 MLOAD MSTORE PUSH1 0x11 PUSH1 0x4 MSTORE PUSH1 0x24 PUSH2 0x240 MLOAD REVERT JUMPDEST PUSH4 0x61655153 PUSH1 0xE1 SHL PUSH2 0x240 MLOAD MSTORE PUSH1 0x4 PUSH2 0x240 MLOAD REVERT JUMPDEST SWAP2 POP POP PUSH1 0x20 DUP2 RETURNDATASIZE PUSH1 0x20 GT PUSH2 0x8E2 JUMPI JUMPDEST DUP2 PUSH2 0x8CC PUSH1 0x20 SWAP4 DUP4 PUSH2 0x3467 JUMP JUMPDEST DUP2 ADD SUB SLT PUSH2 0x8DD JUMPI DUP4 SWAP1 MLOAD DUP6 PUSH2 0x699 JUMP JUMPDEST PUSH1 0x0 DUP1 REVERT JUMPDEST RETURNDATASIZE SWAP2 POP PUSH2 0x8BF JUMP JUMPDEST PUSH4 0xE794C647 PUSH1 0xE0 SHL PUSH2 0x240 MLOAD MSTORE PUSH1 0x4 PUSH2 0x240 MLOAD REVERT JUMPDEST PUSH4 0xE2B861A1 PUSH1 0xE0 SHL PUSH2 0x240 MLOAD MSTORE PUSH1 0x4 PUSH2 0x240 MLOAD REVERT JUMPDEST PUSH4 0x65E52D51 PUSH1 0xE1 SHL PUSH2 0x240 MLOAD MSTORE PUSH1 0x4 PUSH2 0x240 MLOAD REVERT JUMPDEST PUSH4 0x558A1E03 PUSH1 0xE1 SHL PUSH2 0x240 MLOAD MSTORE PUSH1 0x4 PUSH2 0x240 MLOAD REVERT JUMPDEST CALLVALUE PUSH2 0x262 JUMPI PUSH1 0x20 CALLDATASIZE PUSH1 0x3 NOT ADD SLT PUSH2 0x262 JUMPI PUSH2 0x957 PUSH2 0x3419 JUMP JUMPDEST PUSH1 0x0 DUP1 MLOAD PUSH1 0x20 PUSH2 0x429A DUP4 CODECOPY DUP2 MLOAD SWAP2 MSTORE SLOAD PUSH1 0x1 PUSH1 0x1 PUSH1 0xA0 SHL SUB AND CALLER SUB PUSH2 0x9C8 JUMPI PUSH2 0x240 DUP1 MLOAD PUSH1 0x1 PUSH1 0x1 PUSH1 0xA0 SHL SUB SWAP3 SWAP1 SWAP3 AND SWAP2 DUP3 SWAP1 MSTORE PUSH1 0xE PUSH1 0x20 MSTORE MLOAD PUSH1 0x40 DUP2 KECCAK256 DUP1 SLOAD PUSH1 0xFF NOT AND SWAP1 SSTORE PUSH32 0xE9C9A473410D8FD0BB91117F70A4B750BCE859AB398B18CC49160F5FF41D66E4 SWAP1 DUP1 LOG2 PUSH2 0x240 MLOAD DUP1 RETURN JUMPDEST PUSH4 0x5FC483C5 PUSH1 0xE0 SHL PUSH2 0x240 MLOAD MSTORE PUSH1 0x4 PUSH2 0x240 MLOAD REVERT JUMPDEST CALLVALUE PUSH2 0x262 JUMPI PUSH1 0x20 CALLDATASIZE PUSH1 0x3 NOT ADD SLT PUSH2 0x262 JUMPI PUSH2 0xA06 PUSH2 0x9F9 PUSH2 0x3419 JUMP JUMPDEST PUSH2 0xA01 PUSH2 0x388C JUMP JUMPDEST PUSH2 0x3828 JUMP JUMPDEST PUSH2 0x240 MLOAD DUP1 RETURN JUMPDEST CALLVALUE PUSH2 0x262 JUMPI PUSH1 0x20 CALLDATASIZE PUSH1 0x3 NOT ADD SLT PUSH2 0x262 JUMPI PUSH1 0x1 PUSH1 0x1 PUSH1 0xA0 SHL SUB PUSH2 0xA2E PUSH2 0x3419 JUMP JUMPDEST AND PUSH2 0x240 MLOAD MSTORE PUSH1 0xE PUSH1 0x20 MSTORE PUSH1 0x20 PUSH1 0xFF PUSH1 0x40 PUSH2 0x240 MLOAD KECCAK256 SLOAD AND PUSH1 0x40 MLOAD SWAP1 ISZERO ISZERO DUP2 MSTORE RETURN JUMPDEST CALLVALUE PUSH2 0x262 JUMPI PUSH2 0x240 MLOAD CALLDATASIZE PUSH1 0x3 NOT ADD SLT PUSH2 0x262 JUMPI PUSH1 0x20 PUSH1 0x40 MLOAD PUSH1 0x3 DUP2 MSTORE RETURN JUMPDEST CALLVALUE PUSH2 0x262 JUMPI PUSH2 0x240 MLOAD CALLDATASIZE PUSH1 0x3 NOT ADD SLT PUSH2 0x262 JUMPI PUSH1 0x20 PUSH1 0x40 MLOAD PUSH2 0x240 MLOAD DUP2 MSTORE RETURN JUMPDEST CALLVALUE PUSH2 0x262 JUMPI PUSH1 0x20 CALLDATASIZE PUSH1 0x3 NOT ADD SLT PUSH2 0x262 JUMPI PUSH2 0xAA7 PUSH2 0x3419 JUMP JUMPDEST PUSH1 0x0 DUP1 MLOAD PUSH1 0x20 PUSH2 0x431A DUP4 CODECOPY DUP2 MLOAD SWAP2 MSTORE SLOAD PUSH1 0x40 DUP2 SWAP1 SHR PUSH1 0xFF AND ISZERO SWAP2 SWAP1 PUSH1 0x1 PUSH1 0x1 PUSH1 0x40 SHL SUB DUP2 AND DUP1 ISZERO SWAP1 DUP2 PUSH2 0xC4E JUMPI JUMPDEST PUSH1 0x1 EQ SWAP1 DUP2 PUSH2 0xC44 JUMPI JUMPDEST ISZERO SWAP1 DUP2 PUSH2 0xC3B JUMPI JUMPDEST POP PUSH2 0xC26 JUMPI PUSH1 0x1 PUSH1 0x1 PUSH1 0x40 SHL SUB NOT DUP2 AND PUSH1 0x1 OR PUSH1 0x0 DUP1 MLOAD PUSH1 0x20 PUSH2 0x431A DUP4 CODECOPY DUP2 MLOAD SWAP2 MSTORE SSTORE DUP3 PUSH2 0xBFD JUMPI JUMPDEST POP PUSH2 0xB19 PUSH2 0x424B JUMP JUMPDEST PUSH2 0xB21 PUSH2 0x424B JUMP JUMPDEST PUSH2 0xB2A CALLER PUSH2 0x3828 JUMP JUMPDEST PUSH2 0x240 MLOAD PUSH1 0x1 DUP1 DUP3 SSTORE PUSH1 0x5 DUP1 SLOAD PUSH1 0x1 PUSH1 0x1 PUSH1 0xA0 SHL SUB NOT SWAP1 DUP2 AND SWAP1 SWAP2 SSTORE DUP2 SLOAD AND PUSH1 0x1 PUSH1 0x1 PUSH1 0xA0 SHL SUB SWAP4 SWAP1 SWAP4 AND SWAP3 SWAP1 SWAP3 OR SWAP1 SWAP2 SSTORE PUSH7 0x38D7EA4C68000 PUSH1 0x9 SSTORE PUSH1 0x40 MLOAD PUSH1 0x0 DUP1 MLOAD PUSH1 0x20 PUSH2 0x42DA DUP4 CODECOPY DUP2 MLOAD SWAP2 MSTORE SWAP2 PUSH1 0x20 SWAP2 SWAP1 PUSH1 0x0 DUP1 MLOAD PUSH1 0x20 PUSH2 0x42BA DUP4 CODECOPY DUP2 MLOAD SWAP2 MSTORE DUP2 DUP1 LOG2 PUSH7 0x38D7EA4C68000 DUP2 MSTORE LOG1 PUSH2 0xBA6 JUMPI PUSH2 0x240 MLOAD DUP1 RETURN JUMPDEST PUSH1 0xFF PUSH1 0x40 SHL NOT PUSH1 0x0 DUP1 MLOAD PUSH1 0x20 PUSH2 0x431A DUP4 CODECOPY DUP2 MLOAD SWAP2 MSTORE SLOAD AND PUSH1 0x0 DUP1 MLOAD PUSH1 0x20 PUSH2 0x431A DUP4 CODECOPY DUP2 MLOAD SWAP2 MSTORE SSTORE PUSH32 0xC7F505B2F371AE2175EE4913F4499E1F2633A7B5936321EED1CDAEB6115181D2 PUSH1 0x20 PUSH1 0x40 MLOAD PUSH1 0x1 DUP2 MSTORE LOG1 PUSH2 0xA06 JUMP JUMPDEST PUSH1 0x1 PUSH1 0x1 PUSH1 0x48 SHL SUB NOT AND PUSH1 0x1 PUSH1 0x1 PUSH1 0x40 SHL ADD OR PUSH1 0x0 DUP1 MLOAD PUSH1 0x20 PUSH2 0x431A DUP4 CODECOPY DUP2 MLOAD SWAP2 MSTORE SSTORE DUP3 PUSH2 0xB10 JUMP JUMPDEST PUSH4 0xF92EE8A9 PUSH1 0xE0 SHL PUSH2 0x240 MLOAD MSTORE PUSH1 0x4 PUSH2 0x240 MLOAD REVERT JUMPDEST SWAP1 POP ISZERO DUP5 PUSH2 0xAE7 JUMP JUMPDEST ADDRESS EXTCODESIZE ISZERO SWAP2 POP PUSH2 0xADF JUMP JUMPDEST DUP5 SWAP2 POP PUSH2 0xAD5 JUMP JUMPDEST CALLVALUE PUSH2 0x262 JUMPI PUSH2 0x240 MLOAD CALLDATASIZE PUSH1 0x3 NOT ADD SLT PUSH2 0x262 JUMPI PUSH1 0x6 SLOAD PUSH1 0x40 MLOAD PUSH1 0x1 PUSH1 0x1 PUSH1 0xA0 SHL SUB SWAP1 SWAP2 AND DUP2 MSTORE PUSH1 0x20 SWAP1 RETURN JUMPDEST CALLVALUE PUSH2 0x262 JUMPI PUSH2 0x240 MLOAD CALLDATASIZE PUSH1 0x3 NOT ADD SLT PUSH2 0x262 JUMPI PUSH1 0x20 PUSH1 0x40 MLOAD PUSH7 0x1C6BF52634000 DUP2 MSTORE RETURN JUMPDEST CALLVALUE PUSH2 0x262 JUMPI PUSH1 0x20 CALLDATASIZE PUSH1 0x3 NOT ADD SLT PUSH2 0x262 JUMPI PUSH1 0x1 PUSH1 0x1 PUSH1 0xA0 SHL SUB PUSH2 0xCC6 PUSH2 0x3419 JUMP JUMPDEST AND PUSH2 0x240 MLOAD MSTORE PUSH1 0xB PUSH1 0x20 MSTORE PUSH1 0xA0 PUSH1 0x40 PUSH2 0x240 MLOAD KECCAK256 DUP1 SLOAD SWAP1 PUSH1 0x1 DUP2 ADD SLOAD SWAP1 PUSH1 0x2 DUP2 ADD SLOAD PUSH1 0x4 PUSH1 0x3 DUP4 ADD SLOAD SWAP3 ADD SLOAD SWAP3 PUSH1 0x40 MLOAD SWAP5 DUP6 MSTORE PUSH1 0x20 DUP6 ADD MSTORE PUSH1 0x40 DUP5 ADD MSTORE PUSH1 0x60 DUP4 ADD MSTORE PUSH1 0x80 DUP3 ADD MSTORE RETURN JUMPDEST CALLVALUE PUSH2 0x262 JUMPI PUSH2 0x240 MLOAD CALLDATASIZE PUSH1 0x3 NOT ADD SLT PUSH2 0x262 JUMPI PUSH1 0x3 SLOAD PUSH1 0x40 MLOAD PUSH1 0x1 PUSH1 0x1 PUSH1 0xA0 SHL SUB SWAP1 SWAP2 AND DUP2 MSTORE PUSH1 0x20 SWAP1 RETURN JUMPDEST PUSH2 0x3533 JUMP JUMPDEST CALLVALUE PUSH2 0x262 JUMPI PUSH1 0x20 CALLDATASIZE PUSH1 0x3 NOT ADD SLT PUSH2 0x262 JUMPI PUSH1 0x0 DUP1 MLOAD PUSH1 0x20 PUSH2 0x429A DUP4 CODECOPY DUP2 MLOAD SWAP2 MSTORE SLOAD PUSH1 0x4 CALLDATALOAD SWAP1 PUSH1 0x1 PUSH1 0x1 PUSH1 0xA0 SHL SUB AND CALLER SUB PUSH2 0x9C8 JUMPI PUSH6 0x5AF3107A4000 DUP2 LT PUSH2 0xDA4 JUMPI PUSH1 0x20 DUP2 PUSH1 0x0 DUP1 MLOAD PUSH1 0x20 PUSH2 0x42DA DUP4 CODECOPY DUP2 MLOAD SWAP2 MSTORE SWAP3 PUSH1 0x9 SSTORE PUSH1 0x40 MLOAD SWAP1 DUP2 MSTORE LOG1 PUSH2 0x240 MLOAD DUP1 RETURN JUMPDEST PUSH4 0xAE0F6505 PUSH1 0xE0 SHL PUSH2 0x240 MLOAD MSTORE PUSH1 0x4 PUSH2 0x240 MLOAD REVERT JUMPDEST CALLVALUE PUSH2 0x262 JUMPI PUSH2 0x240 MLOAD CALLDATASIZE PUSH1 0x3 NOT ADD SLT PUSH2 0x262 JUMPI PUSH1 0x4 SLOAD PUSH1 0x40 MLOAD PUSH1 0x1 PUSH1 0x1 PUSH1 0xA0 SHL SUB SWAP1 SWAP2 AND DUP2 MSTORE PUSH1 0x20 SWAP1 RETURN JUMPDEST CALLVALUE PUSH2 0x262 JUMPI PUSH2 0x240 MLOAD CALLDATASIZE PUSH1 0x3 NOT ADD SLT PUSH2 0x262 JUMPI PUSH1 0x20 PUSH1 0x40 MLOAD PUSH1 0x1 DUP2 MSTORE RETURN JUMPDEST CALLVALUE PUSH2 0x262 JUMPI PUSH1 0x20 CALLDATASIZE PUSH1 0x3 NOT ADD SLT PUSH2 0x262 JUMPI PUSH1 0x1 PUSH1 0x1 PUSH1 0xA0 SHL SUB PUSH2 0xE23 PUSH2 0x3419 JUMP JUMPDEST AND PUSH2 0x240 MLOAD MSTORE PUSH1 0xC PUSH1 0x20 MSTORE PUSH1 0x20 PUSH1 0x40 PUSH2 0x240 MLOAD KECCAK256 SLOAD PUSH1 0x40 MLOAD SWAP1 DUP2 MSTORE RETURN JUMPDEST CALLVALUE PUSH2 0x262 JUMPI PUSH1 0x20 CALLDATASIZE PUSH1 0x3 NOT ADD SLT PUSH2 0x262 JUMPI PUSH2 0xE59 PUSH2 0x3419 JUMP JUMPDEST PUSH1 0x0 DUP1 MLOAD PUSH1 0x20 PUSH2 0x429A DUP4 CODECOPY DUP2 MLOAD SWAP2 MSTORE SLOAD PUSH1 0x1 PUSH1 0x1 PUSH1 0xA0 SHL SUB AND CALLER SUB PUSH2 0x9C8 JUMPI PUSH1 0x5 DUP1 SLOAD PUSH1 0x1 PUSH1 0x1 PUSH1 0xA0 SHL SUB NOT AND PUSH1 0x1 PUSH1 0x1 PUSH1 0xA0 SHL SUB SWAP3 SWAP1 SWAP3 AND SWAP2 DUP3 OR SWAP1 SSTORE PUSH2 0x240 MLOAD PUSH1 0x0 DUP1 MLOAD PUSH1 0x20 PUSH2 0x42BA DUP4 CODECOPY DUP2 MLOAD SWAP2 MSTORE SWAP1 DUP1 LOG2 PUSH2 0x240 MLOAD DUP1 RETURN JUMPDEST PUSH2 0x2E0 CALLDATASIZE PUSH1 0x3 NOT ADD SLT PUSH2 0x262 JUMPI PUSH1 0x4 CALLDATALOAD PUSH1 0x1 PUSH1 0x1 PUSH1 0x40 SHL SUB DUP2 GT PUSH2 0x262 JUMPI PUSH2 0xEE0 SWAP1 CALLDATASIZE SWAP1 PUSH1 0x4 ADD PUSH2 0x34BB JUMP JUMPDEST PUSH2 0x1E0 MSTORE PUSH1 0x24 CALLDATALOAD PUSH1 0x1 PUSH1 0x1 PUSH1 0x40 SHL SUB DUP2 GT PUSH2 0x262 JUMPI PUSH2 0xF03 SWAP1 CALLDATASIZE SWAP1 PUSH1 0x4 ADD PUSH2 0x34BB JUMP JUMPDEST PUSH2 0x260 MSTORE PUSH1 0x44 CALLDATALOAD PUSH1 0x1 PUSH1 0x1 PUSH1 0x40 SHL SUB DUP2 GT PUSH2 0x262 JUMPI PUSH2 0xF26 SWAP1 CALLDATASIZE SWAP1 PUSH1 0x4 ADD PUSH2 0x34BB JUMP JUMPDEST PUSH1 0x64 CALLDATALOAD PUSH1 0x1 PUSH1 0x1 PUSH1 0x40 SHL SUB DUP2 GT PUSH2 0x262 JUMPI PUSH2 0xF45 SWAP1 CALLDATASIZE SWAP1 PUSH1 0x4 ADD PUSH2 0x34BB JUMP JUMPDEST SWAP1 PUSH1 0x84 CALLDATALOAD PUSH1 0x1 PUSH1 0x1 PUSH1 0x40 SHL SUB DUP2 GT PUSH2 0x262 JUMPI PUSH2 0xF65 SWAP1 CALLDATASIZE SWAP1 PUSH1 0x4 ADD PUSH2 0x34BB JUMP JUMPDEST SWAP1 PUSH1 0xA4 CALLDATALOAD PUSH1 0x1 PUSH1 0x1 PUSH1 0x40 SHL SUB DUP2 GT PUSH2 0x262 JUMPI PUSH2 0xF85 SWAP1 CALLDATASIZE SWAP1 PUSH1 0x4 ADD PUSH2 0x34BB JUMP JUMPDEST SWAP1 PUSH1 0xC4 CALLDATALOAD PUSH1 0x1 PUSH1 0x1 PUSH1 0x40 SHL SUB DUP2 GT PUSH2 0x262 JUMPI PUSH2 0xFA5 SWAP1 CALLDATASIZE SWAP1 PUSH1 0x4 ADD PUSH2 0x34BB JUMP JUMPDEST PUSH1 0x80 MSTORE PUSH1 0xE4 CALLDATALOAD PUSH1 0x1 PUSH1 0x1 PUSH1 0x40 SHL SUB DUP2 GT PUSH2 0x262 JUMPI PUSH2 0xFC7 SWAP1 CALLDATASIZE SWAP1 PUSH1 0x4 ADD PUSH2 0x34BB JUMP JUMPDEST PUSH2 0x104 CALLDATALOAD PUSH2 0x140 DUP2 SWAP1 MSTORE SWAP1 SWAP3 SWAP1 DUP1 ISZERO ISZERO SWAP1 SUB PUSH2 0x262 JUMPI PUSH1 0xFF PUSH2 0x124 CALLDATALOAD AND PUSH2 0x124 CALLDATALOAD SUB PUSH2 0x262 JUMPI PUSH2 0x144 CALLDATALOAD DUP1 ISZERO SWAP4 SWAP1 DUP5 ISZERO DUP2 SUB PUSH2 0x262 JUMPI PUSH2 0x160 CALLDATASIZE PUSH2 0x163 NOT ADD SLT PUSH2 0x262 JUMPI PUSH1 0x1 PUSH2 0x240 MLOAD SLOAD SUB PUSH2 0x929 JUMPI PUSH2 0x240 MLOAD PUSH1 0x2 SWAP1 SSTORE PUSH1 0x1 SLOAD PUSH1 0x1 PUSH1 0x1 PUSH1 0xA0 SHL SUB AND ISZERO PUSH2 0x28D6 JUMPI PUSH6 0xB5E620F48000 CALLVALUE LT PUSH2 0x28C1 JUMPI CALLVALUE PUSH6 0x5AF3107A3FFF NOT DUP2 ADD GT PUSH2 0x881 JUMPI PUSH6 0x5AF3107A4000 CALLVALUE PUSH6 0x5AF3107A3FFF NOT ADD LT PUSH2 0xDA4 JUMPI PUSH1 0xFF PUSH2 0x124 CALLDATALOAD AND PUSH2 0x287E JUMPI JUMPDEST PUSH1 0x3 PUSH1 0xFF PUSH2 0x124 CALLDATALOAD AND GT PUSH2 0x2869 JUMPI PUSH2 0x3E8 PUSH2 0xFFFF PUSH2 0x108B PUSH2 0x374F JUMP JUMPDEST AND GT PUSH2 0x2854 JUMPI PUSH2 0xFFFF PUSH2 0x109C PUSH2 0x374F JUMP JUMPDEST AND PUSH2 0x2780 JUMPI JUMPDEST DUP1 PUSH2 0x276C JUMPI JUMPDEST PUSH2 0x2744 JUMPI DUP4 DUP1 PUSH2 0x2759 JUMPI JUMPDEST PUSH2 0x2744 JUMPI PUSH4 0xFFFFFFFF PUSH2 0x10C4 PUSH2 0x37F5 JUMP JUMPDEST AND ISZERO ISZERO DUP1 PUSH2 0x272A JUMPI JUMPDEST PUSH2 0x2701 JUMPI PUSH2 0xFFFF PUSH2 0x10DC PUSH2 0x37A9 JUMP JUMPDEST AND ISZERO DUP1 ISZERO SWAP1 PUSH2 0x2716 JUMPI JUMPDEST PUSH2 0x2701 JUMPI PUSH1 0x5 SLOAD PUSH1 0x1 PUSH1 0x1 PUSH1 0xA0 SHL SUB AND ISZERO PUSH2 0x26E6 JUMPI PUSH2 0x240 MLOAD PUSH1 0x5 SLOAD DUP2 SWAP1 DUP2 SWAP1 DUP2 SWAP1 PUSH6 0x5AF3107A4000 SWAP1 PUSH1 0x1 PUSH1 0x1 PUSH1 0xA0 SHL SUB AND GAS CALL PUSH2 0x1123 PUSH2 0x36A6 JUMP JUMPDEST POP ISZERO PUSH2 0x26D1 JUMPI JUMPDEST PUSH1 0x1 DUP1 PUSH1 0xA0 SHL SUB PUSH1 0x1 SLOAD AND PUSH1 0x20 PUSH1 0x40 MLOAD DUP1 SWAP3 PUSH4 0x5A59B309 PUSH1 0xE0 SHL DUP3 MSTORE PUSH1 0xA0 PUSH1 0x4 DUP4 ADD MSTORE DUP2 DUP1 PUSH2 0x1177 PUSH2 0x1162 PUSH1 0xA4 DUP4 ADD PUSH2 0x1E0 MLOAD PUSH2 0x3632 JUMP JUMPDEST DUP3 DUP2 SUB PUSH1 0x3 NOT ADD PUSH1 0x24 DUP5 ADD MSTORE PUSH2 0x260 MLOAD PUSH2 0x3632 JUMP JUMPDEST ADDRESS PUSH1 0x44 DUP4 ADD MSTORE PUSH2 0x2C4 CALLDATALOAD PUSH1 0x64 DUP4 ADD MSTORE PUSH2 0x2222 PUSH1 0x84 DUP4 ADD MSTORE SUB SWAP2 PUSH2 0x240 MLOAD SWAP1 GAS CALL DUP1 ISZERO PUSH2 0x85E JUMPI PUSH2 0x240 MLOAD PUSH2 0x160 MSTORE PUSH2 0x269F JUMPI JUMPDEST POP PUSH1 0x40 MLOAD PUSH1 0x1 PUSH1 0x1 PUSH1 0x40 SHL SUB PUSH1 0xA0 DUP3 ADD SWAP1 DUP2 GT SWAP1 DUP3 GT OR PUSH2 0x1F5C JUMPI PUSH1 0xA0 DUP2 ADD PUSH1 0x40 MSTORE PUSH9 0x1A055690D9DB80000 DUP2 MSTORE PUSH1 0x4 PUSH1 0x20 DUP3 ADD PUSH12 0x37790968DC8EFFFD1000000 DUP2 MSTORE PUSH1 0x40 DUP4 ADD PUSH2 0x240 MLOAD DUP2 MSTORE PUSH1 0x60 DUP5 ADD SWAP1 PUSH8 0x6765C793FA10079D PUSH1 0x1B SHL DUP3 MSTORE PUSH1 0x80 DUP6 ADD SWAP3 PUSH7 0x1C6BF52634000 DUP5 MSTORE PUSH1 0x1 DUP1 PUSH1 0xA0 SHL SUB PUSH2 0x160 MLOAD AND PUSH2 0x240 MLOAD MSTORE PUSH1 0xB PUSH1 0x20 MSTORE PUSH1 0x40 PUSH2 0x240 MLOAD KECCAK256 SWAP6 MLOAD DUP7 SSTORE MLOAD PUSH1 0x1 DUP7 ADD SSTORE MLOAD PUSH1 0x2 DUP6 ADD SSTORE MLOAD PUSH1 0x3 DUP5 ADD SSTORE MLOAD SWAP2 ADD SSTORE PUSH1 0x1 DUP1 PUSH1 0xA0 SHL SUB PUSH2 0x160 MLOAD AND EXTCODESIZE ISZERO PUSH2 0x262 JUMPI PUSH1 0x40 MLOAD PUSH4 0x40C10F19 PUSH1 0xE0 SHL DUP2 MSTORE ADDRESS PUSH1 0x4 DUP3 ADD MSTORE PUSH8 0x6765C793FA10079D PUSH1 0x1B SHL PUSH1 0x24 DUP3 ADD MSTORE PUSH2 0x240 MLOAD PUSH2 0x160 MLOAD DUP3 SWAP1 PUSH1 0x44 SWAP1 DUP3 SWAP1 DUP5 SWAP1 PUSH1 0x1 PUSH1 0x1 PUSH1 0xA0 SHL SUB AND GAS CALL DUP1 ISZERO PUSH2 0x85E JUMPI PUSH2 0x2684 JUMPI JUMPDEST POP PUSH2 0x140 MLOAD PUSH2 0x2642 JUMPI JUMPDEST PUSH1 0x1 DUP1 PUSH1 0xA0 SHL SUB PUSH2 0x160 MLOAD AND PUSH2 0x240 MLOAD MSTORE PUSH1 0xB PUSH1 0x20 MSTORE PUSH2 0x12DC PUSH1 0x40 PUSH2 0x240 MLOAD KECCAK256 PUSH2 0x4202 JUMP JUMPDEST SWAP2 DUP3 ISZERO PUSH8 0x6765C793FA10079D PUSH1 0x1B SHL DUP1 DUP6 MUL DUP6 SWAP1 DIV EQ OR ISZERO PUSH2 0x881 JUMPI PUSH2 0x1300 PUSH2 0x37E4 JUMP JUMPDEST SWAP6 PUSH2 0x1309 PUSH2 0x374F JUMP JUMPDEST PUSH1 0xA0 MSTORE PUSH2 0x1314 PUSH2 0x3761 JUMP JUMPDEST PUSH1 0xC0 MSTORE PUSH2 0x131F PUSH2 0x3773 JUMP JUMPDEST PUSH1 0xE0 MSTORE PUSH2 0x132A PUSH2 0x3785 JUMP JUMPDEST PUSH2 0x100 MSTORE PUSH2 0x1336 PUSH2 0x3797 JUMP JUMPDEST PUSH2 0x120 MSTORE PUSH2 0x1342 PUSH2 0x37CD JUMP JUMPDEST PUSH2 0x180 MSTORE PUSH2 0x134E PUSH2 0x37F5 JUMP JUMPDEST PUSH2 0x200 MSTORE PUSH2 0x135A PUSH2 0x37A9 JUMP JUMPDEST PUSH2 0x220 MSTORE PUSH2 0x1366 PUSH2 0x37BB JUMP JUMPDEST PUSH2 0x1C0 MSTORE PUSH2 0x2A4 CALLDATALOAD PUSH1 0x1 PUSH1 0x1 PUSH1 0xA0 SHL SUB DUP2 AND SWAP1 SUB PUSH2 0x262 JUMPI PUSH1 0x40 MLOAD PUSH2 0x1A0 DUP2 SWAP1 MSTORE PUSH1 0x1 PUSH1 0x1 PUSH1 0x40 SHL SUB PUSH2 0x400 DUP3 ADD SWAP1 DUP2 GT SWAP2 GT OR PUSH2 0x1F5C JUMPI PUSH1 0xFF SWAP8 PUSH8 0xDE0B6B3A7640000 SWAP6 PUSH2 0x400 PUSH2 0x1A0 MLOAD ADD PUSH1 0x40 MSTORE PUSH1 0x1 DUP1 PUSH1 0xA0 SHL SUB PUSH2 0x160 MLOAD AND PUSH2 0x1A0 MLOAD MSTORE PUSH2 0x1E0 MLOAD PUSH1 0x20 PUSH2 0x1A0 MLOAD ADD MSTORE PUSH2 0x260 MLOAD PUSH1 0x40 PUSH2 0x1A0 MLOAD ADD MSTORE PUSH1 0x60 PUSH2 0x1A0 MLOAD ADD MSTORE PUSH1 0x80 PUSH2 0x1A0 MLOAD ADD MSTORE PUSH1 0xA0 PUSH2 0x1A0 MLOAD ADD MSTORE PUSH1 0xC0 PUSH2 0x1A0 MLOAD ADD MSTORE PUSH1 0x80 MLOAD PUSH1 0xE0 PUSH2 0x1A0 MLOAD ADD MSTORE PUSH2 0x100 PUSH2 0x1A0 MLOAD ADD MSTORE CALLER PUSH2 0x120 PUSH2 0x1A0 MLOAD ADD MSTORE PUSH8 0x6765C793FA10079D PUSH1 0x1B SHL PUSH2 0x140 PUSH2 0x1A0 MLOAD ADD MSTORE DUP1 PUSH2 0x160 PUSH2 0x1A0 MLOAD ADD MSTORE PUSH8 0x6765C793FA10079D PUSH1 0x1B SHL MUL DIV PUSH2 0x180 PUSH2 0x1A0 MLOAD ADD MSTORE TIMESTAMP PUSH2 0x1A0 DUP1 MLOAD ADD MSTORE PUSH2 0x240 MLOAD PUSH2 0x1C0 PUSH2 0x1A0 MLOAD ADD MSTORE PUSH1 0x1 PUSH2 0x1E0 PUSH2 0x1A0 MLOAD ADD MSTORE PUSH2 0x240 MLOAD PUSH2 0x200 PUSH2 0x1A0 MLOAD ADD MSTORE PUSH2 0x240 MLOAD PUSH2 0x220 PUSH2 0x1A0 MLOAD ADD MSTORE PUSH2 0x240 MLOAD PUSH2 0x240 PUSH2 0x1A0 MLOAD ADD MSTORE PUSH2 0x240 MLOAD PUSH2 0x260 PUSH2 0x1A0 MLOAD ADD MSTORE ISZERO PUSH2 0x280 PUSH2 0x1A0 MLOAD ADD MSTORE AND PUSH2 0x2A0 PUSH2 0x1A0 MLOAD ADD MSTORE PUSH2 0xFFFF PUSH1 0xA0 MLOAD AND PUSH2 0x2C0 PUSH2 0x1A0 MLOAD ADD MSTORE PUSH2 0xFFFF PUSH1 0xC0 MLOAD AND PUSH2 0x2E0 PUSH2 0x1A0 MLOAD ADD MSTORE PUSH2 0xFFFF PUSH1 0xE0 MLOAD AND PUSH2 0x300 PUSH2 0x1A0 MLOAD ADD MSTORE PUSH2 0xFFFF PUSH2 0x100 MLOAD AND PUSH2 0x320 PUSH2 0x1A0 MLOAD ADD MSTORE PUSH2 0xFFFF PUSH2 0x120 MLOAD AND PUSH2 0x340 PUSH2 0x1A0 MLOAD ADD MSTORE PUSH1 0x1 DUP1 PUSH1 0xA0 SHL SUB PUSH2 0x180 MLOAD AND PUSH2 0x360 PUSH2 0x1A0 MLOAD ADD MSTORE PUSH4 0xFFFFFFFF PUSH2 0x200 MLOAD AND PUSH2 0x380 PUSH2 0x1A0 MLOAD ADD MSTORE PUSH2 0xFFFF PUSH2 0x220 MLOAD AND PUSH2 0x3A0 PUSH2 0x1A0 MLOAD ADD MSTORE PUSH2 0xFFFF PUSH2 0x1C0 MLOAD AND PUSH2 0x3C0 PUSH2 0x1A0 MLOAD ADD MSTORE PUSH1 0x1 DUP1 PUSH1 0xA0 SHL SUB PUSH2 0x2A4 CALLDATALOAD AND PUSH2 0x3E0 PUSH2 0x1A0 MLOAD ADD MSTORE PUSH1 0x1 DUP1 PUSH1 0xA0 SHL SUB PUSH2 0x160 MLOAD AND PUSH2 0x240 MLOAD MSTORE PUSH1 0xA PUSH1 0x20 MSTORE PUSH1 0x40 PUSH2 0x240 MLOAD KECCAK256 PUSH1 0x1 DUP1 PUSH1 0xA0 SHL SUB PUSH1 0x1 DUP1 PUSH1 0xA0 SHL SUB PUSH2 0x1A0 MLOAD MLOAD AND AND PUSH1 0x1 DUP1 PUSH1 0xA0 SHL SUB NOT DUP3 SLOAD AND OR DUP2 SSTORE PUSH1 0x20 PUSH2 0x1A0 MLOAD ADD MLOAD DUP1 MLOAD SWAP1 PUSH1 0x1 DUP1 PUSH1 0x40 SHL SUB DUP3 GT PUSH2 0x1F5C JUMPI DUP2 SWAP1 PUSH2 0x15D3 PUSH1 0x1 DUP6 ADD SLOAD PUSH2 0x3554 JUMP JUMPDEST PUSH1 0x1F DUP2 GT PUSH2 0x25E9 JUMPI JUMPDEST POP PUSH1 0x20 SWAP1 PUSH1 0x1 PUSH1 0x1F DUP5 GT EQ PUSH2 0x2572 JUMPI PUSH2 0x240 MLOAD SWAP3 PUSH2 0x2567 JUMPI JUMPDEST POP POP DUP2 PUSH1 0x1 SHL SWAP2 PUSH1 0x0 NOT SWAP1 PUSH1 0x3 SHL SHR NOT AND OR PUSH1 0x1 DUP3 ADD SSTORE JUMPDEST PUSH2 0x1A0 MLOAD PUSH1 0x40 ADD MLOAD DUP1 MLOAD SWAP1 PUSH1 0x1 PUSH1 0x1 PUSH1 0x40 SHL SUB DUP3 GT PUSH2 0x1F5C JUMPI DUP2 SWAP1 PUSH2 0x1635 PUSH1 0x2 DUP6 ADD SLOAD PUSH2 0x3554 JUMP JUMPDEST PUSH1 0x1F DUP2 GT PUSH2 0x250E JUMPI JUMPDEST POP PUSH1 0x20 SWAP1 PUSH1 0x1 PUSH1 0x1F DUP5 GT EQ PUSH2 0x2497 JUMPI PUSH2 0x240 MLOAD SWAP3 PUSH2 0x248C JUMPI JUMPDEST POP POP DUP2 PUSH1 0x1 SHL SWAP2 PUSH1 0x0 NOT SWAP1 PUSH1 0x3 SHL SHR NOT AND OR PUSH1 0x2 DUP3 ADD SSTORE JUMPDEST PUSH2 0x1A0 MLOAD PUSH1 0x60 ADD MLOAD DUP1 MLOAD SWAP1 PUSH1 0x1 PUSH1 0x1 PUSH1 0x40 SHL SUB DUP3 GT PUSH2 0x1F5C JUMPI DUP2 SWAP1 PUSH2 0x1697 PUSH1 0x3 DUP6 ADD SLOAD PUSH2 0x3554 JUMP JUMPDEST PUSH1 0x1F DUP2 GT PUSH2 0x2433 JUMPI JUMPDEST POP PUSH1 0x20 SWAP1 PUSH1 0x1 PUSH1 0x1F DUP5 GT EQ PUSH2 0x23BC JUMPI PUSH2 0x240 MLOAD SWAP3 PUSH2 0x23B1 JUMPI JUMPDEST POP POP DUP2 PUSH1 0x1 SHL SWAP2 PUSH1 0x0 NOT SWAP1 PUSH1 0x3 SHL SHR NOT AND OR PUSH1 0x3 DUP3 ADD SSTORE JUMPDEST PUSH2 0x1A0 MLOAD PUSH1 0x80 ADD MLOAD DUP1 MLOAD SWAP1 PUSH1 0x1 PUSH1 0x1 PUSH1 0x40 SHL SUB DUP3 GT PUSH2 0x1F5C JUMPI DUP2 SWAP1 PUSH2 0x16F9 PUSH1 0x4 DUP6 ADD SLOAD PUSH2 0x3554 JUMP JUMPDEST PUSH1 0x1F DUP2 GT PUSH2 0x2358 JUMPI JUMPDEST POP PUSH1 0x20 SWAP1 PUSH1 0x1 PUSH1 0x1F DUP5 GT EQ PUSH2 0x22E1 JUMPI PUSH2 0x240 MLOAD SWAP3 PUSH2 0x22D6 JUMPI JUMPDEST POP POP DUP2 PUSH1 0x1 SHL SWAP2 PUSH1 0x0 NOT SWAP1 PUSH1 0x3 SHL SHR NOT AND OR PUSH1 0x4 DUP3 ADD SSTORE JUMPDEST PUSH2 0x1A0 MLOAD PUSH1 0xA0 ADD MLOAD DUP1 MLOAD SWAP1 PUSH1 0x1 PUSH1 0x1 PUSH1 0x40 SHL SUB DUP3 GT PUSH2 0x1F5C JUMPI DUP2 SWAP1 PUSH2 0x175B PUSH1 0x5 DUP6 ADD SLOAD PUSH2 0x3554 JUMP JUMPDEST PUSH1 0x1F DUP2 GT PUSH2 0x227D JUMPI JUMPDEST POP PUSH1 0x20 SWAP1 PUSH1 0x1 PUSH1 0x1F DUP5 GT EQ PUSH2 0x2206 JUMPI PUSH2 0x240 MLOAD SWAP3 PUSH2 0x21FB JUMPI JUMPDEST POP POP DUP2 PUSH1 0x1 SHL SWAP2 PUSH1 0x0 NOT SWAP1 PUSH1 0x3 SHL SHR NOT AND OR PUSH1 0x5 DUP3 ADD SSTORE JUMPDEST PUSH2 0x1A0 MLOAD PUSH1 0xC0 ADD MLOAD DUP1 MLOAD SWAP1 PUSH1 0x1 PUSH1 0x1 PUSH1 0x40 SHL SUB DUP3 GT PUSH2 0x1F5C JUMPI DUP2 SWAP1 PUSH2 0x17BD PUSH1 0x6 DUP6 ADD SLOAD PUSH2 0x3554 JUMP JUMPDEST PUSH1 0x1F DUP2 GT PUSH2 0x21A2 JUMPI JUMPDEST POP PUSH1 0x20 SWAP1 PUSH1 0x1 PUSH1 0x1F DUP5 GT EQ PUSH2 0x212B JUMPI PUSH2 0x240 MLOAD SWAP3 PUSH2 0x2120 JUMPI JUMPDEST POP POP DUP2 PUSH1 0x1 SHL SWAP2 PUSH1 0x0 NOT SWAP1 PUSH1 0x3 SHL SHR NOT AND OR PUSH1 0x6 DUP3 ADD SSTORE JUMPDEST PUSH2 0x1A0 MLOAD PUSH1 0xE0 ADD MLOAD DUP1 MLOAD SWAP1 PUSH1 0x1 PUSH1 0x1 PUSH1 0x40 SHL SUB DUP3 GT PUSH2 0x1F5C JUMPI DUP2 SWAP1 PUSH2 0x181F PUSH1 0x7 DUP6 ADD SLOAD PUSH2 0x3554 JUMP JUMPDEST PUSH1 0x1F DUP2 GT PUSH2 0x20C7 JUMPI JUMPDEST POP PUSH1 0x20 SWAP1 PUSH1 0x1 PUSH1 0x1F DUP5 GT EQ PUSH2 0x2050 JUMPI PUSH2 0x240 MLOAD SWAP3 PUSH2 0x2045 JUMPI JUMPDEST POP POP DUP2 PUSH1 0x1 SHL SWAP2 PUSH1 0x0 NOT SWAP1 PUSH1 0x3 SHL SHR NOT AND OR PUSH1 0x7 DUP3 ADD SSTORE JUMPDEST PUSH2 0x1A0 MLOAD PUSH2 0x100 ADD MLOAD DUP1 MLOAD SWAP2 SWAP1 PUSH1 0x1 PUSH1 0x1 PUSH1 0x40 SHL SUB DUP4 GT PUSH2 0x1F5C JUMPI PUSH2 0x1881 PUSH1 0x8 DUP4 ADD SLOAD PUSH2 0x3554 JUMP JUMPDEST PUSH1 0x1F DUP2 GT PUSH2 0x1FF8 JUMPI JUMPDEST POP PUSH1 0x20 SWAP1 PUSH1 0x1 PUSH1 0x1F DUP6 GT EQ PUSH2 0x1F81 JUMPI SWAP3 DUP1 SWAP2 PUSH1 0x13 SWAP5 PUSH2 0x240 MLOAD SWAP3 PUSH2 0x1F76 JUMPI JUMPDEST POP POP DUP2 PUSH1 0x1 SHL SWAP2 PUSH1 0x0 NOT SWAP1 PUSH1 0x3 SHL SHR NOT AND OR PUSH1 0x8 DUP3 ADD SSTORE JUMPDEST PUSH2 0x1A0 DUP1 MLOAD PUSH2 0x120 DUP2 ADD MLOAD PUSH1 0x9 DUP5 ADD DUP1 SLOAD PUSH1 0x1 PUSH1 0x1 PUSH1 0xA0 SHL SUB NOT SWAP1 DUP2 AND PUSH1 0x1 PUSH1 0x1 PUSH1 0xA0 SHL SUB SWAP4 DUP5 AND OR SWAP1 SWAP2 SSTORE PUSH2 0x140 DUP4 ADD MLOAD PUSH1 0xA DUP7 ADD SSTORE PUSH2 0x160 DUP4 ADD MLOAD PUSH1 0xB DUP7 ADD SSTORE PUSH2 0x180 DUP4 ADD MLOAD PUSH1 0xC DUP7 ADD SSTORE SWAP3 DUP3 ADD MLOAD PUSH1 0xD DUP6 ADD SSTORE PUSH2 0x1C0 DUP3 ADD MLOAD PUSH1 0xE DUP6 ADD DUP1 SLOAD PUSH2 0x1E0 DUP6 ADD MLOAD PUSH2 0xFF00 SWAP1 ISZERO ISZERO PUSH1 0x8 SHL AND PUSH2 0xFFFF NOT SWAP1 SWAP2 AND PUSH1 0xFF SWAP4 ISZERO ISZERO DUP5 AND OR OR SWAP1 SSTORE PUSH2 0x200 DUP4 ADD MLOAD PUSH1 0xF DUP7 ADD SSTORE PUSH2 0x220 DUP4 ADD MLOAD PUSH1 0x10 DUP7 ADD DUP1 SLOAD SWAP2 SWAP1 SWAP4 AND SWAP5 AND SWAP4 SWAP1 SWAP4 OR DUP2 SSTORE PUSH2 0x240 SWAP1 SWAP2 ADD MLOAD PUSH2 0x197A SWAP3 AND SWAP1 PUSH2 0x41A7 JUMP JUMPDEST PUSH2 0x260 PUSH2 0x1A0 MLOAD ADD MLOAD PUSH1 0x11 DUP3 ADD SSTORE PUSH1 0x12 DUP2 ADD PUSH2 0x19AC PUSH2 0x280 PUSH2 0x1A0 MLOAD ADD MLOAD ISZERO ISZERO DUP3 SWAP1 PUSH1 0xFF DUP1 NOT DUP4 SLOAD AND SWAP2 ISZERO ISZERO AND OR SWAP1 SSTORE JUMP JUMPDEST PUSH2 0x2A0 PUSH2 0x1A0 MLOAD ADD MLOAD DUP2 SLOAD PUSH2 0xFF00 PUSH4 0xFFFF0000 PUSH2 0x2C0 PUSH2 0x1A0 MLOAD ADD MLOAD PUSH1 0x10 SHL AND SWAP3 PUSH1 0x8 SHL AND SWAP1 PUSH4 0xFFFFFF00 NOT AND OR OR DUP2 SSTORE PUSH2 0x19F3 PUSH2 0xFFFF PUSH2 0x2E0 PUSH2 0x1A0 MLOAD ADD MLOAD AND DUP3 PUSH2 0x41C4 JUMP JUMPDEST PUSH2 0x1A09 PUSH2 0xFFFF PUSH2 0x300 PUSH2 0x1A0 MLOAD ADD MLOAD AND DUP3 PUSH2 0x41E3 JUMP JUMPDEST PUSH2 0x320 PUSH2 0x1A0 MLOAD ADD MLOAD DUP2 SLOAD PUSH2 0xFFFF PUSH1 0x50 SHL PUSH2 0x340 PUSH2 0x1A0 MLOAD ADD MLOAD PUSH1 0x50 SHL AND SWAP1 PUSH1 0x1 DUP1 PUSH1 0x60 SHL SUB NOT PUSH2 0x360 PUSH2 0x1A0 MLOAD ADD MLOAD PUSH1 0x60 SHL AND SWAP3 PUSH2 0xFFFF PUSH1 0x40 SHL SWAP1 PUSH1 0x40 SHL AND SWAP1 PUSH1 0x1 DUP1 PUSH1 0x40 SHL SUB AND OR OR OR SWAP1 SSTORE ADD PUSH4 0xFFFFFFFF PUSH2 0x380 PUSH2 0x1A0 MLOAD ADD MLOAD AND PUSH4 0xFFFFFFFF NOT DUP3 SLOAD AND OR DUP2 SSTORE PUSH2 0x1A89 PUSH2 0xFFFF PUSH2 0x3A0 PUSH2 0x1A0 MLOAD ADD MLOAD AND DUP3 PUSH2 0x41C4 JUMP JUMPDEST PUSH2 0x1A9F PUSH2 0xFFFF PUSH2 0x3C0 PUSH2 0x1A0 MLOAD ADD MLOAD AND DUP3 PUSH2 0x41E3 JUMP JUMPDEST PUSH2 0x1A0 MLOAD PUSH2 0x3E0 ADD MLOAD DUP2 SLOAD PUSH1 0x1 PUSH1 0x40 SHL PUSH1 0x1 PUSH1 0xE0 SHL SUB NOT AND PUSH1 0x40 SWAP2 SWAP1 SWAP2 SHL PUSH1 0x1 PUSH1 0x40 SHL PUSH1 0x1 PUSH1 0xE0 SHL SUB AND OR SWAP1 SSTORE PUSH1 0xF SLOAD PUSH1 0x1 PUSH1 0x40 SHL DUP2 LT ISZERO PUSH2 0x1F5C JUMPI DUP1 PUSH1 0x1 PUSH2 0x1AEB SWAP3 ADD PUSH1 0xF SSTORE PUSH2 0x3502 JUMP JUMPDEST DUP2 SLOAD PUSH2 0x160 MLOAD PUSH1 0x1 PUSH1 0x1 PUSH1 0xA0 SHL SUB SWAP1 DUP2 AND PUSH1 0x3 SWAP4 SWAP1 SWAP4 SHL DUP4 DUP2 SHL SWAP2 SWAP1 SHL NOT SWAP1 SWAP2 AND OR SWAP1 SWAP2 SSTORE PUSH2 0x240 DUP1 MLOAD SWAP2 SWAP1 SWAP2 MSTORE PUSH1 0xA PUSH1 0x20 MSTORE MLOAD PUSH1 0x40 SWAP1 KECCAK256 PUSH1 0xE ADD SLOAD PUSH1 0xFF AND PUSH2 0x1F47 JUMPI PUSH1 0x1 DUP1 PUSH1 0xA0 SHL SUB PUSH2 0x160 MLOAD AND PUSH2 0x240 MLOAD MSTORE PUSH1 0xE PUSH1 0x20 MSTORE PUSH1 0xFF PUSH1 0x40 PUSH2 0x240 MLOAD KECCAK256 SLOAD AND PUSH2 0x8EA JUMPI PUSH2 0x160 MLOAD PUSH2 0x240 DUP1 MLOAD PUSH1 0x1 PUSH1 0x1 PUSH1 0xA0 SHL SUB SWAP3 SWAP1 SWAP3 AND SWAP1 SWAP2 MSTORE PUSH1 0xB PUSH1 0x20 MSTORE MLOAD PUSH1 0x40 SWAP1 KECCAK256 CALLVALUE PUSH6 0x5AF3107A3FFF NOT ADD DUP1 ISZERO SWAP2 SWAP1 DUP1 DIV PUSH1 0x1 EQ DUP3 OR ISZERO PUSH2 0x881 JUMPI PUSH2 0x2710 CALLVALUE PUSH6 0x5AF3107A3FFF NOT ADD DIV SWAP2 PUSH1 0x1 OR ISZERO PUSH2 0x881 JUMPI PUSH2 0x1BBD DUP3 PUSH2 0x70E DUP2 CALLVALUE PUSH6 0x5AF3107A3FFF NOT ADD PUSH2 0x371F JUMP JUMPDEST SWAP1 DUP2 ISZERO PUSH2 0x1F32 JUMPI PUSH2 0x1BCE DUP3 DUP3 PUSH2 0x38C2 JUMP JUMPDEST SWAP3 PUSH2 0x1BDB PUSH2 0x160 MLOAD PUSH2 0x38EE JUMP JUMPDEST SWAP2 DUP3 DUP6 GT PUSH2 0x1F1D JUMPI PUSH2 0x1C37 PUSH2 0x1C40 SWAP3 PUSH2 0x1BF5 DUP7 DUP5 SLOAD PUSH2 0x372C JUMP JUMPDEST DUP4 SSTORE PUSH2 0x1C06 PUSH1 0x2 DUP5 ADD SWAP7 DUP8 SLOAD PUSH2 0x372C JUMP JUMPDEST DUP7 SSTORE PUSH1 0x1 DUP4 ADD PUSH2 0x1C17 DUP9 DUP3 SLOAD PUSH2 0x371F JUMP JUMPDEST SWAP1 SSTORE PUSH1 0x3 DUP4 ADD PUSH2 0x1C28 DUP9 DUP3 SLOAD PUSH2 0x371F JUMP JUMPDEST SWAP1 SSTORE PUSH2 0x7DC DUP2 PUSH2 0x160 MLOAD PUSH2 0x3924 JUMP JUMPDEST PUSH2 0x160 MLOAD PUSH2 0x39D2 JUMP JUMPDEST PUSH1 0x1 DUP1 PUSH1 0xA0 SHL SUB PUSH2 0x160 MLOAD AND PUSH2 0x240 MLOAD MSTORE PUSH1 0xA PUSH1 0x20 MSTORE PUSH1 0xB PUSH1 0x40 PUSH2 0x240 MLOAD KECCAK256 ADD SLOAD PUSH1 0x40 MLOAD SWAP1 PUSH1 0x0 DUP1 MLOAD PUSH1 0x20 PUSH2 0x427A DUP4 CODECOPY DUP2 MLOAD SWAP2 MSTORE CALLER SWAP3 DUP1 PUSH2 0x1C98 PUSH1 0x1 DUP1 PUSH1 0xA0 SHL SUB PUSH2 0x160 MLOAD AND SWAP5 DUP10 PUSH6 0x5AF3107A3FFF NOT CALLVALUE ADD DUP5 PUSH2 0x3739 JUMP JUMPDEST SUB SWAP1 LOG3 PUSH2 0x240 MLOAD PUSH2 0x124 CALLDATALOAD PUSH1 0xFF AND PUSH1 0x1 SUB PUSH2 0x1EC3 JUMPI POP PUSH3 0x76A700 TIMESTAMP ADD DUP1 TIMESTAMP GT PUSH2 0x881 JUMPI JUMPDEST PUSH1 0x1 DUP1 PUSH1 0xA0 SHL SUB PUSH2 0x160 MLOAD AND PUSH2 0x240 MLOAD MSTORE PUSH1 0xA PUSH1 0x20 MSTORE PUSH2 0x1CE8 PUSH2 0x124 CALLDATALOAD PUSH1 0x10 PUSH1 0x40 PUSH2 0x240 MLOAD KECCAK256 ADD PUSH2 0x41A7 JUMP JUMPDEST PUSH1 0x1 DUP1 PUSH1 0xA0 SHL SUB PUSH2 0x160 MLOAD AND PUSH2 0x240 MLOAD MSTORE PUSH1 0xA PUSH1 0x20 MSTORE PUSH1 0x11 PUSH1 0x40 PUSH2 0x240 MLOAD KECCAK256 ADD SSTORE PUSH1 0xFF PUSH2 0x124 CALLDATALOAD AND ISZERO PUSH1 0x0 EQ PUSH2 0x1E96 JUMPI PUSH1 0x40 MLOAD PUSH4 0x70A08231 PUSH1 0xE0 SHL DUP2 MSTORE CALLER PUSH1 0x4 DUP3 ADD MSTORE PUSH2 0x160 MLOAD PUSH1 0x20 SWAP1 DUP3 SWAP1 PUSH1 0x24 SWAP1 DUP3 SWAP1 PUSH1 0x1 PUSH1 0x1 PUSH1 0xA0 SHL SUB AND GAS STATICCALL DUP1 ISZERO PUSH2 0x85E JUMPI PUSH2 0x240 MLOAD DUP6 SWAP2 PUSH2 0x1E60 JUMPI JUMPDEST PUSH2 0x1D5F SWAP3 POP PUSH2 0x372C JUMP JUMPDEST GT PUSH2 0x1E4B JUMPI PUSH1 0x20 PUSH2 0x1D85 SWAP3 PUSH1 0x40 MLOAD DUP1 SWAP5 DUP2 SWAP3 PUSH4 0xA9059CBB PUSH1 0xE0 SHL DUP4 MSTORE CALLER PUSH1 0x4 DUP5 ADD PUSH2 0x368B JUMP JUMPDEST SUB DUP2 PUSH2 0x240 MLOAD PUSH1 0x1 DUP1 PUSH1 0xA0 SHL SUB PUSH2 0x160 MLOAD AND GAS CALL SWAP2 DUP3 ISZERO PUSH2 0x85E JUMPI PUSH7 0x1C6BF52634000 SWAP3 PUSH2 0x1E2C JUMPI JUMPDEST POP JUMPDEST SLOAD LT ISZERO PUSH2 0x1E1B JUMPI JUMPDEST PUSH1 0x40 MLOAD TIMESTAMP DUP2 MSTORE PUSH2 0x140 MLOAD ISZERO ISZERO PUSH1 0x20 DUP3 ADD MSTORE CALLER SWAP1 PUSH32 0x8438A250F24DE47EA660398D999B122ABDDFD10D0A6702AFC0BB5F33B5DBEDF PUSH1 0x40 PUSH1 0x1 DUP1 PUSH1 0xA0 SHL SUB PUSH2 0x160 MLOAD AND SWAP3 LOG3 PUSH2 0x240 MLOAD PUSH1 0x1 SWAP1 SSTORE PUSH1 0x40 MLOAD PUSH2 0x160 MLOAD PUSH1 0x1 PUSH1 0x1 PUSH1 0xA0 SHL SUB AND DUP2 MSTORE PUSH1 0x20 SWAP1 RETURN JUMPDEST PUSH2 0x1E27 PUSH2 0x160 MLOAD PUSH2 0x3A2C JUMP JUMPDEST PUSH2 0x1DB8 JUMP JUMPDEST PUSH2 0x1E44 SWAP1 PUSH1 0x20 RETURNDATASIZE PUSH1 0x20 GT PUSH2 0x857 JUMPI PUSH2 0x84A DUP2 DUP4 PUSH2 0x3467 JUMP JUMPDEST POP DUP3 PUSH2 0x1DAE JUMP JUMPDEST PUSH4 0x3C190CCD PUSH1 0xE0 SHL PUSH2 0x240 MLOAD MSTORE PUSH1 0x4 PUSH2 0x240 MLOAD REVERT JUMPDEST POP POP PUSH1 0x20 DUP2 RETURNDATASIZE PUSH1 0x20 GT PUSH2 0x1E8E JUMPI JUMPDEST DUP2 PUSH2 0x1E7B PUSH1 0x20 SWAP4 DUP4 PUSH2 0x3467 JUMP JUMPDEST DUP2 ADD SUB SLT PUSH2 0x8DD JUMPI DUP4 PUSH2 0x1D5F SWAP2 MLOAD PUSH2 0x1D55 JUMP JUMPDEST RETURNDATASIZE SWAP2 POP PUSH2 0x1E6E JUMP JUMPDEST POP PUSH7 0x1C6BF52634000 SWAP2 PUSH1 0x1 DUP1 PUSH1 0xA0 SHL SUB PUSH2 0x160 MLOAD AND PUSH2 0x240 MLOAD MSTORE PUSH1 0xD PUSH1 0x20 MSTORE PUSH1 0x40 PUSH2 0x240 MLOAD KECCAK256 SSTORE PUSH2 0x1DB0 JUMP JUMPDEST PUSH2 0x124 CALLDATALOAD PUSH1 0xFF AND PUSH1 0x2 SUB PUSH2 0x1EE5 JUMPI POP PUSH3 0xED4E00 TIMESTAMP ADD DUP1 TIMESTAMP GT PUSH2 0x881 JUMPI JUMPDEST PUSH2 0x1CBC JUMP JUMPDEST PUSH1 0x3 PUSH1 0xFF PUSH2 0x124 CALLDATALOAD AND SUB PUSH2 0x1CBC JUMPI POP PUSH4 0x1E13380 TIMESTAMP ADD DUP1 TIMESTAMP GT ISZERO PUSH2 0x1EE0 JUMPI PUSH4 0x4E487B71 PUSH1 0xE0 SHL PUSH2 0x240 MLOAD MSTORE PUSH1 0x11 PUSH1 0x4 MSTORE PUSH1 0x24 PUSH2 0x240 MLOAD REVERT JUMPDEST PUSH4 0x1C7EB2D7 PUSH1 0xE3 SHL PUSH2 0x240 MLOAD MSTORE PUSH1 0x4 PUSH2 0x240 MLOAD REVERT JUMPDEST PUSH4 0xBBF1E3C1 PUSH1 0xE0 SHL PUSH2 0x240 MLOAD MSTORE PUSH1 0x4 PUSH2 0x240 MLOAD REVERT JUMPDEST PUSH4 0xE6A0D45F PUSH1 0xE0 SHL PUSH2 0x240 MLOAD MSTORE PUSH1 0x4 PUSH2 0x240 MLOAD REVERT JUMPDEST PUSH4 0x4E487B71 PUSH1 0xE0 SHL PUSH2 0x240 MLOAD MSTORE PUSH1 0x41 PUSH1 0x4 MSTORE PUSH1 0x24 PUSH2 0x240 MLOAD REVERT JUMPDEST ADD MLOAD SWAP1 POP DUP5 DUP1 PUSH2 0x18A9 JUMP JUMPDEST SWAP1 PUSH1 0x8 DUP4 ADD PUSH2 0x240 MLOAD MSTORE DUP1 PUSH2 0x240 MLOAD KECCAK256 SWAP2 PUSH2 0x240 MLOAD JUMPDEST PUSH1 0x1F NOT DUP7 AND DUP2 LT PUSH2 0x1FE0 JUMPI POP SWAP2 DUP5 SWAP2 PUSH1 0x1 SWAP4 PUSH1 0x13 SWAP7 PUSH1 0x1F NOT DUP2 AND LT PUSH2 0x1FC7 JUMPI JUMPDEST POP POP POP DUP2 SHL ADD PUSH1 0x8 DUP3 ADD SSTORE PUSH2 0x18C1 JUMP JUMPDEST ADD MLOAD PUSH1 0x0 NOT PUSH1 0xF8 DUP5 PUSH1 0x3 SHL AND SHR NOT AND SWAP1 SSTORE DUP5 DUP1 DUP1 PUSH2 0x1FB7 JUMP JUMPDEST SWAP2 SWAP3 PUSH1 0x20 PUSH1 0x1 DUP2 SWAP3 DUP7 DUP6 ADD MLOAD DUP2 SSTORE ADD SWAP5 ADD SWAP3 ADD PUSH2 0x1F97 JUMP JUMPDEST PUSH1 0x8 DUP4 ADD PUSH2 0x240 MLOAD MSTORE PUSH1 0x20 PUSH2 0x240 MLOAD KECCAK256 PUSH1 0x1F DUP6 ADD PUSH1 0x5 SHR DUP2 ADD PUSH1 0x20 DUP7 LT PUSH2 0x203E JUMPI JUMPDEST PUSH1 0x1F DUP4 ADD PUSH1 0x5 SHR DUP3 ADD DUP2 LT PUSH2 0x2030 JUMPI POP POP PUSH2 0x188A JUMP JUMPDEST PUSH2 0x240 MLOAD DUP2 SSTORE PUSH1 0x1 ADD PUSH2 0x201A JUMP JUMPDEST POP DUP1 PUSH2 0x201A JUMP JUMPDEST ADD MLOAD SWAP1 POP DUP4 DUP1 PUSH2 0x1841 JUMP JUMPDEST SWAP3 POP PUSH1 0x7 DUP5 ADD PUSH2 0x240 MLOAD MSTORE DUP1 PUSH2 0x240 MLOAD KECCAK256 SWAP1 PUSH2 0x240 MLOAD SWAP4 JUMPDEST PUSH1 0x1F NOT DUP5 AND DUP6 LT PUSH2 0x20AC JUMPI PUSH1 0x1 SWAP5 POP DUP4 PUSH1 0x1F NOT DUP2 AND LT PUSH2 0x2093 JUMPI JUMPDEST POP POP POP DUP2 SHL ADD PUSH1 0x7 DUP3 ADD SSTORE PUSH2 0x1859 JUMP JUMPDEST ADD MLOAD PUSH1 0x0 NOT PUSH1 0xF8 DUP5 PUSH1 0x3 SHL AND SHR NOT AND SWAP1 SSTORE DUP4 DUP1 DUP1 PUSH2 0x2083 JUMP JUMPDEST DUP2 DUP2 ADD MLOAD DUP4 SSTORE PUSH1 0x20 SWAP5 DUP6 ADD SWAP5 PUSH1 0x1 SWAP1 SWAP4 ADD SWAP3 SWAP1 SWAP2 ADD SWAP1 PUSH2 0x2068 JUMP JUMPDEST SWAP1 SWAP2 POP PUSH1 0x7 DUP5 ADD PUSH2 0x240 MLOAD MSTORE PUSH1 0x20 PUSH2 0x240 MLOAD KECCAK256 PUSH1 0x1F DUP5 ADD PUSH1 0x5 SHR DUP2 ADD PUSH1 0x20 DUP6 LT PUSH2 0x2119 JUMPI JUMPDEST SWAP1 DUP5 SWAP4 SWAP3 SWAP2 JUMPDEST PUSH1 0x1F DUP4 ADD PUSH1 0x5 SHR DUP3 ADD DUP2 LT PUSH2 0x2108 JUMPI POP POP PUSH2 0x1828 JUMP JUMPDEST PUSH2 0x240 MLOAD DUP2 SSTORE DUP6 SWAP5 POP PUSH1 0x1 ADD PUSH2 0x20F2 JUMP JUMPDEST POP DUP1 PUSH2 0x20EC JUMP JUMPDEST ADD MLOAD SWAP1 POP DUP4 DUP1 PUSH2 0x17DF JUMP JUMPDEST SWAP3 POP PUSH1 0x6 DUP5 ADD PUSH2 0x240 MLOAD MSTORE DUP1 PUSH2 0x240 MLOAD KECCAK256 SWAP1 PUSH2 0x240 MLOAD SWAP4 JUMPDEST PUSH1 0x1F NOT DUP5 AND DUP6 LT PUSH2 0x2187 JUMPI PUSH1 0x1 SWAP5 POP DUP4 PUSH1 0x1F NOT DUP2 AND LT PUSH2 0x216E JUMPI JUMPDEST POP POP POP DUP2 SHL ADD PUSH1 0x6 DUP3 ADD SSTORE PUSH2 0x17F7 JUMP JUMPDEST ADD MLOAD PUSH1 0x0 NOT PUSH1 0xF8 DUP5 PUSH1 0x3 SHL AND SHR NOT AND SWAP1 SSTORE DUP4 DUP1 DUP1 PUSH2 0x215E JUMP JUMPDEST DUP2 DUP2 ADD MLOAD DUP4 SSTORE PUSH1 0x20 SWAP5 DUP6 ADD SWAP5 PUSH1 0x1 SWAP1 SWAP4 ADD SWAP3 SWAP1 SWAP2 ADD SWAP1 PUSH2 0x2143 JUMP JUMPDEST SWAP1 SWAP2 POP PUSH1 0x6 DUP5 ADD PUSH2 0x240 MLOAD MSTORE PUSH1 0x20 PUSH2 0x240 MLOAD KECCAK256 PUSH1 0x1F DUP5 ADD PUSH1 0x5 SHR DUP2 ADD PUSH1 0x20 DUP6 LT PUSH2 0x21F4 JUMPI JUMPDEST SWAP1 DUP5 SWAP4 SWAP3 SWAP2 JUMPDEST PUSH1 0x1F DUP4 ADD PUSH1 0x5 SHR DUP3 ADD DUP2 LT PUSH2 0x21E3 JUMPI POP POP PUSH2 0x17C6 JUMP JUMPDEST PUSH2 0x240 MLOAD DUP2 SSTORE DUP6 SWAP5 POP PUSH1 0x1 ADD PUSH2 0x21CD JUMP JUMPDEST POP DUP1 PUSH2 0x21C7 JUMP JUMPDEST ADD MLOAD SWAP1 POP DUP4 DUP1 PUSH2 0x177D JUMP JUMPDEST SWAP3 POP PUSH1 0x5 DUP5 ADD PUSH2 0x240 MLOAD MSTORE DUP1 PUSH2 0x240 MLOAD KECCAK256 SWAP1 PUSH2 0x240 MLOAD SWAP4 JUMPDEST PUSH1 0x1F NOT DUP5 AND DUP6 LT PUSH2 0x2262 JUMPI PUSH1 0x1 SWAP5 POP DUP4 PUSH1 0x1F NOT DUP2 AND LT PUSH2 0x2249 JUMPI JUMPDEST POP POP POP DUP2 SHL ADD PUSH1 0x5 DUP3 ADD SSTORE PUSH2 0x1795 JUMP JUMPDEST ADD MLOAD PUSH1 0x0 NOT PUSH1 0xF8 DUP5 PUSH1 0x3 SHL AND SHR NOT AND SWAP1 SSTORE DUP4 DUP1 DUP1 PUSH2 0x2239 JUMP JUMPDEST DUP2 DUP2 ADD MLOAD DUP4 SSTORE PUSH1 0x20 SWAP5 DUP6 ADD SWAP5 PUSH1 0x1 SWAP1 SWAP4 ADD SWAP3 SWAP1 SWAP2 ADD SWAP1 PUSH2 0x221E JUMP JUMPDEST SWAP1 SWAP2 POP PUSH1 0x5 DUP5 ADD PUSH2 0x240 MLOAD MSTORE PUSH1 0x20 PUSH2 0x240 MLOAD KECCAK256 PUSH1 0x1F DUP5 ADD PUSH1 0x5 SHR DUP2 ADD PUSH1 0x20 DUP6 LT PUSH2 0x22CF JUMPI JUMPDEST SWAP1 DUP5 SWAP4 SWAP3 SWAP2 JUMPDEST PUSH1 0x1F DUP4 ADD PUSH1 0x5 SHR DUP3 ADD DUP2 LT PUSH2 0x22BE JUMPI POP POP PUSH2 0x1764 JUMP JUMPDEST PUSH2 0x240 MLOAD DUP2 SSTORE DUP6 SWAP5 POP PUSH1 0x1 ADD PUSH2 0x22A8 JUMP JUMPDEST POP DUP1 PUSH2 0x22A2 JUMP JUMPDEST ADD MLOAD SWAP1 POP DUP4 DUP1 PUSH2 0x171B JUMP JUMPDEST SWAP3 POP PUSH1 0x4 DUP5 ADD PUSH2 0x240 MLOAD MSTORE DUP1 PUSH2 0x240 MLOAD KECCAK256 SWAP1 PUSH2 0x240 MLOAD SWAP4 JUMPDEST PUSH1 0x1F NOT DUP5 AND DUP6 LT PUSH2 0x233D JUMPI PUSH1 0x1 SWAP5 POP DUP4 PUSH1 0x1F NOT DUP2 AND LT PUSH2 0x2324 JUMPI JUMPDEST POP POP POP DUP2 SHL ADD PUSH1 0x4 DUP3 ADD SSTORE PUSH2 0x1733 JUMP JUMPDEST ADD MLOAD PUSH1 0x0 NOT PUSH1 0xF8 DUP5 PUSH1 0x3 SHL AND SHR NOT AND SWAP1 SSTORE DUP4 DUP1 DUP1 PUSH2 0x2314 JUMP JUMPDEST DUP2 DUP2 ADD MLOAD DUP4 SSTORE PUSH1 0x20 SWAP5 DUP6 ADD SWAP5 PUSH1 0x1 SWAP1 SWAP4 ADD SWAP3 SWAP1 SWAP2 ADD SWAP1 PUSH2 0x22F9 JUMP JUMPDEST SWAP1 SWAP2 POP PUSH1 0x4 DUP5 ADD PUSH2 0x240 MLOAD MSTORE PUSH1 0x20 PUSH2 0x240 MLOAD KECCAK256 PUSH1 0x1F DUP5 ADD PUSH1 0x5 SHR DUP2 ADD PUSH1 0x20 DUP6 LT PUSH2 0x23AA JUMPI JUMPDEST SWAP1 DUP5 SWAP4 SWAP3 SWAP2 JUMPDEST PUSH1 0x1F DUP4 ADD PUSH1 0x5 SHR DUP3 ADD DUP2 LT PUSH2 0x2399 JUMPI POP POP PUSH2 0x1702 JUMP JUMPDEST PUSH2 0x240 MLOAD DUP2 SSTORE DUP6 SWAP5 POP PUSH1 0x1 ADD PUSH2 0x2383 JUMP JUMPDEST POP DUP1 PUSH2 0x237D JUMP JUMPDEST ADD MLOAD SWAP1 POP DUP4 DUP1 PUSH2 0x16B9 JUMP JUMPDEST SWAP3 POP PUSH1 0x3 DUP5 ADD PUSH2 0x240 MLOAD MSTORE DUP1 PUSH2 0x240 MLOAD KECCAK256 SWAP1 PUSH2 0x240 MLOAD SWAP4 JUMPDEST PUSH1 0x1F NOT DUP5 AND DUP6 LT PUSH2 0x2418 JUMPI PUSH1 0x1 SWAP5 POP DUP4 PUSH1 0x1F NOT DUP2 AND LT PUSH2 0x23FF JUMPI JUMPDEST POP POP POP DUP2 SHL ADD PUSH1 0x3 DUP3 ADD SSTORE PUSH2 0x16D1 JUMP JUMPDEST ADD MLOAD PUSH1 0x0 NOT PUSH1 0xF8 DUP5 PUSH1 0x3 SHL AND SHR NOT AND SWAP1 SSTORE DUP4 DUP1 DUP1 PUSH2 0x23EF JUMP JUMPDEST DUP2 DUP2 ADD MLOAD DUP4 SSTORE PUSH1 0x20 SWAP5 DUP6 ADD SWAP5 PUSH1 0x1 SWAP1 SWAP4 ADD SWAP3 SWAP1 SWAP2 ADD SWAP1 PUSH2 0x23D4 JUMP JUMPDEST SWAP1 SWAP2 POP PUSH1 0x3 DUP5 ADD PUSH2 0x240 MLOAD MSTORE PUSH1 0x20 PUSH2 0x240 MLOAD KECCAK256 PUSH1 0x1F DUP5 ADD PUSH1 0x5 SHR DUP2 ADD PUSH1 0x20 DUP6 LT PUSH2 0x2485 JUMPI JUMPDEST SWAP1 DUP5 SWAP4 SWAP3 SWAP2 JUMPDEST PUSH1 0x1F DUP4 ADD PUSH1 0x5 SHR DUP3 ADD DUP2 LT PUSH2 0x2474 JUMPI POP POP PUSH2 0x16A0 JUMP JUMPDEST PUSH2 0x240 MLOAD DUP2 SSTORE DUP6 SWAP5 POP PUSH1 0x1 ADD PUSH2 0x245E JUMP JUMPDEST POP DUP1 PUSH2 0x2458 JUMP JUMPDEST ADD MLOAD SWAP1 POP DUP4 DUP1 PUSH2 0x1657 JUMP JUMPDEST SWAP3 POP PUSH1 0x2 DUP5 ADD PUSH2 0x240 MLOAD MSTORE DUP1 PUSH2 0x240 MLOAD KECCAK256 SWAP1 PUSH2 0x240 MLOAD SWAP4 JUMPDEST PUSH1 0x1F NOT DUP5 AND DUP6 LT PUSH2 0x24F3 JUMPI PUSH1 0x1 SWAP5 POP DUP4 PUSH1 0x1F NOT DUP2 AND LT PUSH2 0x24DA JUMPI JUMPDEST POP POP POP DUP2 SHL ADD PUSH1 0x2 DUP3 ADD SSTORE PUSH2 0x166F JUMP JUMPDEST ADD MLOAD PUSH1 0x0 NOT PUSH1 0xF8 DUP5 PUSH1 0x3 SHL AND SHR NOT AND SWAP1 SSTORE DUP4 DUP1 DUP1 PUSH2 0x24CA JUMP JUMPDEST DUP2 DUP2 ADD MLOAD DUP4 SSTORE PUSH1 0x20 SWAP5 DUP6 ADD SWAP5 PUSH1 0x1 SWAP1 SWAP4 ADD SWAP3 SWAP1 SWAP2 ADD SWAP1 PUSH2 0x24AF JUMP JUMPDEST SWAP1 SWAP2 POP PUSH1 0x2 DUP5 ADD PUSH2 0x240 MLOAD MSTORE PUSH1 0x20 PUSH2 0x240 MLOAD KECCAK256 PUSH1 0x1F DUP5 ADD PUSH1 0x5 SHR DUP2 ADD PUSH1 0x20 DUP6 LT PUSH2 0x2560 JUMPI JUMPDEST SWAP1 DUP5 SWAP4 SWAP3 SWAP2 JUMPDEST PUSH1 0x1F DUP4 ADD PUSH1 0x5 SHR DUP3 ADD DUP2 LT PUSH2 0x254F JUMPI POP POP PUSH2 0x163E JUMP JUMPDEST PUSH2 0x240 MLOAD DUP2 SSTORE DUP6 SWAP5 POP PUSH1 0x1 ADD PUSH2 0x2539 JUMP JUMPDEST POP DUP1 PUSH2 0x2533 JUMP JUMPDEST ADD MLOAD SWAP1 POP DUP4 DUP1 PUSH2 0x15F5 JUMP JUMPDEST SWAP3 POP PUSH1 0x1 DUP5 ADD PUSH2 0x240 MLOAD MSTORE DUP1 PUSH2 0x240 MLOAD KECCAK256 SWAP1 PUSH2 0x240 MLOAD SWAP4 JUMPDEST PUSH1 0x1F NOT DUP5 AND DUP6 LT PUSH2 0x25CE JUMPI PUSH1 0x1 SWAP5 POP DUP4 PUSH1 0x1F NOT DUP2 AND LT PUSH2 0x25B5 JUMPI JUMPDEST POP POP POP DUP2 SHL ADD PUSH1 0x1 DUP3 ADD SSTORE PUSH2 0x160D JUMP JUMPDEST ADD MLOAD PUSH1 0x0 NOT PUSH1 0xF8 DUP5 PUSH1 0x3 SHL AND SHR NOT AND SWAP1 SSTORE DUP4 DUP1 DUP1 PUSH2 0x25A5 JUMP JUMPDEST DUP2 DUP2 ADD MLOAD DUP4 SSTORE PUSH1 0x20 SWAP5 DUP6 ADD SWAP5 PUSH1 0x1 SWAP1 SWAP4 ADD SWAP3 SWAP1 SWAP2 ADD SWAP1 PUSH2 0x258A JUMP JUMPDEST SWAP1 SWAP2 POP PUSH1 0x1 DUP5 ADD PUSH2 0x240 MLOAD MSTORE PUSH1 0x20 PUSH2 0x240 MLOAD KECCAK256 PUSH1 0x1F DUP5 ADD PUSH1 0x5 SHR DUP2 ADD PUSH1 0x20 DUP6 LT PUSH2 0x263B JUMPI JUMPDEST SWAP1 DUP5 SWAP4 SWAP3 SWAP2 JUMPDEST PUSH1 0x1F DUP4 ADD PUSH1 0x5 SHR DUP3 ADD DUP2 LT PUSH2 0x262A JUMPI POP POP PUSH2 0x15DC JUMP JUMPDEST PUSH2 0x240 MLOAD DUP2 SSTORE DUP6 SWAP5 POP PUSH1 0x1 ADD PUSH2 0x2614 JUMP JUMPDEST POP DUP1 PUSH2 0x260E JUMP JUMPDEST PUSH1 0x40 MLOAD PUSH2 0x240 MLOAD DUP2 MSTORE PUSH2 0x160 MLOAD PUSH1 0x1 PUSH1 0x1 PUSH1 0xA0 SHL SUB AND SWAP1 PUSH32 0x1122E9CE6E7FFE6F9DBF5D2D4ABBD3BE5D5B072C65D3CA89B176BFF6FFD25DF6 SWAP1 PUSH1 0x20 SWAP1 LOG2 PUSH2 0x12B7 JUMP JUMPDEST PUSH2 0x240 MLOAD PUSH2 0x2691 SWAP2 PUSH2 0x3467 JUMP JUMPDEST PUSH2 0x240 MLOAD PUSH2 0x262 JUMPI DUP7 PUSH2 0x12AD JUMP JUMPDEST PUSH2 0x26C0 SWAP1 PUSH1 0x20 RETURNDATASIZE PUSH1 0x20 GT PUSH2 0x26CA JUMPI JUMPDEST PUSH2 0x26B8 DUP2 DUP4 PUSH2 0x3467 JUMP JUMPDEST DUP2 ADD SWAP1 PUSH2 0x3809 JUMP JUMPDEST PUSH2 0x160 MSTORE DUP7 PUSH2 0x11AA JUMP JUMPDEST POP RETURNDATASIZE PUSH2 0x26AE JUMP JUMPDEST PUSH4 0x750F259D PUSH1 0xE0 SHL PUSH2 0x240 MLOAD MSTORE PUSH1 0x4 PUSH2 0x240 MLOAD REVERT JUMPDEST PUSH1 0x8 SLOAD PUSH6 0x5AF3107A4000 DUP2 ADD SWAP1 DUP2 LT PUSH2 0x881 JUMPI PUSH1 0x8 SSTORE PUSH2 0x112A JUMP JUMPDEST PUSH4 0x8D86E80F PUSH1 0xE0 SHL PUSH2 0x240 MLOAD MSTORE PUSH1 0x4 PUSH2 0x240 MLOAD REVERT JUMPDEST POP PUSH2 0xFFFF PUSH2 0x2722 PUSH2 0x37BB JUMP JUMPDEST AND ISZERO ISZERO PUSH2 0x10E6 JUMP JUMPDEST POP PUSH3 0x15180 PUSH4 0xFFFFFFFF PUSH2 0x273C PUSH2 0x37F5 JUMP JUMPDEST AND EQ ISZERO PUSH2 0x10CD JUMP JUMPDEST PUSH4 0xC564667 PUSH1 0xE3 SHL PUSH2 0x240 MLOAD MSTORE PUSH1 0x4 PUSH2 0x240 MLOAD REVERT JUMPDEST POP PUSH1 0xFF PUSH2 0x2764 PUSH2 0x37E4 JUMP JUMPDEST AND ISZERO ISZERO PUSH2 0x10B3 JUMP JUMPDEST POP PUSH1 0x1 PUSH1 0xFF PUSH2 0x2779 PUSH2 0x37E4 JUMP JUMPDEST AND GT PUSH2 0x10A8 JUMP JUMPDEST PUSH2 0x2710 PUSH2 0x27C0 PUSH2 0x27B5 PUSH2 0x27AA PUSH2 0xFFFF PUSH2 0x2797 PUSH2 0x3761 JUMP JUMPDEST AND PUSH2 0xFFFF PUSH2 0x27A3 PUSH2 0x3773 JUMP JUMPDEST AND SWAP1 PUSH2 0x372C JUMP JUMPDEST PUSH2 0xFFFF PUSH2 0x27A3 PUSH2 0x3785 JUMP JUMPDEST PUSH2 0xFFFF PUSH2 0x27A3 PUSH2 0x3797 JUMP JUMPDEST SUB PUSH2 0x283F JUMPI PUSH2 0xFFFF PUSH2 0x27D0 PUSH2 0x3761 JUMP JUMPDEST AND ISZERO ISZERO DUP1 PUSH2 0x2827 JUMPI JUMPDEST PUSH2 0x2812 JUMPI PUSH2 0xFFFF PUSH2 0x27E8 PUSH2 0x3785 JUMP JUMPDEST AND ISZERO ISZERO DUP1 PUSH2 0x280B JUMPI JUMPDEST ISZERO PUSH2 0x10A2 JUMPI PUSH4 0xC564667 PUSH1 0xE3 SHL PUSH2 0x240 MLOAD MSTORE PUSH1 0x4 PUSH2 0x240 MLOAD REVERT JUMPDEST POP DUP5 PUSH2 0x27F1 JUMP JUMPDEST PUSH4 0x2979EB9 PUSH1 0xE3 SHL PUSH2 0x240 MLOAD MSTORE PUSH1 0x4 PUSH2 0x240 MLOAD REVERT JUMPDEST POP PUSH1 0x1 PUSH1 0x1 PUSH1 0xA0 SHL SUB PUSH2 0x2838 PUSH2 0x37CD JUMP JUMPDEST AND ISZERO PUSH2 0x27D9 JUMP JUMPDEST PUSH4 0xAFF1D87B PUSH1 0xE0 SHL PUSH2 0x240 MLOAD MSTORE PUSH1 0x4 PUSH2 0x240 MLOAD REVERT JUMPDEST PUSH4 0x7C39A24D PUSH1 0xE0 SHL PUSH2 0x240 MLOAD MSTORE PUSH1 0x4 PUSH2 0x240 MLOAD REVERT JUMPDEST PUSH4 0x52EDD3BF PUSH1 0xE0 SHL PUSH2 0x240 MLOAD MSTORE PUSH1 0x4 PUSH2 0x240 MLOAD REVERT JUMPDEST PUSH1 0x9 SLOAD PUSH6 0x5AF3107A4000 DUP2 LT PUSH2 0x28B4 JUMPI JUMPDEST CALLVALUE PUSH6 0x5AF3107A3FFF NOT ADD LT ISZERO PUSH2 0x106F JUMPI PUSH4 0xAE0F6505 PUSH1 0xE0 SHL PUSH2 0x240 MLOAD MSTORE PUSH1 0x4 PUSH2 0x240 MLOAD REVERT JUMPDEST POP PUSH6 0x5AF3107A4000 PUSH2 0x288F JUMP JUMPDEST PUSH4 0x44044A5 PUSH1 0xE2 SHL PUSH2 0x240 MLOAD MSTORE PUSH1 0x4 PUSH2 0x240 MLOAD REVERT JUMPDEST PUSH4 0x21C4E357 PUSH1 0xE2 SHL PUSH2 0x240 MLOAD MSTORE PUSH1 0x4 PUSH2 0x240 MLOAD REVERT JUMPDEST CALLVALUE PUSH2 0x262 JUMPI PUSH2 0x240 MLOAD CALLDATASIZE PUSH1 0x3 NOT ADD SLT PUSH2 0x262 JUMPI PUSH1 0x0 DUP1 MLOAD PUSH1 0x20 PUSH2 0x429A DUP4 CODECOPY DUP2 MLOAD SWAP2 MSTORE SLOAD PUSH1 0x40 MLOAD PUSH1 0x1 PUSH1 0x1 PUSH1 0xA0 SHL SUB SWAP1 SWAP2 AND DUP2 MSTORE PUSH1 0x20 SWAP1 RETURN JUMPDEST CALLVALUE PUSH2 0x262 JUMPI PUSH2 0x240 MLOAD CALLDATASIZE PUSH1 0x3 NOT ADD SLT PUSH2 0x262 JUMPI PUSH1 0x20 PUSH1 0x8 SLOAD PUSH1 0x40 MLOAD SWAP1 DUP2 MSTORE RETURN JUMPDEST CALLVALUE PUSH2 0x262 JUMPI PUSH1 0x20 CALLDATASIZE PUSH1 0x3 NOT ADD SLT PUSH2 0x262 JUMPI PUSH2 0x295C PUSH2 0x3419 JUMP JUMPDEST PUSH1 0x1 PUSH2 0x240 MLOAD SLOAD SUB PUSH2 0x929 JUMPI PUSH2 0x240 DUP1 MLOAD PUSH1 0x2 DUP2 SSTORE PUSH1 0x1 PUSH1 0x1 PUSH1 0xA0 SHL SUB SWAP3 DUP4 AND SWAP1 DUP2 SWAP1 MSTORE PUSH1 0xA PUSH1 0x20 MSTORE SWAP1 MLOAD PUSH1 0x40 SWAP1 KECCAK256 PUSH1 0x9 ADD SLOAD SWAP1 SWAP2 AND CALLER SUB PUSH2 0x2AB2 JUMPI DUP1 PUSH2 0x240 MLOAD MSTORE PUSH1 0xA PUSH1 0x20 MSTORE PUSH1 0x11 PUSH1 0x40 PUSH2 0x240 MLOAD KECCAK256 ADD SLOAD DUP1 ISZERO PUSH2 0x2A9D JUMPI TIMESTAMP LT PUSH2 0x2A88 JUMPI DUP1 PUSH2 0x240 MLOAD MSTORE PUSH1 0xD PUSH1 0x20 MSTORE PUSH1 0x40 PUSH2 0x240 MLOAD KECCAK256 SLOAD SWAP1 DUP2 ISZERO PUSH2 0x2A73 JUMPI DUP1 PUSH2 0x240 MLOAD MSTORE PUSH1 0xD PUSH1 0x20 MSTORE PUSH2 0x240 MLOAD PUSH1 0x40 PUSH2 0x240 MLOAD KECCAK256 SSTORE PUSH1 0x40 MLOAD PUSH4 0xA9059CBB PUSH1 0xE0 SHL DUP2 MSTORE PUSH1 0x20 DUP2 DUP1 PUSH2 0x2A0A DUP7 CALLER PUSH1 0x4 DUP5 ADD PUSH2 0x368B JUMP JUMPDEST SUB DUP2 PUSH2 0x240 MLOAD DUP7 GAS CALL DUP1 ISZERO PUSH2 0x85E JUMPI PUSH2 0x2A56 JUMPI JUMPDEST POP PUSH1 0x40 MLOAD SWAP2 DUP3 MSTORE PUSH32 0xDD1E41F1D539479BCBC5A15AAE13C42EAC0C98319DC0BDAEA67720B8F0EB4B56 PUSH1 0x20 CALLER SWAP4 LOG3 PUSH2 0x240 MLOAD PUSH1 0x1 DUP2 SSTORE DUP1 RETURN JUMPDEST PUSH2 0x2A6E SWAP1 PUSH1 0x20 RETURNDATASIZE PUSH1 0x20 GT PUSH2 0x857 JUMPI PUSH2 0x84A DUP2 DUP4 PUSH2 0x3467 JUMP JUMPDEST PUSH2 0x2A1E JUMP JUMPDEST PUSH4 0x12D37EE5 PUSH1 0xE3 SHL PUSH2 0x240 MLOAD MSTORE PUSH1 0x4 PUSH2 0x240 MLOAD REVERT JUMPDEST PUSH4 0x6B22AB8B PUSH1 0xE0 SHL PUSH2 0x240 MLOAD MSTORE PUSH1 0x4 PUSH2 0x240 MLOAD REVERT JUMPDEST PUSH4 0x12E72C3F PUSH1 0xE1 SHL PUSH2 0x240 MLOAD MSTORE PUSH1 0x4 PUSH2 0x240 MLOAD REVERT JUMPDEST PUSH4 0x8F78F99 PUSH1 0xE3 SHL PUSH2 0x240 MLOAD MSTORE PUSH1 0x4 PUSH2 0x240 MLOAD REVERT JUMPDEST PUSH1 0x20 CALLDATASIZE PUSH1 0x3 NOT ADD SLT PUSH2 0x262 JUMPI PUSH2 0x2ADB PUSH2 0x3419 JUMP JUMPDEST PUSH1 0x1 PUSH2 0x240 MLOAD SLOAD SUB PUSH2 0x929 JUMPI PUSH1 0x2 PUSH2 0x240 MLOAD SSTORE CALLVALUE ISZERO PUSH2 0x2D4A JUMPI PUSH1 0x1 DUP1 PUSH1 0xA0 SHL SUB DUP2 AND SWAP1 DUP2 PUSH2 0x240 MLOAD MSTORE PUSH1 0xA PUSH1 0x20 MSTORE PUSH1 0xFF PUSH1 0xE PUSH1 0x40 PUSH2 0x240 MLOAD KECCAK256 ADD SLOAD AND PUSH2 0x8FF JUMPI DUP2 PUSH2 0x240 MLOAD MSTORE PUSH1 0xE PUSH1 0x20 MSTORE PUSH1 0xFF PUSH1 0x40 PUSH2 0x240 MLOAD KECCAK256 SLOAD AND PUSH2 0x8EA JUMPI DUP2 PUSH2 0x240 MLOAD MSTORE PUSH1 0xB PUSH1 0x20 MSTORE PUSH1 0x40 PUSH2 0x240 MLOAD KECCAK256 CALLVALUE CALLVALUE DIV PUSH1 0x1 SUB PUSH2 0x881 JUMPI PUSH2 0x2710 CALLVALUE SWAP1 DUP2 DIV SWAP2 SWAP1 PUSH2 0x2B6B SWAP1 DUP4 SWAP1 PUSH2 0x70E SWAP1 DUP3 SWAP1 PUSH2 0x371F JUMP JUMPDEST SWAP1 PUSH1 0x0 SWAP5 DUP3 ISZERO PUSH2 0x2D3B JUMPI PUSH2 0x2B7F DUP4 DUP4 PUSH2 0x38C2 JUMP JUMPDEST SWAP2 PUSH2 0x2B89 DUP7 PUSH2 0x38EE JUMP JUMPDEST DUP1 DUP5 GT PUSH2 0x2D2C JUMPI PUSH1 0x40 MLOAD PUSH4 0x70A08231 PUSH1 0xE0 SHL DUP2 MSTORE CALLER PUSH1 0x4 DUP3 ADD MSTORE PUSH1 0x20 DUP2 PUSH1 0x24 DUP2 DUP8 GAS STATICCALL DUP1 ISZERO PUSH2 0x2D21 JUMPI DUP6 SWAP1 DUP11 SWAP1 PUSH2 0x2CE7 JUMPI JUMPDEST PUSH2 0x2BC5 SWAP3 POP PUSH2 0x372C JUMP JUMPDEST GT PUSH2 0x2CD8 JUMPI PUSH2 0x2BD5 DUP5 DUP3 SLOAD PUSH2 0x372C JUMP JUMPDEST DUP2 SSTORE PUSH2 0x2BE6 PUSH1 0x2 DUP3 ADD SWAP5 DUP6 SLOAD PUSH2 0x372C JUMP JUMPDEST DUP5 SSTORE PUSH1 0x1 DUP2 ADD PUSH2 0x2BF7 DUP5 DUP3 SLOAD PUSH2 0x371F JUMP JUMPDEST SWAP1 SSTORE PUSH1 0x3 DUP2 ADD PUSH2 0x2C08 DUP5 DUP3 SLOAD PUSH2 0x371F JUMP JUMPDEST SWAP1 SSTORE PUSH1 0x40 MLOAD PUSH4 0xA9059CBB PUSH1 0xE0 SHL DUP2 MSTORE SWAP1 PUSH1 0x20 DUP3 DUP1 PUSH2 0x2C2A DUP8 CALLER PUSH1 0x4 DUP5 ADD PUSH2 0x368B JUMP JUMPDEST SUB DUP2 DUP12 DUP8 GAS CALL DUP1 ISZERO PUSH2 0x2CCD JUMPI PUSH7 0x1C6BF52634000 SWAP7 PUSH2 0x2C5D SWAP4 PUSH2 0x2C57 SWAP3 PUSH2 0x2CB0 JUMPI JUMPDEST POP PUSH2 0x7DC DUP2 DUP11 PUSH2 0x3924 JUMP JUMPDEST DUP7 PUSH2 0x39D2 JUMP JUMPDEST DUP1 DUP7 MSTORE PUSH1 0xA PUSH1 0x20 MSTORE PUSH1 0x0 DUP1 MLOAD PUSH1 0x20 PUSH2 0x427A DUP4 CODECOPY DUP2 MLOAD SWAP2 MSTORE PUSH2 0x2C8E PUSH1 0xB PUSH1 0x40 DUP10 KECCAK256 ADD SLOAD PUSH1 0x40 MLOAD SWAP2 DUP3 SWAP2 CALLER SWAP7 CALLVALUE DUP5 PUSH2 0x3739 JUMP JUMPDEST SUB SWAP1 LOG3 SLOAD LT ISZERO PUSH2 0x2CA1 JUMPI JUMPDEST POP PUSH1 0x1 DUP2 SSTORE DUP1 RETURN JUMPDEST PUSH2 0x2CAA SWAP1 PUSH2 0x3A2C JUMP JUMPDEST DUP2 PUSH2 0x2C99 JUMP JUMPDEST PUSH2 0x2CC8 SWAP1 PUSH1 0x20 RETURNDATASIZE PUSH1 0x20 GT PUSH2 0x857 JUMPI PUSH2 0x84A DUP2 DUP4 PUSH2 0x3467 JUMP JUMPDEST PUSH2 0x2C4C JUMP JUMPDEST PUSH1 0x40 MLOAD RETURNDATASIZE DUP11 DUP3 RETURNDATACOPY RETURNDATASIZE SWAP1 REVERT JUMPDEST PUSH4 0x3C190CCD PUSH1 0xE0 SHL DUP8 MSTORE PUSH1 0x4 DUP8 REVERT JUMPDEST POP POP PUSH1 0x20 DUP2 RETURNDATASIZE PUSH1 0x20 GT PUSH2 0x2D19 JUMPI JUMPDEST DUP2 PUSH2 0x2D02 PUSH1 0x20 SWAP4 DUP4 PUSH2 0x3467 JUMP JUMPDEST DUP2 ADD SUB SLT PUSH2 0x2D15 JUMPI DUP5 PUSH2 0x2BC5 SWAP2 MLOAD PUSH2 0x2BBB JUMP JUMPDEST DUP9 DUP1 REVERT JUMPDEST RETURNDATASIZE SWAP2 POP PUSH2 0x2CF5 JUMP JUMPDEST PUSH1 0x40 MLOAD RETURNDATASIZE DUP12 DUP3 RETURNDATACOPY RETURNDATASIZE SWAP1 REVERT JUMPDEST PUSH4 0x1C7EB2D7 PUSH1 0xE3 SHL DUP9 MSTORE PUSH1 0x4 DUP9 REVERT JUMPDEST PUSH4 0xBBF1E3C1 PUSH1 0xE0 SHL DUP7 MSTORE PUSH1 0x4 DUP7 REVERT JUMPDEST PUSH4 0x310818ED PUSH1 0xE0 SHL PUSH2 0x240 MLOAD MSTORE PUSH1 0x4 PUSH2 0x240 MLOAD REVERT JUMPDEST CALLVALUE PUSH2 0x262 JUMPI PUSH2 0x240 MLOAD CALLDATASIZE PUSH1 0x3 NOT ADD SLT PUSH2 0x262 JUMPI PUSH1 0x20 PUSH1 0x40 MLOAD PUSH2 0x2710 DUP2 MSTORE RETURN JUMPDEST CALLVALUE PUSH2 0x262 JUMPI PUSH2 0x240 MLOAD CALLDATASIZE PUSH1 0x3 NOT ADD SLT PUSH2 0x262 JUMPI PUSH2 0x2D99 PUSH2 0x388C JUMP JUMPDEST PUSH1 0x0 DUP1 MLOAD PUSH1 0x20 PUSH2 0x429A DUP4 CODECOPY DUP2 MLOAD SWAP2 MSTORE DUP1 SLOAD PUSH1 0x1 PUSH1 0x1 PUSH1 0xA0 SHL SUB NOT DUP2 AND SWAP1 SWAP2 SSTORE PUSH2 0x240 MLOAD SWAP1 PUSH1 0x1 PUSH1 0x1 PUSH1 0xA0 SHL SUB AND PUSH1 0x0 DUP1 MLOAD PUSH1 0x20 PUSH2 0x42FA DUP4 CODECOPY DUP2 MLOAD SWAP2 MSTORE DUP3 DUP1 LOG3 PUSH2 0x240 MLOAD DUP1 RETURN JUMPDEST CALLVALUE PUSH2 0x262 JUMPI PUSH1 0x20 CALLDATASIZE PUSH1 0x3 NOT ADD SLT PUSH2 0x262 JUMPI PUSH2 0x2DF8 PUSH2 0x3419 JUMP JUMPDEST PUSH1 0x0 DUP1 MLOAD PUSH1 0x20 PUSH2 0x429A DUP4 CODECOPY DUP2 MLOAD SWAP2 MSTORE SLOAD PUSH1 0x1 PUSH1 0x1 PUSH1 0xA0 SHL SUB AND CALLER SUB PUSH2 0x9C8 JUMPI PUSH1 0x1 PUSH1 0x1 PUSH1 0xA0 SHL SUB AND DUP1 ISZERO PUSH2 0x2E67 JUMPI PUSH1 0x6 DUP1 SLOAD PUSH1 0x1 PUSH1 0x1 PUSH1 0xA0 SHL SUB NOT AND DUP3 OR SWAP1 SSTORE PUSH2 0x240 MLOAD PUSH32 0x31CB9536ECF1852D39189C13961E6CD4B8740E22D548D3A4395A3D42092A6DDA SWAP1 DUP1 LOG2 PUSH2 0x240 MLOAD DUP1 RETURN JUMPDEST PUSH4 0x4A820C1 PUSH1 0xE3 SHL PUSH2 0x240 MLOAD MSTORE PUSH1 0x4 PUSH2 0x240 MLOAD REVERT JUMPDEST CALLVALUE PUSH2 0x262 JUMPI PUSH2 0x240 MLOAD CALLDATASIZE PUSH1 0x3 NOT ADD SLT PUSH2 0x262 JUMPI PUSH1 0x20 PUSH1 0x9 SLOAD PUSH1 0x40 MLOAD SWAP1 DUP2 MSTORE RETURN JUMPDEST CALLVALUE PUSH2 0x262 JUMPI PUSH1 0x20 CALLDATASIZE PUSH1 0x3 NOT ADD SLT PUSH2 0x262 JUMPI PUSH1 0x4 CALLDATALOAD PUSH1 0xF SLOAD DUP2 LT ISZERO PUSH2 0x262 JUMPI PUSH2 0x2EC5 PUSH1 0x20 SWAP2 PUSH2 0x3502 JUMP JUMPDEST SWAP1 SLOAD PUSH1 0x40 MLOAD PUSH1 0x3 SWAP3 SWAP1 SWAP3 SHL SHR PUSH1 0x1 PUSH1 0x1 PUSH1 0xA0 SHL SUB AND DUP2 MSTORE RETURN JUMPDEST CALLVALUE PUSH2 0x262 JUMPI PUSH2 0x240 MLOAD CALLDATASIZE PUSH1 0x3 NOT ADD SLT PUSH2 0x262 JUMPI PUSH1 0x20 PUSH1 0x40 MLOAD PUSH1 0x2 DUP2 MSTORE RETURN JUMPDEST CALLVALUE PUSH2 0x262 JUMPI PUSH2 0x240 MLOAD CALLDATASIZE PUSH1 0x3 NOT ADD SLT PUSH2 0x262 JUMPI PUSH1 0x20 PUSH1 0x7 SLOAD PUSH1 0x40 MLOAD SWAP1 DUP2 MSTORE RETURN JUMPDEST PUSH2 0x342F JUMP JUMPDEST CALLVALUE PUSH2 0x262 JUMPI PUSH2 0x240 MLOAD CALLDATASIZE PUSH1 0x3 NOT ADD SLT PUSH2 0x262 JUMPI PUSH1 0x40 MLOAD PUSH8 0x6765C793FA10079D PUSH1 0x1B SHL DUP2 MSTORE PUSH1 0x20 SWAP1 RETURN JUMPDEST CALLVALUE PUSH2 0x262 JUMPI PUSH2 0x240 MLOAD CALLDATASIZE PUSH1 0x3 NOT ADD SLT PUSH2 0x262 JUMPI PUSH1 0x1 PUSH2 0x240 MLOAD SLOAD SUB PUSH2 0x929 JUMPI PUSH2 0x240 MLOAD PUSH1 0x2 SWAP1 SSTORE PUSH1 0x0 DUP1 MLOAD PUSH1 0x20 PUSH2 0x429A DUP4 CODECOPY DUP2 MLOAD SWAP2 MSTORE SLOAD PUSH1 0x1 PUSH1 0x1 PUSH1 0xA0 SHL SUB AND CALLER DUP2 SWAP1 SUB PUSH2 0x9C8 JUMPI PUSH1 0x7 DUP1 SLOAD PUSH2 0x240 MLOAD SWAP2 DUP3 SWAP1 SSTORE SWAP2 DUP2 SWAP1 DUP2 SWAP1 DUP2 SWAP1 DUP6 SWAP1 GAS CALL PUSH2 0x2FB1 PUSH2 0x36A6 JUMP JUMPDEST POP ISZERO PUSH2 0x3008 JUMPI PUSH1 0x0 DUP1 MLOAD PUSH1 0x20 PUSH2 0x429A DUP4 CODECOPY DUP2 MLOAD SWAP2 MSTORE SLOAD PUSH1 0x40 MLOAD SWAP2 DUP3 MSTORE PUSH1 0x1 PUSH1 0x1 PUSH1 0xA0 SHL SUB AND SWAP1 PUSH32 0xC0819C13BE868895EB93E40EACEB96DE976442FA1D404E5C55F14BB65A8C489A SWAP1 PUSH1 0x20 SWAP1 LOG2 PUSH2 0x240 MLOAD PUSH1 0x1 DUP2 SSTORE DUP1 RETURN JUMPDEST PUSH3 0xC0F299 PUSH1 0xE0 SHL PUSH2 0x240 MLOAD MSTORE PUSH1 0x4 PUSH2 0x240 MLOAD REVERT JUMPDEST PUSH2 0x344B JUMP JUMPDEST CALLVALUE PUSH2 0x262 JUMPI PUSH1 0x40 CALLDATASIZE PUSH1 0x3 NOT ADD SLT PUSH2 0x262 JUMPI PUSH2 0x303A PUSH2 0x3419 JUMP JUMPDEST PUSH1 0x24 CALLDATALOAD PUSH1 0x1 PUSH1 0x1 PUSH1 0x40 SHL SUB DUP2 GT PUSH2 0x262 JUMPI PUSH2 0x3059 SWAP1 CALLDATASIZE SWAP1 PUSH1 0x4 ADD PUSH2 0x34BB JUMP JUMPDEST PUSH1 0x0 DUP1 MLOAD PUSH1 0x20 PUSH2 0x429A DUP4 CODECOPY DUP2 MLOAD SWAP2 MSTORE SLOAD SWAP1 SWAP2 SWAP1 PUSH1 0x1 PUSH1 0x1 PUSH1 0xA0 SHL SUB AND CALLER SUB PUSH2 0x9C8 JUMPI PUSH2 0x240 DUP1 MLOAD PUSH1 0x1 PUSH1 0x1 PUSH1 0xA0 SHL SUB SWAP3 DUP4 AND SWAP1 DUP2 SWAP1 MSTORE PUSH1 0xA PUSH1 0x20 MSTORE SWAP1 MLOAD PUSH1 0x40 SWAP1 KECCAK256 SLOAD SWAP1 SWAP3 SWAP2 AND ISZERO PUSH2 0x3104 JUMPI PUSH2 0x30FA PUSH32 0xCA28A28D7A69A99B318B23B561C6913D9433F143B9AEB678E6E9CA1DED967354 SWAP2 DUP4 PUSH2 0x240 MLOAD MSTORE PUSH1 0xE PUSH1 0x20 MSTORE PUSH1 0x40 PUSH2 0x240 MLOAD KECCAK256 PUSH1 0x1 PUSH1 0xFF NOT DUP3 SLOAD AND OR SWAP1 SSTORE PUSH1 0x40 MLOAD SWAP2 DUP3 SWAP2 PUSH1 0x20 DUP4 MSTORE PUSH1 0x20 DUP4 ADD SWAP1 PUSH2 0x3632 JUMP JUMPDEST SUB SWAP1 LOG2 PUSH2 0x240 MLOAD DUP1 RETURN JUMPDEST PUSH4 0xE0E5A1AF PUSH1 0xE0 SHL PUSH2 0x240 MLOAD MSTORE PUSH1 0x4 PUSH2 0x240 MLOAD REVERT JUMPDEST CALLVALUE PUSH2 0x262 JUMPI PUSH2 0x240 MLOAD CALLDATASIZE PUSH1 0x3 NOT ADD SLT PUSH2 0x262 JUMPI PUSH1 0x20 PUSH1 0x40 MLOAD PUSH2 0x2222 DUP2 MSTORE RETURN JUMPDEST CALLVALUE PUSH2 0x262 JUMPI PUSH2 0x240 MLOAD CALLDATASIZE PUSH1 0x3 NOT ADD SLT PUSH2 0x262 JUMPI PUSH1 0x1 PUSH2 0x240 MLOAD SLOAD SUB PUSH2 0x929 JUMPI PUSH2 0x240 MLOAD PUSH1 0x2 SWAP1 SSTORE PUSH1 0x0 DUP1 MLOAD PUSH1 0x20 PUSH2 0x429A DUP4 CODECOPY DUP2 MLOAD SWAP2 MSTORE SLOAD PUSH1 0x1 PUSH1 0x1 PUSH1 0xA0 SHL SUB AND CALLER DUP2 SWAP1 SUB PUSH2 0x9C8 JUMPI PUSH1 0x8 DUP1 SLOAD PUSH2 0x240 MLOAD SWAP2 DUP3 SWAP1 SSTORE SWAP2 DUP2 SWAP1 DUP2 SWAP1 DUP2 SWAP1 DUP6 SWAP1 GAS CALL PUSH2 0x319F PUSH2 0x36A6 JUMP JUMPDEST POP ISZERO PUSH2 0x3008 JUMPI PUSH1 0x0 DUP1 MLOAD PUSH1 0x20 PUSH2 0x429A DUP4 CODECOPY DUP2 MLOAD SWAP2 MSTORE SLOAD PUSH1 0x40 MLOAD SWAP2 DUP3 MSTORE PUSH1 0x1 PUSH1 0x1 PUSH1 0xA0 SHL SUB AND SWAP1 PUSH32 0xF5C7B4E68618595A30E0A0CCFAA8B7AEB24D620E803D8B104C5D5F3F1A181A35 SWAP1 PUSH1 0x20 SWAP1 LOG2 PUSH2 0x240 MLOAD PUSH1 0x1 DUP2 SSTORE DUP1 RETURN JUMPDEST CALLVALUE PUSH2 0x262 JUMPI PUSH2 0x240 MLOAD CALLDATASIZE PUSH1 0x3 NOT ADD SLT PUSH2 0x262 JUMPI PUSH1 0x1 SLOAD PUSH1 0x40 MLOAD PUSH1 0x1 PUSH1 0x1 PUSH1 0xA0 SHL SUB SWAP1 SWAP2 AND DUP2 MSTORE PUSH1 0x20 SWAP1 RETURN JUMPDEST CALLVALUE PUSH2 0x262 JUMPI PUSH2 0x240 MLOAD CALLDATASIZE PUSH1 0x3 NOT ADD SLT PUSH2 0x262 JUMPI PUSH1 0x20 PUSH1 0x40 MLOAD PUSH2 0x3E8 DUP2 MSTORE RETURN JUMPDEST CALLVALUE PUSH2 0x262 JUMPI PUSH1 0x20 CALLDATASIZE PUSH1 0x3 NOT ADD SLT PUSH2 0x262 JUMPI PUSH2 0x3259 PUSH2 0x3419 JUMP JUMPDEST PUSH1 0x1 PUSH2 0x240 MLOAD SLOAD SUB PUSH2 0x929 JUMPI PUSH2 0x240 DUP1 MLOAD PUSH1 0x2 DUP2 SSTORE PUSH1 0x1 PUSH1 0x1 PUSH1 0xA0 SHL SUB SWAP3 DUP4 AND SWAP1 DUP2 SWAP1 MSTORE PUSH1 0xA PUSH1 0x20 MSTORE SWAP1 MLOAD PUSH1 0x40 SWAP1 KECCAK256 PUSH1 0x9 ADD SLOAD SWAP1 SWAP2 AND CALLER SUB PUSH2 0x2AB2 JUMPI DUP1 PUSH2 0x240 MLOAD MSTORE PUSH1 0xA PUSH1 0x20 MSTORE PUSH1 0xFF PUSH1 0xE PUSH1 0x40 PUSH2 0x240 MLOAD KECCAK256 ADD SLOAD PUSH1 0x8 SHR AND PUSH2 0x339F JUMPI DUP1 PUSH2 0x240 MLOAD MSTORE PUSH1 0xA PUSH1 0x20 MSTORE PUSH1 0xF PUSH1 0x40 PUSH2 0x240 MLOAD KECCAK256 ADD SLOAD TIMESTAMP LT PUSH2 0x338A JUMPI DUP1 PUSH2 0x240 MLOAD MSTORE PUSH1 0xC PUSH1 0x20 MSTORE PUSH1 0x40 PUSH2 0x240 MLOAD KECCAK256 SLOAD SWAP1 DUP2 ISZERO PUSH2 0x2A73 JUMPI DUP1 PUSH2 0x240 MLOAD MSTORE PUSH1 0xC PUSH1 0x20 MSTORE PUSH2 0x240 MLOAD PUSH1 0x40 PUSH2 0x240 MLOAD KECCAK256 SSTORE PUSH1 0x40 MLOAD PUSH4 0xA9059CBB PUSH1 0xE0 SHL DUP2 MSTORE PUSH1 0x20 DUP2 DUP1 PUSH2 0x3321 DUP7 CALLER PUSH1 0x4 DUP5 ADD PUSH2 0x368B JUMP JUMPDEST SUB DUP2 PUSH2 0x240 MLOAD DUP7 GAS CALL DUP1 ISZERO PUSH2 0x85E JUMPI PUSH2 0x336D JUMPI JUMPDEST POP PUSH1 0x40 MLOAD SWAP2 DUP3 MSTORE PUSH32 0x3F8AE94FCE684FBEE6F33C863E53F89D15755C89D22D2036CF84E6E5695BADE2 PUSH1 0x20 CALLER SWAP4 LOG3 PUSH2 0x240 MLOAD PUSH1 0x1 DUP2 SSTORE DUP1 RETURN JUMPDEST PUSH2 0x3385 SWAP1 PUSH1 0x20 RETURNDATASIZE PUSH1 0x20 GT PUSH2 0x857 JUMPI PUSH2 0x84A DUP2 DUP4 PUSH2 0x3467 JUMP JUMPDEST PUSH2 0x3335 JUMP JUMPDEST PUSH4 0xDE1AF48D PUSH1 0xE0 SHL PUSH2 0x240 MLOAD MSTORE PUSH1 0x4 PUSH2 0x240 MLOAD REVERT JUMPDEST PUSH4 0x5AB0DEF PUSH1 0xE2 SHL PUSH2 0x240 MLOAD MSTORE PUSH1 0x4 PUSH2 0x240 MLOAD REVERT JUMPDEST CALLVALUE PUSH2 0x262 JUMPI PUSH2 0x240 MLOAD CALLDATASIZE PUSH1 0x3 NOT ADD SLT PUSH2 0x262 JUMPI PUSH1 0x5 SLOAD PUSH1 0x40 MLOAD PUSH1 0x1 PUSH1 0x1 PUSH1 0xA0 SHL SUB SWAP1 SWAP2 AND DUP2 MSTORE PUSH1 0x20 SWAP1 RETURN JUMPDEST CALLVALUE PUSH2 0x262 JUMPI PUSH1 0x20 CALLDATASIZE PUSH1 0x3 NOT ADD SLT PUSH2 0x262 JUMPI PUSH1 0x20 SWAP1 PUSH1 0x1 PUSH1 0x1 PUSH1 0xA0 SHL SUB PUSH2 0x3403 PUSH2 0x3419 JUMP JUMPDEST AND PUSH2 0x240 MLOAD MSTORE PUSH1 0xD DUP3 MSTORE PUSH1 0x40 PUSH2 0x240 MLOAD KECCAK256 SLOAD DUP2 MSTORE RETURN JUMPDEST PUSH1 0x4 CALLDATALOAD SWAP1 PUSH1 0x1 PUSH1 0x1 PUSH1 0xA0 SHL SUB DUP3 AND DUP3 SUB PUSH2 0x8DD JUMPI JUMP JUMPDEST CALLVALUE PUSH2 0x8DD JUMPI PUSH1 0x0 CALLDATASIZE PUSH1 0x3 NOT ADD SLT PUSH2 0x8DD JUMPI PUSH1 0x20 PUSH1 0x40 MLOAD PUSH1 0x0 DUP2 MSTORE RETURN JUMPDEST CALLVALUE PUSH2 0x8DD JUMPI PUSH1 0x0 CALLDATASIZE PUSH1 0x3 NOT ADD SLT PUSH2 0x8DD JUMPI PUSH1 0x20 PUSH1 0x40 MLOAD PUSH1 0x1 DUP2 MSTORE RETURN JUMPDEST PUSH1 0x1F SWAP1 SWAP2 ADD PUSH1 0x1F NOT AND DUP2 ADD SWAP1 PUSH1 0x1 PUSH1 0x1 PUSH1 0x40 SHL SUB DUP3 GT SWAP1 DUP3 LT OR PUSH2 0x348A JUMPI PUSH1 0x40 MSTORE JUMP JUMPDEST PUSH4 0x4E487B71 PUSH1 0xE0 SHL PUSH1 0x0 MSTORE PUSH1 0x41 PUSH1 0x4 MSTORE PUSH1 0x24 PUSH1 0x0 REVERT JUMPDEST PUSH1 0x1 PUSH1 0x1 PUSH1 0x40 SHL SUB DUP2 GT PUSH2 0x348A JUMPI PUSH1 0x1F ADD PUSH1 0x1F NOT AND PUSH1 0x20 ADD SWAP1 JUMP JUMPDEST DUP2 PUSH1 0x1F DUP3 ADD SLT ISZERO PUSH2 0x8DD JUMPI DUP1 CALLDATALOAD SWAP1 PUSH2 0x34D2 DUP3 PUSH2 0x34A0 JUMP JUMPDEST SWAP3 PUSH2 0x34E0 PUSH1 0x40 MLOAD SWAP5 DUP6 PUSH2 0x3467 JUMP JUMPDEST DUP3 DUP5 MSTORE PUSH1 0x20 DUP4 DUP4 ADD ADD GT PUSH2 0x8DD JUMPI DUP2 PUSH1 0x0 SWAP3 PUSH1 0x20 DUP1 SWAP4 ADD DUP4 DUP7 ADD CALLDATACOPY DUP4 ADD ADD MSTORE SWAP1 JUMP JUMPDEST PUSH1 0xF SLOAD DUP2 LT ISZERO PUSH2 0x351D JUMPI PUSH1 0xF PUSH1 0x0 MSTORE PUSH1 0x20 PUSH1 0x0 KECCAK256 ADD SWAP1 PUSH1 0x0 SWAP1 JUMP JUMPDEST PUSH4 0x4E487B71 PUSH1 0xE0 SHL PUSH1 0x0 MSTORE PUSH1 0x32 PUSH1 0x4 MSTORE PUSH1 0x24 PUSH1 0x0 REVERT JUMPDEST CALLVALUE PUSH2 0x8DD JUMPI PUSH1 0x0 CALLDATASIZE PUSH1 0x3 NOT ADD SLT PUSH2 0x8DD JUMPI PUSH1 0x20 PUSH1 0x40 MLOAD PUSH6 0x5AF3107A4000 DUP2 MSTORE RETURN JUMPDEST SWAP1 PUSH1 0x1 DUP3 DUP2 SHR SWAP3 AND DUP1 ISZERO PUSH2 0x3584 JUMPI JUMPDEST PUSH1 0x20 DUP4 LT EQ PUSH2 0x356E JUMPI JUMP JUMPDEST PUSH4 0x4E487B71 PUSH1 0xE0 SHL PUSH1 0x0 MSTORE PUSH1 0x22 PUSH1 0x4 MSTORE PUSH1 0x24 PUSH1 0x0 REVERT JUMPDEST SWAP2 PUSH1 0x7F AND SWAP2 PUSH2 0x3563 JUMP JUMPDEST SWAP1 PUSH1 0x40 MLOAD SWAP2 DUP3 PUSH1 0x0 DUP3 SLOAD SWAP3 PUSH2 0x35A2 DUP5 PUSH2 0x3554 JUMP JUMPDEST DUP1 DUP5 MSTORE SWAP4 PUSH1 0x1 DUP2 AND SWAP1 DUP2 ISZERO PUSH2 0x3610 JUMPI POP PUSH1 0x1 EQ PUSH2 0x35C9 JUMPI JUMPDEST POP PUSH2 0x35C7 SWAP3 POP SUB DUP4 PUSH2 0x3467 JUMP JUMPDEST JUMP JUMPDEST SWAP1 POP PUSH1 0x0 SWAP3 SWAP2 SWAP3 MSTORE PUSH1 0x20 PUSH1 0x0 KECCAK256 SWAP1 PUSH1 0x0 SWAP2 JUMPDEST DUP2 DUP4 LT PUSH2 0x35F4 JUMPI POP POP SWAP1 PUSH1 0x20 PUSH2 0x35C7 SWAP3 DUP3 ADD ADD CODESIZE PUSH2 0x35BA JUMP JUMPDEST PUSH1 0x20 SWAP2 SWAP4 POP DUP1 PUSH1 0x1 SWAP2 SLOAD DUP4 DUP6 DUP10 ADD ADD MSTORE ADD SWAP2 ADD SWAP1 SWAP2 DUP5 SWAP3 PUSH2 0x35DB JUMP JUMPDEST SWAP1 POP PUSH1 0x20 SWAP3 POP PUSH2 0x35C7 SWAP5 SWAP2 POP PUSH1 0xFF NOT AND DUP3 DUP5 ADD MSTORE ISZERO ISZERO PUSH1 0x5 SHL DUP3 ADD ADD CODESIZE PUSH2 0x35BA JUMP JUMPDEST SWAP2 SWAP1 DUP3 MLOAD SWAP3 DUP4 DUP3 MSTORE PUSH1 0x0 JUMPDEST DUP5 DUP2 LT PUSH2 0x365E JUMPI POP POP DUP3 PUSH1 0x0 PUSH1 0x20 DUP1 SWAP5 SWAP6 DUP5 ADD ADD MSTORE PUSH1 0x1F DUP1 NOT SWAP2 ADD AND ADD ADD SWAP1 JUMP JUMPDEST DUP1 PUSH1 0x20 DUP1 SWAP3 DUP5 ADD ADD MLOAD DUP3 DUP3 DUP7 ADD ADD MSTORE ADD PUSH2 0x363D JUMP JUMPDEST SWAP1 DUP2 PUSH1 0x20 SWAP2 SUB SLT PUSH2 0x8DD JUMPI MLOAD DUP1 ISZERO ISZERO DUP2 SUB PUSH2 0x8DD JUMPI SWAP1 JUMP JUMPDEST PUSH1 0x1 PUSH1 0x1 PUSH1 0xA0 SHL SUB SWAP1 SWAP2 AND DUP2 MSTORE PUSH1 0x20 DUP2 ADD SWAP2 SWAP1 SWAP2 MSTORE PUSH1 0x40 ADD SWAP1 JUMP JUMPDEST RETURNDATASIZE ISZERO PUSH2 0x36D1 JUMPI RETURNDATASIZE SWAP1 PUSH2 0x36B7 DUP3 PUSH2 0x34A0 JUMP JUMPDEST SWAP2 PUSH2 0x36C5 PUSH1 0x40 MLOAD SWAP4 DUP5 PUSH2 0x3467 JUMP JUMPDEST DUP3 MSTORE RETURNDATASIZE PUSH1 0x0 PUSH1 0x20 DUP5 ADD RETURNDATACOPY JUMP JUMPDEST PUSH1 0x60 SWAP1 JUMP JUMPDEST DUP2 DUP2 MUL SWAP3 SWAP2 DUP2 ISZERO SWAP2 DUP5 DIV EQ OR ISZERO PUSH2 0x36E9 JUMPI JUMP JUMPDEST PUSH4 0x4E487B71 PUSH1 0xE0 SHL PUSH1 0x0 MSTORE PUSH1 0x11 PUSH1 0x4 MSTORE PUSH1 0x24 PUSH1 0x0 REVERT JUMPDEST DUP2 ISZERO PUSH2 0x3709 JUMPI DIV SWAP1 JUMP JUMPDEST PUSH4 0x4E487B71 PUSH1 0xE0 SHL PUSH1 0x0 MSTORE PUSH1 0x12 PUSH1 0x4 MSTORE PUSH1 0x24 PUSH1 0x0 REVERT JUMPDEST SWAP2 SWAP1 DUP3 SUB SWAP2 DUP3 GT PUSH2 0x36E9 JUMPI JUMP JUMPDEST SWAP2 SWAP1 DUP3 ADD DUP1 SWAP3 GT PUSH2 0x36E9 JUMPI JUMP JUMPDEST PUSH1 0x40 SWAP2 SWAP5 SWAP4 SWAP3 PUSH1 0x60 DUP3 ADD SWAP6 DUP3 MSTORE PUSH1 0x20 DUP3 ADD MSTORE ADD MSTORE JUMP JUMPDEST PUSH2 0x184 CALLDATALOAD PUSH2 0xFFFF DUP2 AND DUP2 SUB PUSH2 0x8DD JUMPI SWAP1 JUMP JUMPDEST PUSH2 0x1A4 CALLDATALOAD PUSH2 0xFFFF DUP2 AND DUP2 SUB PUSH2 0x8DD JUMPI SWAP1 JUMP JUMPDEST PUSH2 0x1C4 CALLDATALOAD PUSH2 0xFFFF DUP2 AND DUP2 SUB PUSH2 0x8DD JUMPI SWAP1 JUMP JUMPDEST PUSH2 0x1E4 CALLDATALOAD PUSH2 0xFFFF DUP2 AND DUP2 SUB PUSH2 0x8DD JUMPI SWAP1 JUMP JUMPDEST PUSH2 0x204 CALLDATALOAD PUSH2 0xFFFF DUP2 AND DUP2 SUB PUSH2 0x8DD JUMPI SWAP1 JUMP JUMPDEST PUSH2 0x264 CALLDATALOAD PUSH2 0xFFFF DUP2 AND DUP2 SUB PUSH2 0x8DD JUMPI SWAP1 JUMP JUMPDEST PUSH2 0x284 CALLDATALOAD PUSH2 0xFFFF DUP2 AND DUP2 SUB PUSH2 0x8DD JUMPI SWAP1 JUMP JUMPDEST PUSH2 0x224 CALLDATALOAD PUSH1 0x1 PUSH1 0x1 PUSH1 0xA0 SHL SUB DUP2 AND DUP2 SUB PUSH2 0x8DD JUMPI SWAP1 JUMP JUMPDEST PUSH2 0x164 CALLDATALOAD PUSH1 0xFF DUP2 AND DUP2 SUB PUSH2 0x8DD JUMPI SWAP1 JUMP JUMPDEST PUSH2 0x244 CALLDATALOAD PUSH4 0xFFFFFFFF DUP2 AND DUP2 SUB PUSH2 0x8DD JUMPI SWAP1 JUMP JUMPDEST SWAP1 DUP2 PUSH1 0x20 SWAP2 SUB SLT PUSH2 0x8DD JUMPI MLOAD PUSH1 0x1 PUSH1 0x1 PUSH1 0xA0 SHL SUB DUP2 AND DUP2 SUB PUSH2 0x8DD JUMPI SWAP1 JUMP JUMPDEST PUSH1 0x1 PUSH1 0x1 PUSH1 0xA0 SHL SUB AND DUP1 ISZERO PUSH2 0x3876 JUMPI PUSH1 0x0 DUP1 MLOAD PUSH1 0x20 PUSH2 0x429A DUP4 CODECOPY DUP2 MLOAD SWAP2 MSTORE DUP1 SLOAD PUSH1 0x1 PUSH1 0x1 PUSH1 0xA0 SHL SUB NOT DUP2 AND DUP4 OR SWAP1 SWAP2 SSTORE PUSH1 0x1 PUSH1 0x1 PUSH1 0xA0 SHL SUB AND PUSH1 0x0 DUP1 MLOAD PUSH1 0x20 PUSH2 0x42FA DUP4 CODECOPY DUP2 MLOAD SWAP2 MSTORE PUSH1 0x0 DUP1 LOG3 JUMP JUMPDEST PUSH4 0x1E4FBDF7 PUSH1 0xE0 SHL PUSH1 0x0 MSTORE PUSH1 0x0 PUSH1 0x4 MSTORE PUSH1 0x24 PUSH1 0x0 REVERT JUMPDEST PUSH1 0x0 DUP1 MLOAD PUSH1 0x20 PUSH2 0x429A DUP4 CODECOPY DUP2 MLOAD SWAP2 MSTORE SLOAD PUSH1 0x1 PUSH1 0x1 PUSH1 0xA0 SHL SUB AND CALLER SUB PUSH2 0x38AD JUMPI JUMP JUMPDEST PUSH4 0x118CDAA7 PUSH1 0xE0 SHL PUSH1 0x0 MSTORE CALLER PUSH1 0x4 MSTORE PUSH1 0x24 PUSH1 0x0 REVERT JUMPDEST SWAP1 PUSH2 0x38E5 PUSH2 0x38EB SWAP3 PUSH2 0x6D6 PUSH1 0x1 PUSH2 0x38DB DUP4 SLOAD SWAP6 DUP7 PUSH2 0x372C JUMP JUMPDEST SWAP3 ADD SLOAD DUP1 SWAP5 PUSH2 0x36D6 JUMP JUMPDEST SWAP1 PUSH2 0x371F JUMP JUMPDEST SWAP1 JUMP JUMPDEST PUSH1 0x1 DUP1 PUSH1 0xA0 SHL SUB AND PUSH1 0x0 MSTORE PUSH1 0xA PUSH1 0x20 MSTORE PUSH1 0xA PUSH1 0x40 PUSH1 0x0 KECCAK256 ADD SLOAD PUSH2 0x2710 DUP2 MUL SWAP1 DUP1 DUP3 DIV PUSH2 0x2710 EQ SWAP1 ISZERO OR ISZERO PUSH2 0x36E9 JUMPI PUSH2 0x2710 SWAP1 DIV SWAP1 JUMP JUMPDEST DUP2 ISZERO PUSH2 0x3974 JUMPI PUSH1 0x1 PUSH1 0x1 PUSH1 0xA0 SHL SUB SWAP1 DUP2 AND PUSH1 0x0 SWAP1 DUP2 MSTORE PUSH1 0xA PUSH1 0x20 MSTORE PUSH1 0x40 DUP2 KECCAK256 PUSH1 0x9 ADD SLOAD SWAP1 SWAP3 DUP4 SWAP3 DUP4 SWAP3 DUP4 SWAP3 SWAP2 AND GAS CALL PUSH2 0x395B PUSH2 0x36A6 JUMP JUMPDEST POP ISZERO PUSH2 0x3963 JUMPI JUMP JUMPDEST PUSH4 0x36DB069 PUSH1 0xE6 SHL PUSH1 0x0 MSTORE PUSH1 0x4 PUSH1 0x0 REVERT JUMPDEST POP POP JUMP JUMPDEST PUSH1 0x5 SLOAD PUSH1 0x1 PUSH1 0x1 PUSH1 0xA0 SHL SUB AND ISZERO PUSH2 0x39C1 JUMPI PUSH1 0x5 SLOAD PUSH1 0x0 SWAP2 DUP3 SWAP2 DUP3 SWAP2 DUP3 SWAP2 PUSH1 0x1 PUSH1 0x1 PUSH1 0xA0 SHL SUB AND GAS CALL PUSH2 0x39A8 PUSH2 0x36A6 JUMP JUMPDEST POP ISZERO PUSH2 0x39B0 JUMPI JUMP JUMPDEST PUSH4 0x3A0AB711 PUSH1 0xE2 SHL PUSH1 0x0 MSTORE PUSH1 0x4 PUSH1 0x0 REVERT JUMPDEST PUSH2 0x39CD SWAP1 PUSH1 0x7 SLOAD PUSH2 0x372C JUMP JUMPDEST PUSH1 0x7 SSTORE JUMP JUMPDEST SWAP1 PUSH2 0x3A17 PUSH2 0x39E8 PUSH8 0xDE0B6B3A7640000 SWAP3 PUSH2 0x4202 JUMP JUMPDEST PUSH1 0x1 PUSH1 0x1 PUSH1 0xA0 SHL SUB SWAP1 SWAP4 AND PUSH1 0x0 DUP2 DUP2 MSTORE PUSH1 0xA PUSH1 0x20 DUP2 SWAP1 MSTORE PUSH1 0x40 SWAP1 SWAP2 KECCAK256 SWAP1 DUP2 ADD SLOAD PUSH1 0xB SWAP1 SWAP2 ADD DUP6 SWAP1 SSTORE SWAP1 SWAP4 PUSH2 0x36D6 JUMP JUMPDEST DIV SWAP1 PUSH1 0x0 MSTORE PUSH1 0xA PUSH1 0x20 MSTORE PUSH1 0xC PUSH1 0x40 PUSH1 0x0 KECCAK256 ADD SSTORE JUMP JUMPDEST PUSH1 0x1 PUSH1 0x1 PUSH1 0xA0 SHL SUB DUP2 AND PUSH1 0x0 SWAP1 DUP2 MSTORE PUSH1 0xB PUSH1 0x20 MSTORE PUSH1 0x40 DUP2 KECCAK256 PUSH1 0x7 SLOAD PUSH1 0x8 SLOAD SWAP2 SWAP3 SWAP2 PUSH2 0x3A56 SWAP2 PUSH2 0x372C JUMP JUMPDEST SELFBALANCE SWAP1 DUP2 DUP2 GT PUSH2 0x419E JUMPI PUSH2 0x3A68 SWAP2 PUSH2 0x371F JUMP JUMPDEST SWAP2 JUMPDEST PUSH1 0x3 DUP2 ADD DUP1 SLOAD SWAP4 DUP1 ISZERO DUP1 ISZERO PUSH2 0x4196 JUMPI JUMPDEST PUSH2 0x4187 JUMPI PUSH1 0x2 SLOAD PUSH1 0x40 MLOAD PUSH4 0x95EA7B3 PUSH1 0xE0 SHL DUP2 MSTORE SWAP1 PUSH1 0x20 SWAP1 DUP3 SWAP1 DUP2 SWAP1 PUSH2 0x3AAE SWAP1 DUP11 SWAP1 PUSH1 0x1 PUSH1 0x1 PUSH1 0xA0 SHL SUB AND PUSH1 0x4 DUP5 ADD PUSH2 0x368B JUMP JUMPDEST SUB DUP2 DUP9 PUSH1 0x1 PUSH1 0x1 PUSH1 0xA0 SHL SUB DUP13 AND GAS CALL SWAP1 DUP2 ISZERO PUSH2 0x417C JUMPI DUP6 SWAP2 PUSH2 0x415D JUMPI JUMPDEST POP ISZERO PUSH2 0x414E JUMPI PUSH1 0x2 SLOAD PUSH1 0x1 PUSH1 0x1 PUSH1 0xA0 SHL SUB AND SWAP5 TIMESTAMP PUSH2 0x258 DUP2 ADD SWAP3 SWAP1 DUP4 LT PUSH2 0x413A JUMPI PUSH1 0x60 SWAP3 SWAP2 PUSH1 0xC4 SWAP2 PUSH1 0x40 MLOAD SWAP9 DUP10 SWAP5 DUP6 SWAP4 PUSH4 0xF305D719 PUSH1 0xE0 SHL DUP6 MSTORE PUSH1 0x1 DUP1 PUSH1 0xA0 SHL SUB DUP14 AND PUSH1 0x4 DUP7 ADD MSTORE PUSH1 0x24 DUP6 ADD MSTORE DUP10 PUSH1 0x44 DUP6 ADD MSTORE DUP10 PUSH1 0x64 DUP6 ADD MSTORE ADDRESS PUSH1 0x84 DUP6 ADD MSTORE PUSH1 0xA4 DUP5 ADD MSTORE GAS CALL SWAP4 DUP5 ISZERO PUSH2 0x3F77 JUMPI DUP4 DUP5 SWAP2 DUP6 SWAP7 PUSH2 0x40F8 JUMPI JUMPDEST POP PUSH1 0x3 SLOAD PUSH1 0x4 DUP1 SLOAD PUSH1 0x40 MLOAD PUSH4 0xE6A43905 PUSH1 0xE0 SHL DUP2 MSTORE PUSH1 0x1 PUSH1 0x1 PUSH1 0xA0 SHL SUB DUP12 DUP2 AND SWAP4 DUP3 ADD SWAP4 SWAP1 SWAP4 MSTORE SWAP1 DUP3 AND PUSH1 0x24 DUP3 ADD MSTORE SWAP8 SWAP2 PUSH1 0x20 SWAP2 DUP10 SWAP2 PUSH1 0x44 SWAP2 DUP4 SWAP2 AND GAS STATICCALL SWAP7 DUP8 ISZERO PUSH2 0x40BD JUMPI DUP7 SWAP8 PUSH2 0x40D7 JUMPI JUMPDEST POP PUSH1 0x1 PUSH1 0x1 PUSH1 0xA0 SHL SUB DUP8 AND ISZERO PUSH2 0x40C8 JUMPI PUSH1 0x40 MLOAD PUSH4 0xA9059CBB PUSH1 0xE0 SHL DUP2 MSTORE PUSH2 0xDEAD PUSH1 0x4 DUP3 ADD MSTORE PUSH1 0x24 DUP2 ADD SWAP2 SWAP1 SWAP2 MSTORE PUSH1 0x20 DUP2 PUSH1 0x44 DUP2 DUP10 PUSH1 0x1 PUSH1 0x1 PUSH1 0xA0 SHL SUB DUP13 AND GAS CALL DUP1 ISZERO PUSH2 0x40BD JUMPI PUSH2 0x40A0 JUMPI JUMPDEST POP PUSH1 0x40 DUP1 MLOAD SWAP3 DUP4 MSTORE PUSH1 0x20 DUP4 ADD SWAP2 SWAP1 SWAP2 MSTORE PUSH1 0x1 PUSH1 0x1 PUSH1 0xA0 SHL SUB DUP7 DUP2 AND SWAP3 SWAP1 DUP9 AND SWAP2 PUSH32 0x36F3B2E1A21C19137DD82EC243B0708A1D26B3D1FA1DC49C44C4C366A5878138 SWAP2 LOG3 PUSH1 0x40 MLOAD PUSH4 0x70A08231 PUSH1 0xE0 SHL DUP2 MSTORE ADDRESS PUSH1 0x4 DUP3 ADD MSTORE PUSH1 0x20 DUP2 PUSH1 0x24 DUP2 PUSH1 0x1 PUSH1 0x1 PUSH1 0xA0 SHL SUB DUP11 AND GAS STATICCALL SWAP1 DUP2 ISZERO PUSH2 0x405A JUMPI SWAP1 DUP5 SWAP3 SWAP2 DUP4 SWAP2 PUSH2 0x4065 JUMPI JUMPDEST POP DUP1 PUSH2 0x3FF9 JUMPI JUMPDEST POP PUSH1 0x1 PUSH1 0x1 PUSH1 0xA0 SHL SUB DUP7 DUP2 AND DUP1 DUP5 MSTORE PUSH1 0xA PUSH1 0x20 DUP2 DUP2 MSTORE PUSH1 0x40 DUP1 DUP8 KECCAK256 PUSH1 0xE ADD DUP1 SLOAD PUSH1 0xFF NOT AND PUSH1 0x1 OR SWAP1 SSTORE DUP4 DUP8 MSTORE DUP3 DUP3 MSTORE DUP1 DUP8 KECCAK256 PUSH1 0x10 ADD DUP1 SLOAD PUSH1 0x1 PUSH1 0x1 PUSH1 0xA0 SHL SUB NOT AND SWAP6 DUP12 AND SWAP6 SWAP1 SWAP6 OR SWAP1 SWAP5 SSTORE PUSH1 0x2 DUP8 ADD DUP7 SWAP1 SSTORE SWAP5 SWAP1 SWAP4 SSTORE DUP6 MSTORE SWAP2 MSTORE DUP3 KECCAK256 PUSH1 0x12 DUP2 ADD SLOAD SWAP1 DUP4 PUSH1 0xFF DUP4 AND DUP1 DUP1 PUSH2 0x3FE9 JUMPI JUMPDEST PUSH2 0x3FA9 JUMPI JUMPDEST PUSH1 0x40 MLOAD SWAP4 PUSH2 0x220 DUP6 ADD PUSH1 0x1 PUSH1 0x1 PUSH1 0x40 SHL SUB DUP2 GT DUP7 DUP3 LT OR PUSH2 0x3F95 JUMPI PUSH1 0x40 SWAP1 DUP2 MSTORE PUSH2 0x1A0 DUP7 ADD DUP9 SWAP1 MSTORE PUSH2 0x1C0 DUP7 ADD DUP9 SWAP1 MSTORE PUSH2 0x1E0 DUP7 ADD DUP9 SWAP1 MSTORE PUSH2 0x200 DUP7 ADD DUP9 SWAP1 MSTORE PUSH1 0x9 DUP6 ADD SLOAD PUSH1 0x1 PUSH1 0x1 PUSH1 0xA0 SHL SUB SWAP1 DUP2 AND DUP8 MSTORE DUP10 DUP2 AND PUSH1 0x20 DUP1 DUP10 ADD SWAP2 SWAP1 SWAP2 MSTORE PUSH1 0x60 DUP5 DUP2 SHR DUP10 DUP6 ADD MSTORE PUSH2 0xFFFF PUSH1 0x10 DUP7 SWAP1 SHR DUP2 AND SWAP2 DUP11 ADD DUP3 SWAP1 MSTORE SWAP2 DUP6 SWAP1 SHR DUP3 AND PUSH1 0x80 DUP11 ADD MSTORE PUSH1 0x30 DUP6 SWAP1 SHR DUP3 AND PUSH1 0xA0 DUP11 ADD MSTORE SWAP3 DUP5 SWAP1 SHR DUP2 AND PUSH1 0xC0 DUP10 ADD MSTORE PUSH1 0x50 SWAP4 SWAP1 SWAP4 SHR SWAP1 SWAP3 AND PUSH1 0xE0 DUP8 ADD MSTORE ISZERO ISZERO PUSH2 0x100 DUP7 ADD MSTORE SWAP1 ISZERO ISZERO PUSH2 0x120 DUP6 ADD MSTORE PUSH1 0x2 SLOAD DUP2 AND PUSH2 0x140 DUP6 ADD MSTORE PUSH1 0x4 SLOAD DUP2 AND PUSH2 0x160 DUP6 ADD MSTORE AND PUSH2 0x180 DUP4 ADD MSTORE PUSH1 0x13 ADD SLOAD PUSH4 0xFFFFFFFF DUP2 AND DUP1 PUSH2 0x3F86 JUMPI POP DUP4 JUMPDEST PUSH2 0x1A0 DUP4 ADD MSTORE PUSH1 0x20 DUP2 SWAP1 SHR PUSH2 0xFFFF SWAP1 DUP2 AND PUSH2 0x1C0 DUP5 ADD MSTORE PUSH1 0x30 DUP3 SWAP1 SHR AND PUSH2 0x1E0 DUP4 ADD MSTORE PUSH1 0x40 SHR PUSH1 0x1 PUSH1 0x1 PUSH1 0xA0 SHL SUB SWAP1 DUP2 AND PUSH2 0x200 DUP4 ADD MSTORE DUP6 AND EXTCODESIZE ISZERO PUSH2 0x3F82 JUMPI PUSH1 0x40 DUP1 MLOAD PUSH4 0xC9AF097D PUSH1 0xE0 SHL DUP2 MSTORE DUP3 MLOAD PUSH1 0x1 PUSH1 0x1 PUSH1 0xA0 SHL SUB SWAP1 DUP2 AND PUSH1 0x4 DUP4 ADD MSTORE PUSH1 0x20 DUP5 ADD MLOAD DUP2 AND PUSH1 0x24 DUP4 ADD MSTORE SWAP2 DUP4 ADD MLOAD DUP3 AND PUSH1 0x44 DUP3 ADD MSTORE PUSH1 0x60 DUP4 ADD MLOAD PUSH2 0xFFFF SWAP1 DUP2 AND PUSH1 0x64 DUP4 ADD MSTORE PUSH1 0x80 DUP5 ADD MLOAD DUP2 AND PUSH1 0x84 DUP4 ADD MSTORE PUSH1 0xA0 DUP5 ADD MLOAD DUP2 AND PUSH1 0xA4 DUP4 ADD MSTORE PUSH1 0xC0 DUP5 ADD MLOAD DUP2 AND PUSH1 0xC4 DUP4 ADD MSTORE PUSH1 0xE0 DUP5 ADD MLOAD DUP2 AND PUSH1 0xE4 DUP4 ADD MSTORE PUSH2 0x100 DUP5 ADD MLOAD ISZERO ISZERO PUSH2 0x104 DUP4 ADD MSTORE PUSH2 0x120 DUP5 ADD MLOAD ISZERO ISZERO PUSH2 0x124 DUP4 ADD MSTORE PUSH2 0x140 DUP5 ADD MLOAD DUP4 AND PUSH2 0x144 DUP4 ADD MSTORE PUSH2 0x160 DUP5 ADD MLOAD DUP4 AND PUSH2 0x164 DUP4 ADD MSTORE PUSH2 0x180 DUP5 ADD MLOAD DUP4 AND PUSH2 0x184 DUP4 ADD MSTORE PUSH2 0x1A0 DUP5 ADD MLOAD PUSH2 0x1A4 DUP4 ADD MSTORE PUSH2 0x1C0 DUP5 ADD MLOAD DUP2 AND PUSH2 0x1C4 DUP4 ADD MSTORE PUSH2 0x1E0 DUP5 ADD MLOAD AND PUSH2 0x1E4 DUP3 ADD MSTORE PUSH2 0x200 SWAP1 SWAP3 ADD MLOAD DUP2 AND PUSH2 0x204 DUP4 ADD MSTORE DUP4 SWAP1 DUP3 SWAP1 PUSH2 0x224 SWAP1 DUP3 SWAP1 DUP5 SWAP1 DUP11 AND GAS CALL DUP1 ISZERO PUSH2 0x3F77 JUMPI PUSH32 0xD746A893DE4E12067EF4A3B08937AE3E7BD69F3872A69AF45CB1EF5493D9AA52 SWAP4 PUSH1 0x20 SWAP4 PUSH1 0xC SWAP4 PUSH1 0x40 SWAP4 PUSH2 0x3F61 JUMPI JUMPDEST POP PUSH2 0x3F38 SWAP1 DUP9 PUSH2 0x39D2 JUMP JUMPDEST PUSH1 0x1 PUSH1 0x1 PUSH1 0xA0 SHL SUB SWAP7 DUP8 AND DUP1 DUP3 MSTORE PUSH1 0xA DUP6 MSTORE SWAP2 SWAP1 KECCAK256 SWAP2 SWAP1 SWAP2 ADD SLOAD PUSH1 0x40 MLOAD SWAP1 DUP2 MSTORE SWAP4 SWAP1 SWAP5 AND SWAP4 SWAP3 LOG3 JUMP JUMPDEST SWAP2 PUSH2 0x3F70 DUP2 PUSH2 0x3F38 SWAP4 SWAP5 PUSH2 0x3467 JUMP JUMPDEST SWAP2 SWAP1 PUSH2 0x3F2D JUMP JUMPDEST PUSH1 0x40 MLOAD RETURNDATASIZE DUP6 DUP3 RETURNDATACOPY RETURNDATASIZE SWAP1 REVERT JUMPDEST DUP3 DUP1 REVERT JUMPDEST PUSH2 0x3F90 SWAP1 TIMESTAMP PUSH2 0x372C JUMP JUMPDEST PUSH2 0x3DB5 JUMP JUMPDEST PUSH4 0x4E487B71 PUSH1 0xE0 SHL DUP9 MSTORE PUSH1 0x41 PUSH1 0x4 MSTORE PUSH1 0x24 DUP9 REVERT JUMPDEST SWAP1 POP PUSH1 0x1 PUSH1 0xFF DUP5 PUSH1 0x8 SHR AND EQ PUSH1 0x0 EQ PUSH2 0x3FD8 JUMPI PUSH20 0x55D398326F99059FF775485246999027B3197955 JUMPDEST SWAP1 PUSH2 0x3CCD JUMP JUMPDEST PUSH1 0x4 SLOAD PUSH1 0x1 PUSH1 0x1 PUSH1 0xA0 SHL SUB AND PUSH2 0x3FD2 JUMP JUMPDEST POP PUSH2 0xFFFF DUP5 PUSH1 0x40 SHR AND ISZERO ISZERO PUSH2 0x3CC8 JUMP JUMPDEST PUSH1 0x40 MLOAD PUSH4 0xA9059CBB PUSH1 0xE0 SHL DUP2 MSTORE PUSH2 0xDEAD PUSH1 0x4 DUP3 ADD MSTORE PUSH1 0x24 DUP2 ADD SWAP2 SWAP1 SWAP2 MSTORE SWAP1 SWAP2 POP PUSH1 0x20 DUP2 PUSH1 0x44 DUP2 DUP8 PUSH1 0x1 PUSH1 0x1 PUSH1 0xA0 SHL SUB DUP12 AND GAS CALL DUP1 ISZERO PUSH2 0x405A JUMPI SWAP1 DUP5 SWAP3 SWAP2 ISZERO PUSH2 0x3C5A JUMPI PUSH2 0x4053 SWAP1 PUSH1 0x20 RETURNDATASIZE PUSH1 0x20 GT PUSH2 0x857 JUMPI PUSH2 0x84A DUP2 DUP4 PUSH2 0x3467 JUMP JUMPDEST POP CODESIZE PUSH2 0x3C5A JUMP JUMPDEST PUSH1 0x40 MLOAD RETURNDATASIZE DUP7 DUP3 RETURNDATACOPY RETURNDATASIZE SWAP1 REVERT JUMPDEST SWAP2 SWAP3 POP POP PUSH1 0x20 DUP2 RETURNDATASIZE PUSH1 0x20 GT PUSH2 0x4098 JUMPI JUMPDEST DUP2 PUSH2 0x4082 PUSH1 0x20 SWAP4 DUP4 PUSH2 0x3467 JUMP JUMPDEST DUP2 ADD SUB SLT PUSH2 0x4094 JUMPI SWAP1 DUP4 SWAP2 MLOAD CODESIZE PUSH2 0x3C53 JUMP JUMPDEST DUP4 DUP1 REVERT JUMPDEST RETURNDATASIZE SWAP2 POP PUSH2 0x4075 JUMP JUMPDEST PUSH2 0x40B8 SWAP1 PUSH1 0x20 RETURNDATASIZE PUSH1 0x20 GT PUSH2 0x857 JUMPI PUSH2 0x84A DUP2 DUP4 PUSH2 0x3467 JUMP JUMPDEST PUSH2 0x3BD9 JUMP JUMPDEST PUSH1 0x40 MLOAD RETURNDATASIZE DUP9 DUP3 RETURNDATACOPY RETURNDATASIZE SWAP1 REVERT JUMPDEST PUSH4 0xC6BCF599 PUSH1 0xE0 SHL DUP7 MSTORE PUSH1 0x4 DUP7 REVERT JUMPDEST PUSH2 0x40F1 SWAP2 SWAP8 POP PUSH1 0x20 RETURNDATASIZE PUSH1 0x20 GT PUSH2 0x26CA JUMPI PUSH2 0x26B8 DUP2 DUP4 PUSH2 0x3467 JUMP JUMPDEST SWAP6 CODESIZE PUSH2 0x3B8E JUMP JUMPDEST SWAP6 POP POP POP PUSH1 0x60 DUP5 RETURNDATASIZE PUSH1 0x60 GT PUSH2 0x4132 JUMPI JUMPDEST DUP2 PUSH2 0x4115 PUSH1 0x60 SWAP4 DUP4 PUSH2 0x3467 JUMP JUMPDEST DUP2 ADD SUB SLT PUSH2 0x3F82 JUMPI DUP4 MLOAD PUSH1 0x20 DUP6 ADD MLOAD PUSH1 0x40 SWAP1 SWAP6 ADD MLOAD SWAP5 SWAP1 CODESIZE PUSH2 0x3B42 JUMP JUMPDEST RETURNDATASIZE SWAP2 POP PUSH2 0x4108 JUMP JUMPDEST PUSH4 0x4E487B71 PUSH1 0xE0 SHL DUP7 MSTORE PUSH1 0x11 PUSH1 0x4 MSTORE PUSH1 0x24 DUP7 REVERT JUMPDEST PUSH4 0x648AD915 PUSH1 0xE1 SHL DUP5 MSTORE PUSH1 0x4 DUP5 REVERT JUMPDEST PUSH2 0x4176 SWAP2 POP PUSH1 0x20 RETURNDATASIZE PUSH1 0x20 GT PUSH2 0x857 JUMPI PUSH2 0x84A DUP2 DUP4 PUSH2 0x3467 JUMP JUMPDEST CODESIZE PUSH2 0x3ACB JUMP JUMPDEST PUSH1 0x40 MLOAD RETURNDATASIZE DUP8 DUP3 RETURNDATACOPY RETURNDATASIZE SWAP1 REVERT JUMPDEST PUSH4 0x7DC28095 PUSH1 0xE1 SHL DUP5 MSTORE PUSH1 0x4 DUP5 REVERT JUMPDEST POP DUP5 ISZERO PUSH2 0x3A7A JUMP JUMPDEST POP POP DUP1 SWAP2 PUSH2 0x3A6A JUMP JUMPDEST DUP1 SLOAD PUSH1 0xFF PUSH1 0xA0 SHL NOT AND PUSH1 0xA0 SWAP3 SWAP1 SWAP3 SHL PUSH1 0xFF PUSH1 0xA0 SHL AND SWAP2 SWAP1 SWAP2 OR SWAP1 SSTORE JUMP JUMPDEST DUP1 SLOAD PUSH2 0xFFFF PUSH1 0x20 SHL NOT AND PUSH1 0x20 SWAP3 SWAP1 SWAP3 SHL PUSH2 0xFFFF PUSH1 0x20 SHL AND SWAP2 SWAP1 SWAP2 OR SWAP1 SSTORE JUMP JUMPDEST DUP1 SLOAD PUSH2 0xFFFF PUSH1 0x30 SHL NOT AND PUSH1 0x30 SWAP3 SWAP1 SWAP3 SHL PUSH2 0xFFFF PUSH1 0x30 SHL AND SWAP2 SWAP1 SWAP2 OR SWAP1 SSTORE JUMP JUMPDEST PUSH1 0x1 DUP2 ADD SLOAD SWAP1 DUP2 ISZERO PUSH2 0x423A JUMPI SLOAD SWAP1 PUSH8 0xDE0B6B3A7640000 DUP3 MUL SWAP2 DUP1 DUP4 DIV PUSH8 0xDE0B6B3A7640000 EQ SWAP1 ISZERO OR ISZERO PUSH2 0x36E9 JUMPI PUSH2 0x38EB SWAP2 PUSH2 0x36FF JUMP JUMPDEST PUSH4 0x6180F03F PUSH1 0xE1 SHL PUSH1 0x0 MSTORE PUSH1 0x4 PUSH1 0x0 REVERT JUMPDEST PUSH1 0xFF PUSH1 0x0 DUP1 MLOAD PUSH1 0x20 PUSH2 0x431A DUP4 CODECOPY DUP2 MLOAD SWAP2 MSTORE SLOAD PUSH1 0x40 SHR AND ISZERO PUSH2 0x4268 JUMPI JUMP JUMPDEST PUSH4 0x1AFCD79F PUSH1 0xE3 SHL PUSH1 0x0 MSTORE PUSH1 0x4 PUSH1 0x0 REVERT INVALID EXP SWAP6 0x21 DUP2 PUSH0 0xB3 0xC5 0xBC PUSH30 0xD6F4C9F89DC270322E46B945B104C18981F81C3F2CD1AA9016D09D72D40F 0xDA 0xE2 REVERT DUP13 0xEA 0xC6 0xB6 0x23 0x4C PUSH24 0x6214FD39C1CD1E609A0528C199300853833958EC0246ECC PUSH14 0x63FA180A590C32DAD8165C77B8F9 PUSH26 0xC6B226201089F8BFA865124FB32DFFA1F70892C3D0B5FA714AE7 0xBC PUSH7 0xA089A2BD81851 CALLDATALOAD TIMESTAMP PREVRANDAO DUP10 DUP12 0xE0 SMOD SWAP13 MSTORE8 AND MSIZE EQ SGT PREVRANDAO 0xCD 0x1F 0xD0 LOG4 CALLCODE DUP5 NOT BLOBHASH PUSH32 0x9722A3DAAFE3B4186F6B6457E0F0C57E16840DF040F15088DC2F81FE391C3923 0xBE 0xC7 RETURNDATACOPY 0x23 0xA9 PUSH7 0x2EFC9C229C6A00 LOG1 PUSH5 0x736F6C6343 STOP ADDMOD BYTE STOP EXP "},"methodIdentifiers":{"ANTIBOT_MAX_DURATION_SEC()":"fadd5431","BURNAGENT_FEE()":"55371a61","CREATION_MIN_FEE()":"92c93e87","CREATOR_ALLOCATION()":"2bc73063","CREATOR_FEE()":"1a7dfa9f","CTO_MAX_BPS()":"7bc4f888","ECOSYSTEM_FEE()":"406b283a","FIRST_BUY_LOCK_12M()":"e16e7d44","FIRST_BUY_LOCK_3M()":"a38d2da1","FIRST_BUY_LOCK_6M()":"622d7784","FIRST_BUY_LOCK_NONE()":"d3465546","GRADUATION_TARGET()":"c1a844f0","MAX_TOTAL_TAX_BPS()":"1a08a9c8","MIN_CREATOR_FIRST_BUY()":"b35ebd2e","TRADING_SUPPLY()":"4c0abcdb","VAULT_TOKEN_ADDRESS_SUFFIX()":"30a9c1b7","VESTING_PERIOD()":"0197d972","WETH()":"ad5c4648","allTokens(uint256)":"634282af","banToken(address,string)":"39222152","bannedTokens(address)":"e91b3cb6","bondingCurves(address)":"b9a059f7","burnAgent()":"c365f4af","buyToken(address)":"7e72fb52","claimCreatorTokens(address)":"1110b8ac","claimFirstBuyTokens(address)":"8021a1e2","createToken(string,string,string,string,string,string,string,string,bool,uint8,bool,(uint8,uint16,uint16,uint16,uint16,uint16,address,uint32,uint16,uint16,address),bytes32)":"95bd8778","creationFeesCollected()":"84666352","creatorFirstBuyLocked(address)":"00c7fa85","creatorTokensLocked(address)":"9b243f37","dexFactory()":"b8d8fbb4","ecosystemTreasury()":"109e06e1","initialize(address)":"c4d66de8","minCtoFirstBuyWei()":"66bb2880","owner()":"8da5cb5b","renounceOwnership()":"715018a6","router()":"f887ea40","sellToken(address,uint256)":"f464e7db","setBurnAgent(address)":"6f5885d0","setEcosystemTreasury(address)":"9b162793","setMinCtoFirstBuyWei(uint256)":"b04b99d4","tokenDeployer()":"2a2dae0a","tokenInfo(address)":"f5dab711","totalFeesCollected()":"60c6d8ae","transferOwnership(address)":"f2fde38b","unbanToken(address)":"f332a245","withdrawCreationFees()":"30777061","withdrawFees()":"476343ee"}}}}}