{"contracts/TokenFactory.sol":{"TokenFactory":{"abi":[{"inputs":[],"name":"AllocSum","type":"error"},{"inputs":[],"name":"AlreadyGraduated","type":"error"},{"inputs":[],"name":"AmountZero","type":"error"},{"inputs":[],"name":"AntiBotCfg","type":"error"},{"inputs":[],"name":"ApproveFail","type":"error"},{"inputs":[],"name":"BurnAgentNotSet","type":"error"},{"inputs":[],"name":"CreationFeeFail","type":"error"},{"inputs":[],"name":"CreatorFeeFail","type":"error"},{"inputs":[],"name":"CreatorTokensBurned_","type":"error"},{"inputs":[],"name":"CtoMaxBuy","type":"error"},{"inputs":[],"name":"CtoMaxWallet","type":"error"},{"inputs":[],"name":"DexFeeCap","type":"error"},{"inputs":[],"name":"EcoFeeFail","type":"error"},{"inputs":[],"name":"FirstBuyLocked","type":"error"},{"inputs":[],"name":"FirstBuyTooSmall","type":"error"},{"inputs":[],"name":"InsufficientEthFactory","type":"error"},{"inputs":[],"name":"InsufficientValue","type":"error"},{"inputs":[],"name":"InvalidBurnAgent","type":"error"},{"inputs":[],"name":"InvalidInitialization","type":"error"},{"inputs":[],"name":"InvalidLockTier","type":"error"},{"inputs":[],"name":"InvalidSalt","type":"error"},{"inputs":[],"name":"InvalidTreasury","type":"error"},{"inputs":[],"name":"MustSendEth","type":"error"},{"inputs":[],"name":"NetEthZero","type":"error"},{"inputs":[],"name":"NoBalance","type":"error"},{"inputs":[],"name":"NoLiquidity","type":"error"},{"inputs":[],"name":"NoLockedFirstBuy","type":"error"},{"inputs":[],"name":"NotInitialized","type":"error"},{"inputs":[],"name":"NotInitializing","type":"error"},{"inputs":[],"name":"NothingToAddLP","type":"error"},{"inputs":[],"name":"NothingToClaim","type":"error"},{"inputs":[],"name":"OnlyCreator","type":"error"},{"inputs":[],"name":"OnlyOwner","type":"error"},{"inputs":[{"internalType":"address","name":"owner","type":"address"}],"name":"OwnableInvalidOwner","type":"error"},{"inputs":[{"internalType":"address","name":"account","type":"address"}],"name":"OwnableUnauthorizedAccount","type":"error"},{"inputs":[],"name":"PairNotCreated","type":"error"},{"inputs":[],"name":"Reentrancy","type":"error"},{"inputs":[],"name":"RewardKindInvalid","type":"error"},{"inputs":[],"name":"SellerPayFail","type":"error"},{"inputs":[],"name":"TokenAlreadyGraduated","type":"error"},{"inputs":[],"name":"TokenBanned_","type":"error"},{"inputs":[],"name":"TokenMissing","type":"error"},{"inputs":[],"name":"TokensLocked","type":"error"},{"inputs":[],"name":"WithdrawFail","type":"error"},{"anonymous":false,"inputs":[{"indexed":true,"internalType":"address","name":"agent","type":"address"}],"name":"BurnAgentUpdated","type":"event"},{"anonymous":false,"inputs":[{"indexed":true,"internalType":"address","name":"to","type":"address"},{"indexed":false,"internalType":"uint256","name":"amount","type":"uint256"}],"name":"CreationFeesWithdrawn","type":"event"},{"anonymous":false,"inputs":[{"indexed":true,"internalType":"address","name":"tokenAddress","type":"address"},{"indexed":true,"internalType":"address","name":"creator","type":"address"},{"indexed":false,"internalType":"uint256","name":"amount","type":"uint256"}],"name":"CreatorFirstBuyClaimed","type":"event"},{"anonymous":false,"inputs":[{"indexed":true,"internalType":"address","name":"tokenAddress","type":"address"},{"indexed":false,"internalType":"uint256","name":"amount","type":"uint256"}],"name":"CreatorTokensBurned","type":"event"},{"anonymous":false,"inputs":[{"indexed":true,"internalType":"address","name":"tokenAddress","type":"address"},{"indexed":true,"internalType":"address","name":"creator","type":"address"},{"indexed":false,"internalType":"uint256","name":"amount","type":"uint256"}],"name":"CreatorTokensClaimed","type":"event"},{"anonymous":false,"inputs":[{"indexed":true,"internalType":"address","name":"treasury","type":"address"}],"name":"EcosystemTreasuryUpdated","type":"event"},{"anonymous":false,"inputs":[{"indexed":true,"internalType":"address","name":"to","type":"address"},{"indexed":false,"internalType":"uint256","name":"amount","type":"uint256"}],"name":"FeesWithdrawn","type":"event"},{"anonymous":false,"inputs":[{"indexed":false,"internalType":"uint64","name":"version","type":"uint64"}],"name":"Initialized","type":"event"},{"anonymous":false,"inputs":[{"indexed":true,"internalType":"address","name":"tokenAddress","type":"address"},{"indexed":true,"internalType":"address","name":"pair","type":"address"},{"indexed":false,"internalType":"uint256","name":"ethAmount","type":"uint256"},{"indexed":false,"internalType":"uint256","name":"tokenAmount","type":"uint256"}],"name":"LiquidityAdded","type":"event"},{"anonymous":false,"inputs":[{"indexed":false,"internalType":"uint256","name":"amountWei","type":"uint256"}],"name":"MinCtoFirstBuyUpdated","type":"event"},{"anonymous":false,"inputs":[{"indexed":true,"internalType":"address","name":"previousOwner","type":"address"},{"indexed":true,"internalType":"address","name":"newOwner","type":"address"}],"name":"OwnershipTransferred","type":"event"},{"anonymous":false,"inputs":[{"indexed":true,"internalType":"address","name":"tokenAddress","type":"address"},{"indexed":false,"internalType":"string","name":"reason","type":"string"}],"name":"TokenBanned","type":"event"},{"anonymous":false,"inputs":[{"indexed":true,"internalType":"address","name":"tokenAddress","type":"address"},{"indexed":true,"internalType":"address","name":"creator","type":"address"},{"indexed":false,"internalType":"uint256","name":"timestamp","type":"uint256"},{"indexed":false,"internalType":"bool","name":"creatorTokensBurned","type":"bool"}],"name":"TokenCreated","type":"event"},{"anonymous":false,"inputs":[{"indexed":true,"internalType":"address","name":"tokenAddress","type":"address"},{"indexed":false,"internalType":"uint256","name":"finalMarketCap","type":"uint256"},{"indexed":true,"internalType":"address","name":"dexPair","type":"address"}],"name":"TokenGraduated","type":"event"},{"anonymous":false,"inputs":[{"indexed":true,"internalType":"address","name":"tokenAddress","type":"address"},{"indexed":true,"internalType":"address","name":"buyer","type":"address"},{"indexed":false,"internalType":"uint256","name":"ethIn","type":"uint256"},{"indexed":false,"internalType":"uint256","name":"tokenOut","type":"uint256"},{"indexed":false,"internalType":"uint256","name":"newPrice","type":"uint256"}],"name":"TokenPurchased","type":"event"},{"anonymous":false,"inputs":[{"indexed":true,"internalType":"address","name":"tokenAddress","type":"address"},{"indexed":true,"internalType":"address","name":"seller","type":"address"},{"indexed":false,"internalType":"uint256","name":"tokenIn","type":"uint256"},{"indexed":false,"internalType":"uint256","name":"ethOut","type":"uint256"},{"indexed":false,"internalType":"uint256","name":"newPrice","type":"uint256"}],"name":"TokenSold","type":"event"},{"anonymous":false,"inputs":[{"indexed":true,"internalType":"address","name":"tokenAddress","type":"address"}],"name":"TokenUnbanned","type":"event"},{"inputs":[],"name":"ANTIBOT_MAX_DURATION_SEC","outputs":[{"internalType":"uint32","name":"","type":"uint32"}],"stateMutability":"view","type":"function"},{"inputs":[],"name":"BURNAGENT_FEE","outputs":[{"internalType":"uint256","name":"","type":"uint256"}],"stateMutability":"view","type":"function"},{"inputs":[],"name":"CREATION_MIN_FEE","outputs":[{"internalType":"uint256","name":"","type":"uint256"}],"stateMutability":"view","type":"function"},{"inputs":[],"name":"CREATOR_ALLOCATION","outputs":[{"internalType":"uint256","name":"","type":"uint256"}],"stateMutability":"view","type":"function"},{"inputs":[],"name":"CREATOR_FEE","outputs":[{"internalType":"uint256","name":"","type":"uint256"}],"stateMutability":"view","type":"function"},{"inputs":[],"name":"CTO_MAX_BPS","outputs":[{"internalType":"uint16","name":"","type":"uint16"}],"stateMutability":"view","type":"function"},{"inputs":[],"name":"ECOSYSTEM_FEE","outputs":[{"internalType":"uint256","name":"","type":"uint256"}],"stateMutability":"view","type":"function"},{"inputs":[],"name":"FIRST_BUY_LOCK_12M","outputs":[{"internalType":"uint8","name":"","type":"uint8"}],"stateMutability":"view","type":"function"},{"inputs":[],"name":"FIRST_BUY_LOCK_3M","outputs":[{"internalType":"uint8","name":"","type":"uint8"}],"stateMutability":"view","type":"function"},{"inputs":[],"name":"FIRST_BUY_LOCK_6M","outputs":[{"internalType":"uint8","name":"","type":"uint8"}],"stateMutability":"view","type":"function"},{"inputs":[],"name":"FIRST_BUY_LOCK_NONE","outputs":[{"internalType":"uint8","name":"","type":"uint8"}],"stateMutability":"view","type":"function"},{"inputs":[],"name":"GRADUATION_TARGET","outputs":[{"internalType":"uint256","name":"","type":"uint256"}],"stateMutability":"view","type":"function"},{"inputs":[],"name":"MAX_TOTAL_TAX_BPS","outputs":[{"internalType":"uint16","name":"","type":"uint16"}],"stateMutability":"view","type":"function"},{"inputs":[],"name":"MIN_CREATOR_FIRST_BUY","outputs":[{"internalType":"uint256","name":"","type":"uint256"}],"stateMutability":"view","type":"function"},{"inputs":[],"name":"TRADING_SUPPLY","outputs":[{"internalType":"uint256","name":"","type":"uint256"}],"stateMutability":"view","type":"function"},{"inputs":[],"name":"VAULT_TOKEN_ADDRESS_SUFFIX","outputs":[{"internalType":"uint256","name":"","type":"uint256"}],"stateMutability":"view","type":"function"},{"inputs":[],"name":"VESTING_PERIOD","outputs":[{"internalType":"uint256","name":"","type":"uint256"}],"stateMutability":"view","type":"function"},{"inputs":[],"name":"WETH","outputs":[{"internalType":"address","name":"","type":"address"}],"stateMutability":"view","type":"function"},{"inputs":[{"internalType":"uint256","name":"","type":"uint256"}],"name":"allTokens","outputs":[{"internalType":"address","name":"","type":"address"}],"stateMutability":"view","type":"function"},{"inputs":[{"internalType":"address","name":"tokenAddress","type":"address"},{"internalType":"string","name":"reason","type":"string"}],"name":"banToken","outputs":[],"stateMutability":"nonpayable","type":"function"},{"inputs":[{"internalType":"address","name":"","type":"address"}],"name":"bannedTokens","outputs":[{"internalType":"bool","name":"","type":"bool"}],"stateMutability":"view","type":"function"},{"inputs":[{"internalType":"address","name":"","type":"address"}],"name":"bondingCurves","outputs":[{"internalType":"uint256","name":"virtualETH","type":"uint256"},{"internalType":"uint256","name":"virtualToken","type":"uint256"},{"internalType":"uint256","name":"realETH","type":"uint256"},{"internalType":"uint256","name":"realToken","type":"uint256"},{"internalType":"uint256","name":"targetETH","type":"uint256"}],"stateMutability":"view","type":"function"},{"inputs":[],"name":"burnAgent","outputs":[{"internalType":"address","name":"","type":"address"}],"stateMutability":"view","type":"function"},{"inputs":[{"internalType":"address","name":"tokenAddress","type":"address"}],"name":"buyToken","outputs":[],"stateMutability":"payable","type":"function"},{"inputs":[{"internalType":"address","name":"tokenAddress","type":"address"}],"name":"claimCreatorTokens","outputs":[],"stateMutability":"nonpayable","type":"function"},{"inputs":[{"internalType":"address","name":"tokenAddress","type":"address"}],"name":"claimFirstBuyTokens","outputs":[],"stateMutability":"nonpayable","type":"function"},{"inputs":[{"internalType":"string","name":"name_","type":"string"},{"internalType":"string","name":"symbol_","type":"string"},{"internalType":"string","name":"description_","type":"string"},{"internalType":"string","name":"imageUrl_","type":"string"},{"internalType":"string","name":"website_","type":"string"},{"internalType":"string","name":"telegram_","type":"string"},{"internalType":"string","name":"twitter_","type":"string"},{"internalType":"string","name":"discord_","type":"string"},{"internalType":"bool","name":"burnCreatorTokens","type":"bool"},{"internalType":"uint8","name":"firstBuyLockTier","type":"uint8"},{"internalType":"bool","name":"paysDividends_","type":"bool"},{"components":[{"internalType":"uint8","name":"rewardKind","type":"uint8"},{"internalType":"uint16","name":"totalTaxBps","type":"uint16"},{"internalType":"uint16","name":"allocFundsBps","type":"uint16"},{"internalType":"uint16","name":"allocBurnBps","type":"uint16"},{"internalType":"uint16","name":"allocDividendBps","type":"uint16"},{"internalType":"uint16","name":"allocLpBps","type":"uint16"},{"internalType":"address","name":"fundsWallet","type":"address"},{"internalType":"uint32","name":"antiBotDurationSec","type":"uint32"},{"internalType":"uint16","name":"antiBotMaxTxBps","type":"uint16"},{"internalType":"uint16","name":"antiBotMaxWalletBps","type":"uint16"},{"internalType":"address","name":"dividendExempt","type":"address"}],"internalType":"struct TokenFactory.LaunchConfig","name":"lc","type":"tuple"},{"internalType":"bytes32","name":"salt","type":"bytes32"}],"name":"createToken","outputs":[{"internalType":"address","name":"","type":"address"}],"stateMutability":"payable","type":"function"},{"inputs":[],"name":"creationFeesCollected","outputs":[{"internalType":"uint256","name":"","type":"uint256"}],"stateMutability":"view","type":"function"},{"inputs":[{"internalType":"address","name":"","type":"address"}],"name":"creatorFirstBuyLocked","outputs":[{"internalType":"uint256","name":"","type":"uint256"}],"stateMutability":"view","type":"function"},{"inputs":[{"internalType":"address","name":"","type":"address"}],"name":"creatorTokensLocked","outputs":[{"internalType":"uint256","name":"","type":"uint256"}],"stateMutability":"view","type":"function"},{"inputs":[],"name":"dexFactory","outputs":[{"internalType":"contract IUniswapV2Factory","name":"","type":"address"}],"stateMutability":"view","type":"function"},{"inputs":[],"name":"ecosystemTreasury","outputs":[{"internalType":"address","name":"","type":"address"}],"stateMutability":"view","type":"function"},{"inputs":[{"internalType":"address","name":"tokenDeployer_","type":"address"}],"name":"initialize","outputs":[],"stateMutability":"nonpayable","type":"function"},{"inputs":[],"name":"minCtoFirstBuyWei","outputs":[{"internalType":"uint256","name":"","type":"uint256"}],"stateMutability":"view","type":"function"},{"inputs":[],"name":"owner","outputs":[{"internalType":"address","name":"","type":"address"}],"stateMutability":"view","type":"function"},{"inputs":[],"name":"renounceOwnership","outputs":[],"stateMutability":"nonpayable","type":"function"},{"inputs":[],"name":"router","outputs":[{"internalType":"contract IUniswapV2Router02","name":"","type":"address"}],"stateMutability":"view","type":"function"},{"inputs":[{"internalType":"address","name":"tokenAddress","type":"address"},{"internalType":"uint256","name":"tokenAmount","type":"uint256"}],"name":"sellToken","outputs":[],"stateMutability":"nonpayable","type":"function"},{"inputs":[{"internalType":"address","name":"_agent","type":"address"}],"name":"setBurnAgent","outputs":[],"stateMutability":"nonpayable","type":"function"},{"inputs":[{"internalType":"address","name":"_treasury","type":"address"}],"name":"setEcosystemTreasury","outputs":[],"stateMutability":"nonpayable","type":"function"},{"inputs":[{"internalType":"uint256","name":"amountWei","type":"uint256"}],"name":"setMinCtoFirstBuyWei","outputs":[],"stateMutability":"nonpayable","type":"function"},{"inputs":[],"name":"tokenDeployer","outputs":[{"internalType":"contract ITokenDeployer","name":"","type":"address"}],"stateMutability":"view","type":"function"},{"inputs":[{"internalType":"address","name":"","type":"address"}],"name":"tokenInfo","outputs":[{"internalType":"address","name":"tokenAddress","type":"address"},{"internalType":"string","name":"name","type":"string"},{"internalType":"string","name":"symbol","type":"string"},{"internalType":"string","name":"description","type":"string"},{"internalType":"string","name":"imageUrl","type":"string"},{"internalType":"string","name":"website","type":"string"},{"internalType":"string","name":"telegram","type":"string"},{"internalType":"string","name":"twitter","type":"string"},{"internalType":"string","name":"discord","type":"string"},{"internalType":"address","name":"creator","type":"address"},{"internalType":"uint256","name":"totalSupply","type":"uint256"},{"internalType":"uint256","name":"currentPrice","type":"uint256"},{"internalType":"uint256","name":"marketCap","type":"uint256"},{"internalType":"uint256","name":"createdAt","type":"uint256"},{"internalType":"bool","name":"graduated","type":"bool"},{"internalType":"bool","name":"creatorTokensBurned","type":"bool"},{"internalType":"uint256","name":"vestingEndTime","type":"uint256"},{"internalType":"address","name":"dexPair","type":"address"},{"internalType":"uint8","name":"firstBuyLockTier","type":"uint8"},{"internalType":"uint256","name":"firstBuyUnlockTime","type":"uint256"},{"internalType":"bool","name":"paysDividends","type":"bool"},{"internalType":"uint8","name":"rewardKind","type":"uint8"},{"internalType":"uint16","name":"totalTaxBps","type":"uint16"},{"internalType":"uint16","name":"allocFundsBps","type":"uint16"},{"internalType":"uint16","name":"allocBurnBps","type":"uint16"},{"internalType":"uint16","name":"allocDividendBps","type":"uint16"},{"internalType":"uint16","name":"allocLpBps","type":"uint16"},{"internalType":"address","name":"fundsWallet","type":"address"},{"internalType":"uint32","name":"antiBotDurationSec","type":"uint32"},{"internalType":"uint16","name":"antiBotMaxTxBps","type":"uint16"},{"internalType":"uint16","name":"antiBotMaxWalletBps","type":"uint16"},{"internalType":"address","name":"dividendExempt","type":"address"}],"stateMutability":"view","type":"function"},{"inputs":[],"name":"totalFeesCollected","outputs":[{"internalType":"uint256","name":"","type":"uint256"}],"stateMutability":"view","type":"function"},{"inputs":[{"internalType":"address","name":"newOwner","type":"address"}],"name":"transferOwnership","outputs":[],"stateMutability":"nonpayable","type":"function"},{"inputs":[{"internalType":"address","name":"tokenAddress","type":"address"}],"name":"unbanToken","outputs":[],"stateMutability":"nonpayable","type":"function"},{"inputs":[],"name":"withdrawCreationFees","outputs":[],"stateMutability":"nonpayable","type":"function"},{"inputs":[],"name":"withdrawFees","outputs":[],"stateMutability":"nonpayable","type":"function"},{"stateMutability":"payable","type":"receive"}],"evm":{"bytecode":{"linkReferences":{},"object":"608080604052346080576001600055600280546001600160a01b03199081167310ed43c718714eb63d5aa57b78b54704e256024e1790915560038054821673ca143ce32fe78f1f7019d7d551a6402fc5350c731790556004805490911673bb4cdb9cbd36b01bd1cbaebf2de08d9173bc095c17905561436890816100868239f35b600080fdfe6103c080604052600436101561001e575b50361561001c57600080fd5b005b600061028052610280513560e01c908162c7fa85146134fd575080630197d972146134dc578063109e06e1146134b15780631110b8ac1461333d5780631a08a9c81461331e5780631a7dfa9f146130f15780632a2dae0a146132f35780632bc73063146132cb578063307770611461320d57806330a9c1b7146131ee57806339222152146130f6578063406b283a146130f1578063476343ee1461301f5780634c0abcdb14612ff657806355371a6114610a6e57806360c6d8ae14612fd6578063622d778414612fb8578063634282af14612f7657806366bb288014612f565780636f5885d014612eb9578063715018a614612e585780637bc4f88814612e395780637e72fb5214612ba15780638021a1e214612a1d57806384666352146129fd5780638da5cb5b146129c557806392c93e8714610d3a57806395bd877814610eb45780639b16279314610e405780639b243f3714610e02578063a38d2da114610de4578063ad5c464814610db9578063b04b99d414610d3f578063b35ebd2e14610d3a578063b8d8fbb414610d0f578063b9a059f714610ca5578063c1a844f014610c81578063c365f4af14610c56578063c4d66de814610a8e578063d346554614610a6e578063e16e7d4414610a50578063e91b3cb614610a0d578063f2fde38b146109dd578063f332a2451461093e578063f464e7db146105f4578063f5dab71114610294578063f887ea40146102695763fadd5431146102425738610010565b346102625761028051366003190112610262576020604051620151808152f35b6102805180fd5b346102625761028051366003190112610262576002546040516001600160a01b039091168152602090f35b34610262576020366003190112610262576001600160a01b036102b5613537565b6102808051919092169052600a602052516040902080546001600160a01b0316906102e260018201613690565b610380526102f260028201613690565b6103a05261030260038201613690565b9161030f60048301613690565b9261031c60058401613690565b9361032960068501613690565b9461033660078601613690565b9561034360088701613690565b600160a01b6001900360098801541661036052600a87015497600b88015492600c89015494600d8a015496600e8b015498600f8c01549a60108d01549c60118101546102e0526012810154610300526013015461034052604051610320526103205152610320516020016104009052610320516104000161038051906103c891613734565b61032051810361032051604001526103a051906103e491613734565b61032051810361032051606001526103fb91613734565b610320518103610320516080015261041291613734565b6103205181036103205160a0015261042991613734565b6103205181036103205160c0015261044091613734565b6103205181036103205160e0015261045791613734565b61032051810361032051610100015261046f91613734565b9661036051610320516101200152610320516101400152610320516101600152610320516101800152610320516101a0015260ff81161515610320516101c0015260081c60ff161515610320516101e00152610320516102000152600160a01b60019003811661032051610220015260a01c60ff166103205161024001526102e0516103205161026001526103005160ff1615156103205161028001526103005160081c60ff16610320516102a001526103005160101c61ffff16610320516102c001526103005160201c61ffff16610320516102e001526103005160301c61ffff166103205161030001526103005160401c61ffff166103205161032001526103005160501c61ffff166103205161034001526103005160601c6103205161036001526103405163ffffffff166103205161038001526103405160201c61ffff16610320516103a001526103405160301c61ffff16610320516103c00152600160a01b600190036103405160401c16610320516103e0015261032051900361032051f35b346102625760403660031901126102625761060d613537565b602435906001610280515403610929576002610280515581156109145760018060a01b03811690816102805152600a60205260ff600e604061028051200154166108ff57816102805152600e60205260ff6040610280512054166108ea576040516370a0823160e01b8152336004820152602081602481865afa801561085e57849161028051916108b0575b501061089b57816102805152600b6020526040610280512060018101908154906106c3868361382e565b6106e16106db8354926106d686856137d8565b613801565b82613821565b938415938580046001148517156108815761271086049460011715610881576107138561070e8189613821565b613821565b9247841161086c576107319161072a888c93613821565b865561382e565b905560028201610742828254613821565b90556003820161075388825461382e565b90556040516323b872dd60e01b8152336004820152306024820152876044820152602081606481610280518b5af1801561085e57610831575b506102805190819081908190335af16107a36137a8565b501561081c57836107e1836107dc6107e6957f9387a595ac4be9038bbb9751abad8baa3dcf219dd9e19abb81552bd521fe354698613a26565b613a7a565b613ad4565b826102805152600a602052600b6040610280512001549061080e60405192839233978461383b565b0390a3610280516001815580f35b6304c9786d60e11b6102805152600461028051fd5b6108529060203d602011610857575b61084a8183613569565b810190613775565b61078c565b503d610840565b6040513d61028051823e3d90fd5b63ab0c048b60e01b6102805152600461028051fd5b634e487b7160e01b61028051526011600452602461028051fd5b636165515360e11b6102805152600461028051fd5b9150506020813d6020116108e2575b816108cc60209383613569565b810103126108dd5783905185610699565b600080fd5b3d91506108bf565b63e794c64760e01b6102805152600461028051fd5b63e2b861a160e01b6102805152600461028051fd5b6365e52d5160e11b6102805152600461028051fd5b63558a1e0360e11b6102805152600461028051fd5b3461026257602036600319011261026257610957613537565b6000805160206142bc833981519152546001600160a01b031633036109c85761028080516001600160a01b039290921691829052600e6020525160408120805460ff191690557fe9c9a473410d8fd0bb91117f70a4b750bce859ab398b18cc49160f5ff41d66e49080a26102805180f35b635fc483c560e01b6102805152600461028051fd5b3461026257602036600319011261026257610a066109f9613537565b610a0161398e565b61392a565b6102805180f35b34610262576020366003190112610262576001600160a01b03610a2e613537565b166102805152600e602052602060ff6040610280512054166040519015158152f35b34610262576102805136600319011261026257602060405160038152f35b346102625761028051366003190112610262576020604051610280518152f35b3461026257602036600319011261026257610aa7613537565b60008051602061433c83398151915254604081901c60ff161591906001600160401b03811680159081610c4e575b6001149081610c44575b159081610c3b575b50610c26576001600160401b0319811660011760008051602061433c8339815191525582610bfd575b50610b1961426d565b610b2161426d565b610b2a3361392a565b610280516001808255600580546001600160a01b03199081169091558154166001600160a01b03939093169290921790915566038d7ea4c680006009556040516000805160206142fc83398151915291602091906000805160206142dc8339815191528180a266038d7ea4c680008152a1610ba6576102805180f35b60ff60401b1960008051602061433c833981519152541660008051602061433c833981519152557fc7f505b2f371ae2175ee4913f4499e1f2633a7b5936321eed1cdaeb6115181d2602060405160018152a1610a06565b6001600160481b0319166001600160401b011760008051602061433c8339815191525582610b10565b63f92ee8a960e01b6102805152600461028051fd5b90501584610ae7565b303b159150610adf565b849150610ad5565b346102625761028051366003190112610262576006546040516001600160a01b039091168152602090f35b3461026257610280513660031901126102625760206040516601c6bf526340008152f35b34610262576020366003190112610262576001600160a01b03610cc6613537565b166102805152600b60205260a060406102805120805490600181015490600281015460046003830154920154926040519485526020850152604084015260608301526080820152f35b346102625761028051366003190112610262576003546040516001600160a01b039091168152602090f35b613635565b34610262576020366003190112610262576000805160206142bc83398151915254600435906001600160a01b031633036109c857655af3107a40008110610da4576020816000805160206142fc83398151915292600955604051908152a16102805180f35b63ae0f650560e01b6102805152600461028051fd5b346102625761028051366003190112610262576004546040516001600160a01b039091168152602090f35b34610262576102805136600319011261026257602060405160018152f35b34610262576020366003190112610262576001600160a01b03610e23613537565b166102805152600c60205260206040610280512054604051908152f35b3461026257602036600319011261026257610e59613537565b6000805160206142bc833981519152546001600160a01b031633036109c857600580546001600160a01b0319166001600160a01b03929092169182179055610280516000805160206142dc8339815191529080a26102805180f35b6102e0366003190112610262576004356001600160401b03811161026257610ee09036906004016135bd565b610220526024356001600160401b03811161026257610f039036906004016135bd565b6102c0526044356001600160401b03811161026257610f269036906004016135bd565b6064356001600160401b03811161026257610f459036906004016135bd565b6080526084356001600160401b03811161026257610f679036906004016135bd565b9060a4356001600160401b03811161026257610f879036906004016135bd565b60a05260c4356001600160401b03811161026257610fa99036906004016135bd565b60c05260e4356001600160401b03811161026257610fcb9036906004016135bd565b60e0526101043561018081905280151590036102625760ff6101243516610124350361026257610144358015908115810361026257610160366101631901126102625760016102805154036109295761028051600290556001546001600160a01b0316156129b05765b5e620f48000341061299b5734655af3107a3fff1981011161088157655af3107a400034655af3107a3fff190110610da45760ff6101243516612958575b600360ff610124351611612943576103e861ffff61108e613851565b161161292e5761ffff61109f613851565b1661285a575b80612846575b61281e578080612833575b61281e5763ffffffff6110c76138f7565b16151580612804575b6127db5761ffff6110df6138ab565b16158015906127f0575b6127db576005546001600160a01b0316156127c05761028051600554819081908190655af3107a4000906001600160a01b03165af16111266137a8565b50156127ab575b60018060a01b036001541660206040518092635a59b30960e01b825260a06004830152818061117a61116560a4830161022051613734565b8281036003190160248401526102c051613734565b3060448301526102c43560648301526122226084830152039161028051905af1801561085e57610280516101a052612779575b506040516001600160401b0360a08201908111908211176120125760a081016040526801a055690d9db8000081526004602082016b037790968dc8efffd100000081526040830161028051815260608401906714adf4b7320334b9601d1b825260808501926601c6bf52634000845260018060a01b036101a051166102805152600b60205260406102805120955186555160018601555160028501555160038401555191015560018060a01b036101a051163b15610262576040516340c10f1960e01b8152306004820152676765c793fa10079d601b1b6024820152610280516101a0518290604490829084906001600160a01b03165af1801561085e5761275e575b50610180511561272f5760405163a9059cbb60e01b8152610280805160048301526aa56fa5b99019a5c80000006024830152516101a051602091839160449183916001600160a01b03165af1801561085e57612712575b506040516aa56fa5b99019a5c800000081526101a0516001600160a01b0316907f1122e9ce6e7ffe6f9dbf5d2d4abbd3be5d5b072c65d3ca89b176bff6ffd25df690602090a25b60018060a01b036101a051166102805152600b60205261137360406102805120614224565b918215676765c793fa10079d601b1b8085028590041417156108815761018051156126f85761028051905b6113a66138e6565b936113af613851565b610100526113bb613863565b610120526113c7613875565b610140526113d3613887565b610160526113df613899565b6101c0526113eb6138cf565b610240526113f76138f7565b6102a0526114036138ab565b6102605261140f6138bd565b610200526102a4356001600160a01b0381169003610262576040516101e08190526001600160401b0361040082019081119111176120125760ff95670de0b6b3a7640000926104006101e0510160405260018060a01b036101a051166101e051526102205160206101e05101526102c05160406101e051015260606101e051015260805160806101e051015260a06101e051015260a05160c06101e051015260c05160e06101e051015260e0516101006101e0510152336101206101e0510152676765c793fa10079d601b1b6101406101e0510152806101606101e0510152676765c793fa10079d601b1b02046101806101e0510152426101a06101e0510152610280516101c06101e05101526101805115156101e0805101526102006101e0510152610280516102206101e0510152610280516102406101e0510152610280516102606101e0510152156102806101e0510152166102a06101e051015261ffff61010051166102c06101e051015261ffff61012051166102e06101e051015261ffff61014051166103006101e051015261ffff61016051166103206101e051015261ffff6101c051166103406101e051015260018060a01b0361024051166103606101e051015263ffffffff6102a051166103806101e051015261ffff61026051166103a06101e051015261ffff61020051166103c06101e051015260018060a01b036102a435166103e06101e051015260018060a01b036101a051166102805152600a6020526040610280512060018060a01b0360018060a01b036101e05151161660018060a01b031982541617815560206101e051015180519060018060401b0382116120125781906116886001850154613656565b601f811161269f575b506020906001601f84111461262857610280519261261d575b50508160011b916000199060031b1c19161760018201555b6101e051604001518051906001600160401b0382116120125781906116ea6002850154613656565b601f81116125c4575b506020906001601f84111461254d576102805192612542575b50508160011b916000199060031b1c19161760028201555b6101e051606001518051906001600160401b03821161201257819061174c6003850154613656565b601f81116124e9575b506020906001601f841114612472576102805192612467575b50508160011b916000199060031b1c19161760038201555b6101e051608001518051906001600160401b0382116120125781906117ae6004850154613656565b601f811161240e575b506020906001601f84111461239757610280519261238c575b50508160011b916000199060031b1c19161760048201555b6101e05160a001518051906001600160401b0382116120125781906118106005850154613656565b601f8111612333575b506020906001601f8411146122bc5761028051926122b1575b50508160011b916000199060031b1c19161760058201555b6101e05160c001518051906001600160401b0382116120125781906118726006850154613656565b601f8111612258575b506020906001601f8411146121e15761028051926121d6575b50508160011b916000199060031b1c19161760068201555b6101e05160e001518051906001600160401b0382116120125781906118d46007850154613656565b601f811161217d575b506020906001601f8411146121065761028051926120fb575b50508160011b916000199060031b1c19161760078201555b6101e0516101000151805191906001600160401b038311612012576119366008830154613656565b601f81116120ae575b506020906001601f85111461203757928091601394610280519261202c575b50508160011b916000199060031b1c19161760088201555b6101e080516101208101516009840180546001600160a01b03199081166001600160a01b0393841617909155610140830151600a860155610160830151600b860155610180830151600c8601556101a0830151600d8601556101c0830151600e860180549585015161ff0090151560081b1661ffff1990961660ff92151583161795909517909455610200830151600f86015561022083015160108601805491909316911617815561024090910151611a309216906141c9565b6102606101e0510151601182015560128101611a626102806101e05101511515829060ff801983541691151516179055565b6102a06101e0510151815461ff0063ffff00006102c06101e051015160101b169260081b169063ffffff00191617178155611aa961ffff6102e06101e051015116826141e6565b611abf61ffff6103006101e05101511682614205565b6103206101e0510151815461ffff60501b6103406101e051015160501b169060018060601b03196103606101e051015160601b169261ffff60401b9060401b169060018060401b031617171790550163ffffffff6103806101e05101511663ffffffff19825416178155611b3f61ffff6103a06101e051015116826141e6565b611b5561ffff6103c06101e05101511682614205565b6101e0516103e001518154600160401b600160e01b03191660409190911b600160401b600160e01b0316179055600f54600160401b81101561201257806001611ba19201600f55613604565b81546101a0516001600160a01b0390811660039390931b83811b91901b1990911617909155610280805191909152600a6020525160409020600e015460ff16611ffd5760018060a01b036101a051166102805152600e60205260ff6040610280512054166108ea576101a05161028080516001600160a01b0392909216909152600b602052516040902034655af3107a3fff19018015919080046001148217156108815761271034655af3107a3fff190104916001171561088157611c738261070e8134655af3107a3fff1901613821565b908115611fe857611c8482826139c4565b92611c916101a0516139f0565b91828511611fd357611ced611cf692611cab86845461382e565b8355611cbc6002840196875461382e565b865560018301611ccd888254613821565b905560038301611cde888254613821565b90556107dc816101a051613a26565b6101a051613ad4565b60018060a01b036101a051166102805152600a602052600b6040610280512001546040519060008051602061429c833981519152339280611d4e60018060a01b036101a051169489655af3107a3fff1934018461383b565b0390a3610280516101243560ff16600103611f7957506276a7004201804211610881575b60018060a01b036101a051166102805152600a602052611d9e61012435601060406102805120016141c9565b60018060a01b036101a051166102805152600a602052601160406102805120015560ff610124351615600014611f4c576040516370a0823160e01b81523360048201526101a051602090829060249082906001600160a01b03165afa801561085e57610280518591611f16575b611e15925061382e565b11611f01576020611e3b926040518094819263a9059cbb60e01b8352336004840161378d565b03816102805160018060a01b036101a051165af191821561085e576601c6bf5263400092611ee2575b505b541015611ed1575b604051428152610180511515602082015233907f08438a250f24de47ea660398d999b122abddfd10d0a6702afc0bb5f33b5dbedf604060018060a01b036101a0511692a361028051600190556040516101a0516001600160a01b03168152602090f35b611edd6101a051613b2e565b611e6e565b611efa9060203d6020116108575761084a8183613569565b5082611e64565b633c190ccd60e01b6102805152600461028051fd5b50506020813d602011611f44575b81611f3160209383613569565b810103126108dd5783611e159151611e0b565b3d9150611f24565b506601c6bf526340009160018060a01b036101a051166102805152600d6020526040610280512055611e66565b6101243560ff16600203611f9b575062ed4e004201804211610881575b611d72565b600360ff610124351603611d7257506301e13380420180421115611f9657634e487b7160e01b61028051526011600452602461028051fd5b631c7eb2d760e31b6102805152600461028051fd5b63bbf1e3c160e01b6102805152600461028051fd5b63e6a0d45f60e01b6102805152600461028051fd5b634e487b7160e01b61028051526041600452602461028051fd5b01519050848061195e565b9060088301610280515280610280512091610280515b601f19861681106120965750918491600193601396601f1981161061207d575b505050811b016008820155611976565b015160001960f88460031b161c1916905584808061206d565b9192602060018192868501518155019401920161204d565b60088301610280515260206102805120601f850160051c8101602086106120f4575b601f830160051c820181106120e657505061193f565b6102805181556001016120d0565b50806120d0565b0151905083806118f6565b92506007840161028051528061028051209061028051935b601f1984168510612162576001945083601f19811610612149575b505050811b01600782015561190e565b015160001960f88460031b161c19169055838080612139565b8181015183556020948501946001909301929091019061211e565b90915060078401610280515260206102805120601f840160051c8101602085106121cf575b90849392915b601f830160051c820181106121be5750506118dd565b6102805181558594506001016121a8565b50806121a2565b015190508380611894565b92506006840161028051528061028051209061028051935b601f198416851061223d576001945083601f19811610612224575b505050811b0160068201556118ac565b015160001960f88460031b161c19169055838080612214565b818101518355602094850194600190930192909101906121f9565b90915060068401610280515260206102805120601f840160051c8101602085106122aa575b90849392915b601f830160051c8201811061229957505061187b565b610280518155859450600101612283565b508061227d565b015190508380611832565b92506005840161028051528061028051209061028051935b601f1984168510612318576001945083601f198116106122ff575b505050811b01600582015561184a565b015160001960f88460031b161c191690558380806122ef565b818101518355602094850194600190930192909101906122d4565b90915060058401610280515260206102805120601f840160051c810160208510612385575b90849392915b601f830160051c82018110612374575050611819565b61028051815585945060010161235e565b5080612358565b0151905083806117d0565b92506004840161028051528061028051209061028051935b601f19841685106123f3576001945083601f198116106123da575b505050811b0160048201556117e8565b015160001960f88460031b161c191690558380806123ca565b818101518355602094850194600190930192909101906123af565b90915060048401610280515260206102805120601f840160051c810160208510612460575b90849392915b601f830160051c8201811061244f5750506117b7565b610280518155859450600101612439565b5080612433565b01519050838061176e565b92506003840161028051528061028051209061028051935b601f19841685106124ce576001945083601f198116106124b5575b505050811b016003820155611786565b015160001960f88460031b161c191690558380806124a5565b8181015183556020948501946001909301929091019061248a565b90915060038401610280515260206102805120601f840160051c81016020851061253b575b90849392915b601f830160051c8201811061252a575050611755565b610280518155859450600101612514565b508061250e565b01519050838061170c565b92506002840161028051528061028051209061028051935b601f19841685106125a9576001945083601f19811610612590575b505050811b016002820155611724565b015160001960f88460031b161c19169055838080612580565b81810151835560209485019460019093019290910190612565565b90915060028401610280515260206102805120601f840160051c810160208510612616575b90849392915b601f830160051c820181106126055750506116f3565b6102805181558594506001016125ef565b50806125e9565b0151905083806116aa565b92506001840161028051528061028051209061028051935b601f1984168510612684576001945083601f1981161061266b575b505050811b0160018201556116c2565b015160001960f88460031b161c1916905583808061265b565b81810151835560209485019460019093019290910190612640565b90915060018401610280515260206102805120601f840160051c8101602085106126f1575b90849392915b601f830160051c820181106126e0575050611691565b6102805181558594506001016126ca565b50806126c4565b6301e1338042014211610881576301e1338042019061139e565b61272a9060203d6020116108575761084a8183613569565b611307565b60018060a01b036101a051166102805152600c6020526aa56fa5b99019a5c8000000604061028051205561134e565b6102805161276b91613569565b6102805161026257836112b0565b61279a9060203d6020116127a4575b6127928183613569565b81019061390b565b6101a052836111ad565b503d612788565b63750f259d60e01b6102805152600461028051fd5b600854655af3107a400081019081106108815760085561112d565b638d86e80f60e01b6102805152600461028051fd5b5061ffff6127fc6138bd565b1615156110e9565b506201518063ffffffff6128166138f7565b1614156110d0565b630c56466760e31b6102805152600461028051fd5b5060ff61283e6138e6565b1615156110b6565b50600160ff6128536138e6565b16116110ab565b61271061289a61288f61288461ffff612871613863565b1661ffff61287d613875565b169061382e565b61ffff61287d613887565b61ffff61287d613899565b036129195761ffff6128aa613863565b16151580612901575b6128ec5761ffff6128c2613887565b161515806128e5575b156110a557630c56466760e31b6102805152600461028051fd5b50816128cb565b6302979eb960e31b6102805152600461028051fd5b506001600160a01b036129126138cf565b16156128b3565b63aff1d87b60e01b6102805152600461028051fd5b637c39a24d60e01b6102805152600461028051fd5b6352edd3bf60e01b6102805152600461028051fd5b600954655af3107a4000811061298e575b34655af3107a3fff190110156110725763ae0f650560e01b6102805152600461028051fd5b50655af3107a4000612969565b63044044a560e21b6102805152600461028051fd5b6321c4e35760e21b6102805152600461028051fd5b346102625761028051366003190112610262576000805160206142bc833981519152546040516001600160a01b039091168152602090f35b346102625761028051366003190112610262576020600854604051908152f35b3461026257602036600319011261026257612a36613537565b6001610280515403610929576102808051600281556001600160a01b0392831690819052600a602052905160409020600901549091163303612b8c57806102805152600a60205260116040610280512001548015612b77574210612b6257806102805152600d6020526040610280512054908115612b4d57806102805152600d60205261028051604061028051205560405163a9059cbb60e01b815260208180612ae486336004840161378d565b038161028051865af1801561085e57612b30575b506040519182527fdd1e41f1d539479bcbc5a15aae13c42eac0c98319dc0bdaea67720b8f0eb4b5660203393a3610280516001815580f35b612b489060203d6020116108575761084a8183613569565b612af8565b6312d37ee560e31b6102805152600461028051fd5b636b22ab8b60e01b6102805152600461028051fd5b6312e72c3f60e11b6102805152600461028051fd5b6308f78f9960e31b6102805152600461028051fd5b602036600319011261026257612bb5613537565b600161028051540361092957600261028051553415612e245760018060a01b03811690816102805152600a60205260ff600e604061028051200154166108ff57816102805152600e60205260ff6040610280512054166108ea57816102805152600b6020526040610280512034340460010361088157612710349081049190612c4590839061070e908290613821565b906000948215612e1557612c5983836139c4565b91612c63866139f0565b808411612e06576040516370a0823160e01b8152336004820152602081602481875afa8015612dfb5785908a90612dc1575b612c9f925061382e565b11612db257612caf84825461382e565b8155612cc06002820194855461382e565b845560018101612cd1848254613821565b905560038101612ce2848254613821565b905560405163a9059cbb60e01b81529060208280612d0487336004840161378d565b03818b875af18015612da7576601c6bf5263400096612d3793612d3192612d8a575b506107dc818a613a26565b86613ad4565b808652600a60205260008051602061429c833981519152612d68600b6040892001546040519182913396348461383b565b0390a3541015612d7b575b506001815580f35b612d8490613b2e565b81612d73565b612da29060203d6020116108575761084a8183613569565b612d26565b6040513d8a823e3d90fd5b633c190ccd60e01b8752600487fd5b50506020813d602011612df3575b81612ddc60209383613569565b81010312612def5784612c9f9151612c95565b8880fd5b3d9150612dcf565b6040513d8b823e3d90fd5b631c7eb2d760e31b8852600488fd5b63bbf1e3c160e01b8652600486fd5b63310818ed60e01b6102805152600461028051fd5b3461026257610280513660031901126102625760206040516127108152f35b34610262576102805136600319011261026257612e7361398e565b6000805160206142bc83398151915280546001600160a01b0319811690915561028051906001600160a01b031660008051602061431c8339815191528280a36102805180f35b3461026257602036600319011261026257612ed2613537565b6000805160206142bc833981519152546001600160a01b031633036109c8576001600160a01b03168015612f4157600680546001600160a01b03191682179055610280517f31cb9536ecf1852d39189c13961e6cd4b8740e22d548d3a4395a3d42092a6dda9080a26102805180f35b6304a820c160e31b6102805152600461028051fd5b346102625761028051366003190112610262576020600954604051908152f35b3461026257602036600319011261026257600435600f5481101561026257612f9f602091613604565b905460405160039290921b1c6001600160a01b03168152f35b34610262576102805136600319011261026257602060405160028152f35b346102625761028051366003190112610262576020600754604051908152f35b346102625761028051366003190112610262576040516714adf4b7320334b9601d1b8152602090f35b3461026257610280513660031901126102625760016102805154036109295761028051600290556000805160206142bc833981519152546001600160a01b0316338190036109c8576007805461028051918290559181908190819085905af16130866137a8565b50156130dd576000805160206142bc833981519152546040519182526001600160a01b0316907fc0819c13be868895eb93e40eaceb96de976442fa1d404e5c55f14bb65a8c489a90602090a2610280516001815580f35b62c0f29960e01b6102805152600461028051fd5b61354d565b346102625760403660031901126102625761310f613537565b6024356001600160401b0381116102625761312e9036906004016135bd565b6000805160206142bc833981519152549091906001600160a01b031633036109c85761028080516001600160a01b0392831690819052600a6020529051604090205490929116156131d9576131cf7fca28a28d7a69a99b318b23b561c6913d9433f143b9aeb678e6e9ca1ded96735491836102805152600e60205260406102805120600160ff19825416179055604051918291602083526020830190613734565b0390a26102805180f35b63e0e5a1af60e01b6102805152600461028051fd5b3461026257610280513660031901126102625760206040516122228152f35b3461026257610280513660031901126102625760016102805154036109295761028051600290556000805160206142bc833981519152546001600160a01b0316338190036109c8576008805461028051918290559181908190819085905af16132746137a8565b50156130dd576000805160206142bc833981519152546040519182526001600160a01b0316907ff5c7b4e68618595a30e0a0ccfaa8b7aeb24d620e803d8b104c5d5f3f1a181a3590602090a2610280516001815580f35b3461026257610280513660031901126102625760206040516aa56fa5b99019a5c80000008152f35b346102625761028051366003190112610262576001546040516001600160a01b039091168152602090f35b3461026257610280513660031901126102625760206040516103e88152f35b3461026257602036600319011261026257613356613537565b6001610280515403610929576102808051600281556001600160a01b0392831690819052600a602052905160409020600901549091163303612b8c57806102805152600a60205260ff600e60406102805120015460081c1661349c57806102805152600a602052600f604061028051200154421061348757806102805152600c6020526040610280512054908115612b4d57806102805152600c60205261028051604061028051205560405163a9059cbb60e01b81526020818061341e86336004840161378d565b038161028051865af1801561085e5761346a575b506040519182527f3f8ae94fce684fbee6f33c863e53f89d15755c89d22d2036cf84e6e5695bade260203393a3610280516001815580f35b6134829060203d6020116108575761084a8183613569565b613432565b63de1af48d60e01b6102805152600461028051fd5b6305ab0def60e21b6102805152600461028051fd5b346102625761028051366003190112610262576005546040516001600160a01b039091168152602090f35b3461026257610280513660031901126102625760206040516301e133808152f35b34610262576020366003190112610262576020906001600160a01b03613521613537565b166102805152600d825260406102805120548152f35b600435906001600160a01b03821682036108dd57565b346108dd5760003660031901126108dd57602060405160018152f35b601f909101601f19168101906001600160401b0382119082101761358c57604052565b634e487b7160e01b600052604160045260246000fd5b6001600160401b03811161358c57601f01601f191660200190565b81601f820112156108dd578035906135d4826135a2565b926135e26040519485613569565b828452602083830101116108dd57816000926020809301838601378301015290565b600f5481101561361f57600f60005260206000200190600090565b634e487b7160e01b600052603260045260246000fd5b346108dd5760003660031901126108dd576020604051655af3107a40008152f35b90600182811c92168015613686575b602083101461367057565b634e487b7160e01b600052602260045260246000fd5b91607f1691613665565b90604051918260008254926136a484613656565b808452936001811690811561371257506001146136cb575b506136c992500383613569565b565b90506000929192526020600020906000915b8183106136f65750509060206136c992820101386136bc565b60209193508060019154838589010152019101909184926136dd565b9050602092506136c994915060ff191682840152151560051b820101386136bc565b919082519283825260005b848110613760575050826000602080949584010152601f8019910116010190565b8060208092840101518282860101520161373f565b908160209103126108dd575180151581036108dd5790565b6001600160a01b039091168152602081019190915260400190565b3d156137d3573d906137b9826135a2565b916137c76040519384613569565b82523d6000602084013e565b606090565b818102929181159184041417156137eb57565b634e487b7160e01b600052601160045260246000fd5b811561380b570490565b634e487b7160e01b600052601260045260246000fd5b919082039182116137eb57565b919082018092116137eb57565b6040919493926060820195825260208201520152565b6101843561ffff811681036108dd5790565b6101a43561ffff811681036108dd5790565b6101c43561ffff811681036108dd5790565b6101e43561ffff811681036108dd5790565b6102043561ffff811681036108dd5790565b6102643561ffff811681036108dd5790565b6102843561ffff811681036108dd5790565b610224356001600160a01b03811681036108dd5790565b6101643560ff811681036108dd5790565b6102443563ffffffff811681036108dd5790565b908160209103126108dd57516001600160a01b03811681036108dd5790565b6001600160a01b03168015613978576000805160206142bc83398151915280546001600160a01b0319811683179091556001600160a01b031660008051602061431c833981519152600080a3565b631e4fbdf760e01b600052600060045260246000fd5b6000805160206142bc833981519152546001600160a01b031633036139af57565b63118cdaa760e01b6000523360045260246000fd5b906139e76139ed926106d660016139dd8354958661382e565b92015480946137d8565b90613821565b90565b60018060a01b0316600052600a602052600a6040600020015461271081029080820461271014901517156137eb57612710900490565b8115613a76576001600160a01b039081166000908152600a6020526040812060090154909283928392839291165af1613a5d6137a8565b5015613a6557565b63036db06960e61b60005260046000fd5b5050565b6005546001600160a01b031615613ac3576005546000918291829182916001600160a01b03165af1613aaa6137a8565b5015613ab257565b633a0ab71160e21b60005260046000fd5b613acf9060075461382e565b600755565b90613b19613aea670de0b6b3a764000092614224565b6001600160a01b039093166000818152600a6020819052604090912090810154600b90910185905590936137d8565b0490600052600a602052600c60406000200155565b6001600160a01b0381166000908152600b60205260408120600754600854919291613b589161382e565b47908181116141c057613b6a91613821565b915b60038101805493801580156141b8575b6141a95760025460405163095ea7b360e01b81529060209082908190613bb0908a906001600160a01b03166004840161378d565b0381886001600160a01b038c165af190811561419e57859161417f575b5015614170576002546001600160a01b0316944261025881019290831061415c576060929160c491604051988994859363f305d71960e01b855260018060a01b038d166004860152602485015289604485015289606485015230608485015260a48401525af193841561404057838491859661411a575b506003546004805460405163e6a4390560e01b81526001600160a01b038b8116938201939093529082166024820152979160209189916044918391165afa9687156140df5786976140f9575b506001600160a01b038716156140ea5760405163a9059cbb60e01b815261dead60048201526024810191909152602081604481896001600160a01b038c165af180156140df579086949392916140c2575b506040805192835260208301919091526001600160a01b0387811692908916917f36f3b2e1a21c19137dd82ec243b0708a1d26b3d1fa1dc49c44c4c366a587813891a36001600160a01b03868116808452600a60208181526040808720600e01805460ff1916600117905583875282825280872060100180546001600160a01b031916958b169590951790945560028701869055949093558552915282206012810154908360ff831680806140b2575b614072575b6040519361022085016001600160401b0381118682101761405e5760409081526101a086018890526101c086018890526101e08601889052610200860188905260098501546001600160a01b039081168752898116602080890191909152606084811c8985015261ffff601086901c8116918a018290529185901c821660808a0152603085901c821660a08a01529284901c811660c089015260509390931c90921660e0870152151561010086015290151561012085015260025481166101408501526004548116610160850152166101808301526013015463ffffffff81168061404f5750835b6101a0830152602081901c61ffff9081166101c0840152603082901c166101e083015260401c6001600160a01b0390811661020083015285163b1561404b576040805163c9af097d60e01b815282516001600160a01b0390811660048301526020840151811660248301529183015182166044820152606083015161ffff908116606483015260808401518116608483015260a0840151811660a483015260c0840151811660c483015260e0840151811660e4830152610100840151151561010483015261012084015115156101248301526101408401518316610144830152610160840151831661016483015261018084015183166101848301526101a08401516101a48301526101c084015181166101c48301526101e0840151166101e48201526102009092015181166102048301528390829061022490829084908a165af18015614040577fd746a893de4e12067ef4a3b08937ae3e7bd69f3872a69af45cb1ef5493d9aa5293602093600c9360409361402a575b506140019088613ad4565b6001600160a01b03968716808252600a85529190209190910154604051908152939094169392a3565b91614039816140019394613569565b9190613ff6565b6040513d85823e3d90fd5b8280fd5b614059904261382e565b613e7e565b634e487b7160e01b88526041600452602488fd5b9050600160ff8460081c16146000146140a1577355d398326f99059ff775485246999027b31979555b90613d96565b6004546001600160a01b031661409b565b5061ffff8460401c161515613d91565b6140da9060203d6020116108575761084a8183613569565b613ce1565b6040513d88823e3d90fd5b63c6bcf59960e01b8652600486fd5b61411391975060203d6020116127a4576127928183613569565b9538613c90565b955050506060843d606011614154575b8161413760609383613569565b8101031261404b5783516020850151604090950151949038613c44565b3d915061412a565b634e487b7160e01b86526011600452602486fd5b63648ad91560e11b8452600484fd5b614198915060203d6020116108575761084a8183613569565b38613bcd565b6040513d87823e3d90fd5b637dc2809560e11b8452600484fd5b508415613b7c565b50508091613b6c565b805460ff60a01b191660a09290921b60ff60a01b16919091179055565b805461ffff60201b191660209290921b61ffff60201b16919091179055565b805461ffff60301b191660309290921b61ffff60301b16919091179055565b600181015490811561425c575490670de0b6b3a7640000820291808304670de0b6b3a764000014901517156137eb576139ed91613801565b636180f03f60e11b60005260046000fd5b60ff60008051602061433c8339815191525460401c161561428a57565b631afcd79f60e31b60005260046000fdfe0a9521815fb3c5bc7dd6f4c9f89dc270322e46b945b104c18981f81c3f2cd1aa9016d09d72d40fdae2fd8ceac6b6234c7706214fd39c1cd1e609a0528c199300853833958ec0246ecc6d63fa180a590c32dad8165c77b8f979c6b226201089f8bfa865124fb32dffa1f70892c3d0b5fa714ae7bc660a089a2bd81851354244898be0079c531659141344cd1fd0a4f28419497f9722a3daafe3b4186f6b6457e0f0c57e16840df040f15088dc2f81fe391c3923bec73e23a9662efc9c229c6a00a164736f6c634300081a000a","opcodes":"PUSH1 0x80 DUP1 PUSH1 0x40 MSTORE CALLVALUE PUSH1 0x80 JUMPI PUSH1 0x1 PUSH1 0x0 SSTORE PUSH1 0x2 DUP1 SLOAD PUSH1 0x1 PUSH1 0x1 PUSH1 0xA0 SHL SUB NOT SWAP1 DUP2 AND PUSH20 0x10ED43C718714EB63D5AA57B78B54704E256024E OR SWAP1 SWAP2 SSTORE PUSH1 0x3 DUP1 SLOAD DUP3 AND PUSH20 0xCA143CE32FE78F1F7019D7D551A6402FC5350C73 OR SWAP1 SSTORE PUSH1 0x4 DUP1 SLOAD SWAP1 SWAP2 AND PUSH20 0xBB4CDB9CBD36B01BD1CBAEBF2DE08D9173BC095C OR SWAP1 SSTORE PUSH2 0x4368 SWAP1 DUP2 PUSH2 0x86 DUP3 CODECOPY RETURN JUMPDEST PUSH1 0x0 DUP1 REVERT INVALID PUSH2 0x3C0 DUP1 PUSH1 0x40 MSTORE PUSH1 0x4 CALLDATASIZE LT ISZERO PUSH2 0x1E JUMPI JUMPDEST POP CALLDATASIZE ISZERO PUSH2 0x1C JUMPI PUSH1 0x0 DUP1 REVERT JUMPDEST STOP JUMPDEST PUSH1 0x0 PUSH2 0x280 MSTORE PUSH2 0x280 MLOAD CALLDATALOAD PUSH1 0xE0 SHR SWAP1 DUP2 PUSH3 0xC7FA85 EQ PUSH2 0x34FD JUMPI POP DUP1 PUSH4 0x197D972 EQ PUSH2 0x34DC JUMPI DUP1 PUSH4 0x109E06E1 EQ PUSH2 0x34B1 JUMPI DUP1 PUSH4 0x1110B8AC EQ PUSH2 0x333D JUMPI DUP1 PUSH4 0x1A08A9C8 EQ PUSH2 0x331E JUMPI DUP1 PUSH4 0x1A7DFA9F EQ PUSH2 0x30F1 JUMPI DUP1 PUSH4 0x2A2DAE0A EQ PUSH2 0x32F3 JUMPI DUP1 PUSH4 0x2BC73063 EQ PUSH2 0x32CB JUMPI DUP1 PUSH4 0x30777061 EQ PUSH2 0x320D JUMPI DUP1 PUSH4 0x30A9C1B7 EQ PUSH2 0x31EE JUMPI DUP1 PUSH4 0x39222152 EQ PUSH2 0x30F6 JUMPI DUP1 PUSH4 0x406B283A EQ PUSH2 0x30F1 JUMPI DUP1 PUSH4 0x476343EE EQ PUSH2 0x301F JUMPI DUP1 PUSH4 0x4C0ABCDB EQ PUSH2 0x2FF6 JUMPI DUP1 PUSH4 0x55371A61 EQ PUSH2 0xA6E JUMPI DUP1 PUSH4 0x60C6D8AE EQ PUSH2 0x2FD6 JUMPI DUP1 PUSH4 0x622D7784 EQ PUSH2 0x2FB8 JUMPI DUP1 PUSH4 0x634282AF EQ PUSH2 0x2F76 JUMPI DUP1 PUSH4 0x66BB2880 EQ PUSH2 0x2F56 JUMPI DUP1 PUSH4 0x6F5885D0 EQ PUSH2 0x2EB9 JUMPI DUP1 PUSH4 0x715018A6 EQ PUSH2 0x2E58 JUMPI DUP1 PUSH4 0x7BC4F888 EQ PUSH2 0x2E39 JUMPI DUP1 PUSH4 0x7E72FB52 EQ PUSH2 0x2BA1 JUMPI DUP1 PUSH4 0x8021A1E2 EQ PUSH2 0x2A1D JUMPI DUP1 PUSH4 0x84666352 EQ PUSH2 0x29FD JUMPI DUP1 PUSH4 0x8DA5CB5B EQ PUSH2 0x29C5 JUMPI DUP1 PUSH4 0x92C93E87 EQ PUSH2 0xD3A JUMPI DUP1 PUSH4 0x95BD8778 EQ PUSH2 0xEB4 JUMPI DUP1 PUSH4 0x9B162793 EQ PUSH2 0xE40 JUMPI DUP1 PUSH4 0x9B243F37 EQ PUSH2 0xE02 JUMPI DUP1 PUSH4 0xA38D2DA1 EQ PUSH2 0xDE4 JUMPI DUP1 PUSH4 0xAD5C4648 EQ PUSH2 0xDB9 JUMPI DUP1 PUSH4 0xB04B99D4 EQ PUSH2 0xD3F JUMPI DUP1 PUSH4 0xB35EBD2E EQ PUSH2 0xD3A JUMPI DUP1 PUSH4 0xB8D8FBB4 EQ PUSH2 0xD0F JUMPI DUP1 PUSH4 0xB9A059F7 EQ PUSH2 0xCA5 JUMPI DUP1 PUSH4 0xC1A844F0 EQ PUSH2 0xC81 JUMPI DUP1 PUSH4 0xC365F4AF EQ PUSH2 0xC56 JUMPI DUP1 PUSH4 0xC4D66DE8 EQ PUSH2 0xA8E JUMPI DUP1 PUSH4 0xD3465546 EQ PUSH2 0xA6E JUMPI DUP1 PUSH4 0xE16E7D44 EQ PUSH2 0xA50 JUMPI DUP1 PUSH4 0xE91B3CB6 EQ PUSH2 0xA0D JUMPI DUP1 PUSH4 0xF2FDE38B EQ PUSH2 0x9DD JUMPI DUP1 PUSH4 0xF332A245 EQ PUSH2 0x93E JUMPI DUP1 PUSH4 0xF464E7DB EQ PUSH2 0x5F4 JUMPI DUP1 PUSH4 0xF5DAB711 EQ PUSH2 0x294 JUMPI DUP1 PUSH4 0xF887EA40 EQ PUSH2 0x269 JUMPI PUSH4 0xFADD5431 EQ PUSH2 0x242 JUMPI CODESIZE PUSH2 0x10 JUMP JUMPDEST CALLVALUE PUSH2 0x262 JUMPI PUSH2 0x280 MLOAD CALLDATASIZE PUSH1 0x3 NOT ADD SLT PUSH2 0x262 JUMPI PUSH1 0x20 PUSH1 0x40 MLOAD PUSH3 0x15180 DUP2 MSTORE RETURN JUMPDEST PUSH2 0x280 MLOAD DUP1 REVERT JUMPDEST CALLVALUE PUSH2 0x262 JUMPI PUSH2 0x280 MLOAD CALLDATASIZE PUSH1 0x3 NOT ADD SLT PUSH2 0x262 JUMPI PUSH1 0x2 SLOAD PUSH1 0x40 MLOAD PUSH1 0x1 PUSH1 0x1 PUSH1 0xA0 SHL SUB SWAP1 SWAP2 AND DUP2 MSTORE PUSH1 0x20 SWAP1 RETURN JUMPDEST CALLVALUE PUSH2 0x262 JUMPI PUSH1 0x20 CALLDATASIZE PUSH1 0x3 NOT ADD SLT PUSH2 0x262 JUMPI PUSH1 0x1 PUSH1 0x1 PUSH1 0xA0 SHL SUB PUSH2 0x2B5 PUSH2 0x3537 JUMP JUMPDEST PUSH2 0x280 DUP1 MLOAD SWAP2 SWAP1 SWAP3 AND SWAP1 MSTORE PUSH1 0xA PUSH1 0x20 MSTORE MLOAD PUSH1 0x40 SWAP1 KECCAK256 DUP1 SLOAD PUSH1 0x1 PUSH1 0x1 PUSH1 0xA0 SHL SUB AND SWAP1 PUSH2 0x2E2 PUSH1 0x1 DUP3 ADD PUSH2 0x3690 JUMP JUMPDEST PUSH2 0x380 MSTORE PUSH2 0x2F2 PUSH1 0x2 DUP3 ADD PUSH2 0x3690 JUMP JUMPDEST PUSH2 0x3A0 MSTORE PUSH2 0x302 PUSH1 0x3 DUP3 ADD PUSH2 0x3690 JUMP JUMPDEST SWAP2 PUSH2 0x30F PUSH1 0x4 DUP4 ADD PUSH2 0x3690 JUMP JUMPDEST SWAP3 PUSH2 0x31C PUSH1 0x5 DUP5 ADD PUSH2 0x3690 JUMP JUMPDEST SWAP4 PUSH2 0x329 PUSH1 0x6 DUP6 ADD PUSH2 0x3690 JUMP JUMPDEST SWAP5 PUSH2 0x336 PUSH1 0x7 DUP7 ADD PUSH2 0x3690 JUMP JUMPDEST SWAP6 PUSH2 0x343 PUSH1 0x8 DUP8 ADD PUSH2 0x3690 JUMP JUMPDEST PUSH1 0x1 PUSH1 0xA0 SHL PUSH1 0x1 SWAP1 SUB PUSH1 0x9 DUP9 ADD SLOAD AND PUSH2 0x360 MSTORE PUSH1 0xA DUP8 ADD SLOAD SWAP8 PUSH1 0xB DUP9 ADD SLOAD SWAP3 PUSH1 0xC DUP10 ADD SLOAD SWAP5 PUSH1 0xD DUP11 ADD SLOAD SWAP7 PUSH1 0xE DUP12 ADD SLOAD SWAP9 PUSH1 0xF DUP13 ADD SLOAD SWAP11 PUSH1 0x10 DUP14 ADD SLOAD SWAP13 PUSH1 0x11 DUP2 ADD SLOAD PUSH2 0x2E0 MSTORE PUSH1 0x12 DUP2 ADD SLOAD PUSH2 0x300 MSTORE PUSH1 0x13 ADD SLOAD PUSH2 0x340 MSTORE PUSH1 0x40 MLOAD PUSH2 0x320 MSTORE PUSH2 0x320 MLOAD MSTORE PUSH2 0x320 MLOAD PUSH1 0x20 ADD PUSH2 0x400 SWAP1 MSTORE PUSH2 0x320 MLOAD PUSH2 0x400 ADD PUSH2 0x380 MLOAD SWAP1 PUSH2 0x3C8 SWAP2 PUSH2 0x3734 JUMP JUMPDEST PUSH2 0x320 MLOAD DUP2 SUB PUSH2 0x320 MLOAD PUSH1 0x40 ADD MSTORE PUSH2 0x3A0 MLOAD SWAP1 PUSH2 0x3E4 SWAP2 PUSH2 0x3734 JUMP JUMPDEST PUSH2 0x320 MLOAD DUP2 SUB PUSH2 0x320 MLOAD PUSH1 0x60 ADD MSTORE PUSH2 0x3FB SWAP2 PUSH2 0x3734 JUMP JUMPDEST PUSH2 0x320 MLOAD DUP2 SUB PUSH2 0x320 MLOAD PUSH1 0x80 ADD MSTORE PUSH2 0x412 SWAP2 PUSH2 0x3734 JUMP JUMPDEST PUSH2 0x320 MLOAD DUP2 SUB PUSH2 0x320 MLOAD PUSH1 0xA0 ADD MSTORE PUSH2 0x429 SWAP2 PUSH2 0x3734 JUMP JUMPDEST PUSH2 0x320 MLOAD DUP2 SUB PUSH2 0x320 MLOAD PUSH1 0xC0 ADD MSTORE PUSH2 0x440 SWAP2 PUSH2 0x3734 JUMP JUMPDEST PUSH2 0x320 MLOAD DUP2 SUB PUSH2 0x320 MLOAD PUSH1 0xE0 ADD MSTORE PUSH2 0x457 SWAP2 PUSH2 0x3734 JUMP JUMPDEST PUSH2 0x320 MLOAD DUP2 SUB PUSH2 0x320 MLOAD PUSH2 0x100 ADD MSTORE PUSH2 0x46F SWAP2 PUSH2 0x3734 JUMP JUMPDEST SWAP7 PUSH2 0x360 MLOAD PUSH2 0x320 MLOAD PUSH2 0x120 ADD MSTORE PUSH2 0x320 MLOAD PUSH2 0x140 ADD MSTORE PUSH2 0x320 MLOAD PUSH2 0x160 ADD MSTORE PUSH2 0x320 MLOAD PUSH2 0x180 ADD MSTORE PUSH2 0x320 MLOAD PUSH2 0x1A0 ADD MSTORE PUSH1 0xFF DUP2 AND ISZERO ISZERO PUSH2 0x320 MLOAD PUSH2 0x1C0 ADD MSTORE PUSH1 0x8 SHR PUSH1 0xFF AND ISZERO ISZERO PUSH2 0x320 MLOAD PUSH2 0x1E0 ADD MSTORE PUSH2 0x320 MLOAD PUSH2 0x200 ADD MSTORE PUSH1 0x1 PUSH1 0xA0 SHL PUSH1 0x1 SWAP1 SUB DUP2 AND PUSH2 0x320 MLOAD PUSH2 0x220 ADD MSTORE PUSH1 0xA0 SHR PUSH1 0xFF AND PUSH2 0x320 MLOAD PUSH2 0x240 ADD MSTORE PUSH2 0x2E0 MLOAD PUSH2 0x320 MLOAD PUSH2 0x260 ADD MSTORE PUSH2 0x300 MLOAD PUSH1 0xFF AND ISZERO ISZERO PUSH2 0x320 MLOAD PUSH2 0x280 ADD MSTORE PUSH2 0x300 MLOAD PUSH1 0x8 SHR PUSH1 0xFF AND PUSH2 0x320 MLOAD PUSH2 0x2A0 ADD MSTORE PUSH2 0x300 MLOAD PUSH1 0x10 SHR PUSH2 0xFFFF AND PUSH2 0x320 MLOAD PUSH2 0x2C0 ADD MSTORE PUSH2 0x300 MLOAD PUSH1 0x20 SHR PUSH2 0xFFFF AND PUSH2 0x320 MLOAD PUSH2 0x2E0 ADD MSTORE PUSH2 0x300 MLOAD PUSH1 0x30 SHR PUSH2 0xFFFF AND PUSH2 0x320 MLOAD PUSH2 0x300 ADD MSTORE PUSH2 0x300 MLOAD PUSH1 0x40 SHR PUSH2 0xFFFF AND PUSH2 0x320 MLOAD PUSH2 0x320 ADD MSTORE PUSH2 0x300 MLOAD PUSH1 0x50 SHR PUSH2 0xFFFF AND PUSH2 0x320 MLOAD PUSH2 0x340 ADD MSTORE PUSH2 0x300 MLOAD PUSH1 0x60 SHR PUSH2 0x320 MLOAD PUSH2 0x360 ADD MSTORE PUSH2 0x340 MLOAD PUSH4 0xFFFFFFFF AND PUSH2 0x320 MLOAD PUSH2 0x380 ADD MSTORE PUSH2 0x340 MLOAD PUSH1 0x20 SHR PUSH2 0xFFFF AND PUSH2 0x320 MLOAD PUSH2 0x3A0 ADD MSTORE PUSH2 0x340 MLOAD PUSH1 0x30 SHR PUSH2 0xFFFF AND PUSH2 0x320 MLOAD PUSH2 0x3C0 ADD MSTORE PUSH1 0x1 PUSH1 0xA0 SHL PUSH1 0x1 SWAP1 SUB PUSH2 0x340 MLOAD PUSH1 0x40 SHR AND PUSH2 0x320 MLOAD PUSH2 0x3E0 ADD MSTORE PUSH2 0x320 MLOAD SWAP1 SUB PUSH2 0x320 MLOAD RETURN JUMPDEST CALLVALUE PUSH2 0x262 JUMPI PUSH1 0x40 CALLDATASIZE PUSH1 0x3 NOT ADD SLT PUSH2 0x262 JUMPI PUSH2 0x60D PUSH2 0x3537 JUMP JUMPDEST PUSH1 0x24 CALLDATALOAD SWAP1 PUSH1 0x1 PUSH2 0x280 MLOAD SLOAD SUB PUSH2 0x929 JUMPI PUSH1 0x2 PUSH2 0x280 MLOAD SSTORE DUP2 ISZERO PUSH2 0x914 JUMPI PUSH1 0x1 DUP1 PUSH1 0xA0 SHL SUB DUP2 AND SWAP1 DUP2 PUSH2 0x280 MLOAD MSTORE PUSH1 0xA PUSH1 0x20 MSTORE PUSH1 0xFF PUSH1 0xE PUSH1 0x40 PUSH2 0x280 MLOAD KECCAK256 ADD SLOAD AND PUSH2 0x8FF JUMPI DUP2 PUSH2 0x280 MLOAD MSTORE PUSH1 0xE PUSH1 0x20 MSTORE PUSH1 0xFF PUSH1 0x40 PUSH2 0x280 MLOAD KECCAK256 SLOAD AND PUSH2 0x8EA JUMPI PUSH1 0x40 MLOAD PUSH4 0x70A08231 PUSH1 0xE0 SHL DUP2 MSTORE CALLER PUSH1 0x4 DUP3 ADD MSTORE PUSH1 0x20 DUP2 PUSH1 0x24 DUP2 DUP7 GAS STATICCALL DUP1 ISZERO PUSH2 0x85E JUMPI DUP5 SWAP2 PUSH2 0x280 MLOAD SWAP2 PUSH2 0x8B0 JUMPI JUMPDEST POP LT PUSH2 0x89B JUMPI DUP2 PUSH2 0x280 MLOAD MSTORE PUSH1 0xB PUSH1 0x20 MSTORE PUSH1 0x40 PUSH2 0x280 MLOAD KECCAK256 PUSH1 0x1 DUP2 ADD SWAP1 DUP2 SLOAD SWAP1 PUSH2 0x6C3 DUP7 DUP4 PUSH2 0x382E JUMP JUMPDEST PUSH2 0x6E1 PUSH2 0x6DB DUP4 SLOAD SWAP3 PUSH2 0x6D6 DUP7 DUP6 PUSH2 0x37D8 JUMP JUMPDEST PUSH2 0x3801 JUMP JUMPDEST DUP3 PUSH2 0x3821 JUMP JUMPDEST SWAP4 DUP5 ISZERO SWAP4 DUP6 DUP1 DIV PUSH1 0x1 EQ DUP6 OR ISZERO PUSH2 0x881 JUMPI PUSH2 0x2710 DUP7 DIV SWAP5 PUSH1 0x1 OR ISZERO PUSH2 0x881 JUMPI PUSH2 0x713 DUP6 PUSH2 0x70E DUP2 DUP10 PUSH2 0x3821 JUMP JUMPDEST PUSH2 0x3821 JUMP JUMPDEST SWAP3 SELFBALANCE DUP5 GT PUSH2 0x86C JUMPI PUSH2 0x731 SWAP2 PUSH2 0x72A DUP9 DUP13 SWAP4 PUSH2 0x3821 JUMP JUMPDEST DUP7 SSTORE PUSH2 0x382E JUMP JUMPDEST SWAP1 SSTORE PUSH1 0x2 DUP3 ADD PUSH2 0x742 DUP3 DUP3 SLOAD PUSH2 0x3821 JUMP JUMPDEST SWAP1 SSTORE PUSH1 0x3 DUP3 ADD PUSH2 0x753 DUP9 DUP3 SLOAD PUSH2 0x382E JUMP JUMPDEST SWAP1 SSTORE PUSH1 0x40 MLOAD PUSH4 0x23B872DD PUSH1 0xE0 SHL DUP2 MSTORE CALLER PUSH1 0x4 DUP3 ADD MSTORE ADDRESS PUSH1 0x24 DUP3 ADD MSTORE DUP8 PUSH1 0x44 DUP3 ADD MSTORE PUSH1 0x20 DUP2 PUSH1 0x64 DUP2 PUSH2 0x280 MLOAD DUP12 GAS CALL DUP1 ISZERO PUSH2 0x85E JUMPI PUSH2 0x831 JUMPI JUMPDEST POP PUSH2 0x280 MLOAD SWAP1 DUP2 SWAP1 DUP2 SWAP1 DUP2 SWAP1 CALLER GAS CALL PUSH2 0x7A3 PUSH2 0x37A8 JUMP JUMPDEST POP ISZERO PUSH2 0x81C JUMPI DUP4 PUSH2 0x7E1 DUP4 PUSH2 0x7DC PUSH2 0x7E6 SWAP6 PUSH32 0x9387A595AC4BE9038BBB9751ABAD8BAA3DCF219DD9E19ABB81552BD521FE3546 SWAP9 PUSH2 0x3A26 JUMP JUMPDEST PUSH2 0x3A7A JUMP JUMPDEST PUSH2 0x3AD4 JUMP JUMPDEST DUP3 PUSH2 0x280 MLOAD MSTORE PUSH1 0xA PUSH1 0x20 MSTORE PUSH1 0xB PUSH1 0x40 PUSH2 0x280 MLOAD KECCAK256 ADD SLOAD SWAP1 PUSH2 0x80E PUSH1 0x40 MLOAD SWAP3 DUP4 SWAP3 CALLER SWAP8 DUP5 PUSH2 0x383B JUMP JUMPDEST SUB SWAP1 LOG3 PUSH2 0x280 MLOAD PUSH1 0x1 DUP2 SSTORE DUP1 RETURN JUMPDEST PUSH4 0x4C9786D PUSH1 0xE1 SHL PUSH2 0x280 MLOAD MSTORE PUSH1 0x4 PUSH2 0x280 MLOAD REVERT JUMPDEST PUSH2 0x852 SWAP1 PUSH1 0x20 RETURNDATASIZE PUSH1 0x20 GT PUSH2 0x857 JUMPI JUMPDEST PUSH2 0x84A DUP2 DUP4 PUSH2 0x3569 JUMP JUMPDEST DUP2 ADD SWAP1 PUSH2 0x3775 JUMP JUMPDEST PUSH2 0x78C JUMP JUMPDEST POP RETURNDATASIZE PUSH2 0x840 JUMP JUMPDEST PUSH1 0x40 MLOAD RETURNDATASIZE PUSH2 0x280 MLOAD DUP3 RETURNDATACOPY RETURNDATASIZE SWAP1 REVERT JUMPDEST PUSH4 0xAB0C048B PUSH1 0xE0 SHL PUSH2 0x280 MLOAD MSTORE PUSH1 0x4 PUSH2 0x280 MLOAD REVERT JUMPDEST PUSH4 0x4E487B71 PUSH1 0xE0 SHL PUSH2 0x280 MLOAD MSTORE PUSH1 0x11 PUSH1 0x4 MSTORE PUSH1 0x24 PUSH2 0x280 MLOAD REVERT JUMPDEST PUSH4 0x61655153 PUSH1 0xE1 SHL PUSH2 0x280 MLOAD MSTORE PUSH1 0x4 PUSH2 0x280 MLOAD REVERT JUMPDEST SWAP2 POP POP PUSH1 0x20 DUP2 RETURNDATASIZE PUSH1 0x20 GT PUSH2 0x8E2 JUMPI JUMPDEST DUP2 PUSH2 0x8CC PUSH1 0x20 SWAP4 DUP4 PUSH2 0x3569 JUMP JUMPDEST DUP2 ADD SUB SLT PUSH2 0x8DD JUMPI DUP4 SWAP1 MLOAD DUP6 PUSH2 0x699 JUMP JUMPDEST PUSH1 0x0 DUP1 REVERT JUMPDEST RETURNDATASIZE SWAP2 POP PUSH2 0x8BF JUMP JUMPDEST PUSH4 0xE794C647 PUSH1 0xE0 SHL PUSH2 0x280 MLOAD MSTORE PUSH1 0x4 PUSH2 0x280 MLOAD REVERT JUMPDEST PUSH4 0xE2B861A1 PUSH1 0xE0 SHL PUSH2 0x280 MLOAD MSTORE PUSH1 0x4 PUSH2 0x280 MLOAD REVERT JUMPDEST PUSH4 0x65E52D51 PUSH1 0xE1 SHL PUSH2 0x280 MLOAD MSTORE PUSH1 0x4 PUSH2 0x280 MLOAD REVERT JUMPDEST PUSH4 0x558A1E03 PUSH1 0xE1 SHL PUSH2 0x280 MLOAD MSTORE PUSH1 0x4 PUSH2 0x280 MLOAD REVERT JUMPDEST CALLVALUE PUSH2 0x262 JUMPI PUSH1 0x20 CALLDATASIZE PUSH1 0x3 NOT ADD SLT PUSH2 0x262 JUMPI PUSH2 0x957 PUSH2 0x3537 JUMP JUMPDEST PUSH1 0x0 DUP1 MLOAD PUSH1 0x20 PUSH2 0x42BC DUP4 CODECOPY DUP2 MLOAD SWAP2 MSTORE SLOAD PUSH1 0x1 PUSH1 0x1 PUSH1 0xA0 SHL SUB AND CALLER SUB PUSH2 0x9C8 JUMPI PUSH2 0x280 DUP1 MLOAD PUSH1 0x1 PUSH1 0x1 PUSH1 0xA0 SHL SUB SWAP3 SWAP1 SWAP3 AND SWAP2 DUP3 SWAP1 MSTORE PUSH1 0xE PUSH1 0x20 MSTORE MLOAD PUSH1 0x40 DUP2 KECCAK256 DUP1 SLOAD PUSH1 0xFF NOT AND SWAP1 SSTORE PUSH32 0xE9C9A473410D8FD0BB91117F70A4B750BCE859AB398B18CC49160F5FF41D66E4 SWAP1 DUP1 LOG2 PUSH2 0x280 MLOAD DUP1 RETURN JUMPDEST PUSH4 0x5FC483C5 PUSH1 0xE0 SHL PUSH2 0x280 MLOAD MSTORE PUSH1 0x4 PUSH2 0x280 MLOAD REVERT JUMPDEST CALLVALUE PUSH2 0x262 JUMPI PUSH1 0x20 CALLDATASIZE PUSH1 0x3 NOT ADD SLT PUSH2 0x262 JUMPI PUSH2 0xA06 PUSH2 0x9F9 PUSH2 0x3537 JUMP JUMPDEST PUSH2 0xA01 PUSH2 0x398E JUMP JUMPDEST PUSH2 0x392A JUMP JUMPDEST PUSH2 0x280 MLOAD DUP1 RETURN JUMPDEST CALLVALUE PUSH2 0x262 JUMPI PUSH1 0x20 CALLDATASIZE PUSH1 0x3 NOT ADD SLT PUSH2 0x262 JUMPI PUSH1 0x1 PUSH1 0x1 PUSH1 0xA0 SHL SUB PUSH2 0xA2E PUSH2 0x3537 JUMP JUMPDEST AND PUSH2 0x280 MLOAD MSTORE PUSH1 0xE PUSH1 0x20 MSTORE PUSH1 0x20 PUSH1 0xFF PUSH1 0x40 PUSH2 0x280 MLOAD KECCAK256 SLOAD AND PUSH1 0x40 MLOAD SWAP1 ISZERO ISZERO DUP2 MSTORE RETURN JUMPDEST CALLVALUE PUSH2 0x262 JUMPI PUSH2 0x280 MLOAD CALLDATASIZE PUSH1 0x3 NOT ADD SLT PUSH2 0x262 JUMPI PUSH1 0x20 PUSH1 0x40 MLOAD PUSH1 0x3 DUP2 MSTORE RETURN JUMPDEST CALLVALUE PUSH2 0x262 JUMPI PUSH2 0x280 MLOAD CALLDATASIZE PUSH1 0x3 NOT ADD SLT PUSH2 0x262 JUMPI PUSH1 0x20 PUSH1 0x40 MLOAD PUSH2 0x280 MLOAD DUP2 MSTORE RETURN JUMPDEST CALLVALUE PUSH2 0x262 JUMPI PUSH1 0x20 CALLDATASIZE PUSH1 0x3 NOT ADD SLT PUSH2 0x262 JUMPI PUSH2 0xAA7 PUSH2 0x3537 JUMP JUMPDEST PUSH1 0x0 DUP1 MLOAD PUSH1 0x20 PUSH2 0x433C DUP4 CODECOPY DUP2 MLOAD SWAP2 MSTORE SLOAD PUSH1 0x40 DUP2 SWAP1 SHR PUSH1 0xFF AND ISZERO SWAP2 SWAP1 PUSH1 0x1 PUSH1 0x1 PUSH1 0x40 SHL SUB DUP2 AND DUP1 ISZERO SWAP1 DUP2 PUSH2 0xC4E JUMPI JUMPDEST PUSH1 0x1 EQ SWAP1 DUP2 PUSH2 0xC44 JUMPI JUMPDEST ISZERO SWAP1 DUP2 PUSH2 0xC3B JUMPI JUMPDEST POP PUSH2 0xC26 JUMPI PUSH1 0x1 PUSH1 0x1 PUSH1 0x40 SHL SUB NOT DUP2 AND PUSH1 0x1 OR PUSH1 0x0 DUP1 MLOAD PUSH1 0x20 PUSH2 0x433C DUP4 CODECOPY DUP2 MLOAD SWAP2 MSTORE SSTORE DUP3 PUSH2 0xBFD JUMPI JUMPDEST POP PUSH2 0xB19 PUSH2 0x426D JUMP JUMPDEST PUSH2 0xB21 PUSH2 0x426D JUMP JUMPDEST PUSH2 0xB2A CALLER PUSH2 0x392A JUMP JUMPDEST PUSH2 0x280 MLOAD PUSH1 0x1 DUP1 DUP3 SSTORE PUSH1 0x5 DUP1 SLOAD PUSH1 0x1 PUSH1 0x1 PUSH1 0xA0 SHL SUB NOT SWAP1 DUP2 AND SWAP1 SWAP2 SSTORE DUP2 SLOAD AND PUSH1 0x1 PUSH1 0x1 PUSH1 0xA0 SHL SUB SWAP4 SWAP1 SWAP4 AND SWAP3 SWAP1 SWAP3 OR SWAP1 SWAP2 SSTORE PUSH7 0x38D7EA4C68000 PUSH1 0x9 SSTORE PUSH1 0x40 MLOAD PUSH1 0x0 DUP1 MLOAD PUSH1 0x20 PUSH2 0x42FC DUP4 CODECOPY DUP2 MLOAD SWAP2 MSTORE SWAP2 PUSH1 0x20 SWAP2 SWAP1 PUSH1 0x0 DUP1 MLOAD PUSH1 0x20 PUSH2 0x42DC DUP4 CODECOPY DUP2 MLOAD SWAP2 MSTORE DUP2 DUP1 LOG2 PUSH7 0x38D7EA4C68000 DUP2 MSTORE LOG1 PUSH2 0xBA6 JUMPI PUSH2 0x280 MLOAD DUP1 RETURN JUMPDEST PUSH1 0xFF PUSH1 0x40 SHL NOT PUSH1 0x0 DUP1 MLOAD PUSH1 0x20 PUSH2 0x433C DUP4 CODECOPY DUP2 MLOAD SWAP2 MSTORE SLOAD AND PUSH1 0x0 DUP1 MLOAD PUSH1 0x20 PUSH2 0x433C DUP4 CODECOPY DUP2 MLOAD SWAP2 MSTORE SSTORE PUSH32 0xC7F505B2F371AE2175EE4913F4499E1F2633A7B5936321EED1CDAEB6115181D2 PUSH1 0x20 PUSH1 0x40 MLOAD PUSH1 0x1 DUP2 MSTORE LOG1 PUSH2 0xA06 JUMP JUMPDEST PUSH1 0x1 PUSH1 0x1 PUSH1 0x48 SHL SUB NOT AND PUSH1 0x1 PUSH1 0x1 PUSH1 0x40 SHL ADD OR PUSH1 0x0 DUP1 MLOAD PUSH1 0x20 PUSH2 0x433C DUP4 CODECOPY DUP2 MLOAD SWAP2 MSTORE SSTORE DUP3 PUSH2 0xB10 JUMP JUMPDEST PUSH4 0xF92EE8A9 PUSH1 0xE0 SHL PUSH2 0x280 MLOAD MSTORE PUSH1 0x4 PUSH2 0x280 MLOAD REVERT JUMPDEST SWAP1 POP ISZERO DUP5 PUSH2 0xAE7 JUMP JUMPDEST ADDRESS EXTCODESIZE ISZERO SWAP2 POP PUSH2 0xADF JUMP JUMPDEST DUP5 SWAP2 POP PUSH2 0xAD5 JUMP JUMPDEST CALLVALUE PUSH2 0x262 JUMPI PUSH2 0x280 MLOAD CALLDATASIZE PUSH1 0x3 NOT ADD SLT PUSH2 0x262 JUMPI PUSH1 0x6 SLOAD PUSH1 0x40 MLOAD PUSH1 0x1 PUSH1 0x1 PUSH1 0xA0 SHL SUB SWAP1 SWAP2 AND DUP2 MSTORE PUSH1 0x20 SWAP1 RETURN JUMPDEST CALLVALUE PUSH2 0x262 JUMPI PUSH2 0x280 MLOAD CALLDATASIZE PUSH1 0x3 NOT ADD SLT PUSH2 0x262 JUMPI PUSH1 0x20 PUSH1 0x40 MLOAD PUSH7 0x1C6BF52634000 DUP2 MSTORE RETURN JUMPDEST CALLVALUE PUSH2 0x262 JUMPI PUSH1 0x20 CALLDATASIZE PUSH1 0x3 NOT ADD SLT PUSH2 0x262 JUMPI PUSH1 0x1 PUSH1 0x1 PUSH1 0xA0 SHL SUB PUSH2 0xCC6 PUSH2 0x3537 JUMP JUMPDEST AND PUSH2 0x280 MLOAD MSTORE PUSH1 0xB PUSH1 0x20 MSTORE PUSH1 0xA0 PUSH1 0x40 PUSH2 0x280 MLOAD KECCAK256 DUP1 SLOAD SWAP1 PUSH1 0x1 DUP2 ADD SLOAD SWAP1 PUSH1 0x2 DUP2 ADD SLOAD PUSH1 0x4 PUSH1 0x3 DUP4 ADD SLOAD SWAP3 ADD SLOAD SWAP3 PUSH1 0x40 MLOAD SWAP5 DUP6 MSTORE PUSH1 0x20 DUP6 ADD MSTORE PUSH1 0x40 DUP5 ADD MSTORE PUSH1 0x60 DUP4 ADD MSTORE PUSH1 0x80 DUP3 ADD MSTORE RETURN JUMPDEST CALLVALUE PUSH2 0x262 JUMPI PUSH2 0x280 MLOAD CALLDATASIZE PUSH1 0x3 NOT ADD SLT PUSH2 0x262 JUMPI PUSH1 0x3 SLOAD PUSH1 0x40 MLOAD PUSH1 0x1 PUSH1 0x1 PUSH1 0xA0 SHL SUB SWAP1 SWAP2 AND DUP2 MSTORE PUSH1 0x20 SWAP1 RETURN JUMPDEST PUSH2 0x3635 JUMP JUMPDEST CALLVALUE PUSH2 0x262 JUMPI PUSH1 0x20 CALLDATASIZE PUSH1 0x3 NOT ADD SLT PUSH2 0x262 JUMPI PUSH1 0x0 DUP1 MLOAD PUSH1 0x20 PUSH2 0x42BC DUP4 CODECOPY DUP2 MLOAD SWAP2 MSTORE SLOAD PUSH1 0x4 CALLDATALOAD SWAP1 PUSH1 0x1 PUSH1 0x1 PUSH1 0xA0 SHL SUB AND CALLER SUB PUSH2 0x9C8 JUMPI PUSH6 0x5AF3107A4000 DUP2 LT PUSH2 0xDA4 JUMPI PUSH1 0x20 DUP2 PUSH1 0x0 DUP1 MLOAD PUSH1 0x20 PUSH2 0x42FC DUP4 CODECOPY DUP2 MLOAD SWAP2 MSTORE SWAP3 PUSH1 0x9 SSTORE PUSH1 0x40 MLOAD SWAP1 DUP2 MSTORE LOG1 PUSH2 0x280 MLOAD DUP1 RETURN JUMPDEST PUSH4 0xAE0F6505 PUSH1 0xE0 SHL PUSH2 0x280 MLOAD MSTORE PUSH1 0x4 PUSH2 0x280 MLOAD REVERT JUMPDEST CALLVALUE PUSH2 0x262 JUMPI PUSH2 0x280 MLOAD CALLDATASIZE PUSH1 0x3 NOT ADD SLT PUSH2 0x262 JUMPI PUSH1 0x4 SLOAD PUSH1 0x40 MLOAD PUSH1 0x1 PUSH1 0x1 PUSH1 0xA0 SHL SUB SWAP1 SWAP2 AND DUP2 MSTORE PUSH1 0x20 SWAP1 RETURN JUMPDEST CALLVALUE PUSH2 0x262 JUMPI PUSH2 0x280 MLOAD CALLDATASIZE PUSH1 0x3 NOT ADD SLT PUSH2 0x262 JUMPI PUSH1 0x20 PUSH1 0x40 MLOAD PUSH1 0x1 DUP2 MSTORE RETURN JUMPDEST CALLVALUE PUSH2 0x262 JUMPI PUSH1 0x20 CALLDATASIZE PUSH1 0x3 NOT ADD SLT PUSH2 0x262 JUMPI PUSH1 0x1 PUSH1 0x1 PUSH1 0xA0 SHL SUB PUSH2 0xE23 PUSH2 0x3537 JUMP JUMPDEST AND PUSH2 0x280 MLOAD MSTORE PUSH1 0xC PUSH1 0x20 MSTORE PUSH1 0x20 PUSH1 0x40 PUSH2 0x280 MLOAD KECCAK256 SLOAD PUSH1 0x40 MLOAD SWAP1 DUP2 MSTORE RETURN JUMPDEST CALLVALUE PUSH2 0x262 JUMPI PUSH1 0x20 CALLDATASIZE PUSH1 0x3 NOT ADD SLT PUSH2 0x262 JUMPI PUSH2 0xE59 PUSH2 0x3537 JUMP JUMPDEST PUSH1 0x0 DUP1 MLOAD PUSH1 0x20 PUSH2 0x42BC DUP4 CODECOPY DUP2 MLOAD SWAP2 MSTORE SLOAD PUSH1 0x1 PUSH1 0x1 PUSH1 0xA0 SHL SUB AND CALLER SUB PUSH2 0x9C8 JUMPI PUSH1 0x5 DUP1 SLOAD PUSH1 0x1 PUSH1 0x1 PUSH1 0xA0 SHL SUB NOT AND PUSH1 0x1 PUSH1 0x1 PUSH1 0xA0 SHL SUB SWAP3 SWAP1 SWAP3 AND SWAP2 DUP3 OR SWAP1 SSTORE PUSH2 0x280 MLOAD PUSH1 0x0 DUP1 MLOAD PUSH1 0x20 PUSH2 0x42DC DUP4 CODECOPY DUP2 MLOAD SWAP2 MSTORE SWAP1 DUP1 LOG2 PUSH2 0x280 MLOAD DUP1 RETURN JUMPDEST PUSH2 0x2E0 CALLDATASIZE PUSH1 0x3 NOT ADD SLT PUSH2 0x262 JUMPI PUSH1 0x4 CALLDATALOAD PUSH1 0x1 PUSH1 0x1 PUSH1 0x40 SHL SUB DUP2 GT PUSH2 0x262 JUMPI PUSH2 0xEE0 SWAP1 CALLDATASIZE SWAP1 PUSH1 0x4 ADD PUSH2 0x35BD JUMP JUMPDEST PUSH2 0x220 MSTORE PUSH1 0x24 CALLDATALOAD PUSH1 0x1 PUSH1 0x1 PUSH1 0x40 SHL SUB DUP2 GT PUSH2 0x262 JUMPI PUSH2 0xF03 SWAP1 CALLDATASIZE SWAP1 PUSH1 0x4 ADD PUSH2 0x35BD JUMP JUMPDEST PUSH2 0x2C0 MSTORE PUSH1 0x44 CALLDATALOAD PUSH1 0x1 PUSH1 0x1 PUSH1 0x40 SHL SUB DUP2 GT PUSH2 0x262 JUMPI PUSH2 0xF26 SWAP1 CALLDATASIZE SWAP1 PUSH1 0x4 ADD PUSH2 0x35BD JUMP JUMPDEST PUSH1 0x64 CALLDATALOAD PUSH1 0x1 PUSH1 0x1 PUSH1 0x40 SHL SUB DUP2 GT PUSH2 0x262 JUMPI PUSH2 0xF45 SWAP1 CALLDATASIZE SWAP1 PUSH1 0x4 ADD PUSH2 0x35BD JUMP JUMPDEST PUSH1 0x80 MSTORE PUSH1 0x84 CALLDATALOAD PUSH1 0x1 PUSH1 0x1 PUSH1 0x40 SHL SUB DUP2 GT PUSH2 0x262 JUMPI PUSH2 0xF67 SWAP1 CALLDATASIZE SWAP1 PUSH1 0x4 ADD PUSH2 0x35BD JUMP JUMPDEST SWAP1 PUSH1 0xA4 CALLDATALOAD PUSH1 0x1 PUSH1 0x1 PUSH1 0x40 SHL SUB DUP2 GT PUSH2 0x262 JUMPI PUSH2 0xF87 SWAP1 CALLDATASIZE SWAP1 PUSH1 0x4 ADD PUSH2 0x35BD JUMP JUMPDEST PUSH1 0xA0 MSTORE PUSH1 0xC4 CALLDATALOAD PUSH1 0x1 PUSH1 0x1 PUSH1 0x40 SHL SUB DUP2 GT PUSH2 0x262 JUMPI PUSH2 0xFA9 SWAP1 CALLDATASIZE SWAP1 PUSH1 0x4 ADD PUSH2 0x35BD JUMP JUMPDEST PUSH1 0xC0 MSTORE PUSH1 0xE4 CALLDATALOAD PUSH1 0x1 PUSH1 0x1 PUSH1 0x40 SHL SUB DUP2 GT PUSH2 0x262 JUMPI PUSH2 0xFCB SWAP1 CALLDATASIZE SWAP1 PUSH1 0x4 ADD PUSH2 0x35BD JUMP JUMPDEST PUSH1 0xE0 MSTORE PUSH2 0x104 CALLDATALOAD PUSH2 0x180 DUP2 SWAP1 MSTORE DUP1 ISZERO ISZERO SWAP1 SUB PUSH2 0x262 JUMPI PUSH1 0xFF PUSH2 0x124 CALLDATALOAD AND PUSH2 0x124 CALLDATALOAD SUB PUSH2 0x262 JUMPI PUSH2 0x144 CALLDATALOAD DUP1 ISZERO SWAP1 DUP2 ISZERO DUP2 SUB PUSH2 0x262 JUMPI PUSH2 0x160 CALLDATASIZE PUSH2 0x163 NOT ADD SLT PUSH2 0x262 JUMPI PUSH1 0x1 PUSH2 0x280 MLOAD SLOAD SUB PUSH2 0x929 JUMPI PUSH2 0x280 MLOAD PUSH1 0x2 SWAP1 SSTORE PUSH1 0x1 SLOAD PUSH1 0x1 PUSH1 0x1 PUSH1 0xA0 SHL SUB AND ISZERO PUSH2 0x29B0 JUMPI PUSH6 0xB5E620F48000 CALLVALUE LT PUSH2 0x299B JUMPI CALLVALUE PUSH6 0x5AF3107A3FFF NOT DUP2 ADD GT PUSH2 0x881 JUMPI PUSH6 0x5AF3107A4000 CALLVALUE PUSH6 0x5AF3107A3FFF NOT ADD LT PUSH2 0xDA4 JUMPI PUSH1 0xFF PUSH2 0x124 CALLDATALOAD AND PUSH2 0x2958 JUMPI JUMPDEST PUSH1 0x3 PUSH1 0xFF PUSH2 0x124 CALLDATALOAD AND GT PUSH2 0x2943 JUMPI PUSH2 0x3E8 PUSH2 0xFFFF PUSH2 0x108E PUSH2 0x3851 JUMP JUMPDEST AND GT PUSH2 0x292E JUMPI PUSH2 0xFFFF PUSH2 0x109F PUSH2 0x3851 JUMP JUMPDEST AND PUSH2 0x285A JUMPI JUMPDEST DUP1 PUSH2 0x2846 JUMPI JUMPDEST PUSH2 0x281E JUMPI DUP1 DUP1 PUSH2 0x2833 JUMPI JUMPDEST PUSH2 0x281E JUMPI PUSH4 0xFFFFFFFF PUSH2 0x10C7 PUSH2 0x38F7 JUMP JUMPDEST AND ISZERO ISZERO DUP1 PUSH2 0x2804 JUMPI JUMPDEST PUSH2 0x27DB JUMPI PUSH2 0xFFFF PUSH2 0x10DF PUSH2 0x38AB JUMP JUMPDEST AND ISZERO DUP1 ISZERO SWAP1 PUSH2 0x27F0 JUMPI JUMPDEST PUSH2 0x27DB JUMPI PUSH1 0x5 SLOAD PUSH1 0x1 PUSH1 0x1 PUSH1 0xA0 SHL SUB AND ISZERO PUSH2 0x27C0 JUMPI PUSH2 0x280 MLOAD PUSH1 0x5 SLOAD DUP2 SWAP1 DUP2 SWAP1 DUP2 SWAP1 PUSH6 0x5AF3107A4000 SWAP1 PUSH1 0x1 PUSH1 0x1 PUSH1 0xA0 SHL SUB AND GAS CALL PUSH2 0x1126 PUSH2 0x37A8 JUMP JUMPDEST POP ISZERO PUSH2 0x27AB JUMPI JUMPDEST PUSH1 0x1 DUP1 PUSH1 0xA0 SHL SUB PUSH1 0x1 SLOAD AND PUSH1 0x20 PUSH1 0x40 MLOAD DUP1 SWAP3 PUSH4 0x5A59B309 PUSH1 0xE0 SHL DUP3 MSTORE PUSH1 0xA0 PUSH1 0x4 DUP4 ADD MSTORE DUP2 DUP1 PUSH2 0x117A PUSH2 0x1165 PUSH1 0xA4 DUP4 ADD PUSH2 0x220 MLOAD PUSH2 0x3734 JUMP JUMPDEST DUP3 DUP2 SUB PUSH1 0x3 NOT ADD PUSH1 0x24 DUP5 ADD MSTORE PUSH2 0x2C0 MLOAD PUSH2 0x3734 JUMP JUMPDEST ADDRESS PUSH1 0x44 DUP4 ADD MSTORE PUSH2 0x2C4 CALLDATALOAD PUSH1 0x64 DUP4 ADD MSTORE PUSH2 0x2222 PUSH1 0x84 DUP4 ADD MSTORE SUB SWAP2 PUSH2 0x280 MLOAD SWAP1 GAS CALL DUP1 ISZERO PUSH2 0x85E JUMPI PUSH2 0x280 MLOAD PUSH2 0x1A0 MSTORE PUSH2 0x2779 JUMPI JUMPDEST POP PUSH1 0x40 MLOAD PUSH1 0x1 PUSH1 0x1 PUSH1 0x40 SHL SUB PUSH1 0xA0 DUP3 ADD SWAP1 DUP2 GT SWAP1 DUP3 GT OR PUSH2 0x2012 JUMPI PUSH1 0xA0 DUP2 ADD PUSH1 0x40 MSTORE PUSH9 0x1A055690D9DB80000 DUP2 MSTORE PUSH1 0x4 PUSH1 0x20 DUP3 ADD PUSH12 0x37790968DC8EFFFD1000000 DUP2 MSTORE PUSH1 0x40 DUP4 ADD PUSH2 0x280 MLOAD DUP2 MSTORE PUSH1 0x60 DUP5 ADD SWAP1 PUSH8 0x14ADF4B7320334B9 PUSH1 0x1D SHL DUP3 MSTORE PUSH1 0x80 DUP6 ADD SWAP3 PUSH7 0x1C6BF52634000 DUP5 MSTORE PUSH1 0x1 DUP1 PUSH1 0xA0 SHL SUB PUSH2 0x1A0 MLOAD AND PUSH2 0x280 MLOAD MSTORE PUSH1 0xB PUSH1 0x20 MSTORE PUSH1 0x40 PUSH2 0x280 MLOAD KECCAK256 SWAP6 MLOAD DUP7 SSTORE MLOAD PUSH1 0x1 DUP7 ADD SSTORE MLOAD PUSH1 0x2 DUP6 ADD SSTORE MLOAD PUSH1 0x3 DUP5 ADD SSTORE MLOAD SWAP2 ADD SSTORE PUSH1 0x1 DUP1 PUSH1 0xA0 SHL SUB PUSH2 0x1A0 MLOAD AND EXTCODESIZE ISZERO PUSH2 0x262 JUMPI PUSH1 0x40 MLOAD PUSH4 0x40C10F19 PUSH1 0xE0 SHL DUP2 MSTORE ADDRESS PUSH1 0x4 DUP3 ADD MSTORE PUSH8 0x6765C793FA10079D PUSH1 0x1B SHL PUSH1 0x24 DUP3 ADD MSTORE PUSH2 0x280 MLOAD PUSH2 0x1A0 MLOAD DUP3 SWAP1 PUSH1 0x44 SWAP1 DUP3 SWAP1 DUP5 SWAP1 PUSH1 0x1 PUSH1 0x1 PUSH1 0xA0 SHL SUB AND GAS CALL DUP1 ISZERO PUSH2 0x85E JUMPI PUSH2 0x275E JUMPI JUMPDEST POP PUSH2 0x180 MLOAD ISZERO PUSH2 0x272F JUMPI PUSH1 0x40 MLOAD PUSH4 0xA9059CBB PUSH1 0xE0 SHL DUP2 MSTORE PUSH2 0x280 DUP1 MLOAD PUSH1 0x4 DUP4 ADD MSTORE PUSH11 0xA56FA5B99019A5C8000000 PUSH1 0x24 DUP4 ADD MSTORE MLOAD PUSH2 0x1A0 MLOAD PUSH1 0x20 SWAP2 DUP4 SWAP2 PUSH1 0x44 SWAP2 DUP4 SWAP2 PUSH1 0x1 PUSH1 0x1 PUSH1 0xA0 SHL SUB AND GAS CALL DUP1 ISZERO PUSH2 0x85E JUMPI PUSH2 0x2712 JUMPI JUMPDEST POP PUSH1 0x40 MLOAD PUSH11 0xA56FA5B99019A5C8000000 DUP2 MSTORE PUSH2 0x1A0 MLOAD PUSH1 0x1 PUSH1 0x1 PUSH1 0xA0 SHL SUB AND SWAP1 PUSH32 0x1122E9CE6E7FFE6F9DBF5D2D4ABBD3BE5D5B072C65D3CA89B176BFF6FFD25DF6 SWAP1 PUSH1 0x20 SWAP1 LOG2 JUMPDEST PUSH1 0x1 DUP1 PUSH1 0xA0 SHL SUB PUSH2 0x1A0 MLOAD AND PUSH2 0x280 MLOAD MSTORE PUSH1 0xB PUSH1 0x20 MSTORE PUSH2 0x1373 PUSH1 0x40 PUSH2 0x280 MLOAD KECCAK256 PUSH2 0x4224 JUMP JUMPDEST SWAP2 DUP3 ISZERO PUSH8 0x6765C793FA10079D PUSH1 0x1B SHL DUP1 DUP6 MUL DUP6 SWAP1 DIV EQ OR ISZERO PUSH2 0x881 JUMPI PUSH2 0x180 MLOAD ISZERO PUSH2 0x26F8 JUMPI PUSH2 0x280 MLOAD SWAP1 JUMPDEST PUSH2 0x13A6 PUSH2 0x38E6 JUMP JUMPDEST SWAP4 PUSH2 0x13AF PUSH2 0x3851 JUMP JUMPDEST PUSH2 0x100 MSTORE PUSH2 0x13BB PUSH2 0x3863 JUMP JUMPDEST PUSH2 0x120 MSTORE PUSH2 0x13C7 PUSH2 0x3875 JUMP JUMPDEST PUSH2 0x140 MSTORE PUSH2 0x13D3 PUSH2 0x3887 JUMP JUMPDEST PUSH2 0x160 MSTORE PUSH2 0x13DF PUSH2 0x3899 JUMP JUMPDEST PUSH2 0x1C0 MSTORE PUSH2 0x13EB PUSH2 0x38CF JUMP JUMPDEST PUSH2 0x240 MSTORE PUSH2 0x13F7 PUSH2 0x38F7 JUMP JUMPDEST PUSH2 0x2A0 MSTORE PUSH2 0x1403 PUSH2 0x38AB JUMP JUMPDEST PUSH2 0x260 MSTORE PUSH2 0x140F PUSH2 0x38BD JUMP JUMPDEST PUSH2 0x200 MSTORE PUSH2 0x2A4 CALLDATALOAD PUSH1 0x1 PUSH1 0x1 PUSH1 0xA0 SHL SUB DUP2 AND SWAP1 SUB PUSH2 0x262 JUMPI PUSH1 0x40 MLOAD PUSH2 0x1E0 DUP2 SWAP1 MSTORE PUSH1 0x1 PUSH1 0x1 PUSH1 0x40 SHL SUB PUSH2 0x400 DUP3 ADD SWAP1 DUP2 GT SWAP2 GT OR PUSH2 0x2012 JUMPI PUSH1 0xFF SWAP6 PUSH8 0xDE0B6B3A7640000 SWAP3 PUSH2 0x400 PUSH2 0x1E0 MLOAD ADD PUSH1 0x40 MSTORE PUSH1 0x1 DUP1 PUSH1 0xA0 SHL SUB PUSH2 0x1A0 MLOAD AND PUSH2 0x1E0 MLOAD MSTORE PUSH2 0x220 MLOAD PUSH1 0x20 PUSH2 0x1E0 MLOAD ADD MSTORE PUSH2 0x2C0 MLOAD PUSH1 0x40 PUSH2 0x1E0 MLOAD ADD MSTORE PUSH1 0x60 PUSH2 0x1E0 MLOAD ADD MSTORE PUSH1 0x80 MLOAD PUSH1 0x80 PUSH2 0x1E0 MLOAD ADD MSTORE PUSH1 0xA0 PUSH2 0x1E0 MLOAD ADD MSTORE PUSH1 0xA0 MLOAD PUSH1 0xC0 PUSH2 0x1E0 MLOAD ADD MSTORE PUSH1 0xC0 MLOAD PUSH1 0xE0 PUSH2 0x1E0 MLOAD ADD MSTORE PUSH1 0xE0 MLOAD PUSH2 0x100 PUSH2 0x1E0 MLOAD ADD MSTORE CALLER PUSH2 0x120 PUSH2 0x1E0 MLOAD ADD MSTORE PUSH8 0x6765C793FA10079D PUSH1 0x1B SHL PUSH2 0x140 PUSH2 0x1E0 MLOAD ADD MSTORE DUP1 PUSH2 0x160 PUSH2 0x1E0 MLOAD ADD MSTORE PUSH8 0x6765C793FA10079D PUSH1 0x1B SHL MUL DIV PUSH2 0x180 PUSH2 0x1E0 MLOAD ADD MSTORE TIMESTAMP PUSH2 0x1A0 PUSH2 0x1E0 MLOAD ADD MSTORE PUSH2 0x280 MLOAD PUSH2 0x1C0 PUSH2 0x1E0 MLOAD ADD MSTORE PUSH2 0x180 MLOAD ISZERO ISZERO PUSH2 0x1E0 DUP1 MLOAD ADD MSTORE PUSH2 0x200 PUSH2 0x1E0 MLOAD ADD MSTORE PUSH2 0x280 MLOAD PUSH2 0x220 PUSH2 0x1E0 MLOAD ADD MSTORE PUSH2 0x280 MLOAD PUSH2 0x240 PUSH2 0x1E0 MLOAD ADD MSTORE PUSH2 0x280 MLOAD PUSH2 0x260 PUSH2 0x1E0 MLOAD ADD MSTORE ISZERO PUSH2 0x280 PUSH2 0x1E0 MLOAD ADD MSTORE AND PUSH2 0x2A0 PUSH2 0x1E0 MLOAD ADD MSTORE PUSH2 0xFFFF PUSH2 0x100 MLOAD AND PUSH2 0x2C0 PUSH2 0x1E0 MLOAD ADD MSTORE PUSH2 0xFFFF PUSH2 0x120 MLOAD AND PUSH2 0x2E0 PUSH2 0x1E0 MLOAD ADD MSTORE PUSH2 0xFFFF PUSH2 0x140 MLOAD AND PUSH2 0x300 PUSH2 0x1E0 MLOAD ADD MSTORE PUSH2 0xFFFF PUSH2 0x160 MLOAD AND PUSH2 0x320 PUSH2 0x1E0 MLOAD ADD MSTORE PUSH2 0xFFFF PUSH2 0x1C0 MLOAD AND PUSH2 0x340 PUSH2 0x1E0 MLOAD ADD MSTORE PUSH1 0x1 DUP1 PUSH1 0xA0 SHL SUB PUSH2 0x240 MLOAD AND PUSH2 0x360 PUSH2 0x1E0 MLOAD ADD MSTORE PUSH4 0xFFFFFFFF PUSH2 0x2A0 MLOAD AND PUSH2 0x380 PUSH2 0x1E0 MLOAD ADD MSTORE PUSH2 0xFFFF PUSH2 0x260 MLOAD AND PUSH2 0x3A0 PUSH2 0x1E0 MLOAD ADD MSTORE PUSH2 0xFFFF PUSH2 0x200 MLOAD AND PUSH2 0x3C0 PUSH2 0x1E0 MLOAD ADD MSTORE PUSH1 0x1 DUP1 PUSH1 0xA0 SHL SUB PUSH2 0x2A4 CALLDATALOAD AND PUSH2 0x3E0 PUSH2 0x1E0 MLOAD ADD MSTORE PUSH1 0x1 DUP1 PUSH1 0xA0 SHL SUB PUSH2 0x1A0 MLOAD AND PUSH2 0x280 MLOAD MSTORE PUSH1 0xA PUSH1 0x20 MSTORE PUSH1 0x40 PUSH2 0x280 MLOAD KECCAK256 PUSH1 0x1 DUP1 PUSH1 0xA0 SHL SUB PUSH1 0x1 DUP1 PUSH1 0xA0 SHL SUB PUSH2 0x1E0 MLOAD MLOAD AND AND PUSH1 0x1 DUP1 PUSH1 0xA0 SHL SUB NOT DUP3 SLOAD AND OR DUP2 SSTORE PUSH1 0x20 PUSH2 0x1E0 MLOAD ADD MLOAD DUP1 MLOAD SWAP1 PUSH1 0x1 DUP1 PUSH1 0x40 SHL SUB DUP3 GT PUSH2 0x2012 JUMPI DUP2 SWAP1 PUSH2 0x1688 PUSH1 0x1 DUP6 ADD SLOAD PUSH2 0x3656 JUMP JUMPDEST PUSH1 0x1F DUP2 GT PUSH2 0x269F JUMPI JUMPDEST POP PUSH1 0x20 SWAP1 PUSH1 0x1 PUSH1 0x1F DUP5 GT EQ PUSH2 0x2628 JUMPI PUSH2 0x280 MLOAD SWAP3 PUSH2 0x261D JUMPI JUMPDEST POP POP DUP2 PUSH1 0x1 SHL SWAP2 PUSH1 0x0 NOT SWAP1 PUSH1 0x3 SHL SHR NOT AND OR PUSH1 0x1 DUP3 ADD SSTORE JUMPDEST PUSH2 0x1E0 MLOAD PUSH1 0x40 ADD MLOAD DUP1 MLOAD SWAP1 PUSH1 0x1 PUSH1 0x1 PUSH1 0x40 SHL SUB DUP3 GT PUSH2 0x2012 JUMPI DUP2 SWAP1 PUSH2 0x16EA PUSH1 0x2 DUP6 ADD SLOAD PUSH2 0x3656 JUMP JUMPDEST PUSH1 0x1F DUP2 GT PUSH2 0x25C4 JUMPI JUMPDEST POP PUSH1 0x20 SWAP1 PUSH1 0x1 PUSH1 0x1F DUP5 GT EQ PUSH2 0x254D JUMPI PUSH2 0x280 MLOAD SWAP3 PUSH2 0x2542 JUMPI JUMPDEST POP POP DUP2 PUSH1 0x1 SHL SWAP2 PUSH1 0x0 NOT SWAP1 PUSH1 0x3 SHL SHR NOT AND OR PUSH1 0x2 DUP3 ADD SSTORE JUMPDEST PUSH2 0x1E0 MLOAD PUSH1 0x60 ADD MLOAD DUP1 MLOAD SWAP1 PUSH1 0x1 PUSH1 0x1 PUSH1 0x40 SHL SUB DUP3 GT PUSH2 0x2012 JUMPI DUP2 SWAP1 PUSH2 0x174C PUSH1 0x3 DUP6 ADD SLOAD PUSH2 0x3656 JUMP JUMPDEST PUSH1 0x1F DUP2 GT PUSH2 0x24E9 JUMPI JUMPDEST POP PUSH1 0x20 SWAP1 PUSH1 0x1 PUSH1 0x1F DUP5 GT EQ PUSH2 0x2472 JUMPI PUSH2 0x280 MLOAD SWAP3 PUSH2 0x2467 JUMPI JUMPDEST POP POP DUP2 PUSH1 0x1 SHL SWAP2 PUSH1 0x0 NOT SWAP1 PUSH1 0x3 SHL SHR NOT AND OR PUSH1 0x3 DUP3 ADD SSTORE JUMPDEST PUSH2 0x1E0 MLOAD PUSH1 0x80 ADD MLOAD DUP1 MLOAD SWAP1 PUSH1 0x1 PUSH1 0x1 PUSH1 0x40 SHL SUB DUP3 GT PUSH2 0x2012 JUMPI DUP2 SWAP1 PUSH2 0x17AE PUSH1 0x4 DUP6 ADD SLOAD PUSH2 0x3656 JUMP JUMPDEST PUSH1 0x1F DUP2 GT PUSH2 0x240E JUMPI JUMPDEST POP PUSH1 0x20 SWAP1 PUSH1 0x1 PUSH1 0x1F DUP5 GT EQ PUSH2 0x2397 JUMPI PUSH2 0x280 MLOAD SWAP3 PUSH2 0x238C JUMPI JUMPDEST POP POP DUP2 PUSH1 0x1 SHL SWAP2 PUSH1 0x0 NOT SWAP1 PUSH1 0x3 SHL SHR NOT AND OR PUSH1 0x4 DUP3 ADD SSTORE JUMPDEST PUSH2 0x1E0 MLOAD PUSH1 0xA0 ADD MLOAD DUP1 MLOAD SWAP1 PUSH1 0x1 PUSH1 0x1 PUSH1 0x40 SHL SUB DUP3 GT PUSH2 0x2012 JUMPI DUP2 SWAP1 PUSH2 0x1810 PUSH1 0x5 DUP6 ADD SLOAD PUSH2 0x3656 JUMP JUMPDEST PUSH1 0x1F DUP2 GT PUSH2 0x2333 JUMPI JUMPDEST POP PUSH1 0x20 SWAP1 PUSH1 0x1 PUSH1 0x1F DUP5 GT EQ PUSH2 0x22BC JUMPI PUSH2 0x280 MLOAD SWAP3 PUSH2 0x22B1 JUMPI JUMPDEST POP POP DUP2 PUSH1 0x1 SHL SWAP2 PUSH1 0x0 NOT SWAP1 PUSH1 0x3 SHL SHR NOT AND OR PUSH1 0x5 DUP3 ADD SSTORE JUMPDEST PUSH2 0x1E0 MLOAD PUSH1 0xC0 ADD MLOAD DUP1 MLOAD SWAP1 PUSH1 0x1 PUSH1 0x1 PUSH1 0x40 SHL SUB DUP3 GT PUSH2 0x2012 JUMPI DUP2 SWAP1 PUSH2 0x1872 PUSH1 0x6 DUP6 ADD SLOAD PUSH2 0x3656 JUMP JUMPDEST PUSH1 0x1F DUP2 GT PUSH2 0x2258 JUMPI JUMPDEST POP PUSH1 0x20 SWAP1 PUSH1 0x1 PUSH1 0x1F DUP5 GT EQ PUSH2 0x21E1 JUMPI PUSH2 0x280 MLOAD SWAP3 PUSH2 0x21D6 JUMPI JUMPDEST POP POP DUP2 PUSH1 0x1 SHL SWAP2 PUSH1 0x0 NOT SWAP1 PUSH1 0x3 SHL SHR NOT AND OR PUSH1 0x6 DUP3 ADD SSTORE JUMPDEST PUSH2 0x1E0 MLOAD PUSH1 0xE0 ADD MLOAD DUP1 MLOAD SWAP1 PUSH1 0x1 PUSH1 0x1 PUSH1 0x40 SHL SUB DUP3 GT PUSH2 0x2012 JUMPI DUP2 SWAP1 PUSH2 0x18D4 PUSH1 0x7 DUP6 ADD SLOAD PUSH2 0x3656 JUMP JUMPDEST PUSH1 0x1F DUP2 GT PUSH2 0x217D JUMPI JUMPDEST POP PUSH1 0x20 SWAP1 PUSH1 0x1 PUSH1 0x1F DUP5 GT EQ PUSH2 0x2106 JUMPI PUSH2 0x280 MLOAD SWAP3 PUSH2 0x20FB JUMPI JUMPDEST POP POP DUP2 PUSH1 0x1 SHL SWAP2 PUSH1 0x0 NOT SWAP1 PUSH1 0x3 SHL SHR NOT AND OR PUSH1 0x7 DUP3 ADD SSTORE JUMPDEST PUSH2 0x1E0 MLOAD PUSH2 0x100 ADD MLOAD DUP1 MLOAD SWAP2 SWAP1 PUSH1 0x1 PUSH1 0x1 PUSH1 0x40 SHL SUB DUP4 GT PUSH2 0x2012 JUMPI PUSH2 0x1936 PUSH1 0x8 DUP4 ADD SLOAD PUSH2 0x3656 JUMP JUMPDEST PUSH1 0x1F DUP2 GT PUSH2 0x20AE JUMPI JUMPDEST POP PUSH1 0x20 SWAP1 PUSH1 0x1 PUSH1 0x1F DUP6 GT EQ PUSH2 0x2037 JUMPI SWAP3 DUP1 SWAP2 PUSH1 0x13 SWAP5 PUSH2 0x280 MLOAD SWAP3 PUSH2 0x202C JUMPI JUMPDEST POP POP DUP2 PUSH1 0x1 SHL SWAP2 PUSH1 0x0 NOT SWAP1 PUSH1 0x3 SHL SHR NOT AND OR PUSH1 0x8 DUP3 ADD SSTORE JUMPDEST PUSH2 0x1E0 DUP1 MLOAD PUSH2 0x120 DUP2 ADD MLOAD PUSH1 0x9 DUP5 ADD DUP1 SLOAD PUSH1 0x1 PUSH1 0x1 PUSH1 0xA0 SHL SUB NOT SWAP1 DUP2 AND PUSH1 0x1 PUSH1 0x1 PUSH1 0xA0 SHL SUB SWAP4 DUP5 AND OR SWAP1 SWAP2 SSTORE PUSH2 0x140 DUP4 ADD MLOAD PUSH1 0xA DUP7 ADD SSTORE PUSH2 0x160 DUP4 ADD MLOAD PUSH1 0xB DUP7 ADD SSTORE PUSH2 0x180 DUP4 ADD MLOAD PUSH1 0xC DUP7 ADD SSTORE PUSH2 0x1A0 DUP4 ADD MLOAD PUSH1 0xD DUP7 ADD SSTORE PUSH2 0x1C0 DUP4 ADD MLOAD PUSH1 0xE DUP7 ADD DUP1 SLOAD SWAP6 DUP6 ADD MLOAD PUSH2 0xFF00 SWAP1 ISZERO ISZERO PUSH1 0x8 SHL AND PUSH2 0xFFFF NOT SWAP1 SWAP7 AND PUSH1 0xFF SWAP3 ISZERO ISZERO DUP4 AND OR SWAP6 SWAP1 SWAP6 OR SWAP1 SWAP5 SSTORE PUSH2 0x200 DUP4 ADD MLOAD PUSH1 0xF DUP7 ADD SSTORE PUSH2 0x220 DUP4 ADD MLOAD PUSH1 0x10 DUP7 ADD DUP1 SLOAD SWAP2 SWAP1 SWAP4 AND SWAP2 AND OR DUP2 SSTORE PUSH2 0x240 SWAP1 SWAP2 ADD MLOAD PUSH2 0x1A30 SWAP3 AND SWAP1 PUSH2 0x41C9 JUMP JUMPDEST PUSH2 0x260 PUSH2 0x1E0 MLOAD ADD MLOAD PUSH1 0x11 DUP3 ADD SSTORE PUSH1 0x12 DUP2 ADD PUSH2 0x1A62 PUSH2 0x280 PUSH2 0x1E0 MLOAD ADD MLOAD ISZERO ISZERO DUP3 SWAP1 PUSH1 0xFF DUP1 NOT DUP4 SLOAD AND SWAP2 ISZERO ISZERO AND OR SWAP1 SSTORE JUMP JUMPDEST PUSH2 0x2A0 PUSH2 0x1E0 MLOAD ADD MLOAD DUP2 SLOAD PUSH2 0xFF00 PUSH4 0xFFFF0000 PUSH2 0x2C0 PUSH2 0x1E0 MLOAD ADD MLOAD PUSH1 0x10 SHL AND SWAP3 PUSH1 0x8 SHL AND SWAP1 PUSH4 0xFFFFFF00 NOT AND OR OR DUP2 SSTORE PUSH2 0x1AA9 PUSH2 0xFFFF PUSH2 0x2E0 PUSH2 0x1E0 MLOAD ADD MLOAD AND DUP3 PUSH2 0x41E6 JUMP JUMPDEST PUSH2 0x1ABF PUSH2 0xFFFF PUSH2 0x300 PUSH2 0x1E0 MLOAD ADD MLOAD AND DUP3 PUSH2 0x4205 JUMP JUMPDEST PUSH2 0x320 PUSH2 0x1E0 MLOAD ADD MLOAD DUP2 SLOAD PUSH2 0xFFFF PUSH1 0x50 SHL PUSH2 0x340 PUSH2 0x1E0 MLOAD ADD MLOAD PUSH1 0x50 SHL AND SWAP1 PUSH1 0x1 DUP1 PUSH1 0x60 SHL SUB NOT PUSH2 0x360 PUSH2 0x1E0 MLOAD ADD MLOAD PUSH1 0x60 SHL AND SWAP3 PUSH2 0xFFFF PUSH1 0x40 SHL SWAP1 PUSH1 0x40 SHL AND SWAP1 PUSH1 0x1 DUP1 PUSH1 0x40 SHL SUB AND OR OR OR SWAP1 SSTORE ADD PUSH4 0xFFFFFFFF PUSH2 0x380 PUSH2 0x1E0 MLOAD ADD MLOAD AND PUSH4 0xFFFFFFFF NOT DUP3 SLOAD AND OR DUP2 SSTORE PUSH2 0x1B3F PUSH2 0xFFFF PUSH2 0x3A0 PUSH2 0x1E0 MLOAD ADD MLOAD AND DUP3 PUSH2 0x41E6 JUMP JUMPDEST PUSH2 0x1B55 PUSH2 0xFFFF PUSH2 0x3C0 PUSH2 0x1E0 MLOAD ADD MLOAD AND DUP3 PUSH2 0x4205 JUMP JUMPDEST PUSH2 0x1E0 MLOAD PUSH2 0x3E0 ADD MLOAD DUP2 SLOAD PUSH1 0x1 PUSH1 0x40 SHL PUSH1 0x1 PUSH1 0xE0 SHL SUB NOT AND PUSH1 0x40 SWAP2 SWAP1 SWAP2 SHL PUSH1 0x1 PUSH1 0x40 SHL PUSH1 0x1 PUSH1 0xE0 SHL SUB AND OR SWAP1 SSTORE PUSH1 0xF SLOAD PUSH1 0x1 PUSH1 0x40 SHL DUP2 LT ISZERO PUSH2 0x2012 JUMPI DUP1 PUSH1 0x1 PUSH2 0x1BA1 SWAP3 ADD PUSH1 0xF SSTORE PUSH2 0x3604 JUMP JUMPDEST DUP2 SLOAD PUSH2 0x1A0 MLOAD PUSH1 0x1 PUSH1 0x1 PUSH1 0xA0 SHL SUB SWAP1 DUP2 AND PUSH1 0x3 SWAP4 SWAP1 SWAP4 SHL DUP4 DUP2 SHL SWAP2 SWAP1 SHL NOT SWAP1 SWAP2 AND OR SWAP1 SWAP2 SSTORE PUSH2 0x280 DUP1 MLOAD SWAP2 SWAP1 SWAP2 MSTORE PUSH1 0xA PUSH1 0x20 MSTORE MLOAD PUSH1 0x40 SWAP1 KECCAK256 PUSH1 0xE ADD SLOAD PUSH1 0xFF AND PUSH2 0x1FFD JUMPI PUSH1 0x1 DUP1 PUSH1 0xA0 SHL SUB PUSH2 0x1A0 MLOAD AND PUSH2 0x280 MLOAD MSTORE PUSH1 0xE PUSH1 0x20 MSTORE PUSH1 0xFF PUSH1 0x40 PUSH2 0x280 MLOAD KECCAK256 SLOAD AND PUSH2 0x8EA JUMPI PUSH2 0x1A0 MLOAD PUSH2 0x280 DUP1 MLOAD PUSH1 0x1 PUSH1 0x1 PUSH1 0xA0 SHL SUB SWAP3 SWAP1 SWAP3 AND SWAP1 SWAP2 MSTORE PUSH1 0xB PUSH1 0x20 MSTORE MLOAD PUSH1 0x40 SWAP1 KECCAK256 CALLVALUE PUSH6 0x5AF3107A3FFF NOT ADD DUP1 ISZERO SWAP2 SWAP1 DUP1 DIV PUSH1 0x1 EQ DUP3 OR ISZERO PUSH2 0x881 JUMPI PUSH2 0x2710 CALLVALUE PUSH6 0x5AF3107A3FFF NOT ADD DIV SWAP2 PUSH1 0x1 OR ISZERO PUSH2 0x881 JUMPI PUSH2 0x1C73 DUP3 PUSH2 0x70E DUP2 CALLVALUE PUSH6 0x5AF3107A3FFF NOT ADD PUSH2 0x3821 JUMP JUMPDEST SWAP1 DUP2 ISZERO PUSH2 0x1FE8 JUMPI PUSH2 0x1C84 DUP3 DUP3 PUSH2 0x39C4 JUMP JUMPDEST SWAP3 PUSH2 0x1C91 PUSH2 0x1A0 MLOAD PUSH2 0x39F0 JUMP JUMPDEST SWAP2 DUP3 DUP6 GT PUSH2 0x1FD3 JUMPI PUSH2 0x1CED PUSH2 0x1CF6 SWAP3 PUSH2 0x1CAB DUP7 DUP5 SLOAD PUSH2 0x382E JUMP JUMPDEST DUP4 SSTORE PUSH2 0x1CBC PUSH1 0x2 DUP5 ADD SWAP7 DUP8 SLOAD PUSH2 0x382E JUMP JUMPDEST DUP7 SSTORE PUSH1 0x1 DUP4 ADD PUSH2 0x1CCD DUP9 DUP3 SLOAD PUSH2 0x3821 JUMP JUMPDEST SWAP1 SSTORE PUSH1 0x3 DUP4 ADD PUSH2 0x1CDE DUP9 DUP3 SLOAD PUSH2 0x3821 JUMP JUMPDEST SWAP1 SSTORE PUSH2 0x7DC DUP2 PUSH2 0x1A0 MLOAD PUSH2 0x3A26 JUMP JUMPDEST PUSH2 0x1A0 MLOAD PUSH2 0x3AD4 JUMP JUMPDEST PUSH1 0x1 DUP1 PUSH1 0xA0 SHL SUB PUSH2 0x1A0 MLOAD AND PUSH2 0x280 MLOAD MSTORE PUSH1 0xA PUSH1 0x20 MSTORE PUSH1 0xB PUSH1 0x40 PUSH2 0x280 MLOAD KECCAK256 ADD SLOAD PUSH1 0x40 MLOAD SWAP1 PUSH1 0x0 DUP1 MLOAD PUSH1 0x20 PUSH2 0x429C DUP4 CODECOPY DUP2 MLOAD SWAP2 MSTORE CALLER SWAP3 DUP1 PUSH2 0x1D4E PUSH1 0x1 DUP1 PUSH1 0xA0 SHL SUB PUSH2 0x1A0 MLOAD AND SWAP5 DUP10 PUSH6 0x5AF3107A3FFF NOT CALLVALUE ADD DUP5 PUSH2 0x383B JUMP JUMPDEST SUB SWAP1 LOG3 PUSH2 0x280 MLOAD PUSH2 0x124 CALLDATALOAD PUSH1 0xFF AND PUSH1 0x1 SUB PUSH2 0x1F79 JUMPI POP PUSH3 0x76A700 TIMESTAMP ADD DUP1 TIMESTAMP GT PUSH2 0x881 JUMPI JUMPDEST PUSH1 0x1 DUP1 PUSH1 0xA0 SHL SUB PUSH2 0x1A0 MLOAD AND PUSH2 0x280 MLOAD MSTORE PUSH1 0xA PUSH1 0x20 MSTORE PUSH2 0x1D9E PUSH2 0x124 CALLDATALOAD PUSH1 0x10 PUSH1 0x40 PUSH2 0x280 MLOAD KECCAK256 ADD PUSH2 0x41C9 JUMP JUMPDEST PUSH1 0x1 DUP1 PUSH1 0xA0 SHL SUB PUSH2 0x1A0 MLOAD AND PUSH2 0x280 MLOAD MSTORE PUSH1 0xA PUSH1 0x20 MSTORE PUSH1 0x11 PUSH1 0x40 PUSH2 0x280 MLOAD KECCAK256 ADD SSTORE PUSH1 0xFF PUSH2 0x124 CALLDATALOAD AND ISZERO PUSH1 0x0 EQ PUSH2 0x1F4C JUMPI PUSH1 0x40 MLOAD PUSH4 0x70A08231 PUSH1 0xE0 SHL DUP2 MSTORE CALLER PUSH1 0x4 DUP3 ADD MSTORE PUSH2 0x1A0 MLOAD PUSH1 0x20 SWAP1 DUP3 SWAP1 PUSH1 0x24 SWAP1 DUP3 SWAP1 PUSH1 0x1 PUSH1 0x1 PUSH1 0xA0 SHL SUB AND GAS STATICCALL DUP1 ISZERO PUSH2 0x85E JUMPI PUSH2 0x280 MLOAD DUP6 SWAP2 PUSH2 0x1F16 JUMPI JUMPDEST PUSH2 0x1E15 SWAP3 POP PUSH2 0x382E JUMP JUMPDEST GT PUSH2 0x1F01 JUMPI PUSH1 0x20 PUSH2 0x1E3B SWAP3 PUSH1 0x40 MLOAD DUP1 SWAP5 DUP2 SWAP3 PUSH4 0xA9059CBB PUSH1 0xE0 SHL DUP4 MSTORE CALLER PUSH1 0x4 DUP5 ADD PUSH2 0x378D JUMP JUMPDEST SUB DUP2 PUSH2 0x280 MLOAD PUSH1 0x1 DUP1 PUSH1 0xA0 SHL SUB PUSH2 0x1A0 MLOAD AND GAS CALL SWAP2 DUP3 ISZERO PUSH2 0x85E JUMPI PUSH7 0x1C6BF52634000 SWAP3 PUSH2 0x1EE2 JUMPI JUMPDEST POP JUMPDEST SLOAD LT ISZERO PUSH2 0x1ED1 JUMPI JUMPDEST PUSH1 0x40 MLOAD TIMESTAMP DUP2 MSTORE PUSH2 0x180 MLOAD ISZERO ISZERO PUSH1 0x20 DUP3 ADD MSTORE CALLER SWAP1 PUSH32 0x8438A250F24DE47EA660398D999B122ABDDFD10D0A6702AFC0BB5F33B5DBEDF PUSH1 0x40 PUSH1 0x1 DUP1 PUSH1 0xA0 SHL SUB PUSH2 0x1A0 MLOAD AND SWAP3 LOG3 PUSH2 0x280 MLOAD PUSH1 0x1 SWAP1 SSTORE PUSH1 0x40 MLOAD PUSH2 0x1A0 MLOAD PUSH1 0x1 PUSH1 0x1 PUSH1 0xA0 SHL SUB AND DUP2 MSTORE PUSH1 0x20 SWAP1 RETURN JUMPDEST PUSH2 0x1EDD PUSH2 0x1A0 MLOAD PUSH2 0x3B2E JUMP JUMPDEST PUSH2 0x1E6E JUMP JUMPDEST PUSH2 0x1EFA SWAP1 PUSH1 0x20 RETURNDATASIZE PUSH1 0x20 GT PUSH2 0x857 JUMPI PUSH2 0x84A DUP2 DUP4 PUSH2 0x3569 JUMP JUMPDEST POP DUP3 PUSH2 0x1E64 JUMP JUMPDEST PUSH4 0x3C190CCD PUSH1 0xE0 SHL PUSH2 0x280 MLOAD MSTORE PUSH1 0x4 PUSH2 0x280 MLOAD REVERT JUMPDEST POP POP PUSH1 0x20 DUP2 RETURNDATASIZE PUSH1 0x20 GT PUSH2 0x1F44 JUMPI JUMPDEST DUP2 PUSH2 0x1F31 PUSH1 0x20 SWAP4 DUP4 PUSH2 0x3569 JUMP JUMPDEST DUP2 ADD SUB SLT PUSH2 0x8DD JUMPI DUP4 PUSH2 0x1E15 SWAP2 MLOAD PUSH2 0x1E0B JUMP JUMPDEST RETURNDATASIZE SWAP2 POP PUSH2 0x1F24 JUMP JUMPDEST POP PUSH7 0x1C6BF52634000 SWAP2 PUSH1 0x1 DUP1 PUSH1 0xA0 SHL SUB PUSH2 0x1A0 MLOAD AND PUSH2 0x280 MLOAD MSTORE PUSH1 0xD PUSH1 0x20 MSTORE PUSH1 0x40 PUSH2 0x280 MLOAD KECCAK256 SSTORE PUSH2 0x1E66 JUMP JUMPDEST PUSH2 0x124 CALLDATALOAD PUSH1 0xFF AND PUSH1 0x2 SUB PUSH2 0x1F9B JUMPI POP PUSH3 0xED4E00 TIMESTAMP ADD DUP1 TIMESTAMP GT PUSH2 0x881 JUMPI JUMPDEST PUSH2 0x1D72 JUMP JUMPDEST PUSH1 0x3 PUSH1 0xFF PUSH2 0x124 CALLDATALOAD AND SUB PUSH2 0x1D72 JUMPI POP PUSH4 0x1E13380 TIMESTAMP ADD DUP1 TIMESTAMP GT ISZERO PUSH2 0x1F96 JUMPI PUSH4 0x4E487B71 PUSH1 0xE0 SHL PUSH2 0x280 MLOAD MSTORE PUSH1 0x11 PUSH1 0x4 MSTORE PUSH1 0x24 PUSH2 0x280 MLOAD REVERT JUMPDEST PUSH4 0x1C7EB2D7 PUSH1 0xE3 SHL PUSH2 0x280 MLOAD MSTORE PUSH1 0x4 PUSH2 0x280 MLOAD REVERT JUMPDEST PUSH4 0xBBF1E3C1 PUSH1 0xE0 SHL PUSH2 0x280 MLOAD MSTORE PUSH1 0x4 PUSH2 0x280 MLOAD REVERT JUMPDEST PUSH4 0xE6A0D45F PUSH1 0xE0 SHL PUSH2 0x280 MLOAD MSTORE PUSH1 0x4 PUSH2 0x280 MLOAD REVERT JUMPDEST PUSH4 0x4E487B71 PUSH1 0xE0 SHL PUSH2 0x280 MLOAD MSTORE PUSH1 0x41 PUSH1 0x4 MSTORE PUSH1 0x24 PUSH2 0x280 MLOAD REVERT JUMPDEST ADD MLOAD SWAP1 POP DUP5 DUP1 PUSH2 0x195E JUMP JUMPDEST SWAP1 PUSH1 0x8 DUP4 ADD PUSH2 0x280 MLOAD MSTORE DUP1 PUSH2 0x280 MLOAD KECCAK256 SWAP2 PUSH2 0x280 MLOAD JUMPDEST PUSH1 0x1F NOT DUP7 AND DUP2 LT PUSH2 0x2096 JUMPI POP SWAP2 DUP5 SWAP2 PUSH1 0x1 SWAP4 PUSH1 0x13 SWAP7 PUSH1 0x1F NOT DUP2 AND LT PUSH2 0x207D JUMPI JUMPDEST POP POP POP DUP2 SHL ADD PUSH1 0x8 DUP3 ADD SSTORE PUSH2 0x1976 JUMP JUMPDEST ADD MLOAD PUSH1 0x0 NOT PUSH1 0xF8 DUP5 PUSH1 0x3 SHL AND SHR NOT AND SWAP1 SSTORE DUP5 DUP1 DUP1 PUSH2 0x206D JUMP JUMPDEST SWAP2 SWAP3 PUSH1 0x20 PUSH1 0x1 DUP2 SWAP3 DUP7 DUP6 ADD MLOAD DUP2 SSTORE ADD SWAP5 ADD SWAP3 ADD PUSH2 0x204D JUMP JUMPDEST PUSH1 0x8 DUP4 ADD PUSH2 0x280 MLOAD MSTORE PUSH1 0x20 PUSH2 0x280 MLOAD KECCAK256 PUSH1 0x1F DUP6 ADD PUSH1 0x5 SHR DUP2 ADD PUSH1 0x20 DUP7 LT PUSH2 0x20F4 JUMPI JUMPDEST PUSH1 0x1F DUP4 ADD PUSH1 0x5 SHR DUP3 ADD DUP2 LT PUSH2 0x20E6 JUMPI POP POP PUSH2 0x193F JUMP JUMPDEST PUSH2 0x280 MLOAD DUP2 SSTORE PUSH1 0x1 ADD PUSH2 0x20D0 JUMP JUMPDEST POP DUP1 PUSH2 0x20D0 JUMP JUMPDEST ADD MLOAD SWAP1 POP DUP4 DUP1 PUSH2 0x18F6 JUMP JUMPDEST SWAP3 POP PUSH1 0x7 DUP5 ADD PUSH2 0x280 MLOAD MSTORE DUP1 PUSH2 0x280 MLOAD KECCAK256 SWAP1 PUSH2 0x280 MLOAD SWAP4 JUMPDEST PUSH1 0x1F NOT DUP5 AND DUP6 LT PUSH2 0x2162 JUMPI PUSH1 0x1 SWAP5 POP DUP4 PUSH1 0x1F NOT DUP2 AND LT PUSH2 0x2149 JUMPI JUMPDEST POP POP POP DUP2 SHL ADD PUSH1 0x7 DUP3 ADD SSTORE PUSH2 0x190E JUMP JUMPDEST ADD MLOAD PUSH1 0x0 NOT PUSH1 0xF8 DUP5 PUSH1 0x3 SHL AND SHR NOT AND SWAP1 SSTORE DUP4 DUP1 DUP1 PUSH2 0x2139 JUMP JUMPDEST DUP2 DUP2 ADD MLOAD DUP4 SSTORE PUSH1 0x20 SWAP5 DUP6 ADD SWAP5 PUSH1 0x1 SWAP1 SWAP4 ADD SWAP3 SWAP1 SWAP2 ADD SWAP1 PUSH2 0x211E JUMP JUMPDEST SWAP1 SWAP2 POP PUSH1 0x7 DUP5 ADD PUSH2 0x280 MLOAD MSTORE PUSH1 0x20 PUSH2 0x280 MLOAD KECCAK256 PUSH1 0x1F DUP5 ADD PUSH1 0x5 SHR DUP2 ADD PUSH1 0x20 DUP6 LT PUSH2 0x21CF JUMPI JUMPDEST SWAP1 DUP5 SWAP4 SWAP3 SWAP2 JUMPDEST PUSH1 0x1F DUP4 ADD PUSH1 0x5 SHR DUP3 ADD DUP2 LT PUSH2 0x21BE JUMPI POP POP PUSH2 0x18DD JUMP JUMPDEST PUSH2 0x280 MLOAD DUP2 SSTORE DUP6 SWAP5 POP PUSH1 0x1 ADD PUSH2 0x21A8 JUMP JUMPDEST POP DUP1 PUSH2 0x21A2 JUMP JUMPDEST ADD MLOAD SWAP1 POP DUP4 DUP1 PUSH2 0x1894 JUMP JUMPDEST SWAP3 POP PUSH1 0x6 DUP5 ADD PUSH2 0x280 MLOAD MSTORE DUP1 PUSH2 0x280 MLOAD KECCAK256 SWAP1 PUSH2 0x280 MLOAD SWAP4 JUMPDEST PUSH1 0x1F NOT DUP5 AND DUP6 LT PUSH2 0x223D JUMPI PUSH1 0x1 SWAP5 POP DUP4 PUSH1 0x1F NOT DUP2 AND LT PUSH2 0x2224 JUMPI JUMPDEST POP POP POP DUP2 SHL ADD PUSH1 0x6 DUP3 ADD SSTORE PUSH2 0x18AC JUMP JUMPDEST ADD MLOAD PUSH1 0x0 NOT PUSH1 0xF8 DUP5 PUSH1 0x3 SHL AND SHR NOT AND SWAP1 SSTORE DUP4 DUP1 DUP1 PUSH2 0x2214 JUMP JUMPDEST DUP2 DUP2 ADD MLOAD DUP4 SSTORE PUSH1 0x20 SWAP5 DUP6 ADD SWAP5 PUSH1 0x1 SWAP1 SWAP4 ADD SWAP3 SWAP1 SWAP2 ADD SWAP1 PUSH2 0x21F9 JUMP JUMPDEST SWAP1 SWAP2 POP PUSH1 0x6 DUP5 ADD PUSH2 0x280 MLOAD MSTORE PUSH1 0x20 PUSH2 0x280 MLOAD KECCAK256 PUSH1 0x1F DUP5 ADD PUSH1 0x5 SHR DUP2 ADD PUSH1 0x20 DUP6 LT PUSH2 0x22AA JUMPI JUMPDEST SWAP1 DUP5 SWAP4 SWAP3 SWAP2 JUMPDEST PUSH1 0x1F DUP4 ADD PUSH1 0x5 SHR DUP3 ADD DUP2 LT PUSH2 0x2299 JUMPI POP POP PUSH2 0x187B JUMP JUMPDEST PUSH2 0x280 MLOAD DUP2 SSTORE DUP6 SWAP5 POP PUSH1 0x1 ADD PUSH2 0x2283 JUMP JUMPDEST POP DUP1 PUSH2 0x227D JUMP JUMPDEST ADD MLOAD SWAP1 POP DUP4 DUP1 PUSH2 0x1832 JUMP JUMPDEST SWAP3 POP PUSH1 0x5 DUP5 ADD PUSH2 0x280 MLOAD MSTORE DUP1 PUSH2 0x280 MLOAD KECCAK256 SWAP1 PUSH2 0x280 MLOAD SWAP4 JUMPDEST PUSH1 0x1F NOT DUP5 AND DUP6 LT PUSH2 0x2318 JUMPI PUSH1 0x1 SWAP5 POP DUP4 PUSH1 0x1F NOT DUP2 AND LT PUSH2 0x22FF JUMPI JUMPDEST POP POP POP DUP2 SHL ADD PUSH1 0x5 DUP3 ADD SSTORE PUSH2 0x184A JUMP JUMPDEST ADD MLOAD PUSH1 0x0 NOT PUSH1 0xF8 DUP5 PUSH1 0x3 SHL AND SHR NOT AND SWAP1 SSTORE DUP4 DUP1 DUP1 PUSH2 0x22EF JUMP JUMPDEST DUP2 DUP2 ADD MLOAD DUP4 SSTORE PUSH1 0x20 SWAP5 DUP6 ADD SWAP5 PUSH1 0x1 SWAP1 SWAP4 ADD SWAP3 SWAP1 SWAP2 ADD SWAP1 PUSH2 0x22D4 JUMP JUMPDEST SWAP1 SWAP2 POP PUSH1 0x5 DUP5 ADD PUSH2 0x280 MLOAD MSTORE PUSH1 0x20 PUSH2 0x280 MLOAD KECCAK256 PUSH1 0x1F DUP5 ADD PUSH1 0x5 SHR DUP2 ADD PUSH1 0x20 DUP6 LT PUSH2 0x2385 JUMPI JUMPDEST SWAP1 DUP5 SWAP4 SWAP3 SWAP2 JUMPDEST PUSH1 0x1F DUP4 ADD PUSH1 0x5 SHR DUP3 ADD DUP2 LT PUSH2 0x2374 JUMPI POP POP PUSH2 0x1819 JUMP JUMPDEST PUSH2 0x280 MLOAD DUP2 SSTORE DUP6 SWAP5 POP PUSH1 0x1 ADD PUSH2 0x235E JUMP JUMPDEST POP DUP1 PUSH2 0x2358 JUMP JUMPDEST ADD MLOAD SWAP1 POP DUP4 DUP1 PUSH2 0x17D0 JUMP JUMPDEST SWAP3 POP PUSH1 0x4 DUP5 ADD PUSH2 0x280 MLOAD MSTORE DUP1 PUSH2 0x280 MLOAD KECCAK256 SWAP1 PUSH2 0x280 MLOAD SWAP4 JUMPDEST PUSH1 0x1F NOT DUP5 AND DUP6 LT PUSH2 0x23F3 JUMPI PUSH1 0x1 SWAP5 POP DUP4 PUSH1 0x1F NOT DUP2 AND LT PUSH2 0x23DA JUMPI JUMPDEST POP POP POP DUP2 SHL ADD PUSH1 0x4 DUP3 ADD SSTORE PUSH2 0x17E8 JUMP JUMPDEST ADD MLOAD PUSH1 0x0 NOT PUSH1 0xF8 DUP5 PUSH1 0x3 SHL AND SHR NOT AND SWAP1 SSTORE DUP4 DUP1 DUP1 PUSH2 0x23CA JUMP JUMPDEST DUP2 DUP2 ADD MLOAD DUP4 SSTORE PUSH1 0x20 SWAP5 DUP6 ADD SWAP5 PUSH1 0x1 SWAP1 SWAP4 ADD SWAP3 SWAP1 SWAP2 ADD SWAP1 PUSH2 0x23AF JUMP JUMPDEST SWAP1 SWAP2 POP PUSH1 0x4 DUP5 ADD PUSH2 0x280 MLOAD MSTORE PUSH1 0x20 PUSH2 0x280 MLOAD KECCAK256 PUSH1 0x1F DUP5 ADD PUSH1 0x5 SHR DUP2 ADD PUSH1 0x20 DUP6 LT PUSH2 0x2460 JUMPI JUMPDEST SWAP1 DUP5 SWAP4 SWAP3 SWAP2 JUMPDEST PUSH1 0x1F DUP4 ADD PUSH1 0x5 SHR DUP3 ADD DUP2 LT PUSH2 0x244F JUMPI POP POP PUSH2 0x17B7 JUMP JUMPDEST PUSH2 0x280 MLOAD DUP2 SSTORE DUP6 SWAP5 POP PUSH1 0x1 ADD PUSH2 0x2439 JUMP JUMPDEST POP DUP1 PUSH2 0x2433 JUMP JUMPDEST ADD MLOAD SWAP1 POP DUP4 DUP1 PUSH2 0x176E JUMP JUMPDEST SWAP3 POP PUSH1 0x3 DUP5 ADD PUSH2 0x280 MLOAD MSTORE DUP1 PUSH2 0x280 MLOAD KECCAK256 SWAP1 PUSH2 0x280 MLOAD SWAP4 JUMPDEST PUSH1 0x1F NOT DUP5 AND DUP6 LT PUSH2 0x24CE JUMPI PUSH1 0x1 SWAP5 POP DUP4 PUSH1 0x1F NOT DUP2 AND LT PUSH2 0x24B5 JUMPI JUMPDEST POP POP POP DUP2 SHL ADD PUSH1 0x3 DUP3 ADD SSTORE PUSH2 0x1786 JUMP JUMPDEST ADD MLOAD PUSH1 0x0 NOT PUSH1 0xF8 DUP5 PUSH1 0x3 SHL AND SHR NOT AND SWAP1 SSTORE DUP4 DUP1 DUP1 PUSH2 0x24A5 JUMP JUMPDEST DUP2 DUP2 ADD MLOAD DUP4 SSTORE PUSH1 0x20 SWAP5 DUP6 ADD SWAP5 PUSH1 0x1 SWAP1 SWAP4 ADD SWAP3 SWAP1 SWAP2 ADD SWAP1 PUSH2 0x248A JUMP JUMPDEST SWAP1 SWAP2 POP PUSH1 0x3 DUP5 ADD PUSH2 0x280 MLOAD MSTORE PUSH1 0x20 PUSH2 0x280 MLOAD KECCAK256 PUSH1 0x1F DUP5 ADD PUSH1 0x5 SHR DUP2 ADD PUSH1 0x20 DUP6 LT PUSH2 0x253B JUMPI JUMPDEST SWAP1 DUP5 SWAP4 SWAP3 SWAP2 JUMPDEST PUSH1 0x1F DUP4 ADD PUSH1 0x5 SHR DUP3 ADD DUP2 LT PUSH2 0x252A JUMPI POP POP PUSH2 0x1755 JUMP JUMPDEST PUSH2 0x280 MLOAD DUP2 SSTORE DUP6 SWAP5 POP PUSH1 0x1 ADD PUSH2 0x2514 JUMP JUMPDEST POP DUP1 PUSH2 0x250E JUMP JUMPDEST ADD MLOAD SWAP1 POP DUP4 DUP1 PUSH2 0x170C JUMP JUMPDEST SWAP3 POP PUSH1 0x2 DUP5 ADD PUSH2 0x280 MLOAD MSTORE DUP1 PUSH2 0x280 MLOAD KECCAK256 SWAP1 PUSH2 0x280 MLOAD SWAP4 JUMPDEST PUSH1 0x1F NOT DUP5 AND DUP6 LT PUSH2 0x25A9 JUMPI PUSH1 0x1 SWAP5 POP DUP4 PUSH1 0x1F NOT DUP2 AND LT PUSH2 0x2590 JUMPI JUMPDEST POP POP POP DUP2 SHL ADD PUSH1 0x2 DUP3 ADD SSTORE PUSH2 0x1724 JUMP JUMPDEST ADD MLOAD PUSH1 0x0 NOT PUSH1 0xF8 DUP5 PUSH1 0x3 SHL AND SHR NOT AND SWAP1 SSTORE DUP4 DUP1 DUP1 PUSH2 0x2580 JUMP JUMPDEST DUP2 DUP2 ADD MLOAD DUP4 SSTORE PUSH1 0x20 SWAP5 DUP6 ADD SWAP5 PUSH1 0x1 SWAP1 SWAP4 ADD SWAP3 SWAP1 SWAP2 ADD SWAP1 PUSH2 0x2565 JUMP JUMPDEST SWAP1 SWAP2 POP PUSH1 0x2 DUP5 ADD PUSH2 0x280 MLOAD MSTORE PUSH1 0x20 PUSH2 0x280 MLOAD KECCAK256 PUSH1 0x1F DUP5 ADD PUSH1 0x5 SHR DUP2 ADD PUSH1 0x20 DUP6 LT PUSH2 0x2616 JUMPI JUMPDEST SWAP1 DUP5 SWAP4 SWAP3 SWAP2 JUMPDEST PUSH1 0x1F DUP4 ADD PUSH1 0x5 SHR DUP3 ADD DUP2 LT PUSH2 0x2605 JUMPI POP POP PUSH2 0x16F3 JUMP JUMPDEST PUSH2 0x280 MLOAD DUP2 SSTORE DUP6 SWAP5 POP PUSH1 0x1 ADD PUSH2 0x25EF JUMP JUMPDEST POP DUP1 PUSH2 0x25E9 JUMP JUMPDEST ADD MLOAD SWAP1 POP DUP4 DUP1 PUSH2 0x16AA JUMP JUMPDEST SWAP3 POP PUSH1 0x1 DUP5 ADD PUSH2 0x280 MLOAD MSTORE DUP1 PUSH2 0x280 MLOAD KECCAK256 SWAP1 PUSH2 0x280 MLOAD SWAP4 JUMPDEST PUSH1 0x1F NOT DUP5 AND DUP6 LT PUSH2 0x2684 JUMPI PUSH1 0x1 SWAP5 POP DUP4 PUSH1 0x1F NOT DUP2 AND LT PUSH2 0x266B JUMPI JUMPDEST POP POP POP DUP2 SHL ADD PUSH1 0x1 DUP3 ADD SSTORE PUSH2 0x16C2 JUMP JUMPDEST ADD MLOAD PUSH1 0x0 NOT PUSH1 0xF8 DUP5 PUSH1 0x3 SHL AND SHR NOT AND SWAP1 SSTORE DUP4 DUP1 DUP1 PUSH2 0x265B JUMP JUMPDEST DUP2 DUP2 ADD MLOAD DUP4 SSTORE PUSH1 0x20 SWAP5 DUP6 ADD SWAP5 PUSH1 0x1 SWAP1 SWAP4 ADD SWAP3 SWAP1 SWAP2 ADD SWAP1 PUSH2 0x2640 JUMP JUMPDEST SWAP1 SWAP2 POP PUSH1 0x1 DUP5 ADD PUSH2 0x280 MLOAD MSTORE PUSH1 0x20 PUSH2 0x280 MLOAD KECCAK256 PUSH1 0x1F DUP5 ADD PUSH1 0x5 SHR DUP2 ADD PUSH1 0x20 DUP6 LT PUSH2 0x26F1 JUMPI JUMPDEST SWAP1 DUP5 SWAP4 SWAP3 SWAP2 JUMPDEST PUSH1 0x1F DUP4 ADD PUSH1 0x5 SHR DUP3 ADD DUP2 LT PUSH2 0x26E0 JUMPI POP POP PUSH2 0x1691 JUMP JUMPDEST PUSH2 0x280 MLOAD DUP2 SSTORE DUP6 SWAP5 POP PUSH1 0x1 ADD PUSH2 0x26CA JUMP JUMPDEST POP DUP1 PUSH2 0x26C4 JUMP JUMPDEST PUSH4 0x1E13380 TIMESTAMP ADD TIMESTAMP GT PUSH2 0x881 JUMPI PUSH4 0x1E13380 TIMESTAMP ADD SWAP1 PUSH2 0x139E JUMP JUMPDEST PUSH2 0x272A SWAP1 PUSH1 0x20 RETURNDATASIZE PUSH1 0x20 GT PUSH2 0x857 JUMPI PUSH2 0x84A DUP2 DUP4 PUSH2 0x3569 JUMP JUMPDEST PUSH2 0x1307 JUMP JUMPDEST PUSH1 0x1 DUP1 PUSH1 0xA0 SHL SUB PUSH2 0x1A0 MLOAD AND PUSH2 0x280 MLOAD MSTORE PUSH1 0xC PUSH1 0x20 MSTORE PUSH11 0xA56FA5B99019A5C8000000 PUSH1 0x40 PUSH2 0x280 MLOAD KECCAK256 SSTORE PUSH2 0x134E JUMP JUMPDEST PUSH2 0x280 MLOAD PUSH2 0x276B SWAP2 PUSH2 0x3569 JUMP JUMPDEST PUSH2 0x280 MLOAD PUSH2 0x262 JUMPI DUP4 PUSH2 0x12B0 JUMP JUMPDEST PUSH2 0x279A SWAP1 PUSH1 0x20 RETURNDATASIZE PUSH1 0x20 GT PUSH2 0x27A4 JUMPI JUMPDEST PUSH2 0x2792 DUP2 DUP4 PUSH2 0x3569 JUMP JUMPDEST DUP2 ADD SWAP1 PUSH2 0x390B JUMP JUMPDEST PUSH2 0x1A0 MSTORE DUP4 PUSH2 0x11AD JUMP JUMPDEST POP RETURNDATASIZE PUSH2 0x2788 JUMP JUMPDEST PUSH4 0x750F259D PUSH1 0xE0 SHL PUSH2 0x280 MLOAD MSTORE PUSH1 0x4 PUSH2 0x280 MLOAD REVERT JUMPDEST PUSH1 0x8 SLOAD PUSH6 0x5AF3107A4000 DUP2 ADD SWAP1 DUP2 LT PUSH2 0x881 JUMPI PUSH1 0x8 SSTORE PUSH2 0x112D JUMP JUMPDEST PUSH4 0x8D86E80F PUSH1 0xE0 SHL PUSH2 0x280 MLOAD MSTORE PUSH1 0x4 PUSH2 0x280 MLOAD REVERT JUMPDEST POP PUSH2 0xFFFF PUSH2 0x27FC PUSH2 0x38BD JUMP JUMPDEST AND ISZERO ISZERO PUSH2 0x10E9 JUMP JUMPDEST POP PUSH3 0x15180 PUSH4 0xFFFFFFFF PUSH2 0x2816 PUSH2 0x38F7 JUMP JUMPDEST AND EQ ISZERO PUSH2 0x10D0 JUMP JUMPDEST PUSH4 0xC564667 PUSH1 0xE3 SHL PUSH2 0x280 MLOAD MSTORE PUSH1 0x4 PUSH2 0x280 MLOAD REVERT JUMPDEST POP PUSH1 0xFF PUSH2 0x283E PUSH2 0x38E6 JUMP JUMPDEST AND ISZERO ISZERO PUSH2 0x10B6 JUMP JUMPDEST POP PUSH1 0x1 PUSH1 0xFF PUSH2 0x2853 PUSH2 0x38E6 JUMP JUMPDEST AND GT PUSH2 0x10AB JUMP JUMPDEST PUSH2 0x2710 PUSH2 0x289A PUSH2 0x288F PUSH2 0x2884 PUSH2 0xFFFF PUSH2 0x2871 PUSH2 0x3863 JUMP JUMPDEST AND PUSH2 0xFFFF PUSH2 0x287D PUSH2 0x3875 JUMP JUMPDEST AND SWAP1 PUSH2 0x382E JUMP JUMPDEST PUSH2 0xFFFF PUSH2 0x287D PUSH2 0x3887 JUMP JUMPDEST PUSH2 0xFFFF PUSH2 0x287D PUSH2 0x3899 JUMP JUMPDEST SUB PUSH2 0x2919 JUMPI PUSH2 0xFFFF PUSH2 0x28AA PUSH2 0x3863 JUMP JUMPDEST AND ISZERO ISZERO DUP1 PUSH2 0x2901 JUMPI JUMPDEST PUSH2 0x28EC JUMPI PUSH2 0xFFFF PUSH2 0x28C2 PUSH2 0x3887 JUMP JUMPDEST AND ISZERO ISZERO DUP1 PUSH2 0x28E5 JUMPI JUMPDEST ISZERO PUSH2 0x10A5 JUMPI PUSH4 0xC564667 PUSH1 0xE3 SHL PUSH2 0x280 MLOAD MSTORE PUSH1 0x4 PUSH2 0x280 MLOAD REVERT JUMPDEST POP DUP2 PUSH2 0x28CB JUMP JUMPDEST PUSH4 0x2979EB9 PUSH1 0xE3 SHL PUSH2 0x280 MLOAD MSTORE PUSH1 0x4 PUSH2 0x280 MLOAD REVERT JUMPDEST POP PUSH1 0x1 PUSH1 0x1 PUSH1 0xA0 SHL SUB PUSH2 0x2912 PUSH2 0x38CF JUMP JUMPDEST AND ISZERO PUSH2 0x28B3 JUMP JUMPDEST PUSH4 0xAFF1D87B PUSH1 0xE0 SHL PUSH2 0x280 MLOAD MSTORE PUSH1 0x4 PUSH2 0x280 MLOAD REVERT JUMPDEST PUSH4 0x7C39A24D PUSH1 0xE0 SHL PUSH2 0x280 MLOAD MSTORE PUSH1 0x4 PUSH2 0x280 MLOAD REVERT JUMPDEST PUSH4 0x52EDD3BF PUSH1 0xE0 SHL PUSH2 0x280 MLOAD MSTORE PUSH1 0x4 PUSH2 0x280 MLOAD REVERT JUMPDEST PUSH1 0x9 SLOAD PUSH6 0x5AF3107A4000 DUP2 LT PUSH2 0x298E JUMPI JUMPDEST CALLVALUE PUSH6 0x5AF3107A3FFF NOT ADD LT ISZERO PUSH2 0x1072 JUMPI PUSH4 0xAE0F6505 PUSH1 0xE0 SHL PUSH2 0x280 MLOAD MSTORE PUSH1 0x4 PUSH2 0x280 MLOAD REVERT JUMPDEST POP PUSH6 0x5AF3107A4000 PUSH2 0x2969 JUMP JUMPDEST PUSH4 0x44044A5 PUSH1 0xE2 SHL PUSH2 0x280 MLOAD MSTORE PUSH1 0x4 PUSH2 0x280 MLOAD REVERT JUMPDEST PUSH4 0x21C4E357 PUSH1 0xE2 SHL PUSH2 0x280 MLOAD MSTORE PUSH1 0x4 PUSH2 0x280 MLOAD REVERT JUMPDEST CALLVALUE PUSH2 0x262 JUMPI PUSH2 0x280 MLOAD CALLDATASIZE PUSH1 0x3 NOT ADD SLT PUSH2 0x262 JUMPI PUSH1 0x0 DUP1 MLOAD PUSH1 0x20 PUSH2 0x42BC DUP4 CODECOPY DUP2 MLOAD SWAP2 MSTORE SLOAD PUSH1 0x40 MLOAD PUSH1 0x1 PUSH1 0x1 PUSH1 0xA0 SHL SUB SWAP1 SWAP2 AND DUP2 MSTORE PUSH1 0x20 SWAP1 RETURN JUMPDEST CALLVALUE PUSH2 0x262 JUMPI PUSH2 0x280 MLOAD CALLDATASIZE PUSH1 0x3 NOT ADD SLT PUSH2 0x262 JUMPI PUSH1 0x20 PUSH1 0x8 SLOAD PUSH1 0x40 MLOAD SWAP1 DUP2 MSTORE RETURN JUMPDEST CALLVALUE PUSH2 0x262 JUMPI PUSH1 0x20 CALLDATASIZE PUSH1 0x3 NOT ADD SLT PUSH2 0x262 JUMPI PUSH2 0x2A36 PUSH2 0x3537 JUMP JUMPDEST PUSH1 0x1 PUSH2 0x280 MLOAD SLOAD SUB PUSH2 0x929 JUMPI PUSH2 0x280 DUP1 MLOAD PUSH1 0x2 DUP2 SSTORE PUSH1 0x1 PUSH1 0x1 PUSH1 0xA0 SHL SUB SWAP3 DUP4 AND SWAP1 DUP2 SWAP1 MSTORE PUSH1 0xA PUSH1 0x20 MSTORE SWAP1 MLOAD PUSH1 0x40 SWAP1 KECCAK256 PUSH1 0x9 ADD SLOAD SWAP1 SWAP2 AND CALLER SUB PUSH2 0x2B8C JUMPI DUP1 PUSH2 0x280 MLOAD MSTORE PUSH1 0xA PUSH1 0x20 MSTORE PUSH1 0x11 PUSH1 0x40 PUSH2 0x280 MLOAD KECCAK256 ADD SLOAD DUP1 ISZERO PUSH2 0x2B77 JUMPI TIMESTAMP LT PUSH2 0x2B62 JUMPI DUP1 PUSH2 0x280 MLOAD MSTORE PUSH1 0xD PUSH1 0x20 MSTORE PUSH1 0x40 PUSH2 0x280 MLOAD KECCAK256 SLOAD SWAP1 DUP2 ISZERO PUSH2 0x2B4D JUMPI DUP1 PUSH2 0x280 MLOAD MSTORE PUSH1 0xD PUSH1 0x20 MSTORE PUSH2 0x280 MLOAD PUSH1 0x40 PUSH2 0x280 MLOAD KECCAK256 SSTORE PUSH1 0x40 MLOAD PUSH4 0xA9059CBB PUSH1 0xE0 SHL DUP2 MSTORE PUSH1 0x20 DUP2 DUP1 PUSH2 0x2AE4 DUP7 CALLER PUSH1 0x4 DUP5 ADD PUSH2 0x378D JUMP JUMPDEST SUB DUP2 PUSH2 0x280 MLOAD DUP7 GAS CALL DUP1 ISZERO PUSH2 0x85E JUMPI PUSH2 0x2B30 JUMPI JUMPDEST POP PUSH1 0x40 MLOAD SWAP2 DUP3 MSTORE PUSH32 0xDD1E41F1D539479BCBC5A15AAE13C42EAC0C98319DC0BDAEA67720B8F0EB4B56 PUSH1 0x20 CALLER SWAP4 LOG3 PUSH2 0x280 MLOAD PUSH1 0x1 DUP2 SSTORE DUP1 RETURN JUMPDEST PUSH2 0x2B48 SWAP1 PUSH1 0x20 RETURNDATASIZE PUSH1 0x20 GT PUSH2 0x857 JUMPI PUSH2 0x84A DUP2 DUP4 PUSH2 0x3569 JUMP JUMPDEST PUSH2 0x2AF8 JUMP JUMPDEST PUSH4 0x12D37EE5 PUSH1 0xE3 SHL PUSH2 0x280 MLOAD MSTORE PUSH1 0x4 PUSH2 0x280 MLOAD REVERT JUMPDEST PUSH4 0x6B22AB8B PUSH1 0xE0 SHL PUSH2 0x280 MLOAD MSTORE PUSH1 0x4 PUSH2 0x280 MLOAD REVERT JUMPDEST PUSH4 0x12E72C3F PUSH1 0xE1 SHL PUSH2 0x280 MLOAD MSTORE PUSH1 0x4 PUSH2 0x280 MLOAD REVERT JUMPDEST PUSH4 0x8F78F99 PUSH1 0xE3 SHL PUSH2 0x280 MLOAD MSTORE PUSH1 0x4 PUSH2 0x280 MLOAD REVERT JUMPDEST PUSH1 0x20 CALLDATASIZE PUSH1 0x3 NOT ADD SLT PUSH2 0x262 JUMPI PUSH2 0x2BB5 PUSH2 0x3537 JUMP JUMPDEST PUSH1 0x1 PUSH2 0x280 MLOAD SLOAD SUB PUSH2 0x929 JUMPI PUSH1 0x2 PUSH2 0x280 MLOAD SSTORE CALLVALUE ISZERO PUSH2 0x2E24 JUMPI PUSH1 0x1 DUP1 PUSH1 0xA0 SHL SUB DUP2 AND SWAP1 DUP2 PUSH2 0x280 MLOAD MSTORE PUSH1 0xA PUSH1 0x20 MSTORE PUSH1 0xFF PUSH1 0xE PUSH1 0x40 PUSH2 0x280 MLOAD KECCAK256 ADD SLOAD AND PUSH2 0x8FF JUMPI DUP2 PUSH2 0x280 MLOAD MSTORE PUSH1 0xE PUSH1 0x20 MSTORE PUSH1 0xFF PUSH1 0x40 PUSH2 0x280 MLOAD KECCAK256 SLOAD AND PUSH2 0x8EA JUMPI DUP2 PUSH2 0x280 MLOAD MSTORE PUSH1 0xB PUSH1 0x20 MSTORE PUSH1 0x40 PUSH2 0x280 MLOAD KECCAK256 CALLVALUE CALLVALUE DIV PUSH1 0x1 SUB PUSH2 0x881 JUMPI PUSH2 0x2710 CALLVALUE SWAP1 DUP2 DIV SWAP2 SWAP1 PUSH2 0x2C45 SWAP1 DUP4 SWAP1 PUSH2 0x70E SWAP1 DUP3 SWAP1 PUSH2 0x3821 JUMP JUMPDEST SWAP1 PUSH1 0x0 SWAP5 DUP3 ISZERO PUSH2 0x2E15 JUMPI PUSH2 0x2C59 DUP4 DUP4 PUSH2 0x39C4 JUMP JUMPDEST SWAP2 PUSH2 0x2C63 DUP7 PUSH2 0x39F0 JUMP JUMPDEST DUP1 DUP5 GT PUSH2 0x2E06 JUMPI PUSH1 0x40 MLOAD PUSH4 0x70A08231 PUSH1 0xE0 SHL DUP2 MSTORE CALLER PUSH1 0x4 DUP3 ADD MSTORE PUSH1 0x20 DUP2 PUSH1 0x24 DUP2 DUP8 GAS STATICCALL DUP1 ISZERO PUSH2 0x2DFB JUMPI DUP6 SWAP1 DUP11 SWAP1 PUSH2 0x2DC1 JUMPI JUMPDEST PUSH2 0x2C9F SWAP3 POP PUSH2 0x382E JUMP JUMPDEST GT PUSH2 0x2DB2 JUMPI PUSH2 0x2CAF DUP5 DUP3 SLOAD PUSH2 0x382E JUMP JUMPDEST DUP2 SSTORE PUSH2 0x2CC0 PUSH1 0x2 DUP3 ADD SWAP5 DUP6 SLOAD PUSH2 0x382E JUMP JUMPDEST DUP5 SSTORE PUSH1 0x1 DUP2 ADD PUSH2 0x2CD1 DUP5 DUP3 SLOAD PUSH2 0x3821 JUMP JUMPDEST SWAP1 SSTORE PUSH1 0x3 DUP2 ADD PUSH2 0x2CE2 DUP5 DUP3 SLOAD PUSH2 0x3821 JUMP JUMPDEST SWAP1 SSTORE PUSH1 0x40 MLOAD PUSH4 0xA9059CBB PUSH1 0xE0 SHL DUP2 MSTORE SWAP1 PUSH1 0x20 DUP3 DUP1 PUSH2 0x2D04 DUP8 CALLER PUSH1 0x4 DUP5 ADD PUSH2 0x378D JUMP JUMPDEST SUB DUP2 DUP12 DUP8 GAS CALL DUP1 ISZERO PUSH2 0x2DA7 JUMPI PUSH7 0x1C6BF52634000 SWAP7 PUSH2 0x2D37 SWAP4 PUSH2 0x2D31 SWAP3 PUSH2 0x2D8A JUMPI JUMPDEST POP PUSH2 0x7DC DUP2 DUP11 PUSH2 0x3A26 JUMP JUMPDEST DUP7 PUSH2 0x3AD4 JUMP JUMPDEST DUP1 DUP7 MSTORE PUSH1 0xA PUSH1 0x20 MSTORE PUSH1 0x0 DUP1 MLOAD PUSH1 0x20 PUSH2 0x429C DUP4 CODECOPY DUP2 MLOAD SWAP2 MSTORE PUSH2 0x2D68 PUSH1 0xB PUSH1 0x40 DUP10 KECCAK256 ADD SLOAD PUSH1 0x40 MLOAD SWAP2 DUP3 SWAP2 CALLER SWAP7 CALLVALUE DUP5 PUSH2 0x383B JUMP JUMPDEST SUB SWAP1 LOG3 SLOAD LT ISZERO PUSH2 0x2D7B JUMPI JUMPDEST POP PUSH1 0x1 DUP2 SSTORE DUP1 RETURN JUMPDEST PUSH2 0x2D84 SWAP1 PUSH2 0x3B2E JUMP JUMPDEST DUP2 PUSH2 0x2D73 JUMP JUMPDEST PUSH2 0x2DA2 SWAP1 PUSH1 0x20 RETURNDATASIZE PUSH1 0x20 GT PUSH2 0x857 JUMPI PUSH2 0x84A DUP2 DUP4 PUSH2 0x3569 JUMP JUMPDEST PUSH2 0x2D26 JUMP JUMPDEST PUSH1 0x40 MLOAD RETURNDATASIZE DUP11 DUP3 RETURNDATACOPY RETURNDATASIZE SWAP1 REVERT JUMPDEST PUSH4 0x3C190CCD PUSH1 0xE0 SHL DUP8 MSTORE PUSH1 0x4 DUP8 REVERT JUMPDEST POP POP PUSH1 0x20 DUP2 RETURNDATASIZE PUSH1 0x20 GT PUSH2 0x2DF3 JUMPI JUMPDEST DUP2 PUSH2 0x2DDC PUSH1 0x20 SWAP4 DUP4 PUSH2 0x3569 JUMP JUMPDEST DUP2 ADD SUB SLT PUSH2 0x2DEF JUMPI DUP5 PUSH2 0x2C9F SWAP2 MLOAD PUSH2 0x2C95 JUMP JUMPDEST DUP9 DUP1 REVERT JUMPDEST RETURNDATASIZE SWAP2 POP PUSH2 0x2DCF JUMP JUMPDEST PUSH1 0x40 MLOAD RETURNDATASIZE DUP12 DUP3 RETURNDATACOPY RETURNDATASIZE SWAP1 REVERT JUMPDEST PUSH4 0x1C7EB2D7 PUSH1 0xE3 SHL DUP9 MSTORE PUSH1 0x4 DUP9 REVERT JUMPDEST PUSH4 0xBBF1E3C1 PUSH1 0xE0 SHL DUP7 MSTORE PUSH1 0x4 DUP7 REVERT JUMPDEST PUSH4 0x310818ED PUSH1 0xE0 SHL PUSH2 0x280 MLOAD MSTORE PUSH1 0x4 PUSH2 0x280 MLOAD REVERT JUMPDEST CALLVALUE PUSH2 0x262 JUMPI PUSH2 0x280 MLOAD CALLDATASIZE PUSH1 0x3 NOT ADD SLT PUSH2 0x262 JUMPI PUSH1 0x20 PUSH1 0x40 MLOAD PUSH2 0x2710 DUP2 MSTORE RETURN JUMPDEST CALLVALUE PUSH2 0x262 JUMPI PUSH2 0x280 MLOAD CALLDATASIZE PUSH1 0x3 NOT ADD SLT PUSH2 0x262 JUMPI PUSH2 0x2E73 PUSH2 0x398E JUMP JUMPDEST PUSH1 0x0 DUP1 MLOAD PUSH1 0x20 PUSH2 0x42BC DUP4 CODECOPY DUP2 MLOAD SWAP2 MSTORE DUP1 SLOAD PUSH1 0x1 PUSH1 0x1 PUSH1 0xA0 SHL SUB NOT DUP2 AND SWAP1 SWAP2 SSTORE PUSH2 0x280 MLOAD SWAP1 PUSH1 0x1 PUSH1 0x1 PUSH1 0xA0 SHL SUB AND PUSH1 0x0 DUP1 MLOAD PUSH1 0x20 PUSH2 0x431C DUP4 CODECOPY DUP2 MLOAD SWAP2 MSTORE DUP3 DUP1 LOG3 PUSH2 0x280 MLOAD DUP1 RETURN JUMPDEST CALLVALUE PUSH2 0x262 JUMPI PUSH1 0x20 CALLDATASIZE PUSH1 0x3 NOT ADD SLT PUSH2 0x262 JUMPI PUSH2 0x2ED2 PUSH2 0x3537 JUMP JUMPDEST PUSH1 0x0 DUP1 MLOAD PUSH1 0x20 PUSH2 0x42BC DUP4 CODECOPY DUP2 MLOAD SWAP2 MSTORE SLOAD PUSH1 0x1 PUSH1 0x1 PUSH1 0xA0 SHL SUB AND CALLER SUB PUSH2 0x9C8 JUMPI PUSH1 0x1 PUSH1 0x1 PUSH1 0xA0 SHL SUB AND DUP1 ISZERO PUSH2 0x2F41 JUMPI PUSH1 0x6 DUP1 SLOAD PUSH1 0x1 PUSH1 0x1 PUSH1 0xA0 SHL SUB NOT AND DUP3 OR SWAP1 SSTORE PUSH2 0x280 MLOAD PUSH32 0x31CB9536ECF1852D39189C13961E6CD4B8740E22D548D3A4395A3D42092A6DDA SWAP1 DUP1 LOG2 PUSH2 0x280 MLOAD DUP1 RETURN JUMPDEST PUSH4 0x4A820C1 PUSH1 0xE3 SHL PUSH2 0x280 MLOAD MSTORE PUSH1 0x4 PUSH2 0x280 MLOAD REVERT JUMPDEST CALLVALUE PUSH2 0x262 JUMPI PUSH2 0x280 MLOAD CALLDATASIZE PUSH1 0x3 NOT ADD SLT PUSH2 0x262 JUMPI PUSH1 0x20 PUSH1 0x9 SLOAD PUSH1 0x40 MLOAD SWAP1 DUP2 MSTORE RETURN JUMPDEST CALLVALUE PUSH2 0x262 JUMPI PUSH1 0x20 CALLDATASIZE PUSH1 0x3 NOT ADD SLT PUSH2 0x262 JUMPI PUSH1 0x4 CALLDATALOAD PUSH1 0xF SLOAD DUP2 LT ISZERO PUSH2 0x262 JUMPI PUSH2 0x2F9F PUSH1 0x20 SWAP2 PUSH2 0x3604 JUMP JUMPDEST SWAP1 SLOAD PUSH1 0x40 MLOAD PUSH1 0x3 SWAP3 SWAP1 SWAP3 SHL SHR PUSH1 0x1 PUSH1 0x1 PUSH1 0xA0 SHL SUB AND DUP2 MSTORE RETURN JUMPDEST CALLVALUE PUSH2 0x262 JUMPI PUSH2 0x280 MLOAD CALLDATASIZE PUSH1 0x3 NOT ADD SLT PUSH2 0x262 JUMPI PUSH1 0x20 PUSH1 0x40 MLOAD PUSH1 0x2 DUP2 MSTORE RETURN JUMPDEST CALLVALUE PUSH2 0x262 JUMPI PUSH2 0x280 MLOAD CALLDATASIZE PUSH1 0x3 NOT ADD SLT PUSH2 0x262 JUMPI PUSH1 0x20 PUSH1 0x7 SLOAD PUSH1 0x40 MLOAD SWAP1 DUP2 MSTORE RETURN JUMPDEST CALLVALUE PUSH2 0x262 JUMPI PUSH2 0x280 MLOAD CALLDATASIZE PUSH1 0x3 NOT ADD SLT PUSH2 0x262 JUMPI PUSH1 0x40 MLOAD PUSH8 0x14ADF4B7320334B9 PUSH1 0x1D SHL DUP2 MSTORE PUSH1 0x20 SWAP1 RETURN JUMPDEST CALLVALUE PUSH2 0x262 JUMPI PUSH2 0x280 MLOAD CALLDATASIZE PUSH1 0x3 NOT ADD SLT PUSH2 0x262 JUMPI PUSH1 0x1 PUSH2 0x280 MLOAD SLOAD SUB PUSH2 0x929 JUMPI PUSH2 0x280 MLOAD PUSH1 0x2 SWAP1 SSTORE PUSH1 0x0 DUP1 MLOAD PUSH1 0x20 PUSH2 0x42BC DUP4 CODECOPY DUP2 MLOAD SWAP2 MSTORE SLOAD PUSH1 0x1 PUSH1 0x1 PUSH1 0xA0 SHL SUB AND CALLER DUP2 SWAP1 SUB PUSH2 0x9C8 JUMPI PUSH1 0x7 DUP1 SLOAD PUSH2 0x280 MLOAD SWAP2 DUP3 SWAP1 SSTORE SWAP2 DUP2 SWAP1 DUP2 SWAP1 DUP2 SWAP1 DUP6 SWAP1 GAS CALL PUSH2 0x3086 PUSH2 0x37A8 JUMP JUMPDEST POP ISZERO PUSH2 0x30DD JUMPI PUSH1 0x0 DUP1 MLOAD PUSH1 0x20 PUSH2 0x42BC DUP4 CODECOPY DUP2 MLOAD SWAP2 MSTORE SLOAD PUSH1 0x40 MLOAD SWAP2 DUP3 MSTORE PUSH1 0x1 PUSH1 0x1 PUSH1 0xA0 SHL SUB AND SWAP1 PUSH32 0xC0819C13BE868895EB93E40EACEB96DE976442FA1D404E5C55F14BB65A8C489A SWAP1 PUSH1 0x20 SWAP1 LOG2 PUSH2 0x280 MLOAD PUSH1 0x1 DUP2 SSTORE DUP1 RETURN JUMPDEST PUSH3 0xC0F299 PUSH1 0xE0 SHL PUSH2 0x280 MLOAD MSTORE PUSH1 0x4 PUSH2 0x280 MLOAD REVERT JUMPDEST PUSH2 0x354D JUMP JUMPDEST CALLVALUE PUSH2 0x262 JUMPI PUSH1 0x40 CALLDATASIZE PUSH1 0x3 NOT ADD SLT PUSH2 0x262 JUMPI PUSH2 0x310F PUSH2 0x3537 JUMP JUMPDEST PUSH1 0x24 CALLDATALOAD PUSH1 0x1 PUSH1 0x1 PUSH1 0x40 SHL SUB DUP2 GT PUSH2 0x262 JUMPI PUSH2 0x312E SWAP1 CALLDATASIZE SWAP1 PUSH1 0x4 ADD PUSH2 0x35BD JUMP JUMPDEST PUSH1 0x0 DUP1 MLOAD PUSH1 0x20 PUSH2 0x42BC DUP4 CODECOPY DUP2 MLOAD SWAP2 MSTORE SLOAD SWAP1 SWAP2 SWAP1 PUSH1 0x1 PUSH1 0x1 PUSH1 0xA0 SHL SUB AND CALLER SUB PUSH2 0x9C8 JUMPI PUSH2 0x280 DUP1 MLOAD PUSH1 0x1 PUSH1 0x1 PUSH1 0xA0 SHL SUB SWAP3 DUP4 AND SWAP1 DUP2 SWAP1 MSTORE PUSH1 0xA PUSH1 0x20 MSTORE SWAP1 MLOAD PUSH1 0x40 SWAP1 KECCAK256 SLOAD SWAP1 SWAP3 SWAP2 AND ISZERO PUSH2 0x31D9 JUMPI PUSH2 0x31CF PUSH32 0xCA28A28D7A69A99B318B23B561C6913D9433F143B9AEB678E6E9CA1DED967354 SWAP2 DUP4 PUSH2 0x280 MLOAD MSTORE PUSH1 0xE PUSH1 0x20 MSTORE PUSH1 0x40 PUSH2 0x280 MLOAD KECCAK256 PUSH1 0x1 PUSH1 0xFF NOT DUP3 SLOAD AND OR SWAP1 SSTORE PUSH1 0x40 MLOAD SWAP2 DUP3 SWAP2 PUSH1 0x20 DUP4 MSTORE PUSH1 0x20 DUP4 ADD SWAP1 PUSH2 0x3734 JUMP JUMPDEST SUB SWAP1 LOG2 PUSH2 0x280 MLOAD DUP1 RETURN JUMPDEST PUSH4 0xE0E5A1AF PUSH1 0xE0 SHL PUSH2 0x280 MLOAD MSTORE PUSH1 0x4 PUSH2 0x280 MLOAD REVERT JUMPDEST CALLVALUE PUSH2 0x262 JUMPI PUSH2 0x280 MLOAD CALLDATASIZE PUSH1 0x3 NOT ADD SLT PUSH2 0x262 JUMPI PUSH1 0x20 PUSH1 0x40 MLOAD PUSH2 0x2222 DUP2 MSTORE RETURN JUMPDEST CALLVALUE PUSH2 0x262 JUMPI PUSH2 0x280 MLOAD CALLDATASIZE PUSH1 0x3 NOT ADD SLT PUSH2 0x262 JUMPI PUSH1 0x1 PUSH2 0x280 MLOAD SLOAD SUB PUSH2 0x929 JUMPI PUSH2 0x280 MLOAD PUSH1 0x2 SWAP1 SSTORE PUSH1 0x0 DUP1 MLOAD PUSH1 0x20 PUSH2 0x42BC DUP4 CODECOPY DUP2 MLOAD SWAP2 MSTORE SLOAD PUSH1 0x1 PUSH1 0x1 PUSH1 0xA0 SHL SUB AND CALLER DUP2 SWAP1 SUB PUSH2 0x9C8 JUMPI PUSH1 0x8 DUP1 SLOAD PUSH2 0x280 MLOAD SWAP2 DUP3 SWAP1 SSTORE SWAP2 DUP2 SWAP1 DUP2 SWAP1 DUP2 SWAP1 DUP6 SWAP1 GAS CALL PUSH2 0x3274 PUSH2 0x37A8 JUMP JUMPDEST POP ISZERO PUSH2 0x30DD JUMPI PUSH1 0x0 DUP1 MLOAD PUSH1 0x20 PUSH2 0x42BC DUP4 CODECOPY DUP2 MLOAD SWAP2 MSTORE SLOAD PUSH1 0x40 MLOAD SWAP2 DUP3 MSTORE PUSH1 0x1 PUSH1 0x1 PUSH1 0xA0 SHL SUB AND SWAP1 PUSH32 0xF5C7B4E68618595A30E0A0CCFAA8B7AEB24D620E803D8B104C5D5F3F1A181A35 SWAP1 PUSH1 0x20 SWAP1 LOG2 PUSH2 0x280 MLOAD PUSH1 0x1 DUP2 SSTORE DUP1 RETURN JUMPDEST CALLVALUE PUSH2 0x262 JUMPI PUSH2 0x280 MLOAD CALLDATASIZE PUSH1 0x3 NOT ADD SLT PUSH2 0x262 JUMPI PUSH1 0x20 PUSH1 0x40 MLOAD PUSH11 0xA56FA5B99019A5C8000000 DUP2 MSTORE RETURN JUMPDEST CALLVALUE PUSH2 0x262 JUMPI PUSH2 0x280 MLOAD CALLDATASIZE PUSH1 0x3 NOT ADD SLT PUSH2 0x262 JUMPI PUSH1 0x1 SLOAD PUSH1 0x40 MLOAD PUSH1 0x1 PUSH1 0x1 PUSH1 0xA0 SHL SUB SWAP1 SWAP2 AND DUP2 MSTORE PUSH1 0x20 SWAP1 RETURN JUMPDEST CALLVALUE PUSH2 0x262 JUMPI PUSH2 0x280 MLOAD CALLDATASIZE PUSH1 0x3 NOT ADD SLT PUSH2 0x262 JUMPI PUSH1 0x20 PUSH1 0x40 MLOAD PUSH2 0x3E8 DUP2 MSTORE RETURN JUMPDEST CALLVALUE PUSH2 0x262 JUMPI PUSH1 0x20 CALLDATASIZE PUSH1 0x3 NOT ADD SLT PUSH2 0x262 JUMPI PUSH2 0x3356 PUSH2 0x3537 JUMP JUMPDEST PUSH1 0x1 PUSH2 0x280 MLOAD SLOAD SUB PUSH2 0x929 JUMPI PUSH2 0x280 DUP1 MLOAD PUSH1 0x2 DUP2 SSTORE PUSH1 0x1 PUSH1 0x1 PUSH1 0xA0 SHL SUB SWAP3 DUP4 AND SWAP1 DUP2 SWAP1 MSTORE PUSH1 0xA PUSH1 0x20 MSTORE SWAP1 MLOAD PUSH1 0x40 SWAP1 KECCAK256 PUSH1 0x9 ADD SLOAD SWAP1 SWAP2 AND CALLER SUB PUSH2 0x2B8C JUMPI DUP1 PUSH2 0x280 MLOAD MSTORE PUSH1 0xA PUSH1 0x20 MSTORE PUSH1 0xFF PUSH1 0xE PUSH1 0x40 PUSH2 0x280 MLOAD KECCAK256 ADD SLOAD PUSH1 0x8 SHR AND PUSH2 0x349C JUMPI DUP1 PUSH2 0x280 MLOAD MSTORE PUSH1 0xA PUSH1 0x20 MSTORE PUSH1 0xF PUSH1 0x40 PUSH2 0x280 MLOAD KECCAK256 ADD SLOAD TIMESTAMP LT PUSH2 0x3487 JUMPI DUP1 PUSH2 0x280 MLOAD MSTORE PUSH1 0xC PUSH1 0x20 MSTORE PUSH1 0x40 PUSH2 0x280 MLOAD KECCAK256 SLOAD SWAP1 DUP2 ISZERO PUSH2 0x2B4D JUMPI DUP1 PUSH2 0x280 MLOAD MSTORE PUSH1 0xC PUSH1 0x20 MSTORE PUSH2 0x280 MLOAD PUSH1 0x40 PUSH2 0x280 MLOAD KECCAK256 SSTORE PUSH1 0x40 MLOAD PUSH4 0xA9059CBB PUSH1 0xE0 SHL DUP2 MSTORE PUSH1 0x20 DUP2 DUP1 PUSH2 0x341E DUP7 CALLER PUSH1 0x4 DUP5 ADD PUSH2 0x378D JUMP JUMPDEST SUB DUP2 PUSH2 0x280 MLOAD DUP7 GAS CALL DUP1 ISZERO PUSH2 0x85E JUMPI PUSH2 0x346A JUMPI JUMPDEST POP PUSH1 0x40 MLOAD SWAP2 DUP3 MSTORE PUSH32 0x3F8AE94FCE684FBEE6F33C863E53F89D15755C89D22D2036CF84E6E5695BADE2 PUSH1 0x20 CALLER SWAP4 LOG3 PUSH2 0x280 MLOAD PUSH1 0x1 DUP2 SSTORE DUP1 RETURN JUMPDEST PUSH2 0x3482 SWAP1 PUSH1 0x20 RETURNDATASIZE PUSH1 0x20 GT PUSH2 0x857 JUMPI PUSH2 0x84A DUP2 DUP4 PUSH2 0x3569 JUMP JUMPDEST PUSH2 0x3432 JUMP JUMPDEST PUSH4 0xDE1AF48D PUSH1 0xE0 SHL PUSH2 0x280 MLOAD MSTORE PUSH1 0x4 PUSH2 0x280 MLOAD REVERT JUMPDEST PUSH4 0x5AB0DEF PUSH1 0xE2 SHL PUSH2 0x280 MLOAD MSTORE PUSH1 0x4 PUSH2 0x280 MLOAD REVERT JUMPDEST CALLVALUE PUSH2 0x262 JUMPI PUSH2 0x280 MLOAD CALLDATASIZE PUSH1 0x3 NOT ADD SLT PUSH2 0x262 JUMPI PUSH1 0x5 SLOAD PUSH1 0x40 MLOAD PUSH1 0x1 PUSH1 0x1 PUSH1 0xA0 SHL SUB SWAP1 SWAP2 AND DUP2 MSTORE PUSH1 0x20 SWAP1 RETURN JUMPDEST CALLVALUE PUSH2 0x262 JUMPI PUSH2 0x280 MLOAD CALLDATASIZE PUSH1 0x3 NOT ADD SLT PUSH2 0x262 JUMPI PUSH1 0x20 PUSH1 0x40 MLOAD PUSH4 0x1E13380 DUP2 MSTORE RETURN JUMPDEST CALLVALUE PUSH2 0x262 JUMPI PUSH1 0x20 CALLDATASIZE PUSH1 0x3 NOT ADD SLT PUSH2 0x262 JUMPI PUSH1 0x20 SWAP1 PUSH1 0x1 PUSH1 0x1 PUSH1 0xA0 SHL SUB PUSH2 0x3521 PUSH2 0x3537 JUMP JUMPDEST AND PUSH2 0x280 MLOAD MSTORE PUSH1 0xD DUP3 MSTORE PUSH1 0x40 PUSH2 0x280 MLOAD KECCAK256 SLOAD DUP2 MSTORE RETURN JUMPDEST PUSH1 0x4 CALLDATALOAD SWAP1 PUSH1 0x1 PUSH1 0x1 PUSH1 0xA0 SHL SUB DUP3 AND DUP3 SUB PUSH2 0x8DD JUMPI JUMP JUMPDEST CALLVALUE PUSH2 0x8DD JUMPI PUSH1 0x0 CALLDATASIZE PUSH1 0x3 NOT ADD SLT PUSH2 0x8DD JUMPI PUSH1 0x20 PUSH1 0x40 MLOAD PUSH1 0x1 DUP2 MSTORE RETURN JUMPDEST PUSH1 0x1F SWAP1 SWAP2 ADD PUSH1 0x1F NOT AND DUP2 ADD SWAP1 PUSH1 0x1 PUSH1 0x1 PUSH1 0x40 SHL SUB DUP3 GT SWAP1 DUP3 LT OR PUSH2 0x358C JUMPI PUSH1 0x40 MSTORE JUMP JUMPDEST PUSH4 0x4E487B71 PUSH1 0xE0 SHL PUSH1 0x0 MSTORE PUSH1 0x41 PUSH1 0x4 MSTORE PUSH1 0x24 PUSH1 0x0 REVERT JUMPDEST PUSH1 0x1 PUSH1 0x1 PUSH1 0x40 SHL SUB DUP2 GT PUSH2 0x358C JUMPI PUSH1 0x1F ADD PUSH1 0x1F NOT AND PUSH1 0x20 ADD SWAP1 JUMP JUMPDEST DUP2 PUSH1 0x1F DUP3 ADD SLT ISZERO PUSH2 0x8DD JUMPI DUP1 CALLDATALOAD SWAP1 PUSH2 0x35D4 DUP3 PUSH2 0x35A2 JUMP JUMPDEST SWAP3 PUSH2 0x35E2 PUSH1 0x40 MLOAD SWAP5 DUP6 PUSH2 0x3569 JUMP JUMPDEST DUP3 DUP5 MSTORE PUSH1 0x20 DUP4 DUP4 ADD ADD GT PUSH2 0x8DD JUMPI DUP2 PUSH1 0x0 SWAP3 PUSH1 0x20 DUP1 SWAP4 ADD DUP4 DUP7 ADD CALLDATACOPY DUP4 ADD ADD MSTORE SWAP1 JUMP JUMPDEST PUSH1 0xF SLOAD DUP2 LT ISZERO PUSH2 0x361F JUMPI PUSH1 0xF PUSH1 0x0 MSTORE PUSH1 0x20 PUSH1 0x0 KECCAK256 ADD SWAP1 PUSH1 0x0 SWAP1 JUMP JUMPDEST PUSH4 0x4E487B71 PUSH1 0xE0 SHL PUSH1 0x0 MSTORE PUSH1 0x32 PUSH1 0x4 MSTORE PUSH1 0x24 PUSH1 0x0 REVERT JUMPDEST CALLVALUE PUSH2 0x8DD JUMPI PUSH1 0x0 CALLDATASIZE PUSH1 0x3 NOT ADD SLT PUSH2 0x8DD JUMPI PUSH1 0x20 PUSH1 0x40 MLOAD PUSH6 0x5AF3107A4000 DUP2 MSTORE RETURN JUMPDEST SWAP1 PUSH1 0x1 DUP3 DUP2 SHR SWAP3 AND DUP1 ISZERO PUSH2 0x3686 JUMPI JUMPDEST PUSH1 0x20 DUP4 LT EQ PUSH2 0x3670 JUMPI JUMP JUMPDEST PUSH4 0x4E487B71 PUSH1 0xE0 SHL PUSH1 0x0 MSTORE PUSH1 0x22 PUSH1 0x4 MSTORE PUSH1 0x24 PUSH1 0x0 REVERT JUMPDEST SWAP2 PUSH1 0x7F AND SWAP2 PUSH2 0x3665 JUMP JUMPDEST SWAP1 PUSH1 0x40 MLOAD SWAP2 DUP3 PUSH1 0x0 DUP3 SLOAD SWAP3 PUSH2 0x36A4 DUP5 PUSH2 0x3656 JUMP JUMPDEST DUP1 DUP5 MSTORE SWAP4 PUSH1 0x1 DUP2 AND SWAP1 DUP2 ISZERO PUSH2 0x3712 JUMPI POP PUSH1 0x1 EQ PUSH2 0x36CB JUMPI JUMPDEST POP PUSH2 0x36C9 SWAP3 POP SUB DUP4 PUSH2 0x3569 JUMP JUMPDEST JUMP JUMPDEST SWAP1 POP PUSH1 0x0 SWAP3 SWAP2 SWAP3 MSTORE PUSH1 0x20 PUSH1 0x0 KECCAK256 SWAP1 PUSH1 0x0 SWAP2 JUMPDEST DUP2 DUP4 LT PUSH2 0x36F6 JUMPI POP POP SWAP1 PUSH1 0x20 PUSH2 0x36C9 SWAP3 DUP3 ADD ADD CODESIZE PUSH2 0x36BC JUMP JUMPDEST PUSH1 0x20 SWAP2 SWAP4 POP DUP1 PUSH1 0x1 SWAP2 SLOAD DUP4 DUP6 DUP10 ADD ADD MSTORE ADD SWAP2 ADD SWAP1 SWAP2 DUP5 SWAP3 PUSH2 0x36DD JUMP JUMPDEST SWAP1 POP PUSH1 0x20 SWAP3 POP PUSH2 0x36C9 SWAP5 SWAP2 POP PUSH1 0xFF NOT AND DUP3 DUP5 ADD MSTORE ISZERO ISZERO PUSH1 0x5 SHL DUP3 ADD ADD CODESIZE PUSH2 0x36BC JUMP JUMPDEST SWAP2 SWAP1 DUP3 MLOAD SWAP3 DUP4 DUP3 MSTORE PUSH1 0x0 JUMPDEST DUP5 DUP2 LT PUSH2 0x3760 JUMPI POP POP DUP3 PUSH1 0x0 PUSH1 0x20 DUP1 SWAP5 SWAP6 DUP5 ADD ADD MSTORE PUSH1 0x1F DUP1 NOT SWAP2 ADD AND ADD ADD SWAP1 JUMP JUMPDEST DUP1 PUSH1 0x20 DUP1 SWAP3 DUP5 ADD ADD MLOAD DUP3 DUP3 DUP7 ADD ADD MSTORE ADD PUSH2 0x373F JUMP JUMPDEST SWAP1 DUP2 PUSH1 0x20 SWAP2 SUB SLT PUSH2 0x8DD JUMPI MLOAD DUP1 ISZERO ISZERO DUP2 SUB PUSH2 0x8DD JUMPI SWAP1 JUMP JUMPDEST PUSH1 0x1 PUSH1 0x1 PUSH1 0xA0 SHL SUB SWAP1 SWAP2 AND DUP2 MSTORE PUSH1 0x20 DUP2 ADD SWAP2 SWAP1 SWAP2 MSTORE PUSH1 0x40 ADD SWAP1 JUMP JUMPDEST RETURNDATASIZE ISZERO PUSH2 0x37D3 JUMPI RETURNDATASIZE SWAP1 PUSH2 0x37B9 DUP3 PUSH2 0x35A2 JUMP JUMPDEST SWAP2 PUSH2 0x37C7 PUSH1 0x40 MLOAD SWAP4 DUP5 PUSH2 0x3569 JUMP JUMPDEST DUP3 MSTORE RETURNDATASIZE PUSH1 0x0 PUSH1 0x20 DUP5 ADD RETURNDATACOPY JUMP JUMPDEST PUSH1 0x60 SWAP1 JUMP JUMPDEST DUP2 DUP2 MUL SWAP3 SWAP2 DUP2 ISZERO SWAP2 DUP5 DIV EQ OR ISZERO PUSH2 0x37EB JUMPI JUMP JUMPDEST PUSH4 0x4E487B71 PUSH1 0xE0 SHL PUSH1 0x0 MSTORE PUSH1 0x11 PUSH1 0x4 MSTORE PUSH1 0x24 PUSH1 0x0 REVERT JUMPDEST DUP2 ISZERO PUSH2 0x380B JUMPI DIV SWAP1 JUMP JUMPDEST PUSH4 0x4E487B71 PUSH1 0xE0 SHL PUSH1 0x0 MSTORE PUSH1 0x12 PUSH1 0x4 MSTORE PUSH1 0x24 PUSH1 0x0 REVERT JUMPDEST SWAP2 SWAP1 DUP3 SUB SWAP2 DUP3 GT PUSH2 0x37EB JUMPI JUMP JUMPDEST SWAP2 SWAP1 DUP3 ADD DUP1 SWAP3 GT PUSH2 0x37EB JUMPI JUMP JUMPDEST PUSH1 0x40 SWAP2 SWAP5 SWAP4 SWAP3 PUSH1 0x60 DUP3 ADD SWAP6 DUP3 MSTORE PUSH1 0x20 DUP3 ADD MSTORE ADD MSTORE JUMP JUMPDEST PUSH2 0x184 CALLDATALOAD PUSH2 0xFFFF DUP2 AND DUP2 SUB PUSH2 0x8DD JUMPI SWAP1 JUMP JUMPDEST PUSH2 0x1A4 CALLDATALOAD PUSH2 0xFFFF DUP2 AND DUP2 SUB PUSH2 0x8DD JUMPI SWAP1 JUMP JUMPDEST PUSH2 0x1C4 CALLDATALOAD PUSH2 0xFFFF DUP2 AND DUP2 SUB PUSH2 0x8DD JUMPI SWAP1 JUMP JUMPDEST PUSH2 0x1E4 CALLDATALOAD PUSH2 0xFFFF DUP2 AND DUP2 SUB PUSH2 0x8DD JUMPI SWAP1 JUMP JUMPDEST PUSH2 0x204 CALLDATALOAD PUSH2 0xFFFF DUP2 AND DUP2 SUB PUSH2 0x8DD JUMPI SWAP1 JUMP JUMPDEST PUSH2 0x264 CALLDATALOAD PUSH2 0xFFFF DUP2 AND DUP2 SUB PUSH2 0x8DD JUMPI SWAP1 JUMP JUMPDEST PUSH2 0x284 CALLDATALOAD PUSH2 0xFFFF DUP2 AND DUP2 SUB PUSH2 0x8DD JUMPI SWAP1 JUMP JUMPDEST PUSH2 0x224 CALLDATALOAD PUSH1 0x1 PUSH1 0x1 PUSH1 0xA0 SHL SUB DUP2 AND DUP2 SUB PUSH2 0x8DD JUMPI SWAP1 JUMP JUMPDEST PUSH2 0x164 CALLDATALOAD PUSH1 0xFF DUP2 AND DUP2 SUB PUSH2 0x8DD JUMPI SWAP1 JUMP JUMPDEST PUSH2 0x244 CALLDATALOAD PUSH4 0xFFFFFFFF DUP2 AND DUP2 SUB PUSH2 0x8DD JUMPI SWAP1 JUMP JUMPDEST SWAP1 DUP2 PUSH1 0x20 SWAP2 SUB SLT PUSH2 0x8DD JUMPI MLOAD PUSH1 0x1 PUSH1 0x1 PUSH1 0xA0 SHL SUB DUP2 AND DUP2 SUB PUSH2 0x8DD JUMPI SWAP1 JUMP JUMPDEST PUSH1 0x1 PUSH1 0x1 PUSH1 0xA0 SHL SUB AND DUP1 ISZERO PUSH2 0x3978 JUMPI PUSH1 0x0 DUP1 MLOAD PUSH1 0x20 PUSH2 0x42BC DUP4 CODECOPY DUP2 MLOAD SWAP2 MSTORE DUP1 SLOAD PUSH1 0x1 PUSH1 0x1 PUSH1 0xA0 SHL SUB NOT DUP2 AND DUP4 OR SWAP1 SWAP2 SSTORE PUSH1 0x1 PUSH1 0x1 PUSH1 0xA0 SHL SUB AND PUSH1 0x0 DUP1 MLOAD PUSH1 0x20 PUSH2 0x431C DUP4 CODECOPY DUP2 MLOAD SWAP2 MSTORE PUSH1 0x0 DUP1 LOG3 JUMP JUMPDEST PUSH4 0x1E4FBDF7 PUSH1 0xE0 SHL PUSH1 0x0 MSTORE PUSH1 0x0 PUSH1 0x4 MSTORE PUSH1 0x24 PUSH1 0x0 REVERT JUMPDEST PUSH1 0x0 DUP1 MLOAD PUSH1 0x20 PUSH2 0x42BC DUP4 CODECOPY DUP2 MLOAD SWAP2 MSTORE SLOAD PUSH1 0x1 PUSH1 0x1 PUSH1 0xA0 SHL SUB AND CALLER SUB PUSH2 0x39AF JUMPI JUMP JUMPDEST PUSH4 0x118CDAA7 PUSH1 0xE0 SHL PUSH1 0x0 MSTORE CALLER PUSH1 0x4 MSTORE PUSH1 0x24 PUSH1 0x0 REVERT JUMPDEST SWAP1 PUSH2 0x39E7 PUSH2 0x39ED SWAP3 PUSH2 0x6D6 PUSH1 0x1 PUSH2 0x39DD DUP4 SLOAD SWAP6 DUP7 PUSH2 0x382E JUMP JUMPDEST SWAP3 ADD SLOAD DUP1 SWAP5 PUSH2 0x37D8 JUMP JUMPDEST SWAP1 PUSH2 0x3821 JUMP JUMPDEST SWAP1 JUMP JUMPDEST PUSH1 0x1 DUP1 PUSH1 0xA0 SHL SUB AND PUSH1 0x0 MSTORE PUSH1 0xA PUSH1 0x20 MSTORE PUSH1 0xA PUSH1 0x40 PUSH1 0x0 KECCAK256 ADD SLOAD PUSH2 0x2710 DUP2 MUL SWAP1 DUP1 DUP3 DIV PUSH2 0x2710 EQ SWAP1 ISZERO OR ISZERO PUSH2 0x37EB JUMPI PUSH2 0x2710 SWAP1 DIV SWAP1 JUMP JUMPDEST DUP2 ISZERO PUSH2 0x3A76 JUMPI PUSH1 0x1 PUSH1 0x1 PUSH1 0xA0 SHL SUB SWAP1 DUP2 AND PUSH1 0x0 SWAP1 DUP2 MSTORE PUSH1 0xA PUSH1 0x20 MSTORE PUSH1 0x40 DUP2 KECCAK256 PUSH1 0x9 ADD SLOAD SWAP1 SWAP3 DUP4 SWAP3 DUP4 SWAP3 DUP4 SWAP3 SWAP2 AND GAS CALL PUSH2 0x3A5D PUSH2 0x37A8 JUMP JUMPDEST POP ISZERO PUSH2 0x3A65 JUMPI JUMP JUMPDEST PUSH4 0x36DB069 PUSH1 0xE6 SHL PUSH1 0x0 MSTORE PUSH1 0x4 PUSH1 0x0 REVERT JUMPDEST POP POP JUMP JUMPDEST PUSH1 0x5 SLOAD PUSH1 0x1 PUSH1 0x1 PUSH1 0xA0 SHL SUB AND ISZERO PUSH2 0x3AC3 JUMPI PUSH1 0x5 SLOAD PUSH1 0x0 SWAP2 DUP3 SWAP2 DUP3 SWAP2 DUP3 SWAP2 PUSH1 0x1 PUSH1 0x1 PUSH1 0xA0 SHL SUB AND GAS CALL PUSH2 0x3AAA PUSH2 0x37A8 JUMP JUMPDEST POP ISZERO PUSH2 0x3AB2 JUMPI JUMP JUMPDEST PUSH4 0x3A0AB711 PUSH1 0xE2 SHL PUSH1 0x0 MSTORE PUSH1 0x4 PUSH1 0x0 REVERT JUMPDEST PUSH2 0x3ACF SWAP1 PUSH1 0x7 SLOAD PUSH2 0x382E JUMP JUMPDEST PUSH1 0x7 SSTORE JUMP JUMPDEST SWAP1 PUSH2 0x3B19 PUSH2 0x3AEA PUSH8 0xDE0B6B3A7640000 SWAP3 PUSH2 0x4224 JUMP JUMPDEST PUSH1 0x1 PUSH1 0x1 PUSH1 0xA0 SHL SUB SWAP1 SWAP4 AND PUSH1 0x0 DUP2 DUP2 MSTORE PUSH1 0xA PUSH1 0x20 DUP2 SWAP1 MSTORE PUSH1 0x40 SWAP1 SWAP2 KECCAK256 SWAP1 DUP2 ADD SLOAD PUSH1 0xB SWAP1 SWAP2 ADD DUP6 SWAP1 SSTORE SWAP1 SWAP4 PUSH2 0x37D8 JUMP JUMPDEST DIV SWAP1 PUSH1 0x0 MSTORE PUSH1 0xA PUSH1 0x20 MSTORE PUSH1 0xC PUSH1 0x40 PUSH1 0x0 KECCAK256 ADD SSTORE JUMP JUMPDEST PUSH1 0x1 PUSH1 0x1 PUSH1 0xA0 SHL SUB DUP2 AND PUSH1 0x0 SWAP1 DUP2 MSTORE PUSH1 0xB PUSH1 0x20 MSTORE PUSH1 0x40 DUP2 KECCAK256 PUSH1 0x7 SLOAD PUSH1 0x8 SLOAD SWAP2 SWAP3 SWAP2 PUSH2 0x3B58 SWAP2 PUSH2 0x382E JUMP JUMPDEST SELFBALANCE SWAP1 DUP2 DUP2 GT PUSH2 0x41C0 JUMPI PUSH2 0x3B6A SWAP2 PUSH2 0x3821 JUMP JUMPDEST SWAP2 JUMPDEST PUSH1 0x3 DUP2 ADD DUP1 SLOAD SWAP4 DUP1 ISZERO DUP1 ISZERO PUSH2 0x41B8 JUMPI JUMPDEST PUSH2 0x41A9 JUMPI PUSH1 0x2 SLOAD PUSH1 0x40 MLOAD PUSH4 0x95EA7B3 PUSH1 0xE0 SHL DUP2 MSTORE SWAP1 PUSH1 0x20 SWAP1 DUP3 SWAP1 DUP2 SWAP1 PUSH2 0x3BB0 SWAP1 DUP11 SWAP1 PUSH1 0x1 PUSH1 0x1 PUSH1 0xA0 SHL SUB AND PUSH1 0x4 DUP5 ADD PUSH2 0x378D JUMP JUMPDEST SUB DUP2 DUP9 PUSH1 0x1 PUSH1 0x1 PUSH1 0xA0 SHL SUB DUP13 AND GAS CALL SWAP1 DUP2 ISZERO PUSH2 0x419E JUMPI DUP6 SWAP2 PUSH2 0x417F JUMPI JUMPDEST POP ISZERO PUSH2 0x4170 JUMPI PUSH1 0x2 SLOAD PUSH1 0x1 PUSH1 0x1 PUSH1 0xA0 SHL SUB AND SWAP5 TIMESTAMP PUSH2 0x258 DUP2 ADD SWAP3 SWAP1 DUP4 LT PUSH2 0x415C JUMPI PUSH1 0x60 SWAP3 SWAP2 PUSH1 0xC4 SWAP2 PUSH1 0x40 MLOAD SWAP9 DUP10 SWAP5 DUP6 SWAP4 PUSH4 0xF305D719 PUSH1 0xE0 SHL DUP6 MSTORE PUSH1 0x1 DUP1 PUSH1 0xA0 SHL SUB DUP14 AND PUSH1 0x4 DUP7 ADD MSTORE PUSH1 0x24 DUP6 ADD MSTORE DUP10 PUSH1 0x44 DUP6 ADD MSTORE DUP10 PUSH1 0x64 DUP6 ADD MSTORE ADDRESS PUSH1 0x84 DUP6 ADD MSTORE PUSH1 0xA4 DUP5 ADD MSTORE GAS CALL SWAP4 DUP5 ISZERO PUSH2 0x4040 JUMPI DUP4 DUP5 SWAP2 DUP6 SWAP7 PUSH2 0x411A JUMPI JUMPDEST POP PUSH1 0x3 SLOAD PUSH1 0x4 DUP1 SLOAD PUSH1 0x40 MLOAD PUSH4 0xE6A43905 PUSH1 0xE0 SHL DUP2 MSTORE PUSH1 0x1 PUSH1 0x1 PUSH1 0xA0 SHL SUB DUP12 DUP2 AND SWAP4 DUP3 ADD SWAP4 SWAP1 SWAP4 MSTORE SWAP1 DUP3 AND PUSH1 0x24 DUP3 ADD MSTORE SWAP8 SWAP2 PUSH1 0x20 SWAP2 DUP10 SWAP2 PUSH1 0x44 SWAP2 DUP4 SWAP2 AND GAS STATICCALL SWAP7 DUP8 ISZERO PUSH2 0x40DF JUMPI DUP7 SWAP8 PUSH2 0x40F9 JUMPI JUMPDEST POP PUSH1 0x1 PUSH1 0x1 PUSH1 0xA0 SHL SUB DUP8 AND ISZERO PUSH2 0x40EA JUMPI PUSH1 0x40 MLOAD PUSH4 0xA9059CBB PUSH1 0xE0 SHL DUP2 MSTORE PUSH2 0xDEAD PUSH1 0x4 DUP3 ADD MSTORE PUSH1 0x24 DUP2 ADD SWAP2 SWAP1 SWAP2 MSTORE PUSH1 0x20 DUP2 PUSH1 0x44 DUP2 DUP10 PUSH1 0x1 PUSH1 0x1 PUSH1 0xA0 SHL SUB DUP13 AND GAS CALL DUP1 ISZERO PUSH2 0x40DF JUMPI SWAP1 DUP7 SWAP5 SWAP4 SWAP3 SWAP2 PUSH2 0x40C2 JUMPI JUMPDEST POP PUSH1 0x40 DUP1 MLOAD SWAP3 DUP4 MSTORE PUSH1 0x20 DUP4 ADD SWAP2 SWAP1 SWAP2 MSTORE PUSH1 0x1 PUSH1 0x1 PUSH1 0xA0 SHL SUB DUP8 DUP2 AND SWAP3 SWAP1 DUP10 AND SWAP2 PUSH32 0x36F3B2E1A21C19137DD82EC243B0708A1D26B3D1FA1DC49C44C4C366A5878138 SWAP2 LOG3 PUSH1 0x1 PUSH1 0x1 PUSH1 0xA0 SHL SUB DUP7 DUP2 AND DUP1 DUP5 MSTORE PUSH1 0xA PUSH1 0x20 DUP2 DUP2 MSTORE PUSH1 0x40 DUP1 DUP8 KECCAK256 PUSH1 0xE ADD DUP1 SLOAD PUSH1 0xFF NOT AND PUSH1 0x1 OR SWAP1 SSTORE DUP4 DUP8 MSTORE DUP3 DUP3 MSTORE DUP1 DUP8 KECCAK256 PUSH1 0x10 ADD DUP1 SLOAD PUSH1 0x1 PUSH1 0x1 PUSH1 0xA0 SHL SUB NOT AND SWAP6 DUP12 AND SWAP6 SWAP1 SWAP6 OR SWAP1 SWAP5 SSTORE PUSH1 0x2 DUP8 ADD DUP7 SWAP1 SSTORE SWAP5 SWAP1 SWAP4 SSTORE DUP6 MSTORE SWAP2 MSTORE DUP3 KECCAK256 PUSH1 0x12 DUP2 ADD SLOAD SWAP1 DUP4 PUSH1 0xFF DUP4 AND DUP1 DUP1 PUSH2 0x40B2 JUMPI JUMPDEST PUSH2 0x4072 JUMPI JUMPDEST PUSH1 0x40 MLOAD SWAP4 PUSH2 0x220 DUP6 ADD PUSH1 0x1 PUSH1 0x1 PUSH1 0x40 SHL SUB DUP2 GT DUP7 DUP3 LT OR PUSH2 0x405E JUMPI PUSH1 0x40 SWAP1 DUP2 MSTORE PUSH2 0x1A0 DUP7 ADD DUP9 SWAP1 MSTORE PUSH2 0x1C0 DUP7 ADD DUP9 SWAP1 MSTORE PUSH2 0x1E0 DUP7 ADD DUP9 SWAP1 MSTORE PUSH2 0x200 DUP7 ADD DUP9 SWAP1 MSTORE PUSH1 0x9 DUP6 ADD SLOAD PUSH1 0x1 PUSH1 0x1 PUSH1 0xA0 SHL SUB SWAP1 DUP2 AND DUP8 MSTORE DUP10 DUP2 AND PUSH1 0x20 DUP1 DUP10 ADD SWAP2 SWAP1 SWAP2 MSTORE PUSH1 0x60 DUP5 DUP2 SHR DUP10 DUP6 ADD MSTORE PUSH2 0xFFFF PUSH1 0x10 DUP7 SWAP1 SHR DUP2 AND SWAP2 DUP11 ADD DUP3 SWAP1 MSTORE SWAP2 DUP6 SWAP1 SHR DUP3 AND PUSH1 0x80 DUP11 ADD MSTORE PUSH1 0x30 DUP6 SWAP1 SHR DUP3 AND PUSH1 0xA0 DUP11 ADD MSTORE SWAP3 DUP5 SWAP1 SHR DUP2 AND PUSH1 0xC0 DUP10 ADD MSTORE PUSH1 0x50 SWAP4 SWAP1 SWAP4 SHR SWAP1 SWAP3 AND PUSH1 0xE0 DUP8 ADD MSTORE ISZERO ISZERO PUSH2 0x100 DUP7 ADD MSTORE SWAP1 ISZERO ISZERO PUSH2 0x120 DUP6 ADD MSTORE PUSH1 0x2 SLOAD DUP2 AND PUSH2 0x140 DUP6 ADD MSTORE PUSH1 0x4 SLOAD DUP2 AND PUSH2 0x160 DUP6 ADD MSTORE AND PUSH2 0x180 DUP4 ADD MSTORE PUSH1 0x13 ADD SLOAD PUSH4 0xFFFFFFFF DUP2 AND DUP1 PUSH2 0x404F JUMPI POP DUP4 JUMPDEST PUSH2 0x1A0 DUP4 ADD MSTORE PUSH1 0x20 DUP2 SWAP1 SHR PUSH2 0xFFFF SWAP1 DUP2 AND PUSH2 0x1C0 DUP5 ADD MSTORE PUSH1 0x30 DUP3 SWAP1 SHR AND PUSH2 0x1E0 DUP4 ADD MSTORE PUSH1 0x40 SHR PUSH1 0x1 PUSH1 0x1 PUSH1 0xA0 SHL SUB SWAP1 DUP2 AND PUSH2 0x200 DUP4 ADD MSTORE DUP6 AND EXTCODESIZE ISZERO PUSH2 0x404B JUMPI PUSH1 0x40 DUP1 MLOAD PUSH4 0xC9AF097D PUSH1 0xE0 SHL DUP2 MSTORE DUP3 MLOAD PUSH1 0x1 PUSH1 0x1 PUSH1 0xA0 SHL SUB SWAP1 DUP2 AND PUSH1 0x4 DUP4 ADD MSTORE PUSH1 0x20 DUP5 ADD MLOAD DUP2 AND PUSH1 0x24 DUP4 ADD MSTORE SWAP2 DUP4 ADD MLOAD DUP3 AND PUSH1 0x44 DUP3 ADD MSTORE PUSH1 0x60 DUP4 ADD MLOAD PUSH2 0xFFFF SWAP1 DUP2 AND PUSH1 0x64 DUP4 ADD MSTORE PUSH1 0x80 DUP5 ADD MLOAD DUP2 AND PUSH1 0x84 DUP4 ADD MSTORE PUSH1 0xA0 DUP5 ADD MLOAD DUP2 AND PUSH1 0xA4 DUP4 ADD MSTORE PUSH1 0xC0 DUP5 ADD MLOAD DUP2 AND PUSH1 0xC4 DUP4 ADD MSTORE PUSH1 0xE0 DUP5 ADD MLOAD DUP2 AND PUSH1 0xE4 DUP4 ADD MSTORE PUSH2 0x100 DUP5 ADD MLOAD ISZERO ISZERO PUSH2 0x104 DUP4 ADD MSTORE PUSH2 0x120 DUP5 ADD MLOAD ISZERO ISZERO PUSH2 0x124 DUP4 ADD MSTORE PUSH2 0x140 DUP5 ADD MLOAD DUP4 AND PUSH2 0x144 DUP4 ADD MSTORE PUSH2 0x160 DUP5 ADD MLOAD DUP4 AND PUSH2 0x164 DUP4 ADD MSTORE PUSH2 0x180 DUP5 ADD MLOAD DUP4 AND PUSH2 0x184 DUP4 ADD MSTORE PUSH2 0x1A0 DUP5 ADD MLOAD PUSH2 0x1A4 DUP4 ADD MSTORE PUSH2 0x1C0 DUP5 ADD MLOAD DUP2 AND PUSH2 0x1C4 DUP4 ADD MSTORE PUSH2 0x1E0 DUP5 ADD MLOAD AND PUSH2 0x1E4 DUP3 ADD MSTORE PUSH2 0x200 SWAP1 SWAP3 ADD MLOAD DUP2 AND PUSH2 0x204 DUP4 ADD MSTORE DUP4 SWAP1 DUP3 SWAP1 PUSH2 0x224 SWAP1 DUP3 SWAP1 DUP5 SWAP1 DUP11 AND GAS CALL DUP1 ISZERO PUSH2 0x4040 JUMPI PUSH32 0xD746A893DE4E12067EF4A3B08937AE3E7BD69F3872A69AF45CB1EF5493D9AA52 SWAP4 PUSH1 0x20 SWAP4 PUSH1 0xC SWAP4 PUSH1 0x40 SWAP4 PUSH2 0x402A JUMPI JUMPDEST POP PUSH2 0x4001 SWAP1 DUP9 PUSH2 0x3AD4 JUMP JUMPDEST PUSH1 0x1 PUSH1 0x1 PUSH1 0xA0 SHL SUB SWAP7 DUP8 AND DUP1 DUP3 MSTORE PUSH1 0xA DUP6 MSTORE SWAP2 SWAP1 KECCAK256 SWAP2 SWAP1 SWAP2 ADD SLOAD PUSH1 0x40 MLOAD SWAP1 DUP2 MSTORE SWAP4 SWAP1 SWAP5 AND SWAP4 SWAP3 LOG3 JUMP JUMPDEST SWAP2 PUSH2 0x4039 DUP2 PUSH2 0x4001 SWAP4 SWAP5 PUSH2 0x3569 JUMP JUMPDEST SWAP2 SWAP1 PUSH2 0x3FF6 JUMP JUMPDEST PUSH1 0x40 MLOAD RETURNDATASIZE DUP6 DUP3 RETURNDATACOPY RETURNDATASIZE SWAP1 REVERT JUMPDEST DUP3 DUP1 REVERT JUMPDEST PUSH2 0x4059 SWAP1 TIMESTAMP PUSH2 0x382E JUMP JUMPDEST PUSH2 0x3E7E JUMP JUMPDEST PUSH4 0x4E487B71 PUSH1 0xE0 SHL DUP9 MSTORE PUSH1 0x41 PUSH1 0x4 MSTORE PUSH1 0x24 DUP9 REVERT JUMPDEST SWAP1 POP PUSH1 0x1 PUSH1 0xFF DUP5 PUSH1 0x8 SHR AND EQ PUSH1 0x0 EQ PUSH2 0x40A1 JUMPI PUSH20 0x55D398326F99059FF775485246999027B3197955 JUMPDEST SWAP1 PUSH2 0x3D96 JUMP JUMPDEST PUSH1 0x4 SLOAD PUSH1 0x1 PUSH1 0x1 PUSH1 0xA0 SHL SUB AND PUSH2 0x409B JUMP JUMPDEST POP PUSH2 0xFFFF DUP5 PUSH1 0x40 SHR AND ISZERO ISZERO PUSH2 0x3D91 JUMP JUMPDEST PUSH2 0x40DA SWAP1 PUSH1 0x20 RETURNDATASIZE PUSH1 0x20 GT PUSH2 0x857 JUMPI PUSH2 0x84A DUP2 DUP4 PUSH2 0x3569 JUMP JUMPDEST PUSH2 0x3CE1 JUMP JUMPDEST PUSH1 0x40 MLOAD RETURNDATASIZE DUP9 DUP3 RETURNDATACOPY RETURNDATASIZE SWAP1 REVERT JUMPDEST PUSH4 0xC6BCF599 PUSH1 0xE0 SHL DUP7 MSTORE PUSH1 0x4 DUP7 REVERT JUMPDEST PUSH2 0x4113 SWAP2 SWAP8 POP PUSH1 0x20 RETURNDATASIZE PUSH1 0x20 GT PUSH2 0x27A4 JUMPI PUSH2 0x2792 DUP2 DUP4 PUSH2 0x3569 JUMP JUMPDEST SWAP6 CODESIZE PUSH2 0x3C90 JUMP JUMPDEST SWAP6 POP POP POP PUSH1 0x60 DUP5 RETURNDATASIZE PUSH1 0x60 GT PUSH2 0x4154 JUMPI JUMPDEST DUP2 PUSH2 0x4137 PUSH1 0x60 SWAP4 DUP4 PUSH2 0x3569 JUMP JUMPDEST DUP2 ADD SUB SLT PUSH2 0x404B JUMPI DUP4 MLOAD PUSH1 0x20 DUP6 ADD MLOAD PUSH1 0x40 SWAP1 SWAP6 ADD MLOAD SWAP5 SWAP1 CODESIZE PUSH2 0x3C44 JUMP JUMPDEST RETURNDATASIZE SWAP2 POP PUSH2 0x412A JUMP JUMPDEST PUSH4 0x4E487B71 PUSH1 0xE0 SHL DUP7 MSTORE PUSH1 0x11 PUSH1 0x4 MSTORE PUSH1 0x24 DUP7 REVERT JUMPDEST PUSH4 0x648AD915 PUSH1 0xE1 SHL DUP5 MSTORE PUSH1 0x4 DUP5 REVERT JUMPDEST PUSH2 0x4198 SWAP2 POP PUSH1 0x20 RETURNDATASIZE PUSH1 0x20 GT PUSH2 0x857 JUMPI PUSH2 0x84A DUP2 DUP4 PUSH2 0x3569 JUMP JUMPDEST CODESIZE PUSH2 0x3BCD JUMP JUMPDEST PUSH1 0x40 MLOAD RETURNDATASIZE DUP8 DUP3 RETURNDATACOPY RETURNDATASIZE SWAP1 REVERT JUMPDEST PUSH4 0x7DC28095 PUSH1 0xE1 SHL DUP5 MSTORE PUSH1 0x4 DUP5 REVERT JUMPDEST POP DUP5 ISZERO PUSH2 0x3B7C JUMP JUMPDEST POP POP DUP1 SWAP2 PUSH2 0x3B6C JUMP JUMPDEST DUP1 SLOAD PUSH1 0xFF PUSH1 0xA0 SHL NOT AND PUSH1 0xA0 SWAP3 SWAP1 SWAP3 SHL PUSH1 0xFF PUSH1 0xA0 SHL AND SWAP2 SWAP1 SWAP2 OR SWAP1 SSTORE JUMP JUMPDEST DUP1 SLOAD PUSH2 0xFFFF PUSH1 0x20 SHL NOT AND PUSH1 0x20 SWAP3 SWAP1 SWAP3 SHL PUSH2 0xFFFF PUSH1 0x20 SHL AND SWAP2 SWAP1 SWAP2 OR SWAP1 SSTORE JUMP JUMPDEST DUP1 SLOAD PUSH2 0xFFFF PUSH1 0x30 SHL NOT AND PUSH1 0x30 SWAP3 SWAP1 SWAP3 SHL PUSH2 0xFFFF PUSH1 0x30 SHL AND SWAP2 SWAP1 SWAP2 OR SWAP1 SSTORE JUMP JUMPDEST PUSH1 0x1 DUP2 ADD SLOAD SWAP1 DUP2 ISZERO PUSH2 0x425C JUMPI SLOAD SWAP1 PUSH8 0xDE0B6B3A7640000 DUP3 MUL SWAP2 DUP1 DUP4 DIV PUSH8 0xDE0B6B3A7640000 EQ SWAP1 ISZERO OR ISZERO PUSH2 0x37EB JUMPI PUSH2 0x39ED SWAP2 PUSH2 0x3801 JUMP JUMPDEST PUSH4 0x6180F03F PUSH1 0xE1 SHL PUSH1 0x0 MSTORE PUSH1 0x4 PUSH1 0x0 REVERT JUMPDEST PUSH1 0xFF PUSH1 0x0 DUP1 MLOAD PUSH1 0x20 PUSH2 0x433C DUP4 CODECOPY DUP2 MLOAD SWAP2 MSTORE SLOAD PUSH1 0x40 SHR AND ISZERO PUSH2 0x428A JUMPI JUMP JUMPDEST PUSH4 0x1AFCD79F PUSH1 0xE3 SHL PUSH1 0x0 MSTORE PUSH1 0x4 PUSH1 0x0 REVERT INVALID EXP SWAP6 0x21 DUP2 PUSH0 0xB3 0xC5 0xBC PUSH30 0xD6F4C9F89DC270322E46B945B104C18981F81C3F2CD1AA9016D09D72D40F 0xDA 0xE2 REVERT DUP13 0xEA 0xC6 0xB6 0x23 0x4C PUSH24 0x6214FD39C1CD1E609A0528C199300853833958EC0246ECC PUSH14 0x63FA180A590C32DAD8165C77B8F9 PUSH26 0xC6B226201089F8BFA865124FB32DFFA1F70892C3D0B5FA714AE7 0xBC PUSH7 0xA089A2BD81851 CALLDATALOAD TIMESTAMP PREVRANDAO DUP10 DUP12 0xE0 SMOD SWAP13 MSTORE8 AND MSIZE EQ SGT PREVRANDAO 0xCD 0x1F 0xD0 LOG4 CALLCODE DUP5 NOT BLOBHASH PUSH32 0x9722A3DAAFE3B4186F6B6457E0F0C57E16840DF040F15088DC2F81FE391C3923 0xBE 0xC7 RETURNDATACOPY 0x23 0xA9 PUSH7 0x2EFC9C229C6A00 LOG1 PUSH5 0x736F6C6343 STOP ADDMOD BYTE STOP EXP "},"methodIdentifiers":{"ANTIBOT_MAX_DURATION_SEC()":"fadd5431","BURNAGENT_FEE()":"55371a61","CREATION_MIN_FEE()":"92c93e87","CREATOR_ALLOCATION()":"2bc73063","CREATOR_FEE()":"1a7dfa9f","CTO_MAX_BPS()":"7bc4f888","ECOSYSTEM_FEE()":"406b283a","FIRST_BUY_LOCK_12M()":"e16e7d44","FIRST_BUY_LOCK_3M()":"a38d2da1","FIRST_BUY_LOCK_6M()":"622d7784","FIRST_BUY_LOCK_NONE()":"d3465546","GRADUATION_TARGET()":"c1a844f0","MAX_TOTAL_TAX_BPS()":"1a08a9c8","MIN_CREATOR_FIRST_BUY()":"b35ebd2e","TRADING_SUPPLY()":"4c0abcdb","VAULT_TOKEN_ADDRESS_SUFFIX()":"30a9c1b7","VESTING_PERIOD()":"0197d972","WETH()":"ad5c4648","allTokens(uint256)":"634282af","banToken(address,string)":"39222152","bannedTokens(address)":"e91b3cb6","bondingCurves(address)":"b9a059f7","burnAgent()":"c365f4af","buyToken(address)":"7e72fb52","claimCreatorTokens(address)":"1110b8ac","claimFirstBuyTokens(address)":"8021a1e2","createToken(string,string,string,string,string,string,string,string,bool,uint8,bool,(uint8,uint16,uint16,uint16,uint16,uint16,address,uint32,uint16,uint16,address),bytes32)":"95bd8778","creationFeesCollected()":"84666352","creatorFirstBuyLocked(address)":"00c7fa85","creatorTokensLocked(address)":"9b243f37","dexFactory()":"b8d8fbb4","ecosystemTreasury()":"109e06e1","initialize(address)":"c4d66de8","minCtoFirstBuyWei()":"66bb2880","owner()":"8da5cb5b","renounceOwnership()":"715018a6","router()":"f887ea40","sellToken(address,uint256)":"f464e7db","setBurnAgent(address)":"6f5885d0","setEcosystemTreasury(address)":"9b162793","setMinCtoFirstBuyWei(uint256)":"b04b99d4","tokenDeployer()":"2a2dae0a","tokenInfo(address)":"f5dab711","totalFeesCollected()":"60c6d8ae","transferOwnership(address)":"f2fde38b","unbanToken(address)":"f332a245","withdrawCreationFees()":"30777061","withdrawFees()":"476343ee"}}}}}