{"contracts/burnAgent.sol":{"BurnAgent":{"abi":[{"inputs":[{"internalType":"address","name":"_router","type":"address"}],"stateMutability":"nonpayable","type":"constructor"},{"anonymous":false,"inputs":[{"indexed":false,"internalType":"uint256","name":"ethIn","type":"uint256"}],"name":"BurnExecuted","type":"event"},{"anonymous":false,"inputs":[{"indexed":false,"internalType":"address","name":"newToken","type":"address"}],"name":"PlatformTokenUpdated","type":"event"},{"inputs":[],"name":"WETH","outputs":[{"internalType":"address","name":"","type":"address"}],"stateMutability":"view","type":"function"},{"inputs":[],"name":"handle","outputs":[],"stateMutability":"payable","type":"function"},{"inputs":[],"name":"owner","outputs":[{"internalType":"address","name":"","type":"address"}],"stateMutability":"view","type":"function"},{"inputs":[],"name":"platformToken","outputs":[{"internalType":"address","name":"","type":"address"}],"stateMutability":"view","type":"function"},{"inputs":[],"name":"rescueETH","outputs":[],"stateMutability":"nonpayable","type":"function"},{"inputs":[{"internalType":"address","name":"token","type":"address"},{"internalType":"uint256","name":"amount","type":"uint256"}],"name":"rescueTokens","outputs":[],"stateMutability":"nonpayable","type":"function"},{"inputs":[],"name":"router","outputs":[{"internalType":"contract IUniswapV2Router02","name":"","type":"address"}],"stateMutability":"view","type":"function"},{"inputs":[{"internalType":"address","name":"_newToken","type":"address"}],"name":"setPlatformToken","outputs":[],"stateMutability":"nonpayable","type":"function"},{"stateMutability":"payable","type":"receive"}],"evm":{"bytecode":{"linkReferences":{},"object":"60c0806040523461012c5761003361081f9182380380936100208284610131565b82396001600160a01b039281019061016a565b1680156100e757600080546001600160a01b0319163317905560808190526040516315ab88c960e31b815290602090829060049082905afa9081156100db576000916100ac575b5060a052604051610695908161018a823960805181818160af01526104e0015260a05181818161011d01526104a50152f35b6100ce915060203d6020116100d4575b6100c68183610131565b81019061016a565b3861007a565b503d6100bc565b6040513d6000823e3d90fd5b60405162461bcd60e51b815260206004820152601660248201527f496e76616c696420726f757465722061646472657373000000000000000000006044820152606490fd5b600080fd5b601f909101601f19168101906001600160401b0382119082101761015457604052565b634e487b7160e01b600052604160045260246000fd5b9081602091031261012c57516001600160a01b038116810361012c579056fe60806040526004361015610023575b361561001957600080fd5b610021610465565b005b60003560e01c80630255a03b1461032c57806320800a00146102b457806357376198146101755780638da5cb5b1461014c578063ad5c464814610107578063d1b812cd146100de578063f887ea40146100995763fd0da0990361000e57600036600319011261009457610021610465565b600080fd5b34610094576000366003190112610094576040517f00000000000000000000000000000000000000000000000000000000000000006001600160a01b03168152602090f35b34610094576000366003190112610094576001546040516001600160a01b039091168152602090f35b34610094576000366003190112610094576040517f00000000000000000000000000000000000000000000000000000000000000006001600160a01b03168152602090f35b34610094576000366003190112610094576000546040516001600160a01b039091168152602090f35b346100945760403660031901126100945761018e6103de565b600054602435916001600160a01b03909116906101ac3383146103f4565b6001600160a01b03169182156102775780156102335760446020926000604051958694859363a9059cbb60e01b8552600485015260248401525af18015610227576101f357005b6020813d60201161021f575b8161020c6020938361042c565b8101031261009457518015150361009457005b3d91506101ff565b6040513d6000823e3d90fd5b606460405162461bcd60e51b815260206004820152602060248201527f416d6f756e74206d7573742062652067726561746572207468616e207a65726f6044820152fd5b60405162461bcd60e51b8152602060048201526015602482015274496e76616c696420746f6b656e206164647265737360581b6044820152606490fd5b34610094576000366003190112610094576000546001600160a01b03166102dc3382146103f4565b479081156102f4576000808093819382f11561022757005b60405162461bcd60e51b815260206004820152601060248201526f4e6f2045544820746f2072657363756560801b6044820152606490fd5b34610094576020366003190112610094576103456103de565b61035a60018060a01b036000541633146103f4565b6001600160a01b031680156103a957600180546001600160a01b031916821790556040519081527f0135bac2d3f9180fa839de36f3b78d0ee5ffb6e951f320577eb42a392a5ff4ba90602090a1005b60405162461bcd60e51b815260206004820152600d60248201526c24b73b30b634b2103a37b5b2b760991b6044820152606490fd5b600435906001600160a01b038216820361009457565b156103fb57565b60405162461bcd60e51b81526020600482015260096024820152682737ba1037bbb732b960b91b6044820152606490fd5b601f909101601f19168101906001600160401b0382119082101761044f57604052565b634e487b7160e01b600052604160045260246000fd5b60003415610655576001546001600160a01b03168015610617576040519061048e60608361042c565b6002825260208201906040368337825115610603577f00000000000000000000000000000000000000000000000000000000000000006001600160a01b031682528251600110156106035760408301527f00000000000000000000000000000000000000000000000000000000000000006001600160a01b0316904261025881019081106105ef57823b156105eb5760405163b6f9de9560e01b8152600481018690526080602482015293516084850181905285938593909260a4850192909190865b8181106105c6575050508391829161dead60448401526064830152039134905af180156105bb576105ab575b50507f605c5b4f4308c1e42a024db1dc59389917ccc2058e83a1f6b672d8d60d12d7e16020604051348152a1565b816105b59161042c565b3861057d565b6040513d84823e3d90fd5b82516001600160a01b0316855289975088965060209485019490920191600101610551565b8480fd5b634e487b7160e01b85526011600452602485fd5b634e487b7160e01b84526032600452602484fd5b60405162461bcd60e51b8152602060048201526016602482015275141b185d199bdc9b481d1bdad95b881b9bdd081cd95d60521b6044820152606490fd5b60405162461bcd60e51b815260206004820152600b60248201526a139bc8115512081cd95b9d60aa1b6044820152606490fdfea164736f6c634300081a000a","opcodes":"PUSH1 0xC0 DUP1 PUSH1 0x40 MSTORE CALLVALUE PUSH2 0x12C JUMPI PUSH2 0x33 PUSH2 0x81F SWAP2 DUP3 CODESIZE SUB DUP1 SWAP4 PUSH2 0x20 DUP3 DUP5 PUSH2 0x131 JUMP JUMPDEST DUP3 CODECOPY PUSH1 0x1 PUSH1 0x1 PUSH1 0xA0 SHL SUB SWAP3 DUP2 ADD SWAP1 PUSH2 0x16A JUMP JUMPDEST AND DUP1 ISZERO PUSH2 0xE7 JUMPI PUSH1 0x0 DUP1 SLOAD PUSH1 0x1 PUSH1 0x1 PUSH1 0xA0 SHL SUB NOT AND CALLER OR SWAP1 SSTORE PUSH1 0x80 DUP2 SWAP1 MSTORE PUSH1 0x40 MLOAD PUSH4 0x15AB88C9 PUSH1 0xE3 SHL DUP2 MSTORE SWAP1 PUSH1 0x20 SWAP1 DUP3 SWAP1 PUSH1 0x4 SWAP1 DUP3 SWAP1 GAS STATICCALL SWAP1 DUP2 ISZERO PUSH2 0xDB JUMPI PUSH1 0x0 SWAP2 PUSH2 0xAC JUMPI JUMPDEST POP PUSH1 0xA0 MSTORE PUSH1 0x40 MLOAD PUSH2 0x695 SWAP1 DUP2 PUSH2 0x18A DUP3 CODECOPY PUSH1 0x80 MLOAD DUP2 DUP2 DUP2 PUSH1 0xAF ADD MSTORE PUSH2 0x4E0 ADD MSTORE PUSH1 0xA0 MLOAD DUP2 DUP2 DUP2 PUSH2 0x11D ADD MSTORE PUSH2 0x4A5 ADD MSTORE RETURN JUMPDEST PUSH2 0xCE SWAP2 POP PUSH1 0x20 RETURNDATASIZE PUSH1 0x20 GT PUSH2 0xD4 JUMPI JUMPDEST PUSH2 0xC6 DUP2 DUP4 PUSH2 0x131 JUMP JUMPDEST DUP2 ADD SWAP1 PUSH2 0x16A JUMP JUMPDEST CODESIZE PUSH2 0x7A JUMP JUMPDEST POP RETURNDATASIZE PUSH2 0xBC JUMP JUMPDEST PUSH1 0x40 MLOAD RETURNDATASIZE PUSH1 0x0 DUP3 RETURNDATACOPY RETURNDATASIZE SWAP1 REVERT JUMPDEST PUSH1 0x40 MLOAD PUSH3 0x461BCD PUSH1 0xE5 SHL DUP2 MSTORE PUSH1 0x20 PUSH1 0x4 DUP3 ADD MSTORE PUSH1 0x16 PUSH1 0x24 DUP3 ADD MSTORE PUSH32 0x496E76616C696420726F75746572206164647265737300000000000000000000 PUSH1 0x44 DUP3 ADD MSTORE PUSH1 0x64 SWAP1 REVERT JUMPDEST PUSH1 0x0 DUP1 REVERT JUMPDEST PUSH1 0x1F SWAP1 SWAP2 ADD PUSH1 0x1F NOT AND DUP2 ADD SWAP1 PUSH1 0x1 PUSH1 0x1 PUSH1 0x40 SHL SUB DUP3 GT SWAP1 DUP3 LT OR PUSH2 0x154 JUMPI PUSH1 0x40 MSTORE JUMP JUMPDEST PUSH4 0x4E487B71 PUSH1 0xE0 SHL PUSH1 0x0 MSTORE PUSH1 0x41 PUSH1 0x4 MSTORE PUSH1 0x24 PUSH1 0x0 REVERT JUMPDEST SWAP1 DUP2 PUSH1 0x20 SWAP2 SUB SLT PUSH2 0x12C JUMPI MLOAD PUSH1 0x1 PUSH1 0x1 PUSH1 0xA0 SHL SUB DUP2 AND DUP2 SUB PUSH2 0x12C JUMPI SWAP1 JUMP INVALID PUSH1 0x80 PUSH1 0x40 MSTORE PUSH1 0x4 CALLDATASIZE LT ISZERO PUSH2 0x23 JUMPI JUMPDEST CALLDATASIZE ISZERO PUSH2 0x19 JUMPI PUSH1 0x0 DUP1 REVERT JUMPDEST PUSH2 0x21 PUSH2 0x465 JUMP JUMPDEST STOP JUMPDEST PUSH1 0x0 CALLDATALOAD PUSH1 0xE0 SHR DUP1 PUSH4 0x255A03B EQ PUSH2 0x32C JUMPI DUP1 PUSH4 0x20800A00 EQ PUSH2 0x2B4 JUMPI DUP1 PUSH4 0x57376198 EQ PUSH2 0x175 JUMPI DUP1 PUSH4 0x8DA5CB5B EQ PUSH2 0x14C JUMPI DUP1 PUSH4 0xAD5C4648 EQ PUSH2 0x107 JUMPI DUP1 PUSH4 0xD1B812CD EQ PUSH2 0xDE JUMPI DUP1 PUSH4 0xF887EA40 EQ PUSH2 0x99 JUMPI PUSH4 0xFD0DA099 SUB PUSH2 0xE JUMPI PUSH1 0x0 CALLDATASIZE PUSH1 0x3 NOT ADD SLT PUSH2 0x94 JUMPI PUSH2 0x21 PUSH2 0x465 JUMP JUMPDEST PUSH1 0x0 DUP1 REVERT JUMPDEST CALLVALUE PUSH2 0x94 JUMPI PUSH1 0x0 CALLDATASIZE PUSH1 0x3 NOT ADD SLT PUSH2 0x94 JUMPI PUSH1 0x40 MLOAD PUSH32 0x0 PUSH1 0x1 PUSH1 0x1 PUSH1 0xA0 SHL SUB AND DUP2 MSTORE PUSH1 0x20 SWAP1 RETURN JUMPDEST CALLVALUE PUSH2 0x94 JUMPI PUSH1 0x0 CALLDATASIZE PUSH1 0x3 NOT ADD SLT PUSH2 0x94 JUMPI PUSH1 0x1 SLOAD PUSH1 0x40 MLOAD PUSH1 0x1 PUSH1 0x1 PUSH1 0xA0 SHL SUB SWAP1 SWAP2 AND DUP2 MSTORE PUSH1 0x20 SWAP1 RETURN JUMPDEST CALLVALUE PUSH2 0x94 JUMPI PUSH1 0x0 CALLDATASIZE PUSH1 0x3 NOT ADD SLT PUSH2 0x94 JUMPI PUSH1 0x40 MLOAD PUSH32 0x0 PUSH1 0x1 PUSH1 0x1 PUSH1 0xA0 SHL SUB AND DUP2 MSTORE PUSH1 0x20 SWAP1 RETURN JUMPDEST CALLVALUE PUSH2 0x94 JUMPI PUSH1 0x0 CALLDATASIZE PUSH1 0x3 NOT ADD SLT PUSH2 0x94 JUMPI PUSH1 0x0 SLOAD PUSH1 0x40 MLOAD PUSH1 0x1 PUSH1 0x1 PUSH1 0xA0 SHL SUB SWAP1 SWAP2 AND DUP2 MSTORE PUSH1 0x20 SWAP1 RETURN JUMPDEST CALLVALUE PUSH2 0x94 JUMPI PUSH1 0x40 CALLDATASIZE PUSH1 0x3 NOT ADD SLT PUSH2 0x94 JUMPI PUSH2 0x18E PUSH2 0x3DE JUMP JUMPDEST PUSH1 0x0 SLOAD PUSH1 0x24 CALLDATALOAD SWAP2 PUSH1 0x1 PUSH1 0x1 PUSH1 0xA0 SHL SUB SWAP1 SWAP2 AND SWAP1 PUSH2 0x1AC CALLER DUP4 EQ PUSH2 0x3F4 JUMP JUMPDEST PUSH1 0x1 PUSH1 0x1 PUSH1 0xA0 SHL SUB AND SWAP2 DUP3 ISZERO PUSH2 0x277 JUMPI DUP1 ISZERO PUSH2 0x233 JUMPI PUSH1 0x44 PUSH1 0x20 SWAP3 PUSH1 0x0 PUSH1 0x40 MLOAD SWAP6 DUP7 SWAP5 DUP6 SWAP4 PUSH4 0xA9059CBB PUSH1 0xE0 SHL DUP6 MSTORE PUSH1 0x4 DUP6 ADD MSTORE PUSH1 0x24 DUP5 ADD MSTORE GAS CALL DUP1 ISZERO PUSH2 0x227 JUMPI PUSH2 0x1F3 JUMPI STOP JUMPDEST PUSH1 0x20 DUP2 RETURNDATASIZE PUSH1 0x20 GT PUSH2 0x21F JUMPI JUMPDEST DUP2 PUSH2 0x20C PUSH1 0x20 SWAP4 DUP4 PUSH2 0x42C JUMP JUMPDEST DUP2 ADD SUB SLT PUSH2 0x94 JUMPI MLOAD DUP1 ISZERO ISZERO SUB PUSH2 0x94 JUMPI STOP JUMPDEST RETURNDATASIZE SWAP2 POP PUSH2 0x1FF JUMP JUMPDEST PUSH1 0x40 MLOAD RETURNDATASIZE PUSH1 0x0 DUP3 RETURNDATACOPY RETURNDATASIZE SWAP1 REVERT JUMPDEST PUSH1 0x64 PUSH1 0x40 MLOAD PUSH3 0x461BCD PUSH1 0xE5 SHL DUP2 MSTORE PUSH1 0x20 PUSH1 0x4 DUP3 ADD MSTORE PUSH1 0x20 PUSH1 0x24 DUP3 ADD MSTORE PUSH32 0x416D6F756E74206D7573742062652067726561746572207468616E207A65726F PUSH1 0x44 DUP3 ADD MSTORE REVERT JUMPDEST PUSH1 0x40 MLOAD PUSH3 0x461BCD PUSH1 0xE5 SHL DUP2 MSTORE PUSH1 0x20 PUSH1 0x4 DUP3 ADD MSTORE PUSH1 0x15 PUSH1 0x24 DUP3 ADD MSTORE PUSH21 0x496E76616C696420746F6B656E2061646472657373 PUSH1 0x58 SHL PUSH1 0x44 DUP3 ADD MSTORE PUSH1 0x64 SWAP1 REVERT JUMPDEST CALLVALUE PUSH2 0x94 JUMPI PUSH1 0x0 CALLDATASIZE PUSH1 0x3 NOT ADD SLT PUSH2 0x94 JUMPI PUSH1 0x0 SLOAD PUSH1 0x1 PUSH1 0x1 PUSH1 0xA0 SHL SUB AND PUSH2 0x2DC CALLER DUP3 EQ PUSH2 0x3F4 JUMP JUMPDEST SELFBALANCE SWAP1 DUP2 ISZERO PUSH2 0x2F4 JUMPI PUSH1 0x0 DUP1 DUP1 SWAP4 DUP2 SWAP4 DUP3 CALL ISZERO PUSH2 0x227 JUMPI STOP JUMPDEST PUSH1 0x40 MLOAD PUSH3 0x461BCD PUSH1 0xE5 SHL DUP2 MSTORE PUSH1 0x20 PUSH1 0x4 DUP3 ADD MSTORE PUSH1 0x10 PUSH1 0x24 DUP3 ADD MSTORE PUSH16 0x4E6F2045544820746F20726573637565 PUSH1 0x80 SHL PUSH1 0x44 DUP3 ADD MSTORE PUSH1 0x64 SWAP1 REVERT JUMPDEST CALLVALUE PUSH2 0x94 JUMPI PUSH1 0x20 CALLDATASIZE PUSH1 0x3 NOT ADD SLT PUSH2 0x94 JUMPI PUSH2 0x345 PUSH2 0x3DE JUMP JUMPDEST PUSH2 0x35A PUSH1 0x1 DUP1 PUSH1 0xA0 SHL SUB PUSH1 0x0 SLOAD AND CALLER EQ PUSH2 0x3F4 JUMP JUMPDEST PUSH1 0x1 PUSH1 0x1 PUSH1 0xA0 SHL SUB AND DUP1 ISZERO PUSH2 0x3A9 JUMPI PUSH1 0x1 DUP1 SLOAD PUSH1 0x1 PUSH1 0x1 PUSH1 0xA0 SHL SUB NOT AND DUP3 OR SWAP1 SSTORE PUSH1 0x40 MLOAD SWAP1 DUP2 MSTORE PUSH32 0x135BAC2D3F9180FA839DE36F3B78D0EE5FFB6E951F320577EB42A392A5FF4BA SWAP1 PUSH1 0x20 SWAP1 LOG1 STOP JUMPDEST PUSH1 0x40 MLOAD PUSH3 0x461BCD PUSH1 0xE5 SHL DUP2 MSTORE PUSH1 0x20 PUSH1 0x4 DUP3 ADD MSTORE PUSH1 0xD PUSH1 0x24 DUP3 ADD MSTORE PUSH13 0x24B73B30B634B2103A37B5B2B7 PUSH1 0x99 SHL PUSH1 0x44 DUP3 ADD MSTORE PUSH1 0x64 SWAP1 REVERT JUMPDEST PUSH1 0x4 CALLDATALOAD SWAP1 PUSH1 0x1 PUSH1 0x1 PUSH1 0xA0 SHL SUB DUP3 AND DUP3 SUB PUSH2 0x94 JUMPI JUMP JUMPDEST ISZERO PUSH2 0x3FB JUMPI JUMP JUMPDEST PUSH1 0x40 MLOAD PUSH3 0x461BCD PUSH1 0xE5 SHL DUP2 MSTORE PUSH1 0x20 PUSH1 0x4 DUP3 ADD MSTORE PUSH1 0x9 PUSH1 0x24 DUP3 ADD MSTORE PUSH9 0x2737BA1037BBB732B9 PUSH1 0xB9 SHL PUSH1 0x44 DUP3 ADD MSTORE PUSH1 0x64 SWAP1 REVERT JUMPDEST PUSH1 0x1F SWAP1 SWAP2 ADD PUSH1 0x1F NOT AND DUP2 ADD SWAP1 PUSH1 0x1 PUSH1 0x1 PUSH1 0x40 SHL SUB DUP3 GT SWAP1 DUP3 LT OR PUSH2 0x44F JUMPI PUSH1 0x40 MSTORE JUMP JUMPDEST PUSH4 0x4E487B71 PUSH1 0xE0 SHL PUSH1 0x0 MSTORE PUSH1 0x41 PUSH1 0x4 MSTORE PUSH1 0x24 PUSH1 0x0 REVERT JUMPDEST PUSH1 0x0 CALLVALUE ISZERO PUSH2 0x655 JUMPI PUSH1 0x1 SLOAD PUSH1 0x1 PUSH1 0x1 PUSH1 0xA0 SHL SUB AND DUP1 ISZERO PUSH2 0x617 JUMPI PUSH1 0x40 MLOAD SWAP1 PUSH2 0x48E PUSH1 0x60 DUP4 PUSH2 0x42C JUMP JUMPDEST PUSH1 0x2 DUP3 MSTORE PUSH1 0x20 DUP3 ADD SWAP1 PUSH1 0x40 CALLDATASIZE DUP4 CALLDATACOPY DUP3 MLOAD ISZERO PUSH2 0x603 JUMPI PUSH32 0x0 PUSH1 0x1 PUSH1 0x1 PUSH1 0xA0 SHL SUB AND DUP3 MSTORE DUP3 MLOAD PUSH1 0x1 LT ISZERO PUSH2 0x603 JUMPI PUSH1 0x40 DUP4 ADD MSTORE PUSH32 0x0 PUSH1 0x1 PUSH1 0x1 PUSH1 0xA0 SHL SUB AND SWAP1 TIMESTAMP PUSH2 0x258 DUP2 ADD SWAP1 DUP2 LT PUSH2 0x5EF JUMPI DUP3 EXTCODESIZE ISZERO PUSH2 0x5EB JUMPI PUSH1 0x40 MLOAD PUSH4 0xB6F9DE95 PUSH1 0xE0 SHL DUP2 MSTORE PUSH1 0x4 DUP2 ADD DUP7 SWAP1 MSTORE PUSH1 0x80 PUSH1 0x24 DUP3 ADD MSTORE SWAP4 MLOAD PUSH1 0x84 DUP6 ADD DUP2 SWAP1 MSTORE DUP6 SWAP4 DUP6 SWAP4 SWAP1 SWAP3 PUSH1 0xA4 DUP6 ADD SWAP3 SWAP1 SWAP2 SWAP1 DUP7 JUMPDEST DUP2 DUP2 LT PUSH2 0x5C6 JUMPI POP POP POP DUP4 SWAP2 DUP3 SWAP2 PUSH2 0xDEAD PUSH1 0x44 DUP5 ADD MSTORE PUSH1 0x64 DUP4 ADD MSTORE SUB SWAP2 CALLVALUE SWAP1 GAS CALL DUP1 ISZERO PUSH2 0x5BB JUMPI PUSH2 0x5AB JUMPI JUMPDEST POP POP PUSH32 0x605C5B4F4308C1E42A024DB1DC59389917CCC2058E83A1F6B672D8D60D12D7E1 PUSH1 0x20 PUSH1 0x40 MLOAD CALLVALUE DUP2 MSTORE LOG1 JUMP JUMPDEST DUP2 PUSH2 0x5B5 SWAP2 PUSH2 0x42C JUMP JUMPDEST CODESIZE PUSH2 0x57D JUMP JUMPDEST PUSH1 0x40 MLOAD RETURNDATASIZE DUP5 DUP3 RETURNDATACOPY RETURNDATASIZE SWAP1 REVERT JUMPDEST DUP3 MLOAD PUSH1 0x1 PUSH1 0x1 PUSH1 0xA0 SHL SUB AND DUP6 MSTORE DUP10 SWAP8 POP DUP9 SWAP7 POP PUSH1 0x20 SWAP5 DUP6 ADD SWAP5 SWAP1 SWAP3 ADD SWAP2 PUSH1 0x1 ADD PUSH2 0x551 JUMP JUMPDEST DUP5 DUP1 REVERT JUMPDEST PUSH4 0x4E487B71 PUSH1 0xE0 SHL DUP6 MSTORE PUSH1 0x11 PUSH1 0x4 MSTORE PUSH1 0x24 DUP6 REVERT JUMPDEST PUSH4 0x4E487B71 PUSH1 0xE0 SHL DUP5 MSTORE PUSH1 0x32 PUSH1 0x4 MSTORE PUSH1 0x24 DUP5 REVERT JUMPDEST PUSH1 0x40 MLOAD PUSH3 0x461BCD PUSH1 0xE5 SHL DUP2 MSTORE PUSH1 0x20 PUSH1 0x4 DUP3 ADD MSTORE PUSH1 0x16 PUSH1 0x24 DUP3 ADD MSTORE PUSH22 0x141B185D199BDC9B481D1BDAD95B881B9BDD081CD95D PUSH1 0x52 SHL PUSH1 0x44 DUP3 ADD MSTORE PUSH1 0x64 SWAP1 REVERT JUMPDEST PUSH1 0x40 MLOAD PUSH3 0x461BCD PUSH1 0xE5 SHL DUP2 MSTORE PUSH1 0x20 PUSH1 0x4 DUP3 ADD MSTORE PUSH1 0xB PUSH1 0x24 DUP3 ADD MSTORE PUSH11 0x139BC8115512081CD95B9D PUSH1 0xAA SHL PUSH1 0x44 DUP3 ADD MSTORE PUSH1 0x64 SWAP1 REVERT INVALID LOG1 PUSH5 0x736F6C6343 STOP ADDMOD BYTE STOP EXP "},"methodIdentifiers":{"WETH()":"ad5c4648","handle()":"fd0da099","owner()":"8da5cb5b","platformToken()":"d1b812cd","rescueETH()":"20800a00","rescueTokens(address,uint256)":"57376198","router()":"f887ea40","setPlatformToken(address)":"0255a03b"}}}}}