{"contracts/TokenDeployer.sol":{"TokenDeployer":{"abi":[{"inputs":[],"name":"InvalidSalt","type":"error"},{"inputs":[{"internalType":"string","name":"name_","type":"string"},{"internalType":"string","name":"symbol_","type":"string"},{"internalType":"address","name":"factory_","type":"address"},{"internalType":"bytes32","name":"salt","type":"bytes32"},{"internalType":"uint256","name":"requiredSuffix","type":"uint256"}],"name":"deployMemeCoin","outputs":[{"internalType":"address","name":"tokenAddress","type":"address"}],"stateMutability":"nonpayable","type":"function"}],"evm":{"bytecode":{"linkReferences":{},"object":"60808060405234601557612495908161001b8239f35b600080fdfe6080604052600436101561001257600080fd5b60003560e01c635a59b3091461002757600080fd5b346101485760a0366003190112610148576004356001600160401b0381116101485761005790369060040161014d565b6024356001600160401b0381116101485761007690369060040161014d565b906044356001600160a01b038116908190036101485760405161229380820194919390916001600160401b03861185871017610132576100c96100d7926040946101f688396060885260608801906101b4565b9086820360208801526101b4565b930152806064359203906000f58015610126576084356001600160a01b031661ffff821603610115576040516001600160a01b039091168152602090f35b6381e69d9b60e01b60005260046000fd5b6040513d6000823e3d90fd5b634e487b7160e01b600052604160045260246000fd5b600080fd5b81601f82011215610148578035906001600160401b0382116101325760405192601f8301601f19908116603f011684016001600160401b03811185821017610132576040528284526020838301011161014857816000926020809301838601378301015290565b919082519283825260005b8481106101e0575050826000602080949584010152601f8019910116010190565b806020809284010151828286010152016101bf56fe60806040523461036657612293803803806100198161036b565b9283398101906060818303126103665780516001600160401b0381116103665782610045918301610390565b60208201519092906001600160401b03811161036657604091610069918401610390565b9101516001600160a01b038116908190036103665760016000556003805460ff1916601217905582516001600160401b03811161026f57600154600181811c9116801561035c575b602082101461024f57601f81116102f7575b506020601f82116001146102905781929394600092610285575b50508160011b916000199060031b1c1916176001555b81516001600160401b03811161026f57600254600181811c91168015610265575b602082101461024f57601f81116101ea575b50602092601f8211600114610185579281929360009261017a575b50508160011b916000199060031b1c1916176002555b600580546001600160a01b031916919091179055604051611e9790816103fc8239f35b015190503880610141565b601f198216936002600052806000209160005b8681106101d257508360019596106101b9575b505050811b01600255610157565b015160001960f88460031b161c191690553880806101ab565b91926020600181928685015181550194019201610198565b60026000527f405787fa12a823e0f2b7631cc41b3ba8828b3321ca811111fa75cd3aa3bb5ace601f830160051c81019160208410610245575b601f0160051c01905b8181106102395750610126565b6000815560010161022c565b9091508190610223565b634e487b7160e01b600052602260045260246000fd5b90607f1690610114565b634e487b7160e01b600052604160045260246000fd5b0151905038806100dd565b601f198216906001600052806000209160005b8181106102df575095836001959697106102c6575b505050811b016001556100f3565b015160001960f88460031b161c191690553880806102b8565b9192602060018192868b0151815501940192016102a3565b60016000527fb10e2d527612073b26eecdfd717e6a320cf44b4afac2b0732d9fcbe2b7fa0cf6601f830160051c81019160208410610352575b601f0160051c01905b81811061034657506100c3565b60008155600101610339565b9091508190610330565b90607f16906100b1565b600080fd5b6040519190601f01601f191682016001600160401b0381118382101761026f57604052565b81601f82011215610366578051906001600160401b03821161026f576103bf601f8301601f191660200161036b565b92828452602083830101116103665760005b8281106103e657505060206000918301015290565b806020809284010151828287010152016103d156fe608080604052600436101561001357600080fd5b60003560e01c90816302d05d3f146110225750806306fdde0314610f635780630700037d14610f295780630718e39214610f04578063095ea7b314610e8a5780630c9cd50314610e6557806318160ddd14610e475780631a08a9c814610e2a5780632194f3a214610e0157806323b872dd14610d715780632515c8c914610d4e5780632b93118014610d295780632ebd7c4714610d0b578063313ce56714610cea5780633735e15514610cc557806340c10f1914610c37578063452ed4f114610c0e5780635873eb9b14610bd4578063619aa33814610baf57806370a0823114610b755780637bf5b04b14610b465780637d9b2b4c14610b29578063870bd30b14610b06578063939d623714610ae857806395d89b41146109dd5780639f5d2a21146109bf578063a9059cbb1461098e578063ad5c464814610965578063b70d8cc41461093f578063b718e88314610916578063c31c9c07146108e9578063c45a0155146108c0578063c9af097d14610471578063dd62ed3e14610420578063de126e18146103fb578063e769a525146103d9578063f0fc6bca146101ef5763f7c618c1146101c157600080fd5b346101ea5760003660031901126101ea57600d546040516001600160a01b039091168152602090f35b600080fd5b346101ea5760003660031901126101ea576001600054036103c857600260005560ff600b54161580156103b8575b80156103a5575b8015610394575b6103835761023833611acb565b3360005260146020526040600020548015610372573360005260146020526000604081205560018060a01b03600d54166040516370a0823160e01b8152306004820152602081602481855afa801561032057839160009161033d575b501061032c576102c060209160009360405194858094819363a9059cbb60e01b8352336004840161113c565b03925af1908115610320576000916102f1575b50156102e0576001600055005b6334a43c6360e01b60005260046000fd5b610313915060203d602011610319575b61030b8183611046565b810190611124565b816102d3565b503d610301565b6040513d6000823e3d90fd5b63f6a2c5e560e01b60005260046000fd5b9150506020813d60201161036a575b8161035960209383611046565b810103126101ea5782905184610294565b3d915061034c565b63f9820cc160e01b60005260046000fd5b6310ee918760e01b60005260046000fd5b5061ffff600a5460d81c161561022b565b50600d546001600160a01b031615610224565b5060ff600a5460a01c161561021d565b63558a1e0360e11b60005260046000fd5b346101ea5760003660031901126101ea57602061ffff60105416604051908152f35b346101ea5760003660031901126101ea57602061ffff600a5460a81c16604051908152f35b346101ea5760403660031901126101ea576104396110c8565b6104416110de565b6001600160a01b039182166000908152600760209081526040808320949093168252928352819020549051908152f35b346101ea576102203660031901126101ea576005546000906001600160a01b031633036108b157600a5460ff8160a01c166108a2576001600160a01b036104b6611693565b1615801561088a575b610831576103e861ffff6104d161171a565b161161087b576105146105096104fe61ffff6104eb61172b565b1661ffff6104f761173c565b1690611117565b61ffff6104f761174d565b61ffff6104f761175e565b61ffff61051f61171a565b16156108675761271003610858575b61ffff61053961172b565b16151580610840575b6108315761ffff61055161174d565b166107ec575b61ffff61056261174d565b166107b0575b6001600160a01b036105786116a9565b60098054919092166001600160a01b03199091161790556001600160a01b0361059f611693565b60088054919092166001600160a01b03199091161790556001600160a01b036105c66116bf565b169061ffff60a81b6105d661171a565b60a81b1661ffff60b81b6105e861172b565b60b81b169261ffff60c81b6105fb61173c565b60c81b169161ffff60d81b61060e61174d565b60d81b169061ffff60e81b61062161175e565b60e81b16936101043595861515968781036107ac575061063f61176f565b600b549015159060ff610100600160a81b036106596116d5565b60081b1692169060018060a81b0319161717600b5560018060a01b0361067d6116ec565b600c8054919092166001600160a01b03199091161790556001600160a01b036106a4611703565b1660018060a01b0319600d541617600d556101a435600f556101c43561ffff8116908181036107a45750601054906101e43561ffff811681036107a85763ffffffff1990921617601091821b63ffff0000161790556001600160a01b0361020435908116908181036107a45750600e80546001600160a01b031916919091179055600160a01b600166ffffffffffff0160a01b031990911661ffff60c81b1995909516949094179190911763ffffffff60d81b191661ffff60e81b199690961695909517909417600160ff60a01b01600160f81b031660ff60a01b199490941693909317176001600160f81b031960f89290921b919091161717600a5580f35b8a80fd5b8b80fd5b8980fd5b6107b861176f565b1580156107d4575b156105685763bb96da6360e01b8252600482fd5b506001600160a01b036107e5611703565b16156107c0565b6001600160a01b036107fc6116d5565b16158015610819575b156105575763bb96da6360e01b8252600482fd5b506001600160a01b0361082a6116ec565b1615610805565b63ae9954c360e01b8252600482fd5b506001600160a01b036108516116bf565b1615610542565b63aff1d87b60e01b8252600482fd5b1561052e5763aff1d87b60e01b8252600482fd5b63f9edd1ef60e01b8252600482fd5b506001600160a01b0361089b6116a9565b16156104bf565b637cdf305160e11b8252600482fd5b630636a15760e11b8152600490fd5b346101ea5760003660031901126101ea576005546040516001600160a01b039091168152602090f35b346101ea5760003660031901126101ea57600b5460405160089190911c6001600160a01b03168152602090f35b346101ea5760003660031901126101ea57600e546040516001600160a01b039091168152602090f35b346101ea5760003660031901126101ea57602060ff600a5460a01c166040519015158152f35b346101ea5760003660031901126101ea57600c546040516001600160a01b039091168152602090f35b346101ea5760403660031901126101ea576109b46109aa6110c8565b602435903361177f565b602060405160018152f35b346101ea5760003660031901126101ea576020600f54604051908152f35b346101ea5760003660031901126101ea5760006040519080600254908160011c91600181168015610ade575b602084108114610aca57838652908115610aa35750600114610a46575b610a4284610a3681860382611046565b6040519182918261107f565b0390f35b600281527f405787fa12a823e0f2b7631cc41b3ba8828b3321ca811111fa75cd3aa3bb5ace939250905b808210610a8957509091508101602001610a3682610a26565b919260018160209254838588010152019101909291610a70565b60ff191660208087019190915292151560051b85019092019250610a369150839050610a26565b634e487b7160e01b83526022600452602483fd5b92607f1692610a09565b346101ea5760003660031901126101ea576020601254604051908152f35b346101ea5760003660031901126101ea576020600a5460f81c6040519015158152f35b346101ea5760003660031901126101ea5760206040516127108152f35b346101ea5760003660031901126101ea576001600054036103c8576002600055610b6e61119d565b6001600055005b346101ea5760203660031901126101ea576001600160a01b03610b966110c8565b1660005260066020526020604060002054604051908152f35b346101ea5760003660031901126101ea57602061ffff600a5460b81c16604051908152f35b346101ea5760203660031901126101ea576001600160a01b03610bf56110c8565b1660005260136020526020604060002054604051908152f35b346101ea5760003660031901126101ea576008546040516001600160a01b039091168152602090f35b346101ea5760403660031901126101ea57610c506110c8565b60055460243591906001600160a01b03163303610cb457600080516020611e6b8339815191526020600092610c8785600454611117565b60045560018060a01b0316938484526006825260408420610ca9828254611117565b9055604051908152a3005b630636a15760e11b60005260046000fd5b346101ea5760003660031901126101ea57602061ffff600a5460d81c16604051908152f35b346101ea5760003660031901126101ea57602060ff60035416604051908152f35b346101ea5760003660031901126101ea576020601154604051908152f35b346101ea5760003660031901126101ea57602061ffff60105460101c16604051908152f35b346101ea5760003660031901126101ea57602060ff600b54166040519015158152f35b346101ea5760603660031901126101ea57610d8a6110c8565b610d926110de565b6001600160a01b0382166000818152600760209081526040808320338452909152902054926044359291838510610df057610dd0846109b4966110f4565b60009182526007602090815260408084203385529091529091205561177f565b6313be252b60e01b60005260046000fd5b346101ea5760003660031901126101ea57600a546040516001600160a01b039091168152602090f35b346101ea5760003660031901126101ea5760206040516103e88152f35b346101ea5760003660031901126101ea576020600454604051908152f35b346101ea5760003660031901126101ea57602061ffff600a5460e81c16604051908152f35b346101ea5760403660031901126101ea57610ea36110c8565b3360008181526007602090815260408083206001600160a01b03909516808452948252918290206024359081905591519182527f8c5be1e5ebec7d5bd14f71427d1e84f3dd0314c0f7b2291e5b200ac8c7c3b92591a3602060405160018152f35b346101ea5760003660031901126101ea57602061ffff600a5460c81c16604051908152f35b346101ea5760203660031901126101ea576001600160a01b03610f4a6110c8565b1660005260146020526020604060002054604051908152f35b346101ea5760003660031901126101ea5760006040519080600154908160011c91600181168015611018575b602084108114610aca57838652908115610aa35750600114610fbb57610a4284610a3681860382611046565b600181527fb10e2d527612073b26eecdfd717e6a320cf44b4afac2b0732d9fcbe2b7fa0cf6939250905b808210610ffe57509091508101602001610a3682610a26565b919260018160209254838588010152019101909291610fe5565b92607f1692610f8f565b346101ea5760003660031901126101ea576009546001600160a01b03168152602090f35b601f909101601f19168101906001600160401b0382119082101761106957604052565b634e487b7160e01b600052604160045260246000fd5b91909160208152825180602083015260005b8181106110b2575060409293506000838284010152601f8019910116010190565b8060208092870101516040828601015201611091565b600435906001600160a01b03821682036101ea57565b602435906001600160a01b03821682036101ea57565b9190820391821161110157565b634e487b7160e01b600052601160045260246000fd5b9190820180921161110157565b908160209103126101ea575180151581036101ea5790565b6001600160a01b039091168152602081019190915260400190565b8051156111645760200190565b634e487b7160e01b600052603260045260246000fd5b8051600110156111645760400190565b8181029291811591840414171561110157565b600b549060009160ff8116158015611683575b801561166e575b801561165d575b61164e576011549081156116405730845260066020526040842054828110611646575b5081156116405760405163095ea7b360e01b8152906020908290819061121890869060081c6001600160a01b03166004840161113c565b038187305af1801561152557611623575b50600d546040516370a0823160e01b815230600482015291906001600160a01b0316602083602481845afa92831561154b5785936115eb575b50600c546001600160a01b031690808203611593575060405190611287606083611046565b6002825260403660208401376112a782306112a182611157565b5261117a565b525b60018060a01b03600b5460081c1661025842019182421161157f57813b1561157b57918691604051938492635c11d79560e01b845260a4840187600486015285602486015260a060448601528251809152602060c48601930190865b818110611556575050508380928692306064840152608483015203925af1801561154b57611530575b509061133e6024926011546110f4565b601155600d546040516370a0823160e01b81523060048201529260209184919082906001600160a01b03165afa80156115255784906114f1575b61138292506110f4565b80156114ec576004546008549091906001600160a01b0316806114c8575b506005546001600160a01b0316845260066020526040842054828111156114b7575b5030845260066020526040842054828111156114a6575b508380526006602052604084205482811115611495575b50600e546001600160a01b031680611471575b5081158015611414575b5050509050565b64e8d4a51000820291820464e8d4a510000361145d576114495761143d92935004601254611117565b6012558038808061140d565b634e487b7160e01b84526012600452602484fd5b634e487b7160e01b85526011600452602485fd5b8452600660205260408420548281116114035761148e91926110f4565b9038611403565b61149f91926110f4565b90386113f0565b6114b091926110f4565b90386113d9565b6114c191926110f4565b90386113c2565b8452600660205260408420548281116113a0576114e591926110f4565b90386113a0565b509050565b506020823d60201161151d575b8161150b60209383611046565b810103126101ea576113829151611378565b3d91506114fe565b6040513d86823e3d90fd5b84611542602494939661133e93611046565b9491925061132e565b6040513d87823e3d90fd5b82516001600160a01b031685528c975088965060209485019490920191600101611305565b8680fd5b634e487b7160e01b87526011600452602487fd5b6040516115a1608082611046565b6003815260603660208301378092306115b983611157565b526115c38261117a565b528051600210156115d757606001526112a9565b634e487b7160e01b87526032600452602487fd5b9092506020813d60201161161b575b8161160760209383611046565b8101031261161757519138611262565b8480fd5b3d91506115fa565b61163b9060203d6020116103195761030b8183611046565b611229565b50509050565b9150386111e1565b6310ee918760e01b8352600483fd5b5061ffff600a5460d81c16156111be565b50600881901c6001600160a01b0316156111b7565b5060ff600a5460a01c16156111b0565b6024356001600160a01b03811681036101ea5790565b6004356001600160a01b03811681036101ea5790565b6044356001600160a01b03811681036101ea5790565b610144356001600160a01b03811681036101ea5790565b610164356001600160a01b03811681036101ea5790565b610184356001600160a01b03811681036101ea5790565b60643561ffff811681036101ea5790565b60843561ffff811681036101ea5790565b60a43561ffff811681036101ea5790565b60c43561ffff811681036101ea5790565b60e43561ffff811681036101ea5790565b6101243580151581036101ea5790565b9160018060a01b0383168060005260066020528160406000205410611aba576117a88385611be7565b8015611ab2575b611a6b576117be828486611c39565b6000600a54928360f81c80611a5b575b611a3e575b6117dd82826110f4565b9360ff600b54169081611a2f575b81611a1e575b50611a07575b82600052600660205260406000209081540390558061189c575b50600080516020611e6b833981519152602060018060a01b0385169384600052600682526040600020611845828254611117565b9055604051908152a360ff600b54168061188d575b8061187b575b611868575050565b61187461187992611acb565b611acb565b565b5061ffff600a5460d81c161515611860565b5060ff600a5460a01c1661185a565b600a54826127106118b461ffff8460b81c168561118a565b0492836118f96127106118ce61ffff8760c81c168561118a565b04926118f4846118f46127106118eb61ffff8b60d81c168661118a565b04998a946110f4565b6110f4565b93816119b5575b505080158015906119ac575b611965575b50505080156118115761195c903060005260066020526040600020611937828254611117565b905560405181815283600080516020611e6b83398151915260203093a3601154611117565b60115538611811565b602061198361dead94600080516020611e6b83398151915293611117565b8460005260068252604060002061199b828254611117565b9055604051908152a3388281611911565b5082151561190c565b60018060a01b0316600052600660205260406000206119d5828254611117565b9055600a546040519182526001600160a01b0316908390600080516020611e6b83398151915290602090a33880611900565b611a1086611acb565b611a1985611acb565b6117f7565b61ffff915060d81c161515386117f1565b905060ff8160a01c16906117eb565b9050612710611a5461ffff8560a81c168361118a565b04906117d3565b5061ffff8460a81c1615156117ce565b8060005260066020526040600020828154039055600080516020611e6b833981519152602060018060a01b0385169384600052600682526040600020611845828254611117565b5081156117af565b631e9acf1760e31b60005260046000fd5b6001600160a01b038116908115611baf5760ff600b5416158015611bd7575b8015611bc4575b8015611bb3575b611baf57611b0590611d7c565b611b8e5780600052600660205264e8d4a51000611b5160406000205482611b2e6012548361118a565b04846000526013602052604060002054808211611b63575b50506012549061118a565b04906000526013602052604060002055565b611b6c916110f4565b846000526014602052611b856040600020918254611117565b90553880611b46565b80600052600660205264e8d4a51000611b516040600020546012549061118a565b5050565b5061ffff600a5460d81c1615611af8565b50600d546001600160a01b031615611af1565b5060ff600a5460a01c1615611aea565b60ff600a5460a01c1615611c32576005546001600160a01b0390811691168114918215611c1f575b5050611c1a57600090565b600190565b6001600160a01b03161490503880611c0f565b5050600190565b9160ff600a5460a01c1680611d71575b80611d66575b15611d61576004546010549361ffff851694612710611c8261ffff82611c758a8861118a565b049360101c16809561118a565b0495611d03575b506008546001600160a01b039182169116149081611cf9575b5080611ce9575b611cb257505050565b611cd19160018060a01b03166000526006602052604060002054611117565b11611cd857565b6311421d1360e01b60005260046000fd5b50611cf382611dd2565b15611ca9565b9050151538611ca2565b6008546001600160a01b03908116908316811480611d58575b611d3d576001600160a01b038616149081611d4e575b50611d3d5738611c89565b630144f4a360e51b60005260046000fd5b9050831138611d32565b50818511611d1c565b505050565b50600f544210611c4f565b50600f541515611c49565b6001600160a01b03168015611dcc576005546001600160a01b03168114611dcc576008546001600160a01b03168114611dcc57308114611dcc57600e546001600160a01b031614611c1a57600090565b50600190565b6001600160a01b031680158015611e56575b8015611e42575b8015611e39575b611dcc5761dead8114611dcc57600a546001600160a01b03168114611dcc57600e546001600160a01b03168114611dcc576009546001600160a01b031614611c1a57600090565b50308114611df2565b506008546001600160a01b03168114611deb565b506005546001600160a01b03168114611de456feddf252ad1be2c89b69c2b068fc378daa952ba7f163c4a11628f55a4df523b3efa164736f6c634300081a000aa164736f6c634300081a000a","opcodes":"PUSH1 0x80 DUP1 PUSH1 0x40 MSTORE CALLVALUE PUSH1 0x15 JUMPI PUSH2 0x2495 SWAP1 DUP2 PUSH2 0x1B DUP3 CODECOPY RETURN JUMPDEST PUSH1 0x0 DUP1 REVERT INVALID PUSH1 0x80 PUSH1 0x40 MSTORE PUSH1 0x4 CALLDATASIZE LT ISZERO PUSH2 0x12 JUMPI PUSH1 0x0 DUP1 REVERT JUMPDEST PUSH1 0x0 CALLDATALOAD PUSH1 0xE0 SHR PUSH4 0x5A59B309 EQ PUSH2 0x27 JUMPI PUSH1 0x0 DUP1 REVERT JUMPDEST CALLVALUE PUSH2 0x148 JUMPI PUSH1 0xA0 CALLDATASIZE PUSH1 0x3 NOT ADD SLT PUSH2 0x148 JUMPI PUSH1 0x4 CALLDATALOAD PUSH1 0x1 PUSH1 0x1 PUSH1 0x40 SHL SUB DUP2 GT PUSH2 0x148 JUMPI PUSH2 0x57 SWAP1 CALLDATASIZE SWAP1 PUSH1 0x4 ADD PUSH2 0x14D JUMP JUMPDEST PUSH1 0x24 CALLDATALOAD PUSH1 0x1 PUSH1 0x1 PUSH1 0x40 SHL SUB DUP2 GT PUSH2 0x148 JUMPI PUSH2 0x76 SWAP1 CALLDATASIZE SWAP1 PUSH1 0x4 ADD PUSH2 0x14D JUMP JUMPDEST SWAP1 PUSH1 0x44 CALLDATALOAD PUSH1 0x1 PUSH1 0x1 PUSH1 0xA0 SHL SUB DUP2 AND SWAP1 DUP2 SWAP1 SUB PUSH2 0x148 JUMPI PUSH1 0x40 MLOAD PUSH2 0x2293 DUP1 DUP3 ADD SWAP5 SWAP2 SWAP4 SWAP1 SWAP2 PUSH1 0x1 PUSH1 0x1 PUSH1 0x40 SHL SUB DUP7 GT DUP6 DUP8 LT OR PUSH2 0x132 JUMPI PUSH2 0xC9 PUSH2 0xD7 SWAP3 PUSH1 0x40 SWAP5 PUSH2 0x1F6 DUP9 CODECOPY PUSH1 0x60 DUP9 MSTORE PUSH1 0x60 DUP9 ADD SWAP1 PUSH2 0x1B4 JUMP JUMPDEST SWAP1 DUP7 DUP3 SUB PUSH1 0x20 DUP9 ADD MSTORE PUSH2 0x1B4 JUMP JUMPDEST SWAP4 ADD MSTORE DUP1 PUSH1 0x64 CALLDATALOAD SWAP3 SUB SWAP1 PUSH1 0x0 CREATE2 DUP1 ISZERO PUSH2 0x126 JUMPI PUSH1 0x84 CALLDATALOAD PUSH1 0x1 PUSH1 0x1 PUSH1 0xA0 SHL SUB AND PUSH2 0xFFFF DUP3 AND SUB PUSH2 0x115 JUMPI PUSH1 0x40 MLOAD PUSH1 0x1 PUSH1 0x1 PUSH1 0xA0 SHL SUB SWAP1 SWAP2 AND DUP2 MSTORE PUSH1 0x20 SWAP1 RETURN JUMPDEST PUSH4 0x81E69D9B PUSH1 0xE0 SHL PUSH1 0x0 MSTORE PUSH1 0x4 PUSH1 0x0 REVERT JUMPDEST PUSH1 0x40 MLOAD RETURNDATASIZE PUSH1 0x0 DUP3 RETURNDATACOPY RETURNDATASIZE SWAP1 REVERT JUMPDEST PUSH4 0x4E487B71 PUSH1 0xE0 SHL PUSH1 0x0 MSTORE PUSH1 0x41 PUSH1 0x4 MSTORE PUSH1 0x24 PUSH1 0x0 REVERT JUMPDEST PUSH1 0x0 DUP1 REVERT JUMPDEST DUP2 PUSH1 0x1F DUP3 ADD SLT ISZERO PUSH2 0x148 JUMPI DUP1 CALLDATALOAD SWAP1 PUSH1 0x1 PUSH1 0x1 PUSH1 0x40 SHL SUB DUP3 GT PUSH2 0x132 JUMPI PUSH1 0x40 MLOAD SWAP3 PUSH1 0x1F DUP4 ADD PUSH1 0x1F NOT SWAP1 DUP2 AND PUSH1 0x3F ADD AND DUP5 ADD PUSH1 0x1 PUSH1 0x1 PUSH1 0x40 SHL SUB DUP2 GT DUP6 DUP3 LT OR PUSH2 0x132 JUMPI PUSH1 0x40 MSTORE DUP3 DUP5 MSTORE PUSH1 0x20 DUP4 DUP4 ADD ADD GT PUSH2 0x148 JUMPI DUP2 PUSH1 0x0 SWAP3 PUSH1 0x20 DUP1 SWAP4 ADD DUP4 DUP7 ADD CALLDATACOPY DUP4 ADD ADD MSTORE SWAP1 JUMP JUMPDEST SWAP2 SWAP1 DUP3 MLOAD SWAP3 DUP4 DUP3 MSTORE PUSH1 0x0 JUMPDEST DUP5 DUP2 LT PUSH2 0x1E0 JUMPI POP POP DUP3 PUSH1 0x0 PUSH1 0x20 DUP1 SWAP5 SWAP6 DUP5 ADD ADD MSTORE PUSH1 0x1F DUP1 NOT SWAP2 ADD AND ADD ADD SWAP1 JUMP JUMPDEST DUP1 PUSH1 0x20 DUP1 SWAP3 DUP5 ADD ADD MLOAD DUP3 DUP3 DUP7 ADD ADD MSTORE ADD PUSH2 0x1BF JUMP INVALID PUSH1 0x80 PUSH1 0x40 MSTORE CALLVALUE PUSH2 0x366 JUMPI PUSH2 0x2293 DUP1 CODESIZE SUB DUP1 PUSH2 0x19 DUP2 PUSH2 0x36B JUMP JUMPDEST SWAP3 DUP4 CODECOPY DUP2 ADD SWAP1 PUSH1 0x60 DUP2 DUP4 SUB SLT PUSH2 0x366 JUMPI DUP1 MLOAD PUSH1 0x1 PUSH1 0x1 PUSH1 0x40 SHL SUB DUP2 GT PUSH2 0x366 JUMPI DUP3 PUSH2 0x45 SWAP2 DUP4 ADD PUSH2 0x390 JUMP JUMPDEST PUSH1 0x20 DUP3 ADD MLOAD SWAP1 SWAP3 SWAP1 PUSH1 0x1 PUSH1 0x1 PUSH1 0x40 SHL SUB DUP2 GT PUSH2 0x366 JUMPI PUSH1 0x40 SWAP2 PUSH2 0x69 SWAP2 DUP5 ADD PUSH2 0x390 JUMP JUMPDEST SWAP2 ADD MLOAD PUSH1 0x1 PUSH1 0x1 PUSH1 0xA0 SHL SUB DUP2 AND SWAP1 DUP2 SWAP1 SUB PUSH2 0x366 JUMPI PUSH1 0x1 PUSH1 0x0 SSTORE PUSH1 0x3 DUP1 SLOAD PUSH1 0xFF NOT AND PUSH1 0x12 OR SWAP1 SSTORE DUP3 MLOAD PUSH1 0x1 PUSH1 0x1 PUSH1 0x40 SHL SUB DUP2 GT PUSH2 0x26F JUMPI PUSH1 0x1 SLOAD PUSH1 0x1 DUP2 DUP2 SHR SWAP2 AND DUP1 ISZERO PUSH2 0x35C JUMPI JUMPDEST PUSH1 0x20 DUP3 LT EQ PUSH2 0x24F JUMPI PUSH1 0x1F DUP2 GT PUSH2 0x2F7 JUMPI JUMPDEST POP PUSH1 0x20 PUSH1 0x1F DUP3 GT PUSH1 0x1 EQ PUSH2 0x290 JUMPI DUP2 SWAP3 SWAP4 SWAP5 PUSH1 0x0 SWAP3 PUSH2 0x285 JUMPI JUMPDEST POP POP DUP2 PUSH1 0x1 SHL SWAP2 PUSH1 0x0 NOT SWAP1 PUSH1 0x3 SHL SHR NOT AND OR PUSH1 0x1 SSTORE JUMPDEST DUP2 MLOAD PUSH1 0x1 PUSH1 0x1 PUSH1 0x40 SHL SUB DUP2 GT PUSH2 0x26F JUMPI PUSH1 0x2 SLOAD PUSH1 0x1 DUP2 DUP2 SHR SWAP2 AND DUP1 ISZERO PUSH2 0x265 JUMPI JUMPDEST PUSH1 0x20 DUP3 LT EQ PUSH2 0x24F JUMPI PUSH1 0x1F DUP2 GT PUSH2 0x1EA JUMPI JUMPDEST POP PUSH1 0x20 SWAP3 PUSH1 0x1F DUP3 GT PUSH1 0x1 EQ PUSH2 0x185 JUMPI SWAP3 DUP2 SWAP3 SWAP4 PUSH1 0x0 SWAP3 PUSH2 0x17A JUMPI JUMPDEST POP POP DUP2 PUSH1 0x1 SHL SWAP2 PUSH1 0x0 NOT SWAP1 PUSH1 0x3 SHL SHR NOT AND OR PUSH1 0x2 SSTORE JUMPDEST PUSH1 0x5 DUP1 SLOAD PUSH1 0x1 PUSH1 0x1 PUSH1 0xA0 SHL SUB NOT AND SWAP2 SWAP1 SWAP2 OR SWAP1 SSTORE PUSH1 0x40 MLOAD PUSH2 0x1E97 SWAP1 DUP2 PUSH2 0x3FC DUP3 CODECOPY RETURN JUMPDEST ADD MLOAD SWAP1 POP CODESIZE DUP1 PUSH2 0x141 JUMP JUMPDEST PUSH1 0x1F NOT DUP3 AND SWAP4 PUSH1 0x2 PUSH1 0x0 MSTORE DUP1 PUSH1 0x0 KECCAK256 SWAP2 PUSH1 0x0 JUMPDEST DUP7 DUP2 LT PUSH2 0x1D2 JUMPI POP DUP4 PUSH1 0x1 SWAP6 SWAP7 LT PUSH2 0x1B9 JUMPI JUMPDEST POP POP POP DUP2 SHL ADD PUSH1 0x2 SSTORE PUSH2 0x157 JUMP JUMPDEST ADD MLOAD PUSH1 0x0 NOT PUSH1 0xF8 DUP5 PUSH1 0x3 SHL AND SHR NOT AND SWAP1 SSTORE CODESIZE DUP1 DUP1 PUSH2 0x1AB JUMP JUMPDEST SWAP2 SWAP3 PUSH1 0x20 PUSH1 0x1 DUP2 SWAP3 DUP7 DUP6 ADD MLOAD DUP2 SSTORE ADD SWAP5 ADD SWAP3 ADD PUSH2 0x198 JUMP JUMPDEST PUSH1 0x2 PUSH1 0x0 MSTORE PUSH32 0x405787FA12A823E0F2B7631CC41B3BA8828B3321CA811111FA75CD3AA3BB5ACE PUSH1 0x1F DUP4 ADD PUSH1 0x5 SHR DUP2 ADD SWAP2 PUSH1 0x20 DUP5 LT PUSH2 0x245 JUMPI JUMPDEST PUSH1 0x1F ADD PUSH1 0x5 SHR ADD SWAP1 JUMPDEST DUP2 DUP2 LT PUSH2 0x239 JUMPI POP PUSH2 0x126 JUMP JUMPDEST PUSH1 0x0 DUP2 SSTORE PUSH1 0x1 ADD PUSH2 0x22C JUMP JUMPDEST SWAP1 SWAP2 POP DUP2 SWAP1 PUSH2 0x223 JUMP JUMPDEST PUSH4 0x4E487B71 PUSH1 0xE0 SHL PUSH1 0x0 MSTORE PUSH1 0x22 PUSH1 0x4 MSTORE PUSH1 0x24 PUSH1 0x0 REVERT JUMPDEST SWAP1 PUSH1 0x7F AND SWAP1 PUSH2 0x114 JUMP JUMPDEST PUSH4 0x4E487B71 PUSH1 0xE0 SHL PUSH1 0x0 MSTORE PUSH1 0x41 PUSH1 0x4 MSTORE PUSH1 0x24 PUSH1 0x0 REVERT JUMPDEST ADD MLOAD SWAP1 POP CODESIZE DUP1 PUSH2 0xDD JUMP JUMPDEST PUSH1 0x1F NOT DUP3 AND SWAP1 PUSH1 0x1 PUSH1 0x0 MSTORE DUP1 PUSH1 0x0 KECCAK256 SWAP2 PUSH1 0x0 JUMPDEST DUP2 DUP2 LT PUSH2 0x2DF JUMPI POP SWAP6 DUP4 PUSH1 0x1 SWAP6 SWAP7 SWAP8 LT PUSH2 0x2C6 JUMPI JUMPDEST POP POP POP DUP2 SHL ADD PUSH1 0x1 SSTORE PUSH2 0xF3 JUMP JUMPDEST ADD MLOAD PUSH1 0x0 NOT PUSH1 0xF8 DUP5 PUSH1 0x3 SHL AND SHR NOT AND SWAP1 SSTORE CODESIZE DUP1 DUP1 PUSH2 0x2B8 JUMP JUMPDEST SWAP2 SWAP3 PUSH1 0x20 PUSH1 0x1 DUP2 SWAP3 DUP7 DUP12 ADD MLOAD DUP2 SSTORE ADD SWAP5 ADD SWAP3 ADD PUSH2 0x2A3 JUMP JUMPDEST PUSH1 0x1 PUSH1 0x0 MSTORE PUSH32 0xB10E2D527612073B26EECDFD717E6A320CF44B4AFAC2B0732D9FCBE2B7FA0CF6 PUSH1 0x1F DUP4 ADD PUSH1 0x5 SHR DUP2 ADD SWAP2 PUSH1 0x20 DUP5 LT PUSH2 0x352 JUMPI JUMPDEST PUSH1 0x1F ADD PUSH1 0x5 SHR ADD SWAP1 JUMPDEST DUP2 DUP2 LT PUSH2 0x346 JUMPI POP PUSH2 0xC3 JUMP JUMPDEST PUSH1 0x0 DUP2 SSTORE PUSH1 0x1 ADD PUSH2 0x339 JUMP JUMPDEST SWAP1 SWAP2 POP DUP2 SWAP1 PUSH2 0x330 JUMP JUMPDEST SWAP1 PUSH1 0x7F AND SWAP1 PUSH2 0xB1 JUMP JUMPDEST PUSH1 0x0 DUP1 REVERT JUMPDEST PUSH1 0x40 MLOAD SWAP2 SWAP1 PUSH1 0x1F ADD PUSH1 0x1F NOT AND DUP3 ADD PUSH1 0x1 PUSH1 0x1 PUSH1 0x40 SHL SUB DUP2 GT DUP4 DUP3 LT OR PUSH2 0x26F JUMPI PUSH1 0x40 MSTORE JUMP JUMPDEST DUP2 PUSH1 0x1F DUP3 ADD SLT ISZERO PUSH2 0x366 JUMPI DUP1 MLOAD SWAP1 PUSH1 0x1 PUSH1 0x1 PUSH1 0x40 SHL SUB DUP3 GT PUSH2 0x26F JUMPI PUSH2 0x3BF PUSH1 0x1F DUP4 ADD PUSH1 0x1F NOT AND PUSH1 0x20 ADD PUSH2 0x36B JUMP JUMPDEST SWAP3 DUP3 DUP5 MSTORE PUSH1 0x20 DUP4 DUP4 ADD ADD GT PUSH2 0x366 JUMPI PUSH1 0x0 JUMPDEST DUP3 DUP2 LT PUSH2 0x3E6 JUMPI POP POP PUSH1 0x20 PUSH1 0x0 SWAP2 DUP4 ADD ADD MSTORE SWAP1 JUMP JUMPDEST DUP1 PUSH1 0x20 DUP1 SWAP3 DUP5 ADD ADD MLOAD DUP3 DUP3 DUP8 ADD ADD MSTORE ADD PUSH2 0x3D1 JUMP INVALID PUSH1 0x80 DUP1 PUSH1 0x40 MSTORE PUSH1 0x4 CALLDATASIZE LT ISZERO PUSH2 0x13 JUMPI PUSH1 0x0 DUP1 REVERT JUMPDEST PUSH1 0x0 CALLDATALOAD PUSH1 0xE0 SHR SWAP1 DUP2 PUSH4 0x2D05D3F EQ PUSH2 0x1022 JUMPI POP DUP1 PUSH4 0x6FDDE03 EQ PUSH2 0xF63 JUMPI DUP1 PUSH4 0x700037D EQ PUSH2 0xF29 JUMPI DUP1 PUSH4 0x718E392 EQ PUSH2 0xF04 JUMPI DUP1 PUSH4 0x95EA7B3 EQ PUSH2 0xE8A JUMPI DUP1 PUSH4 0xC9CD503 EQ PUSH2 0xE65 JUMPI DUP1 PUSH4 0x18160DDD EQ PUSH2 0xE47 JUMPI DUP1 PUSH4 0x1A08A9C8 EQ PUSH2 0xE2A JUMPI DUP1 PUSH4 0x2194F3A2 EQ PUSH2 0xE01 JUMPI DUP1 PUSH4 0x23B872DD EQ PUSH2 0xD71 JUMPI DUP1 PUSH4 0x2515C8C9 EQ PUSH2 0xD4E JUMPI DUP1 PUSH4 0x2B931180 EQ PUSH2 0xD29 JUMPI DUP1 PUSH4 0x2EBD7C47 EQ PUSH2 0xD0B JUMPI DUP1 PUSH4 0x313CE567 EQ PUSH2 0xCEA JUMPI DUP1 PUSH4 0x3735E155 EQ PUSH2 0xCC5 JUMPI DUP1 PUSH4 0x40C10F19 EQ PUSH2 0xC37 JUMPI DUP1 PUSH4 0x452ED4F1 EQ PUSH2 0xC0E JUMPI DUP1 PUSH4 0x5873EB9B EQ PUSH2 0xBD4 JUMPI DUP1 PUSH4 0x619AA338 EQ PUSH2 0xBAF JUMPI DUP1 PUSH4 0x70A08231 EQ PUSH2 0xB75 JUMPI DUP1 PUSH4 0x7BF5B04B EQ PUSH2 0xB46 JUMPI DUP1 PUSH4 0x7D9B2B4C EQ PUSH2 0xB29 JUMPI DUP1 PUSH4 0x870BD30B EQ PUSH2 0xB06 JUMPI DUP1 PUSH4 0x939D6237 EQ PUSH2 0xAE8 JUMPI DUP1 PUSH4 0x95D89B41 EQ PUSH2 0x9DD JUMPI DUP1 PUSH4 0x9F5D2A21 EQ PUSH2 0x9BF JUMPI DUP1 PUSH4 0xA9059CBB EQ PUSH2 0x98E JUMPI DUP1 PUSH4 0xAD5C4648 EQ PUSH2 0x965 JUMPI DUP1 PUSH4 0xB70D8CC4 EQ PUSH2 0x93F JUMPI DUP1 PUSH4 0xB718E883 EQ PUSH2 0x916 JUMPI DUP1 PUSH4 0xC31C9C07 EQ PUSH2 0x8E9 JUMPI DUP1 PUSH4 0xC45A0155 EQ PUSH2 0x8C0 JUMPI DUP1 PUSH4 0xC9AF097D EQ PUSH2 0x471 JUMPI DUP1 PUSH4 0xDD62ED3E EQ PUSH2 0x420 JUMPI DUP1 PUSH4 0xDE126E18 EQ PUSH2 0x3FB JUMPI DUP1 PUSH4 0xE769A525 EQ PUSH2 0x3D9 JUMPI DUP1 PUSH4 0xF0FC6BCA EQ PUSH2 0x1EF JUMPI PUSH4 0xF7C618C1 EQ PUSH2 0x1C1 JUMPI PUSH1 0x0 DUP1 REVERT JUMPDEST CALLVALUE PUSH2 0x1EA JUMPI PUSH1 0x0 CALLDATASIZE PUSH1 0x3 NOT ADD SLT PUSH2 0x1EA JUMPI PUSH1 0xD SLOAD PUSH1 0x40 MLOAD PUSH1 0x1 PUSH1 0x1 PUSH1 0xA0 SHL SUB SWAP1 SWAP2 AND DUP2 MSTORE PUSH1 0x20 SWAP1 RETURN JUMPDEST PUSH1 0x0 DUP1 REVERT JUMPDEST CALLVALUE PUSH2 0x1EA JUMPI PUSH1 0x0 CALLDATASIZE PUSH1 0x3 NOT ADD SLT PUSH2 0x1EA JUMPI PUSH1 0x1 PUSH1 0x0 SLOAD SUB PUSH2 0x3C8 JUMPI PUSH1 0x2 PUSH1 0x0 SSTORE PUSH1 0xFF PUSH1 0xB SLOAD AND ISZERO DUP1 ISZERO PUSH2 0x3B8 JUMPI JUMPDEST DUP1 ISZERO PUSH2 0x3A5 JUMPI JUMPDEST DUP1 ISZERO PUSH2 0x394 JUMPI JUMPDEST PUSH2 0x383 JUMPI PUSH2 0x238 CALLER PUSH2 0x1ACB JUMP JUMPDEST CALLER PUSH1 0x0 MSTORE PUSH1 0x14 PUSH1 0x20 MSTORE PUSH1 0x40 PUSH1 0x0 KECCAK256 SLOAD DUP1 ISZERO PUSH2 0x372 JUMPI CALLER PUSH1 0x0 MSTORE PUSH1 0x14 PUSH1 0x20 MSTORE PUSH1 0x0 PUSH1 0x40 DUP2 KECCAK256 SSTORE PUSH1 0x1 DUP1 PUSH1 0xA0 SHL SUB PUSH1 0xD SLOAD AND PUSH1 0x40 MLOAD PUSH4 0x70A08231 PUSH1 0xE0 SHL DUP2 MSTORE ADDRESS PUSH1 0x4 DUP3 ADD MSTORE PUSH1 0x20 DUP2 PUSH1 0x24 DUP2 DUP6 GAS STATICCALL DUP1 ISZERO PUSH2 0x320 JUMPI DUP4 SWAP2 PUSH1 0x0 SWAP2 PUSH2 0x33D JUMPI JUMPDEST POP LT PUSH2 0x32C JUMPI PUSH2 0x2C0 PUSH1 0x20 SWAP2 PUSH1 0x0 SWAP4 PUSH1 0x40 MLOAD SWAP5 DUP6 DUP1 SWAP5 DUP2 SWAP4 PUSH4 0xA9059CBB PUSH1 0xE0 SHL DUP4 MSTORE CALLER PUSH1 0x4 DUP5 ADD PUSH2 0x113C JUMP JUMPDEST SUB SWAP3 GAS CALL SWAP1 DUP2 ISZERO PUSH2 0x320 JUMPI PUSH1 0x0 SWAP2 PUSH2 0x2F1 JUMPI JUMPDEST POP ISZERO PUSH2 0x2E0 JUMPI PUSH1 0x1 PUSH1 0x0 SSTORE STOP JUMPDEST PUSH4 0x34A43C63 PUSH1 0xE0 SHL PUSH1 0x0 MSTORE PUSH1 0x4 PUSH1 0x0 REVERT JUMPDEST PUSH2 0x313 SWAP2 POP PUSH1 0x20 RETURNDATASIZE PUSH1 0x20 GT PUSH2 0x319 JUMPI JUMPDEST PUSH2 0x30B DUP2 DUP4 PUSH2 0x1046 JUMP JUMPDEST DUP2 ADD SWAP1 PUSH2 0x1124 JUMP JUMPDEST DUP2 PUSH2 0x2D3 JUMP JUMPDEST POP RETURNDATASIZE PUSH2 0x301 JUMP JUMPDEST PUSH1 0x40 MLOAD RETURNDATASIZE PUSH1 0x0 DUP3 RETURNDATACOPY RETURNDATASIZE SWAP1 REVERT JUMPDEST PUSH4 0xF6A2C5E5 PUSH1 0xE0 SHL PUSH1 0x0 MSTORE PUSH1 0x4 PUSH1 0x0 REVERT JUMPDEST SWAP2 POP POP PUSH1 0x20 DUP2 RETURNDATASIZE PUSH1 0x20 GT PUSH2 0x36A JUMPI JUMPDEST DUP2 PUSH2 0x359 PUSH1 0x20 SWAP4 DUP4 PUSH2 0x1046 JUMP JUMPDEST DUP2 ADD SUB SLT PUSH2 0x1EA JUMPI DUP3 SWAP1 MLOAD DUP5 PUSH2 0x294 JUMP JUMPDEST RETURNDATASIZE SWAP2 POP PUSH2 0x34C JUMP JUMPDEST PUSH4 0xF9820CC1 PUSH1 0xE0 SHL PUSH1 0x0 MSTORE PUSH1 0x4 PUSH1 0x0 REVERT JUMPDEST PUSH4 0x10EE9187 PUSH1 0xE0 SHL PUSH1 0x0 MSTORE PUSH1 0x4 PUSH1 0x0 REVERT JUMPDEST POP PUSH2 0xFFFF PUSH1 0xA SLOAD PUSH1 0xD8 SHR AND ISZERO PUSH2 0x22B JUMP JUMPDEST POP PUSH1 0xD SLOAD PUSH1 0x1 PUSH1 0x1 PUSH1 0xA0 SHL SUB AND ISZERO PUSH2 0x224 JUMP JUMPDEST POP PUSH1 0xFF PUSH1 0xA SLOAD PUSH1 0xA0 SHR AND ISZERO PUSH2 0x21D JUMP JUMPDEST PUSH4 0x558A1E03 PUSH1 0xE1 SHL PUSH1 0x0 MSTORE PUSH1 0x4 PUSH1 0x0 REVERT JUMPDEST CALLVALUE PUSH2 0x1EA JUMPI PUSH1 0x0 CALLDATASIZE PUSH1 0x3 NOT ADD SLT PUSH2 0x1EA JUMPI PUSH1 0x20 PUSH2 0xFFFF PUSH1 0x10 SLOAD AND PUSH1 0x40 MLOAD SWAP1 DUP2 MSTORE RETURN JUMPDEST CALLVALUE PUSH2 0x1EA JUMPI PUSH1 0x0 CALLDATASIZE PUSH1 0x3 NOT ADD SLT PUSH2 0x1EA JUMPI PUSH1 0x20 PUSH2 0xFFFF PUSH1 0xA SLOAD PUSH1 0xA8 SHR AND PUSH1 0x40 MLOAD SWAP1 DUP2 MSTORE RETURN JUMPDEST CALLVALUE PUSH2 0x1EA JUMPI PUSH1 0x40 CALLDATASIZE PUSH1 0x3 NOT ADD SLT PUSH2 0x1EA JUMPI PUSH2 0x439 PUSH2 0x10C8 JUMP JUMPDEST PUSH2 0x441 PUSH2 0x10DE JUMP JUMPDEST PUSH1 0x1 PUSH1 0x1 PUSH1 0xA0 SHL SUB SWAP2 DUP3 AND PUSH1 0x0 SWAP1 DUP2 MSTORE PUSH1 0x7 PUSH1 0x20 SWAP1 DUP2 MSTORE PUSH1 0x40 DUP1 DUP4 KECCAK256 SWAP5 SWAP1 SWAP4 AND DUP3 MSTORE SWAP3 DUP4 MSTORE DUP2 SWAP1 KECCAK256 SLOAD SWAP1 MLOAD SWAP1 DUP2 MSTORE RETURN JUMPDEST CALLVALUE PUSH2 0x1EA JUMPI PUSH2 0x220 CALLDATASIZE PUSH1 0x3 NOT ADD SLT PUSH2 0x1EA JUMPI PUSH1 0x5 SLOAD PUSH1 0x0 SWAP1 PUSH1 0x1 PUSH1 0x1 PUSH1 0xA0 SHL SUB AND CALLER SUB PUSH2 0x8B1 JUMPI PUSH1 0xA SLOAD PUSH1 0xFF DUP2 PUSH1 0xA0 SHR AND PUSH2 0x8A2 JUMPI PUSH1 0x1 PUSH1 0x1 PUSH1 0xA0 SHL SUB PUSH2 0x4B6 PUSH2 0x1693 JUMP JUMPDEST AND ISZERO DUP1 ISZERO PUSH2 0x88A JUMPI JUMPDEST PUSH2 0x831 JUMPI PUSH2 0x3E8 PUSH2 0xFFFF PUSH2 0x4D1 PUSH2 0x171A JUMP JUMPDEST AND GT PUSH2 0x87B JUMPI PUSH2 0x514 PUSH2 0x509 PUSH2 0x4FE PUSH2 0xFFFF PUSH2 0x4EB PUSH2 0x172B JUMP JUMPDEST AND PUSH2 0xFFFF PUSH2 0x4F7 PUSH2 0x173C JUMP JUMPDEST AND SWAP1 PUSH2 0x1117 JUMP JUMPDEST PUSH2 0xFFFF PUSH2 0x4F7 PUSH2 0x174D JUMP JUMPDEST PUSH2 0xFFFF PUSH2 0x4F7 PUSH2 0x175E JUMP JUMPDEST PUSH2 0xFFFF PUSH2 0x51F PUSH2 0x171A JUMP JUMPDEST AND ISZERO PUSH2 0x867 JUMPI PUSH2 0x2710 SUB PUSH2 0x858 JUMPI JUMPDEST PUSH2 0xFFFF PUSH2 0x539 PUSH2 0x172B JUMP JUMPDEST AND ISZERO ISZERO DUP1 PUSH2 0x840 JUMPI JUMPDEST PUSH2 0x831 JUMPI PUSH2 0xFFFF PUSH2 0x551 PUSH2 0x174D JUMP JUMPDEST AND PUSH2 0x7EC JUMPI JUMPDEST PUSH2 0xFFFF PUSH2 0x562 PUSH2 0x174D JUMP JUMPDEST AND PUSH2 0x7B0 JUMPI JUMPDEST PUSH1 0x1 PUSH1 0x1 PUSH1 0xA0 SHL SUB PUSH2 0x578 PUSH2 0x16A9 JUMP JUMPDEST PUSH1 0x9 DUP1 SLOAD SWAP2 SWAP1 SWAP3 AND PUSH1 0x1 PUSH1 0x1 PUSH1 0xA0 SHL SUB NOT SWAP1 SWAP2 AND OR SWAP1 SSTORE PUSH1 0x1 PUSH1 0x1 PUSH1 0xA0 SHL SUB PUSH2 0x59F PUSH2 0x1693 JUMP JUMPDEST PUSH1 0x8 DUP1 SLOAD SWAP2 SWAP1 SWAP3 AND PUSH1 0x1 PUSH1 0x1 PUSH1 0xA0 SHL SUB NOT SWAP1 SWAP2 AND OR SWAP1 SSTORE PUSH1 0x1 PUSH1 0x1 PUSH1 0xA0 SHL SUB PUSH2 0x5C6 PUSH2 0x16BF JUMP JUMPDEST AND SWAP1 PUSH2 0xFFFF PUSH1 0xA8 SHL PUSH2 0x5D6 PUSH2 0x171A JUMP JUMPDEST PUSH1 0xA8 SHL AND PUSH2 0xFFFF PUSH1 0xB8 SHL PUSH2 0x5E8 PUSH2 0x172B JUMP JUMPDEST PUSH1 0xB8 SHL AND SWAP3 PUSH2 0xFFFF PUSH1 0xC8 SHL PUSH2 0x5FB PUSH2 0x173C JUMP JUMPDEST PUSH1 0xC8 SHL AND SWAP2 PUSH2 0xFFFF PUSH1 0xD8 SHL PUSH2 0x60E PUSH2 0x174D JUMP JUMPDEST PUSH1 0xD8 SHL AND SWAP1 PUSH2 0xFFFF PUSH1 0xE8 SHL PUSH2 0x621 PUSH2 0x175E JUMP JUMPDEST PUSH1 0xE8 SHL AND SWAP4 PUSH2 0x104 CALLDATALOAD SWAP6 DUP7 ISZERO ISZERO SWAP7 DUP8 DUP2 SUB PUSH2 0x7AC JUMPI POP PUSH2 0x63F PUSH2 0x176F JUMP JUMPDEST PUSH1 0xB SLOAD SWAP1 ISZERO ISZERO SWAP1 PUSH1 0xFF PUSH2 0x100 PUSH1 0x1 PUSH1 0xA8 SHL SUB PUSH2 0x659 PUSH2 0x16D5 JUMP JUMPDEST PUSH1 0x8 SHL AND SWAP3 AND SWAP1 PUSH1 0x1 DUP1 PUSH1 0xA8 SHL SUB NOT AND OR OR PUSH1 0xB SSTORE PUSH1 0x1 DUP1 PUSH1 0xA0 SHL SUB PUSH2 0x67D PUSH2 0x16EC JUMP JUMPDEST PUSH1 0xC DUP1 SLOAD SWAP2 SWAP1 SWAP3 AND PUSH1 0x1 PUSH1 0x1 PUSH1 0xA0 SHL SUB NOT SWAP1 SWAP2 AND OR SWAP1 SSTORE PUSH1 0x1 PUSH1 0x1 PUSH1 0xA0 SHL SUB PUSH2 0x6A4 PUSH2 0x1703 JUMP JUMPDEST AND PUSH1 0x1 DUP1 PUSH1 0xA0 SHL SUB NOT PUSH1 0xD SLOAD AND OR PUSH1 0xD SSTORE PUSH2 0x1A4 CALLDATALOAD PUSH1 0xF SSTORE PUSH2 0x1C4 CALLDATALOAD PUSH2 0xFFFF DUP2 AND SWAP1 DUP2 DUP2 SUB PUSH2 0x7A4 JUMPI POP PUSH1 0x10 SLOAD SWAP1 PUSH2 0x1E4 CALLDATALOAD PUSH2 0xFFFF DUP2 AND DUP2 SUB PUSH2 0x7A8 JUMPI PUSH4 0xFFFFFFFF NOT SWAP1 SWAP3 AND OR PUSH1 0x10 SWAP2 DUP3 SHL PUSH4 0xFFFF0000 AND OR SWAP1 SSTORE PUSH1 0x1 PUSH1 0x1 PUSH1 0xA0 SHL SUB PUSH2 0x204 CALLDATALOAD SWAP1 DUP2 AND SWAP1 DUP2 DUP2 SUB PUSH2 0x7A4 JUMPI POP PUSH1 0xE DUP1 SLOAD PUSH1 0x1 PUSH1 0x1 PUSH1 0xA0 SHL SUB NOT AND SWAP2 SWAP1 SWAP2 OR SWAP1 SSTORE PUSH1 0x1 PUSH1 0xA0 SHL PUSH1 0x1 PUSH7 0xFFFFFFFFFFFF01 PUSH1 0xA0 SHL SUB NOT SWAP1 SWAP2 AND PUSH2 0xFFFF PUSH1 0xC8 SHL NOT SWAP6 SWAP1 SWAP6 AND SWAP5 SWAP1 SWAP5 OR SWAP2 SWAP1 SWAP2 OR PUSH4 0xFFFFFFFF PUSH1 0xD8 SHL NOT AND PUSH2 0xFFFF PUSH1 0xE8 SHL NOT SWAP7 SWAP1 SWAP7 AND SWAP6 SWAP1 SWAP6 OR SWAP1 SWAP5 OR PUSH1 0x1 PUSH1 0xFF PUSH1 0xA0 SHL ADD PUSH1 0x1 PUSH1 0xF8 SHL SUB AND PUSH1 0xFF PUSH1 0xA0 SHL NOT SWAP5 SWAP1 SWAP5 AND SWAP4 SWAP1 SWAP4 OR OR PUSH1 0x1 PUSH1 0x1 PUSH1 0xF8 SHL SUB NOT PUSH1 0xF8 SWAP3 SWAP1 SWAP3 SHL SWAP2 SWAP1 SWAP2 AND OR OR PUSH1 0xA SSTORE DUP1 RETURN JUMPDEST DUP11 DUP1 REVERT JUMPDEST DUP12 DUP1 REVERT JUMPDEST DUP10 DUP1 REVERT JUMPDEST PUSH2 0x7B8 PUSH2 0x176F JUMP JUMPDEST ISZERO DUP1 ISZERO PUSH2 0x7D4 JUMPI JUMPDEST ISZERO PUSH2 0x568 JUMPI PUSH4 0xBB96DA63 PUSH1 0xE0 SHL DUP3 MSTORE PUSH1 0x4 DUP3 REVERT JUMPDEST POP PUSH1 0x1 PUSH1 0x1 PUSH1 0xA0 SHL SUB PUSH2 0x7E5 PUSH2 0x1703 JUMP JUMPDEST AND ISZERO PUSH2 0x7C0 JUMP JUMPDEST PUSH1 0x1 PUSH1 0x1 PUSH1 0xA0 SHL SUB PUSH2 0x7FC PUSH2 0x16D5 JUMP JUMPDEST AND ISZERO DUP1 ISZERO PUSH2 0x819 JUMPI JUMPDEST ISZERO PUSH2 0x557 JUMPI PUSH4 0xBB96DA63 PUSH1 0xE0 SHL DUP3 MSTORE PUSH1 0x4 DUP3 REVERT JUMPDEST POP PUSH1 0x1 PUSH1 0x1 PUSH1 0xA0 SHL SUB PUSH2 0x82A PUSH2 0x16EC JUMP JUMPDEST AND ISZERO PUSH2 0x805 JUMP JUMPDEST PUSH4 0xAE9954C3 PUSH1 0xE0 SHL DUP3 MSTORE PUSH1 0x4 DUP3 REVERT JUMPDEST POP PUSH1 0x1 PUSH1 0x1 PUSH1 0xA0 SHL SUB PUSH2 0x851 PUSH2 0x16BF JUMP JUMPDEST AND ISZERO PUSH2 0x542 JUMP JUMPDEST PUSH4 0xAFF1D87B PUSH1 0xE0 SHL DUP3 MSTORE PUSH1 0x4 DUP3 REVERT JUMPDEST ISZERO PUSH2 0x52E JUMPI PUSH4 0xAFF1D87B PUSH1 0xE0 SHL DUP3 MSTORE PUSH1 0x4 DUP3 REVERT JUMPDEST PUSH4 0xF9EDD1EF PUSH1 0xE0 SHL DUP3 MSTORE PUSH1 0x4 DUP3 REVERT JUMPDEST POP PUSH1 0x1 PUSH1 0x1 PUSH1 0xA0 SHL SUB PUSH2 0x89B PUSH2 0x16A9 JUMP JUMPDEST AND ISZERO PUSH2 0x4BF JUMP JUMPDEST PUSH4 0x7CDF3051 PUSH1 0xE1 SHL DUP3 MSTORE PUSH1 0x4 DUP3 REVERT JUMPDEST PUSH4 0x636A157 PUSH1 0xE1 SHL DUP2 MSTORE PUSH1 0x4 SWAP1 REVERT JUMPDEST CALLVALUE PUSH2 0x1EA JUMPI PUSH1 0x0 CALLDATASIZE PUSH1 0x3 NOT ADD SLT PUSH2 0x1EA JUMPI PUSH1 0x5 SLOAD PUSH1 0x40 MLOAD PUSH1 0x1 PUSH1 0x1 PUSH1 0xA0 SHL SUB SWAP1 SWAP2 AND DUP2 MSTORE PUSH1 0x20 SWAP1 RETURN JUMPDEST CALLVALUE PUSH2 0x1EA JUMPI PUSH1 0x0 CALLDATASIZE PUSH1 0x3 NOT ADD SLT PUSH2 0x1EA JUMPI PUSH1 0xB SLOAD PUSH1 0x40 MLOAD PUSH1 0x8 SWAP2 SWAP1 SWAP2 SHR PUSH1 0x1 PUSH1 0x1 PUSH1 0xA0 SHL SUB AND DUP2 MSTORE PUSH1 0x20 SWAP1 RETURN JUMPDEST CALLVALUE PUSH2 0x1EA JUMPI PUSH1 0x0 CALLDATASIZE PUSH1 0x3 NOT ADD SLT PUSH2 0x1EA JUMPI PUSH1 0xE SLOAD PUSH1 0x40 MLOAD PUSH1 0x1 PUSH1 0x1 PUSH1 0xA0 SHL SUB SWAP1 SWAP2 AND DUP2 MSTORE PUSH1 0x20 SWAP1 RETURN JUMPDEST CALLVALUE PUSH2 0x1EA JUMPI PUSH1 0x0 CALLDATASIZE PUSH1 0x3 NOT ADD SLT PUSH2 0x1EA JUMPI PUSH1 0x20 PUSH1 0xFF PUSH1 0xA SLOAD PUSH1 0xA0 SHR AND PUSH1 0x40 MLOAD SWAP1 ISZERO ISZERO DUP2 MSTORE RETURN JUMPDEST CALLVALUE PUSH2 0x1EA JUMPI PUSH1 0x0 CALLDATASIZE PUSH1 0x3 NOT ADD SLT PUSH2 0x1EA JUMPI PUSH1 0xC SLOAD PUSH1 0x40 MLOAD PUSH1 0x1 PUSH1 0x1 PUSH1 0xA0 SHL SUB SWAP1 SWAP2 AND DUP2 MSTORE PUSH1 0x20 SWAP1 RETURN JUMPDEST CALLVALUE PUSH2 0x1EA JUMPI PUSH1 0x40 CALLDATASIZE PUSH1 0x3 NOT ADD SLT PUSH2 0x1EA JUMPI PUSH2 0x9B4 PUSH2 0x9AA PUSH2 0x10C8 JUMP JUMPDEST PUSH1 0x24 CALLDATALOAD SWAP1 CALLER PUSH2 0x177F JUMP JUMPDEST PUSH1 0x20 PUSH1 0x40 MLOAD PUSH1 0x1 DUP2 MSTORE RETURN JUMPDEST CALLVALUE PUSH2 0x1EA JUMPI PUSH1 0x0 CALLDATASIZE PUSH1 0x3 NOT ADD SLT PUSH2 0x1EA JUMPI PUSH1 0x20 PUSH1 0xF SLOAD PUSH1 0x40 MLOAD SWAP1 DUP2 MSTORE RETURN JUMPDEST CALLVALUE PUSH2 0x1EA JUMPI PUSH1 0x0 CALLDATASIZE PUSH1 0x3 NOT ADD SLT PUSH2 0x1EA JUMPI PUSH1 0x0 PUSH1 0x40 MLOAD SWAP1 DUP1 PUSH1 0x2 SLOAD SWAP1 DUP2 PUSH1 0x1 SHR SWAP2 PUSH1 0x1 DUP2 AND DUP1 ISZERO PUSH2 0xADE JUMPI JUMPDEST PUSH1 0x20 DUP5 LT DUP2 EQ PUSH2 0xACA JUMPI DUP4 DUP7 MSTORE SWAP1 DUP2 ISZERO PUSH2 0xAA3 JUMPI POP PUSH1 0x1 EQ PUSH2 0xA46 JUMPI JUMPDEST PUSH2 0xA42 DUP5 PUSH2 0xA36 DUP2 DUP7 SUB DUP3 PUSH2 0x1046 JUMP JUMPDEST PUSH1 0x40 MLOAD SWAP2 DUP3 SWAP2 DUP3 PUSH2 0x107F JUMP JUMPDEST SUB SWAP1 RETURN JUMPDEST PUSH1 0x2 DUP2 MSTORE PUSH32 0x405787FA12A823E0F2B7631CC41B3BA8828B3321CA811111FA75CD3AA3BB5ACE SWAP4 SWAP3 POP SWAP1 JUMPDEST DUP1 DUP3 LT PUSH2 0xA89 JUMPI POP SWAP1 SWAP2 POP DUP2 ADD PUSH1 0x20 ADD PUSH2 0xA36 DUP3 PUSH2 0xA26 JUMP JUMPDEST SWAP2 SWAP3 PUSH1 0x1 DUP2 PUSH1 0x20 SWAP3 SLOAD DUP4 DUP6 DUP9 ADD ADD MSTORE ADD SWAP2 ADD SWAP1 SWAP3 SWAP2 PUSH2 0xA70 JUMP JUMPDEST PUSH1 0xFF NOT AND PUSH1 0x20 DUP1 DUP8 ADD SWAP2 SWAP1 SWAP2 MSTORE SWAP3 ISZERO ISZERO PUSH1 0x5 SHL DUP6 ADD SWAP1 SWAP3 ADD SWAP3 POP PUSH2 0xA36 SWAP2 POP DUP4 SWAP1 POP PUSH2 0xA26 JUMP JUMPDEST PUSH4 0x4E487B71 PUSH1 0xE0 SHL DUP4 MSTORE PUSH1 0x22 PUSH1 0x4 MSTORE PUSH1 0x24 DUP4 REVERT JUMPDEST SWAP3 PUSH1 0x7F AND SWAP3 PUSH2 0xA09 JUMP JUMPDEST CALLVALUE PUSH2 0x1EA JUMPI PUSH1 0x0 CALLDATASIZE PUSH1 0x3 NOT ADD SLT PUSH2 0x1EA JUMPI PUSH1 0x20 PUSH1 0x12 SLOAD PUSH1 0x40 MLOAD SWAP1 DUP2 MSTORE RETURN JUMPDEST CALLVALUE PUSH2 0x1EA JUMPI PUSH1 0x0 CALLDATASIZE PUSH1 0x3 NOT ADD SLT PUSH2 0x1EA JUMPI PUSH1 0x20 PUSH1 0xA SLOAD PUSH1 0xF8 SHR PUSH1 0x40 MLOAD SWAP1 ISZERO ISZERO DUP2 MSTORE RETURN JUMPDEST CALLVALUE PUSH2 0x1EA JUMPI PUSH1 0x0 CALLDATASIZE PUSH1 0x3 NOT ADD SLT PUSH2 0x1EA JUMPI PUSH1 0x20 PUSH1 0x40 MLOAD PUSH2 0x2710 DUP2 MSTORE RETURN JUMPDEST CALLVALUE PUSH2 0x1EA JUMPI PUSH1 0x0 CALLDATASIZE PUSH1 0x3 NOT ADD SLT PUSH2 0x1EA JUMPI PUSH1 0x1 PUSH1 0x0 SLOAD SUB PUSH2 0x3C8 JUMPI PUSH1 0x2 PUSH1 0x0 SSTORE PUSH2 0xB6E PUSH2 0x119D JUMP JUMPDEST PUSH1 0x1 PUSH1 0x0 SSTORE STOP JUMPDEST CALLVALUE PUSH2 0x1EA JUMPI PUSH1 0x20 CALLDATASIZE PUSH1 0x3 NOT ADD SLT PUSH2 0x1EA JUMPI PUSH1 0x1 PUSH1 0x1 PUSH1 0xA0 SHL SUB PUSH2 0xB96 PUSH2 0x10C8 JUMP JUMPDEST AND PUSH1 0x0 MSTORE PUSH1 0x6 PUSH1 0x20 MSTORE PUSH1 0x20 PUSH1 0x40 PUSH1 0x0 KECCAK256 SLOAD PUSH1 0x40 MLOAD SWAP1 DUP2 MSTORE RETURN JUMPDEST CALLVALUE PUSH2 0x1EA JUMPI PUSH1 0x0 CALLDATASIZE PUSH1 0x3 NOT ADD SLT PUSH2 0x1EA JUMPI PUSH1 0x20 PUSH2 0xFFFF PUSH1 0xA SLOAD PUSH1 0xB8 SHR AND PUSH1 0x40 MLOAD SWAP1 DUP2 MSTORE RETURN JUMPDEST CALLVALUE PUSH2 0x1EA JUMPI PUSH1 0x20 CALLDATASIZE PUSH1 0x3 NOT ADD SLT PUSH2 0x1EA JUMPI PUSH1 0x1 PUSH1 0x1 PUSH1 0xA0 SHL SUB PUSH2 0xBF5 PUSH2 0x10C8 JUMP JUMPDEST AND PUSH1 0x0 MSTORE PUSH1 0x13 PUSH1 0x20 MSTORE PUSH1 0x20 PUSH1 0x40 PUSH1 0x0 KECCAK256 SLOAD PUSH1 0x40 MLOAD SWAP1 DUP2 MSTORE RETURN JUMPDEST CALLVALUE PUSH2 0x1EA JUMPI PUSH1 0x0 CALLDATASIZE PUSH1 0x3 NOT ADD SLT PUSH2 0x1EA JUMPI PUSH1 0x8 SLOAD PUSH1 0x40 MLOAD PUSH1 0x1 PUSH1 0x1 PUSH1 0xA0 SHL SUB SWAP1 SWAP2 AND DUP2 MSTORE PUSH1 0x20 SWAP1 RETURN JUMPDEST CALLVALUE PUSH2 0x1EA JUMPI PUSH1 0x40 CALLDATASIZE PUSH1 0x3 NOT ADD SLT PUSH2 0x1EA JUMPI PUSH2 0xC50 PUSH2 0x10C8 JUMP JUMPDEST PUSH1 0x5 SLOAD PUSH1 0x24 CALLDATALOAD SWAP2 SWAP1 PUSH1 0x1 PUSH1 0x1 PUSH1 0xA0 SHL SUB AND CALLER SUB PUSH2 0xCB4 JUMPI PUSH1 0x0 DUP1 MLOAD PUSH1 0x20 PUSH2 0x1E6B DUP4 CODECOPY DUP2 MLOAD SWAP2 MSTORE PUSH1 0x20 PUSH1 0x0 SWAP3 PUSH2 0xC87 DUP6 PUSH1 0x4 SLOAD PUSH2 0x1117 JUMP JUMPDEST PUSH1 0x4 SSTORE PUSH1 0x1 DUP1 PUSH1 0xA0 SHL SUB AND SWAP4 DUP5 DUP5 MSTORE PUSH1 0x6 DUP3 MSTORE PUSH1 0x40 DUP5 KECCAK256 PUSH2 0xCA9 DUP3 DUP3 SLOAD PUSH2 0x1117 JUMP JUMPDEST SWAP1 SSTORE PUSH1 0x40 MLOAD SWAP1 DUP2 MSTORE LOG3 STOP JUMPDEST PUSH4 0x636A157 PUSH1 0xE1 SHL PUSH1 0x0 MSTORE PUSH1 0x4 PUSH1 0x0 REVERT JUMPDEST CALLVALUE PUSH2 0x1EA JUMPI PUSH1 0x0 CALLDATASIZE PUSH1 0x3 NOT ADD SLT PUSH2 0x1EA JUMPI PUSH1 0x20 PUSH2 0xFFFF PUSH1 0xA SLOAD PUSH1 0xD8 SHR AND PUSH1 0x40 MLOAD SWAP1 DUP2 MSTORE RETURN JUMPDEST CALLVALUE PUSH2 0x1EA JUMPI PUSH1 0x0 CALLDATASIZE PUSH1 0x3 NOT ADD SLT PUSH2 0x1EA JUMPI PUSH1 0x20 PUSH1 0xFF PUSH1 0x3 SLOAD AND PUSH1 0x40 MLOAD SWAP1 DUP2 MSTORE RETURN JUMPDEST CALLVALUE PUSH2 0x1EA JUMPI PUSH1 0x0 CALLDATASIZE PUSH1 0x3 NOT ADD SLT PUSH2 0x1EA JUMPI PUSH1 0x20 PUSH1 0x11 SLOAD PUSH1 0x40 MLOAD SWAP1 DUP2 MSTORE RETURN JUMPDEST CALLVALUE PUSH2 0x1EA JUMPI PUSH1 0x0 CALLDATASIZE PUSH1 0x3 NOT ADD SLT PUSH2 0x1EA JUMPI PUSH1 0x20 PUSH2 0xFFFF PUSH1 0x10 SLOAD PUSH1 0x10 SHR AND PUSH1 0x40 MLOAD SWAP1 DUP2 MSTORE RETURN JUMPDEST CALLVALUE PUSH2 0x1EA JUMPI PUSH1 0x0 CALLDATASIZE PUSH1 0x3 NOT ADD SLT PUSH2 0x1EA JUMPI PUSH1 0x20 PUSH1 0xFF PUSH1 0xB SLOAD AND PUSH1 0x40 MLOAD SWAP1 ISZERO ISZERO DUP2 MSTORE RETURN JUMPDEST CALLVALUE PUSH2 0x1EA JUMPI PUSH1 0x60 CALLDATASIZE PUSH1 0x3 NOT ADD SLT PUSH2 0x1EA JUMPI PUSH2 0xD8A PUSH2 0x10C8 JUMP JUMPDEST PUSH2 0xD92 PUSH2 0x10DE JUMP JUMPDEST PUSH1 0x1 PUSH1 0x1 PUSH1 0xA0 SHL SUB DUP3 AND PUSH1 0x0 DUP2 DUP2 MSTORE PUSH1 0x7 PUSH1 0x20 SWAP1 DUP2 MSTORE PUSH1 0x40 DUP1 DUP4 KECCAK256 CALLER DUP5 MSTORE SWAP1 SWAP2 MSTORE SWAP1 KECCAK256 SLOAD SWAP3 PUSH1 0x44 CALLDATALOAD SWAP3 SWAP2 DUP4 DUP6 LT PUSH2 0xDF0 JUMPI PUSH2 0xDD0 DUP5 PUSH2 0x9B4 SWAP7 PUSH2 0x10F4 JUMP JUMPDEST PUSH1 0x0 SWAP2 DUP3 MSTORE PUSH1 0x7 PUSH1 0x20 SWAP1 DUP2 MSTORE PUSH1 0x40 DUP1 DUP5 KECCAK256 CALLER DUP6 MSTORE SWAP1 SWAP2 MSTORE SWAP1 SWAP2 KECCAK256 SSTORE PUSH2 0x177F JUMP JUMPDEST PUSH4 0x13BE252B PUSH1 0xE0 SHL PUSH1 0x0 MSTORE PUSH1 0x4 PUSH1 0x0 REVERT JUMPDEST CALLVALUE PUSH2 0x1EA JUMPI PUSH1 0x0 CALLDATASIZE PUSH1 0x3 NOT ADD SLT PUSH2 0x1EA JUMPI PUSH1 0xA SLOAD PUSH1 0x40 MLOAD PUSH1 0x1 PUSH1 0x1 PUSH1 0xA0 SHL SUB SWAP1 SWAP2 AND DUP2 MSTORE PUSH1 0x20 SWAP1 RETURN JUMPDEST CALLVALUE PUSH2 0x1EA JUMPI PUSH1 0x0 CALLDATASIZE PUSH1 0x3 NOT ADD SLT PUSH2 0x1EA JUMPI PUSH1 0x20 PUSH1 0x40 MLOAD PUSH2 0x3E8 DUP2 MSTORE RETURN JUMPDEST CALLVALUE PUSH2 0x1EA JUMPI PUSH1 0x0 CALLDATASIZE PUSH1 0x3 NOT ADD SLT PUSH2 0x1EA JUMPI PUSH1 0x20 PUSH1 0x4 SLOAD PUSH1 0x40 MLOAD SWAP1 DUP2 MSTORE RETURN JUMPDEST CALLVALUE PUSH2 0x1EA JUMPI PUSH1 0x0 CALLDATASIZE PUSH1 0x3 NOT ADD SLT PUSH2 0x1EA JUMPI PUSH1 0x20 PUSH2 0xFFFF PUSH1 0xA SLOAD PUSH1 0xE8 SHR AND PUSH1 0x40 MLOAD SWAP1 DUP2 MSTORE RETURN JUMPDEST CALLVALUE PUSH2 0x1EA JUMPI PUSH1 0x40 CALLDATASIZE PUSH1 0x3 NOT ADD SLT PUSH2 0x1EA JUMPI PUSH2 0xEA3 PUSH2 0x10C8 JUMP JUMPDEST CALLER PUSH1 0x0 DUP2 DUP2 MSTORE PUSH1 0x7 PUSH1 0x20 SWAP1 DUP2 MSTORE PUSH1 0x40 DUP1 DUP4 KECCAK256 PUSH1 0x1 PUSH1 0x1 PUSH1 0xA0 SHL SUB SWAP1 SWAP6 AND DUP1 DUP5 MSTORE SWAP5 DUP3 MSTORE SWAP2 DUP3 SWAP1 KECCAK256 PUSH1 0x24 CALLDATALOAD SWAP1 DUP2 SWAP1 SSTORE SWAP2 MLOAD SWAP2 DUP3 MSTORE PUSH32 0x8C5BE1E5EBEC7D5BD14F71427D1E84F3DD0314C0F7B2291E5B200AC8C7C3B925 SWAP2 LOG3 PUSH1 0x20 PUSH1 0x40 MLOAD PUSH1 0x1 DUP2 MSTORE RETURN JUMPDEST CALLVALUE PUSH2 0x1EA JUMPI PUSH1 0x0 CALLDATASIZE PUSH1 0x3 NOT ADD SLT PUSH2 0x1EA JUMPI PUSH1 0x20 PUSH2 0xFFFF PUSH1 0xA SLOAD PUSH1 0xC8 SHR AND PUSH1 0x40 MLOAD SWAP1 DUP2 MSTORE RETURN JUMPDEST CALLVALUE PUSH2 0x1EA JUMPI PUSH1 0x20 CALLDATASIZE PUSH1 0x3 NOT ADD SLT PUSH2 0x1EA JUMPI PUSH1 0x1 PUSH1 0x1 PUSH1 0xA0 SHL SUB PUSH2 0xF4A PUSH2 0x10C8 JUMP JUMPDEST AND PUSH1 0x0 MSTORE PUSH1 0x14 PUSH1 0x20 MSTORE PUSH1 0x20 PUSH1 0x40 PUSH1 0x0 KECCAK256 SLOAD PUSH1 0x40 MLOAD SWAP1 DUP2 MSTORE RETURN JUMPDEST CALLVALUE PUSH2 0x1EA JUMPI PUSH1 0x0 CALLDATASIZE PUSH1 0x3 NOT ADD SLT PUSH2 0x1EA JUMPI PUSH1 0x0 PUSH1 0x40 MLOAD SWAP1 DUP1 PUSH1 0x1 SLOAD SWAP1 DUP2 PUSH1 0x1 SHR SWAP2 PUSH1 0x1 DUP2 AND DUP1 ISZERO PUSH2 0x1018 JUMPI JUMPDEST PUSH1 0x20 DUP5 LT DUP2 EQ PUSH2 0xACA JUMPI DUP4 DUP7 MSTORE SWAP1 DUP2 ISZERO PUSH2 0xAA3 JUMPI POP PUSH1 0x1 EQ PUSH2 0xFBB JUMPI PUSH2 0xA42 DUP5 PUSH2 0xA36 DUP2 DUP7 SUB DUP3 PUSH2 0x1046 JUMP JUMPDEST PUSH1 0x1 DUP2 MSTORE PUSH32 0xB10E2D527612073B26EECDFD717E6A320CF44B4AFAC2B0732D9FCBE2B7FA0CF6 SWAP4 SWAP3 POP SWAP1 JUMPDEST DUP1 DUP3 LT PUSH2 0xFFE JUMPI POP SWAP1 SWAP2 POP DUP2 ADD PUSH1 0x20 ADD PUSH2 0xA36 DUP3 PUSH2 0xA26 JUMP JUMPDEST SWAP2 SWAP3 PUSH1 0x1 DUP2 PUSH1 0x20 SWAP3 SLOAD DUP4 DUP6 DUP9 ADD ADD MSTORE ADD SWAP2 ADD SWAP1 SWAP3 SWAP2 PUSH2 0xFE5 JUMP JUMPDEST SWAP3 PUSH1 0x7F AND SWAP3 PUSH2 0xF8F JUMP JUMPDEST CALLVALUE PUSH2 0x1EA JUMPI PUSH1 0x0 CALLDATASIZE PUSH1 0x3 NOT ADD SLT PUSH2 0x1EA JUMPI PUSH1 0x9 SLOAD PUSH1 0x1 PUSH1 0x1 PUSH1 0xA0 SHL SUB AND DUP2 MSTORE PUSH1 0x20 SWAP1 RETURN JUMPDEST PUSH1 0x1F SWAP1 SWAP2 ADD PUSH1 0x1F NOT AND DUP2 ADD SWAP1 PUSH1 0x1 PUSH1 0x1 PUSH1 0x40 SHL SUB DUP3 GT SWAP1 DUP3 LT OR PUSH2 0x1069 JUMPI PUSH1 0x40 MSTORE JUMP JUMPDEST PUSH4 0x4E487B71 PUSH1 0xE0 SHL PUSH1 0x0 MSTORE PUSH1 0x41 PUSH1 0x4 MSTORE PUSH1 0x24 PUSH1 0x0 REVERT JUMPDEST SWAP2 SWAP1 SWAP2 PUSH1 0x20 DUP2 MSTORE DUP3 MLOAD DUP1 PUSH1 0x20 DUP4 ADD MSTORE PUSH1 0x0 JUMPDEST DUP2 DUP2 LT PUSH2 0x10B2 JUMPI POP PUSH1 0x40 SWAP3 SWAP4 POP PUSH1 0x0 DUP4 DUP3 DUP5 ADD ADD MSTORE PUSH1 0x1F DUP1 NOT SWAP2 ADD AND ADD ADD SWAP1 JUMP JUMPDEST DUP1 PUSH1 0x20 DUP1 SWAP3 DUP8 ADD ADD MLOAD PUSH1 0x40 DUP3 DUP7 ADD ADD MSTORE ADD PUSH2 0x1091 JUMP JUMPDEST PUSH1 0x4 CALLDATALOAD SWAP1 PUSH1 0x1 PUSH1 0x1 PUSH1 0xA0 SHL SUB DUP3 AND DUP3 SUB PUSH2 0x1EA JUMPI JUMP JUMPDEST PUSH1 0x24 CALLDATALOAD SWAP1 PUSH1 0x1 PUSH1 0x1 PUSH1 0xA0 SHL SUB DUP3 AND DUP3 SUB PUSH2 0x1EA JUMPI JUMP JUMPDEST SWAP2 SWAP1 DUP3 SUB SWAP2 DUP3 GT PUSH2 0x1101 JUMPI JUMP JUMPDEST PUSH4 0x4E487B71 PUSH1 0xE0 SHL PUSH1 0x0 MSTORE PUSH1 0x11 PUSH1 0x4 MSTORE PUSH1 0x24 PUSH1 0x0 REVERT JUMPDEST SWAP2 SWAP1 DUP3 ADD DUP1 SWAP3 GT PUSH2 0x1101 JUMPI JUMP JUMPDEST SWAP1 DUP2 PUSH1 0x20 SWAP2 SUB SLT PUSH2 0x1EA JUMPI MLOAD DUP1 ISZERO ISZERO DUP2 SUB PUSH2 0x1EA JUMPI SWAP1 JUMP JUMPDEST PUSH1 0x1 PUSH1 0x1 PUSH1 0xA0 SHL SUB SWAP1 SWAP2 AND DUP2 MSTORE PUSH1 0x20 DUP2 ADD SWAP2 SWAP1 SWAP2 MSTORE PUSH1 0x40 ADD SWAP1 JUMP JUMPDEST DUP1 MLOAD ISZERO PUSH2 0x1164 JUMPI PUSH1 0x20 ADD SWAP1 JUMP JUMPDEST PUSH4 0x4E487B71 PUSH1 0xE0 SHL PUSH1 0x0 MSTORE PUSH1 0x32 PUSH1 0x4 MSTORE PUSH1 0x24 PUSH1 0x0 REVERT JUMPDEST DUP1 MLOAD PUSH1 0x1 LT ISZERO PUSH2 0x1164 JUMPI PUSH1 0x40 ADD SWAP1 JUMP JUMPDEST DUP2 DUP2 MUL SWAP3 SWAP2 DUP2 ISZERO SWAP2 DUP5 DIV EQ OR ISZERO PUSH2 0x1101 JUMPI JUMP JUMPDEST PUSH1 0xB SLOAD SWAP1 PUSH1 0x0 SWAP2 PUSH1 0xFF DUP2 AND ISZERO DUP1 ISZERO PUSH2 0x1683 JUMPI JUMPDEST DUP1 ISZERO PUSH2 0x166E JUMPI JUMPDEST DUP1 ISZERO PUSH2 0x165D JUMPI JUMPDEST PUSH2 0x164E JUMPI PUSH1 0x11 SLOAD SWAP1 DUP2 ISZERO PUSH2 0x1640 JUMPI ADDRESS DUP5 MSTORE PUSH1 0x6 PUSH1 0x20 MSTORE PUSH1 0x40 DUP5 KECCAK256 SLOAD DUP3 DUP2 LT PUSH2 0x1646 JUMPI JUMPDEST POP DUP2 ISZERO PUSH2 0x1640 JUMPI PUSH1 0x40 MLOAD PUSH4 0x95EA7B3 PUSH1 0xE0 SHL DUP2 MSTORE SWAP1 PUSH1 0x20 SWAP1 DUP3 SWAP1 DUP2 SWAP1 PUSH2 0x1218 SWAP1 DUP7 SWAP1 PUSH1 0x8 SHR PUSH1 0x1 PUSH1 0x1 PUSH1 0xA0 SHL SUB AND PUSH1 0x4 DUP5 ADD PUSH2 0x113C JUMP JUMPDEST SUB DUP2 DUP8 ADDRESS GAS CALL DUP1 ISZERO PUSH2 0x1525 JUMPI PUSH2 0x1623 JUMPI JUMPDEST POP PUSH1 0xD SLOAD PUSH1 0x40 MLOAD PUSH4 0x70A08231 PUSH1 0xE0 SHL DUP2 MSTORE ADDRESS PUSH1 0x4 DUP3 ADD MSTORE SWAP2 SWAP1 PUSH1 0x1 PUSH1 0x1 PUSH1 0xA0 SHL SUB AND PUSH1 0x20 DUP4 PUSH1 0x24 DUP2 DUP5 GAS STATICCALL SWAP3 DUP4 ISZERO PUSH2 0x154B JUMPI DUP6 SWAP4 PUSH2 0x15EB JUMPI JUMPDEST POP PUSH1 0xC SLOAD PUSH1 0x1 PUSH1 0x1 PUSH1 0xA0 SHL SUB AND SWAP1 DUP1 DUP3 SUB PUSH2 0x1593 JUMPI POP PUSH1 0x40 MLOAD SWAP1 PUSH2 0x1287 PUSH1 0x60 DUP4 PUSH2 0x1046 JUMP JUMPDEST PUSH1 0x2 DUP3 MSTORE PUSH1 0x40 CALLDATASIZE PUSH1 0x20 DUP5 ADD CALLDATACOPY PUSH2 0x12A7 DUP3 ADDRESS PUSH2 0x12A1 DUP3 PUSH2 0x1157 JUMP JUMPDEST MSTORE PUSH2 0x117A JUMP JUMPDEST MSTORE JUMPDEST PUSH1 0x1 DUP1 PUSH1 0xA0 SHL SUB PUSH1 0xB SLOAD PUSH1 0x8 SHR AND PUSH2 0x258 TIMESTAMP ADD SWAP2 DUP3 TIMESTAMP GT PUSH2 0x157F JUMPI DUP2 EXTCODESIZE ISZERO PUSH2 0x157B JUMPI SWAP2 DUP7 SWAP2 PUSH1 0x40 MLOAD SWAP4 DUP5 SWAP3 PUSH4 0x5C11D795 PUSH1 0xE0 SHL DUP5 MSTORE PUSH1 0xA4 DUP5 ADD DUP8 PUSH1 0x4 DUP7 ADD MSTORE DUP6 PUSH1 0x24 DUP7 ADD MSTORE PUSH1 0xA0 PUSH1 0x44 DUP7 ADD MSTORE DUP3 MLOAD DUP1 SWAP2 MSTORE PUSH1 0x20 PUSH1 0xC4 DUP7 ADD SWAP4 ADD SWAP1 DUP7 JUMPDEST DUP2 DUP2 LT PUSH2 0x1556 JUMPI POP POP POP DUP4 DUP1 SWAP3 DUP7 SWAP3 ADDRESS PUSH1 0x64 DUP5 ADD MSTORE PUSH1 0x84 DUP4 ADD MSTORE SUB SWAP3 GAS CALL DUP1 ISZERO PUSH2 0x154B JUMPI PUSH2 0x1530 JUMPI JUMPDEST POP SWAP1 PUSH2 0x133E PUSH1 0x24 SWAP3 PUSH1 0x11 SLOAD PUSH2 0x10F4 JUMP JUMPDEST PUSH1 0x11 SSTORE PUSH1 0xD SLOAD PUSH1 0x40 MLOAD PUSH4 0x70A08231 PUSH1 0xE0 SHL DUP2 MSTORE ADDRESS PUSH1 0x4 DUP3 ADD MSTORE SWAP3 PUSH1 0x20 SWAP2 DUP5 SWAP2 SWAP1 DUP3 SWAP1 PUSH1 0x1 PUSH1 0x1 PUSH1 0xA0 SHL SUB AND GAS STATICCALL DUP1 ISZERO PUSH2 0x1525 JUMPI DUP5 SWAP1 PUSH2 0x14F1 JUMPI JUMPDEST PUSH2 0x1382 SWAP3 POP PUSH2 0x10F4 JUMP JUMPDEST DUP1 ISZERO PUSH2 0x14EC JUMPI PUSH1 0x4 SLOAD PUSH1 0x8 SLOAD SWAP1 SWAP2 SWAP1 PUSH1 0x1 PUSH1 0x1 PUSH1 0xA0 SHL SUB AND DUP1 PUSH2 0x14C8 JUMPI JUMPDEST POP PUSH1 0x5 SLOAD PUSH1 0x1 PUSH1 0x1 PUSH1 0xA0 SHL SUB AND DUP5 MSTORE PUSH1 0x6 PUSH1 0x20 MSTORE PUSH1 0x40 DUP5 KECCAK256 SLOAD DUP3 DUP2 GT ISZERO PUSH2 0x14B7 JUMPI JUMPDEST POP ADDRESS DUP5 MSTORE PUSH1 0x6 PUSH1 0x20 MSTORE PUSH1 0x40 DUP5 KECCAK256 SLOAD DUP3 DUP2 GT ISZERO PUSH2 0x14A6 JUMPI JUMPDEST POP DUP4 DUP1 MSTORE PUSH1 0x6 PUSH1 0x20 MSTORE PUSH1 0x40 DUP5 KECCAK256 SLOAD DUP3 DUP2 GT ISZERO PUSH2 0x1495 JUMPI JUMPDEST POP PUSH1 0xE SLOAD PUSH1 0x1 PUSH1 0x1 PUSH1 0xA0 SHL SUB AND DUP1 PUSH2 0x1471 JUMPI JUMPDEST POP DUP2 ISZERO DUP1 ISZERO PUSH2 0x1414 JUMPI JUMPDEST POP POP POP SWAP1 POP JUMP JUMPDEST PUSH5 0xE8D4A51000 DUP3 MUL SWAP2 DUP3 DIV PUSH5 0xE8D4A51000 SUB PUSH2 0x145D JUMPI PUSH2 0x1449 JUMPI PUSH2 0x143D SWAP3 SWAP4 POP DIV PUSH1 0x12 SLOAD PUSH2 0x1117 JUMP JUMPDEST PUSH1 0x12 SSTORE DUP1 CODESIZE DUP1 DUP1 PUSH2 0x140D JUMP JUMPDEST PUSH4 0x4E487B71 PUSH1 0xE0 SHL DUP5 MSTORE PUSH1 0x12 PUSH1 0x4 MSTORE PUSH1 0x24 DUP5 REVERT JUMPDEST PUSH4 0x4E487B71 PUSH1 0xE0 SHL DUP6 MSTORE PUSH1 0x11 PUSH1 0x4 MSTORE PUSH1 0x24 DUP6 REVERT JUMPDEST DUP5 MSTORE PUSH1 0x6 PUSH1 0x20 MSTORE PUSH1 0x40 DUP5 KECCAK256 SLOAD DUP3 DUP2 GT PUSH2 0x1403 JUMPI PUSH2 0x148E SWAP2 SWAP3 PUSH2 0x10F4 JUMP JUMPDEST SWAP1 CODESIZE PUSH2 0x1403 JUMP JUMPDEST PUSH2 0x149F SWAP2 SWAP3 PUSH2 0x10F4 JUMP JUMPDEST SWAP1 CODESIZE PUSH2 0x13F0 JUMP JUMPDEST PUSH2 0x14B0 SWAP2 SWAP3 PUSH2 0x10F4 JUMP JUMPDEST SWAP1 CODESIZE PUSH2 0x13D9 JUMP JUMPDEST PUSH2 0x14C1 SWAP2 SWAP3 PUSH2 0x10F4 JUMP JUMPDEST SWAP1 CODESIZE PUSH2 0x13C2 JUMP JUMPDEST DUP5 MSTORE PUSH1 0x6 PUSH1 0x20 MSTORE PUSH1 0x40 DUP5 KECCAK256 SLOAD DUP3 DUP2 GT PUSH2 0x13A0 JUMPI PUSH2 0x14E5 SWAP2 SWAP3 PUSH2 0x10F4 JUMP JUMPDEST SWAP1 CODESIZE PUSH2 0x13A0 JUMP JUMPDEST POP SWAP1 POP JUMP JUMPDEST POP PUSH1 0x20 DUP3 RETURNDATASIZE PUSH1 0x20 GT PUSH2 0x151D JUMPI JUMPDEST DUP2 PUSH2 0x150B PUSH1 0x20 SWAP4 DUP4 PUSH2 0x1046 JUMP JUMPDEST DUP2 ADD SUB SLT PUSH2 0x1EA JUMPI PUSH2 0x1382 SWAP2 MLOAD PUSH2 0x1378 JUMP JUMPDEST RETURNDATASIZE SWAP2 POP PUSH2 0x14FE JUMP JUMPDEST PUSH1 0x40 MLOAD RETURNDATASIZE DUP7 DUP3 RETURNDATACOPY RETURNDATASIZE SWAP1 REVERT JUMPDEST DUP5 PUSH2 0x1542 PUSH1 0x24 SWAP5 SWAP4 SWAP7 PUSH2 0x133E SWAP4 PUSH2 0x1046 JUMP JUMPDEST SWAP5 SWAP2 SWAP3 POP PUSH2 0x132E JUMP JUMPDEST PUSH1 0x40 MLOAD RETURNDATASIZE DUP8 DUP3 RETURNDATACOPY RETURNDATASIZE SWAP1 REVERT JUMPDEST DUP3 MLOAD PUSH1 0x1 PUSH1 0x1 PUSH1 0xA0 SHL SUB AND DUP6 MSTORE DUP13 SWAP8 POP DUP9 SWAP7 POP PUSH1 0x20 SWAP5 DUP6 ADD SWAP5 SWAP1 SWAP3 ADD SWAP2 PUSH1 0x1 ADD PUSH2 0x1305 JUMP JUMPDEST DUP7 DUP1 REVERT JUMPDEST PUSH4 0x4E487B71 PUSH1 0xE0 SHL DUP8 MSTORE PUSH1 0x11 PUSH1 0x4 MSTORE PUSH1 0x24 DUP8 REVERT JUMPDEST PUSH1 0x40 MLOAD PUSH2 0x15A1 PUSH1 0x80 DUP3 PUSH2 0x1046 JUMP JUMPDEST PUSH1 0x3 DUP2 MSTORE PUSH1 0x60 CALLDATASIZE PUSH1 0x20 DUP4 ADD CALLDATACOPY DUP1 SWAP3 ADDRESS PUSH2 0x15B9 DUP4 PUSH2 0x1157 JUMP JUMPDEST MSTORE PUSH2 0x15C3 DUP3 PUSH2 0x117A JUMP JUMPDEST MSTORE DUP1 MLOAD PUSH1 0x2 LT ISZERO PUSH2 0x15D7 JUMPI PUSH1 0x60 ADD MSTORE PUSH2 0x12A9 JUMP JUMPDEST PUSH4 0x4E487B71 PUSH1 0xE0 SHL DUP8 MSTORE PUSH1 0x32 PUSH1 0x4 MSTORE PUSH1 0x24 DUP8 REVERT JUMPDEST SWAP1 SWAP3 POP PUSH1 0x20 DUP2 RETURNDATASIZE PUSH1 0x20 GT PUSH2 0x161B JUMPI JUMPDEST DUP2 PUSH2 0x1607 PUSH1 0x20 SWAP4 DUP4 PUSH2 0x1046 JUMP JUMPDEST DUP2 ADD SUB SLT PUSH2 0x1617 JUMPI MLOAD SWAP2 CODESIZE PUSH2 0x1262 JUMP JUMPDEST DUP5 DUP1 REVERT JUMPDEST RETURNDATASIZE SWAP2 POP PUSH2 0x15FA JUMP JUMPDEST PUSH2 0x163B SWAP1 PUSH1 0x20 RETURNDATASIZE PUSH1 0x20 GT PUSH2 0x319 JUMPI PUSH2 0x30B DUP2 DUP4 PUSH2 0x1046 JUMP JUMPDEST PUSH2 0x1229 JUMP JUMPDEST POP POP SWAP1 POP JUMP JUMPDEST SWAP2 POP CODESIZE PUSH2 0x11E1 JUMP JUMPDEST PUSH4 0x10EE9187 PUSH1 0xE0 SHL DUP4 MSTORE PUSH1 0x4 DUP4 REVERT JUMPDEST POP PUSH2 0xFFFF PUSH1 0xA SLOAD PUSH1 0xD8 SHR AND ISZERO PUSH2 0x11BE JUMP JUMPDEST POP PUSH1 0x8 DUP2 SWAP1 SHR PUSH1 0x1 PUSH1 0x1 PUSH1 0xA0 SHL SUB AND ISZERO PUSH2 0x11B7 JUMP JUMPDEST POP PUSH1 0xFF PUSH1 0xA SLOAD PUSH1 0xA0 SHR AND ISZERO PUSH2 0x11B0 JUMP JUMPDEST PUSH1 0x24 CALLDATALOAD PUSH1 0x1 PUSH1 0x1 PUSH1 0xA0 SHL SUB DUP2 AND DUP2 SUB PUSH2 0x1EA JUMPI SWAP1 JUMP JUMPDEST PUSH1 0x4 CALLDATALOAD PUSH1 0x1 PUSH1 0x1 PUSH1 0xA0 SHL SUB DUP2 AND DUP2 SUB PUSH2 0x1EA JUMPI SWAP1 JUMP JUMPDEST PUSH1 0x44 CALLDATALOAD PUSH1 0x1 PUSH1 0x1 PUSH1 0xA0 SHL SUB DUP2 AND DUP2 SUB PUSH2 0x1EA JUMPI SWAP1 JUMP JUMPDEST PUSH2 0x144 CALLDATALOAD PUSH1 0x1 PUSH1 0x1 PUSH1 0xA0 SHL SUB DUP2 AND DUP2 SUB PUSH2 0x1EA JUMPI SWAP1 JUMP JUMPDEST PUSH2 0x164 CALLDATALOAD PUSH1 0x1 PUSH1 0x1 PUSH1 0xA0 SHL SUB DUP2 AND DUP2 SUB PUSH2 0x1EA JUMPI SWAP1 JUMP JUMPDEST PUSH2 0x184 CALLDATALOAD PUSH1 0x1 PUSH1 0x1 PUSH1 0xA0 SHL SUB DUP2 AND DUP2 SUB PUSH2 0x1EA JUMPI SWAP1 JUMP JUMPDEST PUSH1 0x64 CALLDATALOAD PUSH2 0xFFFF DUP2 AND DUP2 SUB PUSH2 0x1EA JUMPI SWAP1 JUMP JUMPDEST PUSH1 0x84 CALLDATALOAD PUSH2 0xFFFF DUP2 AND DUP2 SUB PUSH2 0x1EA JUMPI SWAP1 JUMP JUMPDEST PUSH1 0xA4 CALLDATALOAD PUSH2 0xFFFF DUP2 AND DUP2 SUB PUSH2 0x1EA JUMPI SWAP1 JUMP JUMPDEST PUSH1 0xC4 CALLDATALOAD PUSH2 0xFFFF DUP2 AND DUP2 SUB PUSH2 0x1EA JUMPI SWAP1 JUMP JUMPDEST PUSH1 0xE4 CALLDATALOAD PUSH2 0xFFFF DUP2 AND DUP2 SUB PUSH2 0x1EA JUMPI SWAP1 JUMP JUMPDEST PUSH2 0x124 CALLDATALOAD DUP1 ISZERO ISZERO DUP2 SUB PUSH2 0x1EA JUMPI SWAP1 JUMP JUMPDEST SWAP2 PUSH1 0x1 DUP1 PUSH1 0xA0 SHL SUB DUP4 AND DUP1 PUSH1 0x0 MSTORE PUSH1 0x6 PUSH1 0x20 MSTORE DUP2 PUSH1 0x40 PUSH1 0x0 KECCAK256 SLOAD LT PUSH2 0x1ABA JUMPI PUSH2 0x17A8 DUP4 DUP6 PUSH2 0x1BE7 JUMP JUMPDEST DUP1 ISZERO PUSH2 0x1AB2 JUMPI JUMPDEST PUSH2 0x1A6B JUMPI PUSH2 0x17BE DUP3 DUP5 DUP7 PUSH2 0x1C39 JUMP JUMPDEST PUSH1 0x0 PUSH1 0xA SLOAD SWAP3 DUP4 PUSH1 0xF8 SHR DUP1 PUSH2 0x1A5B JUMPI JUMPDEST PUSH2 0x1A3E JUMPI JUMPDEST PUSH2 0x17DD DUP3 DUP3 PUSH2 0x10F4 JUMP JUMPDEST SWAP4 PUSH1 0xFF PUSH1 0xB SLOAD AND SWAP1 DUP2 PUSH2 0x1A2F JUMPI JUMPDEST DUP2 PUSH2 0x1A1E JUMPI JUMPDEST POP PUSH2 0x1A07 JUMPI JUMPDEST DUP3 PUSH1 0x0 MSTORE PUSH1 0x6 PUSH1 0x20 MSTORE PUSH1 0x40 PUSH1 0x0 KECCAK256 SWAP1 DUP2 SLOAD SUB SWAP1 SSTORE DUP1 PUSH2 0x189C JUMPI JUMPDEST POP PUSH1 0x0 DUP1 MLOAD PUSH1 0x20 PUSH2 0x1E6B DUP4 CODECOPY DUP2 MLOAD SWAP2 MSTORE PUSH1 0x20 PUSH1 0x1 DUP1 PUSH1 0xA0 SHL SUB DUP6 AND SWAP4 DUP5 PUSH1 0x0 MSTORE PUSH1 0x6 DUP3 MSTORE PUSH1 0x40 PUSH1 0x0 KECCAK256 PUSH2 0x1845 DUP3 DUP3 SLOAD PUSH2 0x1117 JUMP JUMPDEST SWAP1 SSTORE PUSH1 0x40 MLOAD SWAP1 DUP2 MSTORE LOG3 PUSH1 0xFF PUSH1 0xB SLOAD AND DUP1 PUSH2 0x188D JUMPI JUMPDEST DUP1 PUSH2 0x187B JUMPI JUMPDEST PUSH2 0x1868 JUMPI POP POP JUMP JUMPDEST PUSH2 0x1874 PUSH2 0x1879 SWAP3 PUSH2 0x1ACB JUMP JUMPDEST PUSH2 0x1ACB JUMP JUMPDEST JUMP JUMPDEST POP PUSH2 0xFFFF PUSH1 0xA SLOAD PUSH1 0xD8 SHR AND ISZERO ISZERO PUSH2 0x1860 JUMP JUMPDEST POP PUSH1 0xFF PUSH1 0xA SLOAD PUSH1 0xA0 SHR AND PUSH2 0x185A JUMP JUMPDEST PUSH1 0xA SLOAD DUP3 PUSH2 0x2710 PUSH2 0x18B4 PUSH2 0xFFFF DUP5 PUSH1 0xB8 SHR AND DUP6 PUSH2 0x118A JUMP JUMPDEST DIV SWAP3 DUP4 PUSH2 0x18F9 PUSH2 0x2710 PUSH2 0x18CE PUSH2 0xFFFF DUP8 PUSH1 0xC8 SHR AND DUP6 PUSH2 0x118A JUMP JUMPDEST DIV SWAP3 PUSH2 0x18F4 DUP5 PUSH2 0x18F4 PUSH2 0x2710 PUSH2 0x18EB PUSH2 0xFFFF DUP12 PUSH1 0xD8 SHR AND DUP7 PUSH2 0x118A JUMP JUMPDEST DIV SWAP10 DUP11 SWAP5 PUSH2 0x10F4 JUMP JUMPDEST PUSH2 0x10F4 JUMP JUMPDEST SWAP4 DUP2 PUSH2 0x19B5 JUMPI JUMPDEST POP POP DUP1 ISZERO DUP1 ISZERO SWAP1 PUSH2 0x19AC JUMPI JUMPDEST PUSH2 0x1965 JUMPI JUMPDEST POP POP POP DUP1 ISZERO PUSH2 0x1811 JUMPI PUSH2 0x195C SWAP1 ADDRESS PUSH1 0x0 MSTORE PUSH1 0x6 PUSH1 0x20 MSTORE PUSH1 0x40 PUSH1 0x0 KECCAK256 PUSH2 0x1937 DUP3 DUP3 SLOAD PUSH2 0x1117 JUMP JUMPDEST SWAP1 SSTORE PUSH1 0x40 MLOAD DUP2 DUP2 MSTORE DUP4 PUSH1 0x0 DUP1 MLOAD PUSH1 0x20 PUSH2 0x1E6B DUP4 CODECOPY DUP2 MLOAD SWAP2 MSTORE PUSH1 0x20 ADDRESS SWAP4 LOG3 PUSH1 0x11 SLOAD PUSH2 0x1117 JUMP JUMPDEST PUSH1 0x11 SSTORE CODESIZE PUSH2 0x1811 JUMP JUMPDEST PUSH1 0x20 PUSH2 0x1983 PUSH2 0xDEAD SWAP5 PUSH1 0x0 DUP1 MLOAD PUSH1 0x20 PUSH2 0x1E6B DUP4 CODECOPY DUP2 MLOAD SWAP2 MSTORE SWAP4 PUSH2 0x1117 JUMP JUMPDEST DUP5 PUSH1 0x0 MSTORE PUSH1 0x6 DUP3 MSTORE PUSH1 0x40 PUSH1 0x0 KECCAK256 PUSH2 0x199B DUP3 DUP3 SLOAD PUSH2 0x1117 JUMP JUMPDEST SWAP1 SSTORE PUSH1 0x40 MLOAD SWAP1 DUP2 MSTORE LOG3 CODESIZE DUP3 DUP2 PUSH2 0x1911 JUMP JUMPDEST POP DUP3 ISZERO ISZERO PUSH2 0x190C JUMP JUMPDEST PUSH1 0x1 DUP1 PUSH1 0xA0 SHL SUB AND PUSH1 0x0 MSTORE PUSH1 0x6 PUSH1 0x20 MSTORE PUSH1 0x40 PUSH1 0x0 KECCAK256 PUSH2 0x19D5 DUP3 DUP3 SLOAD PUSH2 0x1117 JUMP JUMPDEST SWAP1 SSTORE PUSH1 0xA SLOAD PUSH1 0x40 MLOAD SWAP2 DUP3 MSTORE PUSH1 0x1 PUSH1 0x1 PUSH1 0xA0 SHL SUB AND SWAP1 DUP4 SWAP1 PUSH1 0x0 DUP1 MLOAD PUSH1 0x20 PUSH2 0x1E6B DUP4 CODECOPY DUP2 MLOAD SWAP2 MSTORE SWAP1 PUSH1 0x20 SWAP1 LOG3 CODESIZE DUP1 PUSH2 0x1900 JUMP JUMPDEST PUSH2 0x1A10 DUP7 PUSH2 0x1ACB JUMP JUMPDEST PUSH2 0x1A19 DUP6 PUSH2 0x1ACB JUMP JUMPDEST PUSH2 0x17F7 JUMP JUMPDEST PUSH2 0xFFFF SWAP2 POP PUSH1 0xD8 SHR AND ISZERO ISZERO CODESIZE PUSH2 0x17F1 JUMP JUMPDEST SWAP1 POP PUSH1 0xFF DUP2 PUSH1 0xA0 SHR AND SWAP1 PUSH2 0x17EB JUMP JUMPDEST SWAP1 POP PUSH2 0x2710 PUSH2 0x1A54 PUSH2 0xFFFF DUP6 PUSH1 0xA8 SHR AND DUP4 PUSH2 0x118A JUMP JUMPDEST DIV SWAP1 PUSH2 0x17D3 JUMP JUMPDEST POP PUSH2 0xFFFF DUP5 PUSH1 0xA8 SHR AND ISZERO ISZERO PUSH2 0x17CE JUMP JUMPDEST DUP1 PUSH1 0x0 MSTORE PUSH1 0x6 PUSH1 0x20 MSTORE PUSH1 0x40 PUSH1 0x0 KECCAK256 DUP3 DUP2 SLOAD SUB SWAP1 SSTORE PUSH1 0x0 DUP1 MLOAD PUSH1 0x20 PUSH2 0x1E6B DUP4 CODECOPY DUP2 MLOAD SWAP2 MSTORE PUSH1 0x20 PUSH1 0x1 DUP1 PUSH1 0xA0 SHL SUB DUP6 AND SWAP4 DUP5 PUSH1 0x0 MSTORE PUSH1 0x6 DUP3 MSTORE PUSH1 0x40 PUSH1 0x0 KECCAK256 PUSH2 0x1845 DUP3 DUP3 SLOAD PUSH2 0x1117 JUMP JUMPDEST POP DUP2 ISZERO PUSH2 0x17AF JUMP JUMPDEST PUSH4 0x1E9ACF17 PUSH1 0xE3 SHL PUSH1 0x0 MSTORE PUSH1 0x4 PUSH1 0x0 REVERT JUMPDEST PUSH1 0x1 PUSH1 0x1 PUSH1 0xA0 SHL SUB DUP2 AND SWAP1 DUP2 ISZERO PUSH2 0x1BAF JUMPI PUSH1 0xFF PUSH1 0xB SLOAD AND ISZERO DUP1 ISZERO PUSH2 0x1BD7 JUMPI JUMPDEST DUP1 ISZERO PUSH2 0x1BC4 JUMPI JUMPDEST DUP1 ISZERO PUSH2 0x1BB3 JUMPI JUMPDEST PUSH2 0x1BAF JUMPI PUSH2 0x1B05 SWAP1 PUSH2 0x1D7C JUMP JUMPDEST PUSH2 0x1B8E JUMPI DUP1 PUSH1 0x0 MSTORE PUSH1 0x6 PUSH1 0x20 MSTORE PUSH5 0xE8D4A51000 PUSH2 0x1B51 PUSH1 0x40 PUSH1 0x0 KECCAK256 SLOAD DUP3 PUSH2 0x1B2E PUSH1 0x12 SLOAD DUP4 PUSH2 0x118A JUMP JUMPDEST DIV DUP5 PUSH1 0x0 MSTORE PUSH1 0x13 PUSH1 0x20 MSTORE PUSH1 0x40 PUSH1 0x0 KECCAK256 SLOAD DUP1 DUP3 GT PUSH2 0x1B63 JUMPI JUMPDEST POP POP PUSH1 0x12 SLOAD SWAP1 PUSH2 0x118A JUMP JUMPDEST DIV SWAP1 PUSH1 0x0 MSTORE PUSH1 0x13 PUSH1 0x20 MSTORE PUSH1 0x40 PUSH1 0x0 KECCAK256 SSTORE JUMP JUMPDEST PUSH2 0x1B6C SWAP2 PUSH2 0x10F4 JUMP JUMPDEST DUP5 PUSH1 0x0 MSTORE PUSH1 0x14 PUSH1 0x20 MSTORE PUSH2 0x1B85 PUSH1 0x40 PUSH1 0x0 KECCAK256 SWAP2 DUP3 SLOAD PUSH2 0x1117 JUMP JUMPDEST SWAP1 SSTORE CODESIZE DUP1 PUSH2 0x1B46 JUMP JUMPDEST DUP1 PUSH1 0x0 MSTORE PUSH1 0x6 PUSH1 0x20 MSTORE PUSH5 0xE8D4A51000 PUSH2 0x1B51 PUSH1 0x40 PUSH1 0x0 KECCAK256 SLOAD PUSH1 0x12 SLOAD SWAP1 PUSH2 0x118A JUMP JUMPDEST POP POP JUMP JUMPDEST POP PUSH2 0xFFFF PUSH1 0xA SLOAD PUSH1 0xD8 SHR AND ISZERO PUSH2 0x1AF8 JUMP JUMPDEST POP PUSH1 0xD SLOAD PUSH1 0x1 PUSH1 0x1 PUSH1 0xA0 SHL SUB AND ISZERO PUSH2 0x1AF1 JUMP JUMPDEST POP PUSH1 0xFF PUSH1 0xA SLOAD PUSH1 0xA0 SHR AND ISZERO PUSH2 0x1AEA JUMP JUMPDEST PUSH1 0xFF PUSH1 0xA SLOAD PUSH1 0xA0 SHR AND ISZERO PUSH2 0x1C32 JUMPI PUSH1 0x5 SLOAD PUSH1 0x1 PUSH1 0x1 PUSH1 0xA0 SHL SUB SWAP1 DUP2 AND SWAP2 AND DUP2 EQ SWAP2 DUP3 ISZERO PUSH2 0x1C1F JUMPI JUMPDEST POP POP PUSH2 0x1C1A JUMPI PUSH1 0x0 SWAP1 JUMP JUMPDEST PUSH1 0x1 SWAP1 JUMP JUMPDEST PUSH1 0x1 PUSH1 0x1 PUSH1 0xA0 SHL SUB AND EQ SWAP1 POP CODESIZE DUP1 PUSH2 0x1C0F JUMP JUMPDEST POP POP PUSH1 0x1 SWAP1 JUMP JUMPDEST SWAP2 PUSH1 0xFF PUSH1 0xA SLOAD PUSH1 0xA0 SHR AND DUP1 PUSH2 0x1D71 JUMPI JUMPDEST DUP1 PUSH2 0x1D66 JUMPI JUMPDEST ISZERO PUSH2 0x1D61 JUMPI PUSH1 0x4 SLOAD PUSH1 0x10 SLOAD SWAP4 PUSH2 0xFFFF DUP6 AND SWAP5 PUSH2 0x2710 PUSH2 0x1C82 PUSH2 0xFFFF DUP3 PUSH2 0x1C75 DUP11 DUP9 PUSH2 0x118A JUMP JUMPDEST DIV SWAP4 PUSH1 0x10 SHR AND DUP1 SWAP6 PUSH2 0x118A JUMP JUMPDEST DIV SWAP6 PUSH2 0x1D03 JUMPI JUMPDEST POP PUSH1 0x8 SLOAD PUSH1 0x1 PUSH1 0x1 PUSH1 0xA0 SHL SUB SWAP2 DUP3 AND SWAP2 AND EQ SWAP1 DUP2 PUSH2 0x1CF9 JUMPI JUMPDEST POP DUP1 PUSH2 0x1CE9 JUMPI JUMPDEST PUSH2 0x1CB2 JUMPI POP POP POP JUMP JUMPDEST PUSH2 0x1CD1 SWAP2 PUSH1 0x1 DUP1 PUSH1 0xA0 SHL SUB AND PUSH1 0x0 MSTORE PUSH1 0x6 PUSH1 0x20 MSTORE PUSH1 0x40 PUSH1 0x0 KECCAK256 SLOAD PUSH2 0x1117 JUMP JUMPDEST GT PUSH2 0x1CD8 JUMPI JUMP JUMPDEST PUSH4 0x11421D13 PUSH1 0xE0 SHL PUSH1 0x0 MSTORE PUSH1 0x4 PUSH1 0x0 REVERT JUMPDEST POP PUSH2 0x1CF3 DUP3 PUSH2 0x1DD2 JUMP JUMPDEST ISZERO PUSH2 0x1CA9 JUMP JUMPDEST SWAP1 POP ISZERO ISZERO CODESIZE PUSH2 0x1CA2 JUMP JUMPDEST PUSH1 0x8 SLOAD PUSH1 0x1 PUSH1 0x1 PUSH1 0xA0 SHL SUB SWAP1 DUP2 AND SWAP1 DUP4 AND DUP2 EQ DUP1 PUSH2 0x1D58 JUMPI JUMPDEST PUSH2 0x1D3D JUMPI PUSH1 0x1 PUSH1 0x1 PUSH1 0xA0 SHL SUB DUP7 AND EQ SWAP1 DUP2 PUSH2 0x1D4E JUMPI JUMPDEST POP PUSH2 0x1D3D JUMPI CODESIZE PUSH2 0x1C89 JUMP JUMPDEST PUSH4 0x144F4A3 PUSH1 0xE5 SHL PUSH1 0x0 MSTORE PUSH1 0x4 PUSH1 0x0 REVERT JUMPDEST SWAP1 POP DUP4 GT CODESIZE PUSH2 0x1D32 JUMP JUMPDEST POP DUP2 DUP6 GT PUSH2 0x1D1C JUMP JUMPDEST POP POP POP JUMP JUMPDEST POP PUSH1 0xF SLOAD TIMESTAMP LT PUSH2 0x1C4F JUMP JUMPDEST POP PUSH1 0xF SLOAD ISZERO ISZERO PUSH2 0x1C49 JUMP JUMPDEST PUSH1 0x1 PUSH1 0x1 PUSH1 0xA0 SHL SUB AND DUP1 ISZERO PUSH2 0x1DCC JUMPI PUSH1 0x5 SLOAD PUSH1 0x1 PUSH1 0x1 PUSH1 0xA0 SHL SUB AND DUP2 EQ PUSH2 0x1DCC JUMPI PUSH1 0x8 SLOAD PUSH1 0x1 PUSH1 0x1 PUSH1 0xA0 SHL SUB AND DUP2 EQ PUSH2 0x1DCC JUMPI ADDRESS DUP2 EQ PUSH2 0x1DCC JUMPI PUSH1 0xE SLOAD PUSH1 0x1 PUSH1 0x1 PUSH1 0xA0 SHL SUB AND EQ PUSH2 0x1C1A JUMPI PUSH1 0x0 SWAP1 JUMP JUMPDEST POP PUSH1 0x1 SWAP1 JUMP JUMPDEST PUSH1 0x1 PUSH1 0x1 PUSH1 0xA0 SHL SUB AND DUP1 ISZERO DUP1 ISZERO PUSH2 0x1E56 JUMPI JUMPDEST DUP1 ISZERO PUSH2 0x1E42 JUMPI JUMPDEST DUP1 ISZERO PUSH2 0x1E39 JUMPI JUMPDEST PUSH2 0x1DCC JUMPI PUSH2 0xDEAD DUP2 EQ PUSH2 0x1DCC JUMPI PUSH1 0xA SLOAD PUSH1 0x1 PUSH1 0x1 PUSH1 0xA0 SHL SUB AND DUP2 EQ PUSH2 0x1DCC JUMPI PUSH1 0xE SLOAD PUSH1 0x1 PUSH1 0x1 PUSH1 0xA0 SHL SUB AND DUP2 EQ PUSH2 0x1DCC JUMPI PUSH1 0x9 SLOAD PUSH1 0x1 PUSH1 0x1 PUSH1 0xA0 SHL SUB AND EQ PUSH2 0x1C1A JUMPI PUSH1 0x0 SWAP1 JUMP JUMPDEST POP ADDRESS DUP2 EQ PUSH2 0x1DF2 JUMP JUMPDEST POP PUSH1 0x8 SLOAD PUSH1 0x1 PUSH1 0x1 PUSH1 0xA0 SHL SUB AND DUP2 EQ PUSH2 0x1DEB JUMP JUMPDEST POP PUSH1 0x5 SLOAD PUSH1 0x1 PUSH1 0x1 PUSH1 0xA0 SHL SUB AND DUP2 EQ PUSH2 0x1DE4 JUMP INVALID 0xDD CALLCODE MSTORE 0xAD SHL 0xE2 0xC8 SWAP12 PUSH10 0xC2B068FC378DAA952BA7 CALL PUSH4 0xC4A11628 CREATE2 GAS 0x4D CREATE2 0x23 0xB3 0xEF LOG1 PUSH5 0x736F6C6343 STOP ADDMOD BYTE STOP EXP LOG1 PUSH5 0x736F6C6343 STOP ADDMOD BYTE STOP EXP "},"methodIdentifiers":{"deployMemeCoin(string,string,address,bytes32,uint256)":"5a59b309"}}}}}