{
  "_format": "hh-sol-artifact-1",
  "contractName": "TokenDeployer",
  "sourceName": "contracts/TokenDeployer.sol",
  "abi": [
    {
      "inputs": [],
      "name": "InvalidSalt",
      "type": "error"
    },
    {
      "inputs": [
        {
          "internalType": "string",
          "name": "name_",
          "type": "string"
        },
        {
          "internalType": "string",
          "name": "symbol_",
          "type": "string"
        },
        {
          "internalType": "address",
          "name": "factory_",
          "type": "address"
        },
        {
          "internalType": "bytes32",
          "name": "salt",
          "type": "bytes32"
        },
        {
          "internalType": "uint256",
          "name": "requiredSuffix",
          "type": "uint256"
        }
      ],
      "name": "deployMemeCoin",
      "outputs": [
        {
          "internalType": "address",
          "name": "tokenAddress",
          "type": "address"
        }
      ],
      "stateMutability": "nonpayable",
      "type": "function"
    }
  ],
  "bytecode": "0x60808060405234601557612495908161001b8239f35b600080fdfe6080604052600436101561001257600080fd5b60003560e01c635a59b3091461002757600080fd5b346101485760a0366003190112610148576004356001600160401b0381116101485761005790369060040161014d565b6024356001600160401b0381116101485761007690369060040161014d565b906044356001600160a01b038116908190036101485760405161229380820194919390916001600160401b03861185871017610132576100c96100d7926040946101f688396060885260608801906101b4565b9086820360208801526101b4565b930152806064359203906000f58015610126576084356001600160a01b031661ffff821603610115576040516001600160a01b039091168152602090f35b6381e69d9b60e01b60005260046000fd5b6040513d6000823e3d90fd5b634e487b7160e01b600052604160045260246000fd5b600080fd5b81601f82011215610148578035906001600160401b0382116101325760405192601f8301601f19908116603f011684016001600160401b03811185821017610132576040528284526020838301011161014857816000926020809301838601378301015290565b919082519283825260005b8481106101e0575050826000602080949584010152601f8019910116010190565b806020809284010151828286010152016101bf56fe60806040523461036657612293803803806100198161036b565b9283398101906060818303126103665780516001600160401b0381116103665782610045918301610390565b60208201519092906001600160401b03811161036657604091610069918401610390565b9101516001600160a01b038116908190036103665760016000556003805460ff1916601217905582516001600160401b03811161026f57600154600181811c9116801561035c575b602082101461024f57601f81116102f7575b506020601f82116001146102905781929394600092610285575b50508160011b916000199060031b1c1916176001555b81516001600160401b03811161026f57600254600181811c91168015610265575b602082101461024f57601f81116101ea575b50602092601f8211600114610185579281929360009261017a575b50508160011b916000199060031b1c1916176002555b600580546001600160a01b031916919091179055604051611e9790816103fc8239f35b015190503880610141565b601f198216936002600052806000209160005b8681106101d257508360019596106101b9575b505050811b01600255610157565b015160001960f88460031b161c191690553880806101ab565b91926020600181928685015181550194019201610198565b60026000527f405787fa12a823e0f2b7631cc41b3ba8828b3321ca811111fa75cd3aa3bb5ace601f830160051c81019160208410610245575b601f0160051c01905b8181106102395750610126565b6000815560010161022c565b9091508190610223565b634e487b7160e01b600052602260045260246000fd5b90607f1690610114565b634e487b7160e01b600052604160045260246000fd5b0151905038806100dd565b601f198216906001600052806000209160005b8181106102df575095836001959697106102c6575b505050811b016001556100f3565b015160001960f88460031b161c191690553880806102b8565b9192602060018192868b0151815501940192016102a3565b60016000527fb10e2d527612073b26eecdfd717e6a320cf44b4afac2b0732d9fcbe2b7fa0cf6601f830160051c81019160208410610352575b601f0160051c01905b81811061034657506100c3565b60008155600101610339565b9091508190610330565b90607f16906100b1565b600080fd5b6040519190601f01601f191682016001600160401b0381118382101761026f57604052565b81601f82011215610366578051906001600160401b03821161026f576103bf601f8301601f191660200161036b565b92828452602083830101116103665760005b8281106103e657505060206000918301015290565b806020809284010151828287010152016103d156fe608080604052600436101561001357600080fd5b60003560e01c90816302d05d3f146110225750806306fdde0314610f635780630700037d14610f295780630718e39214610f04578063095ea7b314610e8a5780630c9cd50314610e6557806318160ddd14610e475780631a08a9c814610e2a5780632194f3a214610e0157806323b872dd14610d715780632515c8c914610d4e5780632b93118014610d295780632ebd7c4714610d0b578063313ce56714610cea5780633735e15514610cc557806340c10f1914610c37578063452ed4f114610c0e5780635873eb9b14610bd4578063619aa33814610baf57806370a0823114610b755780637bf5b04b14610b465780637d9b2b4c14610b29578063870bd30b14610b06578063939d623714610ae857806395d89b41146109dd5780639f5d2a21146109bf578063a9059cbb1461098e578063ad5c464814610965578063b70d8cc41461093f578063b718e88314610916578063c31c9c07146108e9578063c45a0155146108c0578063c9af097d14610471578063dd62ed3e14610420578063de126e18146103fb578063e769a525146103d9578063f0fc6bca146101ef5763f7c618c1146101c157600080fd5b346101ea5760003660031901126101ea57600d546040516001600160a01b039091168152602090f35b600080fd5b346101ea5760003660031901126101ea576001600054036103c857600260005560ff600b54161580156103b8575b80156103a5575b8015610394575b6103835761023833611acb565b3360005260146020526040600020548015610372573360005260146020526000604081205560018060a01b03600d54166040516370a0823160e01b8152306004820152602081602481855afa801561032057839160009161033d575b501061032c576102c060209160009360405194858094819363a9059cbb60e01b8352336004840161113c565b03925af1908115610320576000916102f1575b50156102e0576001600055005b6334a43c6360e01b60005260046000fd5b610313915060203d602011610319575b61030b8183611046565b810190611124565b816102d3565b503d610301565b6040513d6000823e3d90fd5b63f6a2c5e560e01b60005260046000fd5b9150506020813d60201161036a575b8161035960209383611046565b810103126101ea5782905184610294565b3d915061034c565b63f9820cc160e01b60005260046000fd5b6310ee918760e01b60005260046000fd5b5061ffff600a5460d81c161561022b565b50600d546001600160a01b031615610224565b5060ff600a5460a01c161561021d565b63558a1e0360e11b60005260046000fd5b346101ea5760003660031901126101ea57602061ffff60105416604051908152f35b346101ea5760003660031901126101ea57602061ffff600a5460a81c16604051908152f35b346101ea5760403660031901126101ea576104396110c8565b6104416110de565b6001600160a01b039182166000908152600760209081526040808320949093168252928352819020549051908152f35b346101ea576102203660031901126101ea576005546000906001600160a01b031633036108b157600a5460ff8160a01c166108a2576001600160a01b036104b6611693565b1615801561088a575b610831576103e861ffff6104d161171a565b161161087b576105146105096104fe61ffff6104eb61172b565b1661ffff6104f761173c565b1690611117565b61ffff6104f761174d565b61ffff6104f761175e565b61ffff61051f61171a565b16156108675761271003610858575b61ffff61053961172b565b16151580610840575b6108315761ffff61055161174d565b166107ec575b61ffff61056261174d565b166107b0575b6001600160a01b036105786116a9565b60098054919092166001600160a01b03199091161790556001600160a01b0361059f611693565b60088054919092166001600160a01b03199091161790556001600160a01b036105c66116bf565b169061ffff60a81b6105d661171a565b60a81b1661ffff60b81b6105e861172b565b60b81b169261ffff60c81b6105fb61173c565b60c81b169161ffff60d81b61060e61174d565b60d81b169061ffff60e81b61062161175e565b60e81b16936101043595861515968781036107ac575061063f61176f565b600b549015159060ff610100600160a81b036106596116d5565b60081b1692169060018060a81b0319161717600b5560018060a01b0361067d6116ec565b600c8054919092166001600160a01b03199091161790556001600160a01b036106a4611703565b1660018060a01b0319600d541617600d556101a435600f556101c43561ffff8116908181036107a45750601054906101e43561ffff811681036107a85763ffffffff1990921617601091821b63ffff0000161790556001600160a01b0361020435908116908181036107a45750600e80546001600160a01b031916919091179055600160a01b600166ffffffffffff0160a01b031990911661ffff60c81b1995909516949094179190911763ffffffff60d81b191661ffff60e81b199690961695909517909417600160ff60a01b01600160f81b031660ff60a01b199490941693909317176001600160f81b031960f89290921b919091161717600a5580f35b8a80fd5b8b80fd5b8980fd5b6107b861176f565b1580156107d4575b156105685763bb96da6360e01b8252600482fd5b506001600160a01b036107e5611703565b16156107c0565b6001600160a01b036107fc6116d5565b16158015610819575b156105575763bb96da6360e01b8252600482fd5b506001600160a01b0361082a6116ec565b1615610805565b63ae9954c360e01b8252600482fd5b506001600160a01b036108516116bf565b1615610542565b63aff1d87b60e01b8252600482fd5b1561052e5763aff1d87b60e01b8252600482fd5b63f9edd1ef60e01b8252600482fd5b506001600160a01b0361089b6116a9565b16156104bf565b637cdf305160e11b8252600482fd5b630636a15760e11b8152600490fd5b346101ea5760003660031901126101ea576005546040516001600160a01b039091168152602090f35b346101ea5760003660031901126101ea57600b5460405160089190911c6001600160a01b03168152602090f35b346101ea5760003660031901126101ea57600e546040516001600160a01b039091168152602090f35b346101ea5760003660031901126101ea57602060ff600a5460a01c166040519015158152f35b346101ea5760003660031901126101ea57600c546040516001600160a01b039091168152602090f35b346101ea5760403660031901126101ea576109b46109aa6110c8565b602435903361177f565b602060405160018152f35b346101ea5760003660031901126101ea576020600f54604051908152f35b346101ea5760003660031901126101ea5760006040519080600254908160011c91600181168015610ade575b602084108114610aca57838652908115610aa35750600114610a46575b610a4284610a3681860382611046565b6040519182918261107f565b0390f35b600281527f405787fa12a823e0f2b7631cc41b3ba8828b3321ca811111fa75cd3aa3bb5ace939250905b808210610a8957509091508101602001610a3682610a26565b919260018160209254838588010152019101909291610a70565b60ff191660208087019190915292151560051b85019092019250610a369150839050610a26565b634e487b7160e01b83526022600452602483fd5b92607f1692610a09565b346101ea5760003660031901126101ea576020601254604051908152f35b346101ea5760003660031901126101ea576020600a5460f81c6040519015158152f35b346101ea5760003660031901126101ea5760206040516127108152f35b346101ea5760003660031901126101ea576001600054036103c8576002600055610b6e61119d565b6001600055005b346101ea5760203660031901126101ea576001600160a01b03610b966110c8565b1660005260066020526020604060002054604051908152f35b346101ea5760003660031901126101ea57602061ffff600a5460b81c16604051908152f35b346101ea5760203660031901126101ea576001600160a01b03610bf56110c8565b1660005260136020526020604060002054604051908152f35b346101ea5760003660031901126101ea576008546040516001600160a01b039091168152602090f35b346101ea5760403660031901126101ea57610c506110c8565b60055460243591906001600160a01b03163303610cb457600080516020611e6b8339815191526020600092610c8785600454611117565b60045560018060a01b0316938484526006825260408420610ca9828254611117565b9055604051908152a3005b630636a15760e11b60005260046000fd5b346101ea5760003660031901126101ea57602061ffff600a5460d81c16604051908152f35b346101ea5760003660031901126101ea57602060ff60035416604051908152f35b346101ea5760003660031901126101ea576020601154604051908152f35b346101ea5760003660031901126101ea57602061ffff60105460101c16604051908152f35b346101ea5760003660031901126101ea57602060ff600b54166040519015158152f35b346101ea5760603660031901126101ea57610d8a6110c8565b610d926110de565b6001600160a01b0382166000818152600760209081526040808320338452909152902054926044359291838510610df057610dd0846109b4966110f4565b60009182526007602090815260408084203385529091529091205561177f565b6313be252b60e01b60005260046000fd5b346101ea5760003660031901126101ea57600a546040516001600160a01b039091168152602090f35b346101ea5760003660031901126101ea5760206040516103e88152f35b346101ea5760003660031901126101ea576020600454604051908152f35b346101ea5760003660031901126101ea57602061ffff600a5460e81c16604051908152f35b346101ea5760403660031901126101ea57610ea36110c8565b3360008181526007602090815260408083206001600160a01b03909516808452948252918290206024359081905591519182527f8c5be1e5ebec7d5bd14f71427d1e84f3dd0314c0f7b2291e5b200ac8c7c3b92591a3602060405160018152f35b346101ea5760003660031901126101ea57602061ffff600a5460c81c16604051908152f35b346101ea5760203660031901126101ea576001600160a01b03610f4a6110c8565b1660005260146020526020604060002054604051908152f35b346101ea5760003660031901126101ea5760006040519080600154908160011c91600181168015611018575b602084108114610aca57838652908115610aa35750600114610fbb57610a4284610a3681860382611046565b600181527fb10e2d527612073b26eecdfd717e6a320cf44b4afac2b0732d9fcbe2b7fa0cf6939250905b808210610ffe57509091508101602001610a3682610a26565b919260018160209254838588010152019101909291610fe5565b92607f1692610f8f565b346101ea5760003660031901126101ea576009546001600160a01b03168152602090f35b601f909101601f19168101906001600160401b0382119082101761106957604052565b634e487b7160e01b600052604160045260246000fd5b91909160208152825180602083015260005b8181106110b2575060409293506000838284010152601f8019910116010190565b8060208092870101516040828601015201611091565b600435906001600160a01b03821682036101ea57565b602435906001600160a01b03821682036101ea57565b9190820391821161110157565b634e487b7160e01b600052601160045260246000fd5b9190820180921161110157565b908160209103126101ea575180151581036101ea5790565b6001600160a01b039091168152602081019190915260400190565b8051156111645760200190565b634e487b7160e01b600052603260045260246000fd5b8051600110156111645760400190565b8181029291811591840414171561110157565b600b549060009160ff8116158015611683575b801561166e575b801561165d575b61164e576011549081156116405730845260066020526040842054828110611646575b5081156116405760405163095ea7b360e01b8152906020908290819061121890869060081c6001600160a01b03166004840161113c565b038187305af1801561152557611623575b50600d546040516370a0823160e01b815230600482015291906001600160a01b0316602083602481845afa92831561154b5785936115eb575b50600c546001600160a01b031690808203611593575060405190611287606083611046565b6002825260403660208401376112a782306112a182611157565b5261117a565b525b60018060a01b03600b5460081c1661025842019182421161157f57813b1561157b57918691604051938492635c11d79560e01b845260a4840187600486015285602486015260a060448601528251809152602060c48601930190865b818110611556575050508380928692306064840152608483015203925af1801561154b57611530575b509061133e6024926011546110f4565b601155600d546040516370a0823160e01b81523060048201529260209184919082906001600160a01b03165afa80156115255784906114f1575b61138292506110f4565b80156114ec576004546008549091906001600160a01b0316806114c8575b506005546001600160a01b0316845260066020526040842054828111156114b7575b5030845260066020526040842054828111156114a6575b508380526006602052604084205482811115611495575b50600e546001600160a01b031680611471575b5081158015611414575b5050509050565b64e8d4a51000820291820464e8d4a510000361145d576114495761143d92935004601254611117565b6012558038808061140d565b634e487b7160e01b84526012600452602484fd5b634e487b7160e01b85526011600452602485fd5b8452600660205260408420548281116114035761148e91926110f4565b9038611403565b61149f91926110f4565b90386113f0565b6114b091926110f4565b90386113d9565b6114c191926110f4565b90386113c2565b8452600660205260408420548281116113a0576114e591926110f4565b90386113a0565b509050565b506020823d60201161151d575b8161150b60209383611046565b810103126101ea576113829151611378565b3d91506114fe565b6040513d86823e3d90fd5b84611542602494939661133e93611046565b9491925061132e565b6040513d87823e3d90fd5b82516001600160a01b031685528c975088965060209485019490920191600101611305565b8680fd5b634e487b7160e01b87526011600452602487fd5b6040516115a1608082611046565b6003815260603660208301378092306115b983611157565b526115c38261117a565b528051600210156115d757606001526112a9565b634e487b7160e01b87526032600452602487fd5b9092506020813d60201161161b575b8161160760209383611046565b8101031261161757519138611262565b8480fd5b3d91506115fa565b61163b9060203d6020116103195761030b8183611046565b611229565b50509050565b9150386111e1565b6310ee918760e01b8352600483fd5b5061ffff600a5460d81c16156111be565b50600881901c6001600160a01b0316156111b7565b5060ff600a5460a01c16156111b0565b6024356001600160a01b03811681036101ea5790565b6004356001600160a01b03811681036101ea5790565b6044356001600160a01b03811681036101ea5790565b610144356001600160a01b03811681036101ea5790565b610164356001600160a01b03811681036101ea5790565b610184356001600160a01b03811681036101ea5790565b60643561ffff811681036101ea5790565b60843561ffff811681036101ea5790565b60a43561ffff811681036101ea5790565b60c43561ffff811681036101ea5790565b60e43561ffff811681036101ea5790565b6101243580151581036101ea5790565b9160018060a01b0383168060005260066020528160406000205410611aba576117a88385611be7565b8015611ab2575b611a6b576117be828486611c39565b6000600a54928360f81c80611a5b575b611a3e575b6117dd82826110f4565b9360ff600b54169081611a2f575b81611a1e575b50611a07575b82600052600660205260406000209081540390558061189c575b50600080516020611e6b833981519152602060018060a01b0385169384600052600682526040600020611845828254611117565b9055604051908152a360ff600b54168061188d575b8061187b575b611868575050565b61187461187992611acb565b611acb565b565b5061ffff600a5460d81c161515611860565b5060ff600a5460a01c1661185a565b600a54826127106118b461ffff8460b81c168561118a565b0492836118f96127106118ce61ffff8760c81c168561118a565b04926118f4846118f46127106118eb61ffff8b60d81c168661118a565b04998a946110f4565b6110f4565b93816119b5575b505080158015906119ac575b611965575b50505080156118115761195c903060005260066020526040600020611937828254611117565b905560405181815283600080516020611e6b83398151915260203093a3601154611117565b60115538611811565b602061198361dead94600080516020611e6b83398151915293611117565b8460005260068252604060002061199b828254611117565b9055604051908152a3388281611911565b5082151561190c565b60018060a01b0316600052600660205260406000206119d5828254611117565b9055600a546040519182526001600160a01b0316908390600080516020611e6b83398151915290602090a33880611900565b611a1086611acb565b611a1985611acb565b6117f7565b61ffff915060d81c161515386117f1565b905060ff8160a01c16906117eb565b9050612710611a5461ffff8560a81c168361118a565b04906117d3565b5061ffff8460a81c1615156117ce565b8060005260066020526040600020828154039055600080516020611e6b833981519152602060018060a01b0385169384600052600682526040600020611845828254611117565b5081156117af565b631e9acf1760e31b60005260046000fd5b6001600160a01b038116908115611baf5760ff600b5416158015611bd7575b8015611bc4575b8015611bb3575b611baf57611b0590611d7c565b611b8e5780600052600660205264e8d4a51000611b5160406000205482611b2e6012548361118a565b04846000526013602052604060002054808211611b63575b50506012549061118a565b04906000526013602052604060002055565b611b6c916110f4565b846000526014602052611b856040600020918254611117565b90553880611b46565b80600052600660205264e8d4a51000611b516040600020546012549061118a565b5050565b5061ffff600a5460d81c1615611af8565b50600d546001600160a01b031615611af1565b5060ff600a5460a01c1615611aea565b60ff600a5460a01c1615611c32576005546001600160a01b0390811691168114918215611c1f575b5050611c1a57600090565b600190565b6001600160a01b03161490503880611c0f565b5050600190565b9160ff600a5460a01c1680611d71575b80611d66575b15611d61576004546010549361ffff851694612710611c8261ffff82611c758a8861118a565b049360101c16809561118a565b0495611d03575b506008546001600160a01b039182169116149081611cf9575b5080611ce9575b611cb257505050565b611cd19160018060a01b03166000526006602052604060002054611117565b11611cd857565b6311421d1360e01b60005260046000fd5b50611cf382611dd2565b15611ca9565b9050151538611ca2565b6008546001600160a01b03908116908316811480611d58575b611d3d576001600160a01b038616149081611d4e575b50611d3d5738611c89565b630144f4a360e51b60005260046000fd5b9050831138611d32565b50818511611d1c565b505050565b50600f544210611c4f565b50600f541515611c49565b6001600160a01b03168015611dcc576005546001600160a01b03168114611dcc576008546001600160a01b03168114611dcc57308114611dcc57600e546001600160a01b031614611c1a57600090565b50600190565b6001600160a01b031680158015611e56575b8015611e42575b8015611e39575b611dcc5761dead8114611dcc57600a546001600160a01b03168114611dcc57600e546001600160a01b03168114611dcc576009546001600160a01b031614611c1a57600090565b50308114611df2565b506008546001600160a01b03168114611deb565b506005546001600160a01b03168114611de456feddf252ad1be2c89b69c2b068fc378daa952ba7f163c4a11628f55a4df523b3efa164736f6c634300081a000aa164736f6c634300081a000a",
  "linkReferences": {},
  "deployedLinkReferences": {}
}