{
  "_format": "hh-sol-artifact-1",
  "contractName": "TotaVaultLocked",
  "sourceName": "contracts/TotaVaultLocked.sol",
  "abi": [
    {
      "anonymous": false,
      "inputs": [
        {
          "indexed": true,
          "internalType": "address",
          "name": "user",
          "type": "address"
        },
        {
          "indexed": true,
          "internalType": "address",
          "name": "token",
          "type": "address"
        },
        {
          "indexed": true,
          "internalType": "uint256",
          "name": "lockId",
          "type": "uint256"
        },
        {
          "indexed": false,
          "internalType": "uint256",
          "name": "amount",
          "type": "uint256"
        },
        {
          "indexed": false,
          "internalType": "uint256",
          "name": "unlockAt",
          "type": "uint256"
        }
      ],
      "name": "Locked",
      "type": "event"
    },
    {
      "anonymous": false,
      "inputs": [
        {
          "indexed": true,
          "internalType": "address",
          "name": "user",
          "type": "address"
        },
        {
          "indexed": true,
          "internalType": "address",
          "name": "token",
          "type": "address"
        },
        {
          "indexed": true,
          "internalType": "uint256",
          "name": "lockId",
          "type": "uint256"
        },
        {
          "indexed": false,
          "internalType": "uint256",
          "name": "amount",
          "type": "uint256"
        }
      ],
      "name": "Withdrawn",
      "type": "event"
    },
    {
      "inputs": [
        {
          "internalType": "address",
          "name": "token",
          "type": "address"
        },
        {
          "internalType": "uint256",
          "name": "amount",
          "type": "uint256"
        },
        {
          "internalType": "uint256",
          "name": "durationSeconds",
          "type": "uint256"
        }
      ],
      "name": "deposit",
      "outputs": [],
      "stateMutability": "nonpayable",
      "type": "function"
    },
    {
      "inputs": [
        {
          "internalType": "address",
          "name": "user",
          "type": "address"
        },
        {
          "internalType": "address",
          "name": "token",
          "type": "address"
        }
      ],
      "name": "lockCount",
      "outputs": [
        {
          "internalType": "uint256",
          "name": "",
          "type": "uint256"
        }
      ],
      "stateMutability": "view",
      "type": "function"
    },
    {
      "inputs": [
        {
          "internalType": "address",
          "name": "user",
          "type": "address"
        },
        {
          "internalType": "address",
          "name": "token",
          "type": "address"
        },
        {
          "internalType": "uint256",
          "name": "lockId",
          "type": "uint256"
        }
      ],
      "name": "lockInfo",
      "outputs": [
        {
          "internalType": "uint256",
          "name": "amount",
          "type": "uint256"
        },
        {
          "internalType": "uint256",
          "name": "unlockAt",
          "type": "uint256"
        },
        {
          "internalType": "bool",
          "name": "withdrawn",
          "type": "bool"
        }
      ],
      "stateMutability": "view",
      "type": "function"
    },
    {
      "inputs": [
        {
          "internalType": "address",
          "name": "token",
          "type": "address"
        },
        {
          "internalType": "uint256",
          "name": "lockId",
          "type": "uint256"
        }
      ],
      "name": "withdraw",
      "outputs": [],
      "stateMutability": "nonpayable",
      "type": "function"
    }
  ],
  "bytecode": "0x608080604052346015576105f4908161001b8239f35b600080fdfe6080604052600436101561001257600080fd5b60003560e01c80630910a21f146104cf5780630efe6a8b14610271578063f3fef3a31461009c5763fba2ffce1461004857600080fd5b346100975760403660031901126100975761006161054e565b610069610564565b6001600160a01b03918216600090815260208181526040808320949093168252928352819020549051908152f35b600080fd5b34610097576040366003190112610097576100b561054e565b60243590336000526000602052604060002060018060a01b0382166000526020526100e482604060002061057a565b5090600282019182549060ff821661024657805493841561021b57600182015442106101ed57600160009360ff19161790555560018060a01b03169060405163a9059cbb60e01b81523360048201528160248201526020816044816000875af19081156101e1576000916101b2575b5015610187576040519081527f91fb9d98b786c57d74c099ccd2beca1739e9f6a81fb49001ca465c4b7591bbe260203392a4005b606460405162461bcd60e51b81526020600482015260046024820152633c3332b960e11b6044820152fd5b6101d4915060203d6020116101da575b6101cc81836105ac565b8101906105cf565b84610153565b503d6101c2565b6040513d6000823e3d90fd5b60405162461bcd60e51b81526020600482015260066024820152651b1bd8dad95960d21b6044820152606490fd5b606460405162461bcd60e51b81526020600482015260046024820152636e6f6e6560e01b6044820152fd5b606460405162461bcd60e51b8152602060048201526004602482015263646f6e6560e01b6044820152fd5b346100975760603660031901126100975761028a61054e565b602435906001600160a01b031660443581156104a257821561047757801561044c576040516323b872dd60e01b8152336004820152306024820152604481018490526020816064816000875af19081156101e15760009161042d575b5015610403574201918242116103c157336000526000602052604080600020600090848252602052206040516060810181811060018060401b038211176103ed5760405282815260208101908582526040810191600083528354600160401b8110156103ed5780600161035c920186558561057a565b9190916103d757600292518255516001820155019051151560ff80198354169116179055549260001984019384116103c15760405191825260208201527fc392e99d431032ac14a872985e1784cd90533e27608253c002a198d8e6358ed960403392a4005b634e487b7160e01b600052601160045260246000fd5b634e487b7160e01b600052600060045260246000fd5b634e487b7160e01b600052604160045260246000fd5b60405162461bcd60e51b81526020600482015260026024820152613a3360f11b6044820152606490fd5b610446915060203d6020116101da576101cc81836105ac565b846102e6565b60405162461bcd60e51b8152602060048201526003602482015262323ab960e91b6044820152606490fd5b60405162461bcd60e51b8152602060048201526003602482015262185b5d60ea1b6044820152606490fd5b60405162461bcd60e51b81526020600482015260056024820152643a37b5b2b760d91b6044820152606490fd5b34610097576060366003190112610097576104e861054e565b6104f0610564565b9060018060a01b0316600052600060205260406000209060018060a01b0316600052602052606061052860406000206044359061057a565b5080549060ff600260018301549201541690604051928352602083015215156040820152f35b600435906001600160a01b038216820361009757565b602435906001600160a01b038216820361009757565b8054821015610596576000526003602060002091020190600090565b634e487b7160e01b600052603260045260246000fd5b601f909101601f19168101906001600160401b038211908210176103ed57604052565b9081602091031261009757518015158103610097579056fea164736f6c634300081a000a",
  "linkReferences": {},
  "deployedLinkReferences": {}
}