{
  "_format": "hh-sol-artifact-1",
  "contractName": "BurnAgent",
  "sourceName": "contracts/burnAgent.sol",
  "abi": [
    {
      "inputs": [
        {
          "internalType": "address",
          "name": "_router",
          "type": "address"
        }
      ],
      "stateMutability": "nonpayable",
      "type": "constructor"
    },
    {
      "anonymous": false,
      "inputs": [
        {
          "indexed": false,
          "internalType": "uint256",
          "name": "ethIn",
          "type": "uint256"
        }
      ],
      "name": "BurnExecuted",
      "type": "event"
    },
    {
      "anonymous": false,
      "inputs": [
        {
          "indexed": false,
          "internalType": "address",
          "name": "newToken",
          "type": "address"
        }
      ],
      "name": "PlatformTokenUpdated",
      "type": "event"
    },
    {
      "inputs": [],
      "name": "WETH",
      "outputs": [
        {
          "internalType": "address",
          "name": "",
          "type": "address"
        }
      ],
      "stateMutability": "view",
      "type": "function"
    },
    {
      "inputs": [],
      "name": "handle",
      "outputs": [],
      "stateMutability": "payable",
      "type": "function"
    },
    {
      "inputs": [],
      "name": "owner",
      "outputs": [
        {
          "internalType": "address",
          "name": "",
          "type": "address"
        }
      ],
      "stateMutability": "view",
      "type": "function"
    },
    {
      "inputs": [],
      "name": "platformToken",
      "outputs": [
        {
          "internalType": "address",
          "name": "",
          "type": "address"
        }
      ],
      "stateMutability": "view",
      "type": "function"
    },
    {
      "inputs": [],
      "name": "rescueETH",
      "outputs": [],
      "stateMutability": "nonpayable",
      "type": "function"
    },
    {
      "inputs": [
        {
          "internalType": "address",
          "name": "token",
          "type": "address"
        },
        {
          "internalType": "uint256",
          "name": "amount",
          "type": "uint256"
        }
      ],
      "name": "rescueTokens",
      "outputs": [],
      "stateMutability": "nonpayable",
      "type": "function"
    },
    {
      "inputs": [],
      "name": "router",
      "outputs": [
        {
          "internalType": "contract IUniswapV2Router02",
          "name": "",
          "type": "address"
        }
      ],
      "stateMutability": "view",
      "type": "function"
    },
    {
      "inputs": [
        {
          "internalType": "address",
          "name": "_newToken",
          "type": "address"
        }
      ],
      "name": "setPlatformToken",
      "outputs": [],
      "stateMutability": "nonpayable",
      "type": "function"
    },
    {
      "stateMutability": "payable",
      "type": "receive"
    }
  ],
  "bytecode": "0x60c0806040523461012c5761003361081f9182380380936100208284610131565b82396001600160a01b039281019061016a565b1680156100e757600080546001600160a01b0319163317905560808190526040516315ab88c960e31b815290602090829060049082905afa9081156100db576000916100ac575b5060a052604051610695908161018a823960805181818160af01526104e0015260a05181818161011d01526104a50152f35b6100ce915060203d6020116100d4575b6100c68183610131565b81019061016a565b3861007a565b503d6100bc565b6040513d6000823e3d90fd5b60405162461bcd60e51b815260206004820152601660248201527f496e76616c696420726f757465722061646472657373000000000000000000006044820152606490fd5b600080fd5b601f909101601f19168101906001600160401b0382119082101761015457604052565b634e487b7160e01b600052604160045260246000fd5b9081602091031261012c57516001600160a01b038116810361012c579056fe60806040526004361015610023575b361561001957600080fd5b610021610465565b005b60003560e01c80630255a03b1461032c57806320800a00146102b457806357376198146101755780638da5cb5b1461014c578063ad5c464814610107578063d1b812cd146100de578063f887ea40146100995763fd0da0990361000e57600036600319011261009457610021610465565b600080fd5b34610094576000366003190112610094576040517f00000000000000000000000000000000000000000000000000000000000000006001600160a01b03168152602090f35b34610094576000366003190112610094576001546040516001600160a01b039091168152602090f35b34610094576000366003190112610094576040517f00000000000000000000000000000000000000000000000000000000000000006001600160a01b03168152602090f35b34610094576000366003190112610094576000546040516001600160a01b039091168152602090f35b346100945760403660031901126100945761018e6103de565b600054602435916001600160a01b03909116906101ac3383146103f4565b6001600160a01b03169182156102775780156102335760446020926000604051958694859363a9059cbb60e01b8552600485015260248401525af18015610227576101f357005b6020813d60201161021f575b8161020c6020938361042c565b8101031261009457518015150361009457005b3d91506101ff565b6040513d6000823e3d90fd5b606460405162461bcd60e51b815260206004820152602060248201527f416d6f756e74206d7573742062652067726561746572207468616e207a65726f6044820152fd5b60405162461bcd60e51b8152602060048201526015602482015274496e76616c696420746f6b656e206164647265737360581b6044820152606490fd5b34610094576000366003190112610094576000546001600160a01b03166102dc3382146103f4565b479081156102f4576000808093819382f11561022757005b60405162461bcd60e51b815260206004820152601060248201526f4e6f2045544820746f2072657363756560801b6044820152606490fd5b34610094576020366003190112610094576103456103de565b61035a60018060a01b036000541633146103f4565b6001600160a01b031680156103a957600180546001600160a01b031916821790556040519081527f0135bac2d3f9180fa839de36f3b78d0ee5ffb6e951f320577eb42a392a5ff4ba90602090a1005b60405162461bcd60e51b815260206004820152600d60248201526c24b73b30b634b2103a37b5b2b760991b6044820152606490fd5b600435906001600160a01b038216820361009457565b156103fb57565b60405162461bcd60e51b81526020600482015260096024820152682737ba1037bbb732b960b91b6044820152606490fd5b601f909101601f19168101906001600160401b0382119082101761044f57604052565b634e487b7160e01b600052604160045260246000fd5b60003415610655576001546001600160a01b03168015610617576040519061048e60608361042c565b6002825260208201906040368337825115610603577f00000000000000000000000000000000000000000000000000000000000000006001600160a01b031682528251600110156106035760408301527f00000000000000000000000000000000000000000000000000000000000000006001600160a01b0316904261025881019081106105ef57823b156105eb5760405163b6f9de9560e01b8152600481018690526080602482015293516084850181905285938593909260a4850192909190865b8181106105c6575050508391829161dead60448401526064830152039134905af180156105bb576105ab575b50507f605c5b4f4308c1e42a024db1dc59389917ccc2058e83a1f6b672d8d60d12d7e16020604051348152a1565b816105b59161042c565b3861057d565b6040513d84823e3d90fd5b82516001600160a01b0316855289975088965060209485019490920191600101610551565b8480fd5b634e487b7160e01b85526011600452602485fd5b634e487b7160e01b84526032600452602484fd5b60405162461bcd60e51b8152602060048201526016602482015275141b185d199bdc9b481d1bdad95b881b9bdd081cd95d60521b6044820152606490fd5b60405162461bcd60e51b815260206004820152600b60248201526a139bc8115512081cd95b9d60aa1b6044820152606490fdfea164736f6c634300081a000a",
  "linkReferences": {},
  "deployedLinkReferences": {}
}